{
  "_format": "hh-sol-artifact-1",
  "contractName": "TruthNFT",
  "sourceName": "contracts/TruthNFT.sol",
  "abi": [
    {
      "inputs": [
        {
          "internalType": "address",
          "name": "addrManager_",
          "type": "address"
        }
      ],
      "stateMutability": "nonpayable",
      "type": "constructor"
    },
    {
      "inputs": [],
      "name": "AmountIsZero",
      "type": "error"
    },
    {
      "inputs": [],
      "name": "AuctionOver",
      "type": "error"
    },
    {
      "inputs": [],
      "name": "AvailableBuyer",
      "type": "error"
    },
    {
      "inputs": [],
      "name": "BlackTokenIdNotExist",
      "type": "error"
    },
    {
      "inputs": [],
      "name": "BoxAlreadyInBlacklist",
      "type": "error"
    },
    {
      "inputs": [],
      "name": "BoxNotExists",
      "type": "error"
    },
    {
      "inputs": [],
      "name": "DeadlineIsOver",
      "type": "error"
    },
    {
      "inputs": [],
      "name": "DeadlineNotOver",
      "type": "error"
    },
    {
      "inputs": [
        {
          "internalType": "address",
          "name": "sender",
          "type": "address"
        },
        {
          "internalType": "uint256",
          "name": "tokenId",
          "type": "uint256"
        },
        {
          "internalType": "address",
          "name": "owner",
          "type": "address"
        }
      ],
      "name": "ERC721IncorrectOwner",
      "type": "error"
    },
    {
      "inputs": [
        {
          "internalType": "address",
          "name": "operator",
          "type": "address"
        },
        {
          "internalType": "uint256",
          "name": "tokenId",
          "type": "uint256"
        }
      ],
      "name": "ERC721InsufficientApproval",
      "type": "error"
    },
    {
      "inputs": [
        {
          "internalType": "address",
          "name": "approver",
          "type": "address"
        }
      ],
      "name": "ERC721InvalidApprover",
      "type": "error"
    },
    {
      "inputs": [
        {
          "internalType": "address",
          "name": "operator",
          "type": "address"
        }
      ],
      "name": "ERC721InvalidOperator",
      "type": "error"
    },
    {
      "inputs": [
        {
          "internalType": "address",
          "name": "owner",
          "type": "address"
        }
      ],
      "name": "ERC721InvalidOwner",
      "type": "error"
    },
    {
      "inputs": [
        {
          "internalType": "address",
          "name": "receiver",
          "type": "address"
        }
      ],
      "name": "ERC721InvalidReceiver",
      "type": "error"
    },
    {
      "inputs": [
        {
          "internalType": "address",
          "name": "sender",
          "type": "address"
        }
      ],
      "name": "ERC721InvalidSender",
      "type": "error"
    },
    {
      "inputs": [
        {
          "internalType": "uint256",
          "name": "tokenId",
          "type": "uint256"
        }
      ],
      "name": "ERC721NonexistentToken",
      "type": "error"
    },
    {
      "inputs": [],
      "name": "EmptyBoxInfoCID",
      "type": "error"
    },
    {
      "inputs": [],
      "name": "EmptyPrice",
      "type": "error"
    },
    {
      "inputs": [],
      "name": "EmptyTokenCID",
      "type": "error"
    },
    {
      "inputs": [],
      "name": "EmptyTokenURI",
      "type": "error"
    },
    {
      "inputs": [],
      "name": "InBlacklist",
      "type": "error"
    },
    {
      "inputs": [],
      "name": "InvalidBoxId",
      "type": "error"
    },
    {
      "inputs": [],
      "name": "InvalidCaller",
      "type": "error"
    },
    {
      "inputs": [],
      "name": "InvalidContractAddress",
      "type": "error"
    },
    {
      "inputs": [],
      "name": "InvalidContractCaller",
      "type": "error"
    },
    {
      "inputs": [],
      "name": "InvalidDeadline",
      "type": "error"
    },
    {
      "inputs": [],
      "name": "InvalidERC20Interface",
      "type": "error"
    },
    {
      "inputs": [],
      "name": "InvalidImplementation",
      "type": "error"
    },
    {
      "inputs": [],
      "name": "InvalidPeriod",
      "type": "error"
    },
    {
      "inputs": [],
      "name": "InvalidRate",
      "type": "error"
    },
    {
      "inputs": [],
      "name": "InvalidStatus",
      "type": "error"
    },
    {
      "inputs": [],
      "name": "NotAdmin",
      "type": "error"
    },
    {
      "inputs": [],
      "name": "NotAdminOrDAO",
      "type": "error"
    },
    {
      "inputs": [],
      "name": "NotBuyer",
      "type": "error"
    },
    {
      "inputs": [],
      "name": "NotDAO",
      "type": "error"
    },
    {
      "inputs": [],
      "name": "NotInSecrecy",
      "type": "error"
    },
    {
      "inputs": [],
      "name": "NotMinter",
      "type": "error"
    },
    {
      "inputs": [],
      "name": "PublicTimeNotEnd",
      "type": "error"
    },
    {
      "inputs": [],
      "name": "TokenAlreadyExists",
      "type": "error"
    },
    {
      "inputs": [],
      "name": "TokenNotExists",
      "type": "error"
    },
    {
      "inputs": [],
      "name": "TokenNotSupported",
      "type": "error"
    },
    {
      "inputs": [],
      "name": "ZeroAddress",
      "type": "error"
    },
    {
      "anonymous": false,
      "inputs": [
        {
          "indexed": true,
          "internalType": "address",
          "name": "owner",
          "type": "address"
        },
        {
          "indexed": true,
          "internalType": "address",
          "name": "approved",
          "type": "address"
        },
        {
          "indexed": true,
          "internalType": "uint256",
          "name": "tokenId",
          "type": "uint256"
        }
      ],
      "name": "Approval",
      "type": "event"
    },
    {
      "anonymous": false,
      "inputs": [
        {
          "indexed": true,
          "internalType": "address",
          "name": "owner",
          "type": "address"
        },
        {
          "indexed": true,
          "internalType": "address",
          "name": "operator",
          "type": "address"
        },
        {
          "indexed": false,
          "internalType": "bool",
          "name": "approved",
          "type": "bool"
        }
      ],
      "name": "ApprovalForAll",
      "type": "event"
    },
    {
      "anonymous": false,
      "inputs": [
        {
          "indexed": true,
          "internalType": "address",
          "name": "from",
          "type": "address"
        },
        {
          "indexed": true,
          "internalType": "address",
          "name": "to",
          "type": "address"
        },
        {
          "indexed": true,
          "internalType": "uint256",
          "name": "tokenId",
          "type": "uint256"
        }
      ],
      "name": "Transfer",
      "type": "event"
    },
    {
      "inputs": [],
      "name": "admin",
      "outputs": [
        {
          "internalType": "address",
          "name": "",
          "type": "address"
        }
      ],
      "stateMutability": "view",
      "type": "function"
    },
    {
      "inputs": [
        {
          "internalType": "address",
          "name": "to",
          "type": "address"
        },
        {
          "internalType": "uint256",
          "name": "tokenId",
          "type": "uint256"
        }
      ],
      "name": "approve",
      "outputs": [],
      "stateMutability": "nonpayable",
      "type": "function"
    },
    {
      "inputs": [
        {
          "internalType": "address",
          "name": "owner",
          "type": "address"
        }
      ],
      "name": "balanceOf",
      "outputs": [
        {
          "internalType": "uint256",
          "name": "",
          "type": "uint256"
        }
      ],
      "stateMutability": "view",
      "type": "function"
    },
    {
      "inputs": [
        {
          "internalType": "uint256",
          "name": "tokenId",
          "type": "uint256"
        }
      ],
      "name": "burn",
      "outputs": [],
      "stateMutability": "nonpayable",
      "type": "function"
    },
    {
      "inputs": [
        {
          "internalType": "uint256",
          "name": "tokenId",
          "type": "uint256"
        }
      ],
      "name": "getApproved",
      "outputs": [
        {
          "internalType": "address",
          "name": "",
          "type": "address"
        }
      ],
      "stateMutability": "view",
      "type": "function"
    },
    {
      "inputs": [],
      "name": "implementation",
      "outputs": [
        {
          "internalType": "address",
          "name": "",
          "type": "address"
        }
      ],
      "stateMutability": "view",
      "type": "function"
    },
    {
      "inputs": [
        {
          "internalType": "address",
          "name": "owner",
          "type": "address"
        },
        {
          "internalType": "address",
          "name": "operator",
          "type": "address"
        }
      ],
      "name": "isApprovedForAll",
      "outputs": [
        {
          "internalType": "bool",
          "name": "",
          "type": "bool"
        }
      ],
      "stateMutability": "view",
      "type": "function"
    },
    {
      "inputs": [
        {
          "internalType": "uint256",
          "name": "tokenId",
          "type": "uint256"
        }
      ],
      "name": "isExecuteAble",
      "outputs": [
        {
          "internalType": "bool",
          "name": "",
          "type": "bool"
        }
      ],
      "stateMutability": "view",
      "type": "function"
    },
    {
      "inputs": [
        {
          "internalType": "uint256",
          "name": "tokenId_",
          "type": "uint256"
        },
        {
          "internalType": "address",
          "name": "minter_",
          "type": "address"
        },
        {
          "internalType": "string",
          "name": "tokenCID_",
          "type": "string"
        }
      ],
      "name": "mint",
      "outputs": [],
      "stateMutability": "nonpayable",
      "type": "function"
    },
    {
      "inputs": [],
      "name": "name",
      "outputs": [
        {
          "internalType": "string",
          "name": "",
          "type": "string"
        }
      ],
      "stateMutability": "view",
      "type": "function"
    },
    {
      "inputs": [
        {
          "internalType": "uint256",
          "name": "tokenId",
          "type": "uint256"
        }
      ],
      "name": "ownerOf",
      "outputs": [
        {
          "internalType": "address",
          "name": "",
          "type": "address"
        }
      ],
      "stateMutability": "view",
      "type": "function"
    },
    {
      "inputs": [
        {
          "internalType": "address",
          "name": "from",
          "type": "address"
        },
        {
          "internalType": "address",
          "name": "to",
          "type": "address"
        },
        {
          "internalType": "uint256",
          "name": "tokenId",
          "type": "uint256"
        }
      ],
      "name": "safeTransferFrom",
      "outputs": [],
      "stateMutability": "nonpayable",
      "type": "function"
    },
    {
      "inputs": [
        {
          "internalType": "address",
          "name": "from",
          "type": "address"
        },
        {
          "internalType": "address",
          "name": "to",
          "type": "address"
        },
        {
          "internalType": "uint256",
          "name": "tokenId",
          "type": "uint256"
        },
        {
          "internalType": "bytes",
          "name": "data",
          "type": "bytes"
        }
      ],
      "name": "safeTransferFrom",
      "outputs": [],
      "stateMutability": "nonpayable",
      "type": "function"
    },
    {
      "inputs": [],
      "name": "setAddress",
      "outputs": [],
      "stateMutability": "nonpayable",
      "type": "function"
    },
    {
      "inputs": [
        {
          "internalType": "address",
          "name": "addrManager_",
          "type": "address"
        }
      ],
      "name": "setAddressManager",
      "outputs": [],
      "stateMutability": "nonpayable",
      "type": "function"
    },
    {
      "inputs": [
        {
          "internalType": "address",
          "name": "newAdmin_",
          "type": "address"
        }
      ],
      "name": "setAdmin",
      "outputs": [],
      "stateMutability": "nonpayable",
      "type": "function"
    },
    {
      "inputs": [
        {
          "internalType": "address",
          "name": "operator",
          "type": "address"
        },
        {
          "internalType": "bool",
          "name": "approved",
          "type": "bool"
        }
      ],
      "name": "setApprovalForAll",
      "outputs": [],
      "stateMutability": "nonpayable",
      "type": "function"
    },
    {
      "inputs": [
        {
          "internalType": "string",
          "name": "network_",
          "type": "string"
        },
        {
          "internalType": "string",
          "name": "uri_",
          "type": "string"
        }
      ],
      "name": "setNetwork",
      "outputs": [],
      "stateMutability": "nonpayable",
      "type": "function"
    },
    {
      "inputs": [
        {
          "internalType": "bytes4",
          "name": "interfaceId",
          "type": "bytes4"
        }
      ],
      "name": "supportsInterface",
      "outputs": [
        {
          "internalType": "bool",
          "name": "",
          "type": "bool"
        }
      ],
      "stateMutability": "view",
      "type": "function"
    },
    {
      "inputs": [],
      "name": "symbol",
      "outputs": [
        {
          "internalType": "string",
          "name": "",
          "type": "string"
        }
      ],
      "stateMutability": "view",
      "type": "function"
    },
    {
      "inputs": [
        {
          "internalType": "uint256",
          "name": "tokenId",
          "type": "uint256"
        }
      ],
      "name": "tokenURI",
      "outputs": [
        {
          "internalType": "string",
          "name": "",
          "type": "string"
        }
      ],
      "stateMutability": "view",
      "type": "function"
    },
    {
      "inputs": [],
      "name": "totalSupply",
      "outputs": [
        {
          "internalType": "uint256",
          "name": "",
          "type": "uint256"
        }
      ],
      "stateMutability": "view",
      "type": "function"
    },
    {
      "inputs": [
        {
          "internalType": "address",
          "name": "from",
          "type": "address"
        },
        {
          "internalType": "address",
          "name": "to",
          "type": "address"
        },
        {
          "internalType": "uint256",
          "name": "tokenId",
          "type": "uint256"
        }
      ],
      "name": "transferFrom",
      "outputs": [],
      "stateMutability": "nonpayable",
      "type": "function"
    },
    {
      "inputs": [
        {
          "internalType": "address",
          "name": "newImplementation_",
          "type": "address"
        }
      ],
      "name": "upgrade",
      "outputs": [],
      "stateMutability": "nonpayable",
      "type": "function"
    }
  ],
  "bytecode": "0x6080346200038057601f601f196001600160401b0362001df03881900384810184168601838111878210176200036a578692829160405283396020958691810103126200038057516001600160a01b038116939084900362000380576200006562000385565b92600d84526c151c9d5d1a08109bde08139195609a1b868501526200008962000385565b9060038252622a212760e91b878301528451908482116200036a576000918254966001978881811c911680156200035f575b8b8210146200034b57908187849311620002f8575b508a908783116001146200029557859262000289575b5050600019600383901b1c191690871b1782555b8251948511620002755785548681811c911680156200026a575b8982101462000256578481116200020e575b5087938511600114620001a957508394959650926200019d575b5050600019600383901b1c191690821b1790555b60018060a01b03197fb53127684a568b3173ae13b9f8a6016e243e63b6e8ee1178d6a717850b5d610333828254161790556006541617600655604051611a4a9081620003a68239f35b01519050388062000140565b8493929193169685845280842093905b888210620001f65750508385969710620001dc575b505050811b01905562000154565b015160001960f88460031b161c19169055388080620001ce565b808785968294968601518155019501930190620001b9565b8683528883208580880160051c8201928b89106200024c575b0160051c019087905b8281106200024057505062000126565b84815501879062000230565b9250819262000227565b634e487b7160e01b83526022600452602483fd5b90607f169062000114565b634e487b7160e01b82526041600452602482fd5b015190503880620000e6565b90848a9416918680528c8720928d88905b828210620002e05750508411620002c6575b505050811b018255620000fa565b015160001960f88460031b161c19169055388080620002b8565b8385015186558d979095019493840193018e620002a6565b9091508480528a85208780850160051c8201928d861062000341575b918b91869594930160051c01915b82811062000332575050620000d0565b8781558594508b910162000322565b9250819262000314565b634e487b7160e01b85526022600452602485fd5b90607f1690620000bb565b634e487b7160e01b600052604160045260246000fd5b600080fd5b60408051919082016001600160401b038111838210176200036a5760405256fe608060408181526004918236101561001657600080fd5b600092833560e01c91826301ffc9a714611374575081630652b57a1461131b57816306fdde031461126a578163081812fc1461122e5781630900f01014611193578163095ea7b31461109957816318160ddd1461107a57816323b872dd146110625781633c408bf11461103957816342842e0e14610feb57816342966c6814610ec95781634d68728d14610bb05781635c60da1b14610b685781636352211e14610b37578163704b6c0214610abd57816370a0823114610a6857816395d89b4114610989578163a22cb465146108e7578163b88d4fde1461085d578163c87b56dd1461058a578163e656927514610485578163e67e402c146101b257508063e985e9c5146101655763f851a4401461012d57600080fd5b346101615781600319360112610161576000805160206119f58339815191525490516001600160a01b039091168152602090f35b5080fd5b503461016157806003193601126101615760ff816020936101846113df565b61018c6113fa565b6001600160a01b0391821683526005875283832091168252855220549151911615158152f35b919050346104815760603660031901126104815781356101d06113fa565b67ffffffffffffffff919060443583811161047d576101f2903690870161148d565b60075491946001600160a01b0393929091908416330361046d57801561045d57848952602095600b8752878a2092821161044a579082916102358695945461150f565b601f81116103f6575b508a90601f8311600114610390578b919083610385575b50508160011b916000199060031b1c19161790555b1690811561036e5782875260028452808588205416151580610366575b610349575b82875260028452848720541660028115159485610316575b83895260038152868920805460010190558489525284872080546001600160a01b031916831790557fddf252ad1be2c89b69c2b068fc378daa952ba7f163c4a11628f55a4df523b3ef8780a461030157826001600a5401600a5580f35b9160249251916339e3563760e11b8352820152fd5b600085815260046020526040902080546001600160a01b03191690558289526003815286892080546000190190556102a4565b610352836118d7565b61028c5784516307a92f1960e51b81528690fd5b506001610287565b8451633250574960e11b8152808701889052602490fd5b013590503880610255565b838c52888c2091601f1984168d5b8b8282106103dd5750509084600195949392106103c3575b505050811b01905561026a565b0135600019600384901b60f8161c191690553880806103b6565b8484013586558a9950600190950194928301920161039e565b909192809495508b52878b20601f840160051c810191898510610440575b90601f889796959493920160051c01905b818110610432575061023e565b8c8155879650600101610425565b9091508190610414565b634e487b7160e01b8a526041895260248afd5b86516317314b6160e01b81528890fd5b865163e9606c0760e01b81528890fd5b8680fd5b8280fd5b9050346104815782600319360112610481576006546001600160a01b0391908216338114158061056f575b61056057602090845192838092636f9f44c560e01b82525afa908115610553578293508491610515575b5016908115159081610506575b506104f0575080f35b6001600160601b0360a01b600754161760075580f35b905060075416811415386104e7565b9150506020813d60201161054b575b81610531602093836114bb565b8101031261048157518181168103610481578190386104da565b3d9150610524565b50505051903d90823e3d90fd5b5082516348f5c3ed60e01b8152fd5b50826000805160206119f583398151915254163314156104b0565b91905034610481576020918260031936011261085957600754825163e0bc85c960e01b8152823581840181905292918590829060249082906001600160a01b03165afa90811561084f578691610822575b5061081457506105ea8161189c565b508352600b825280832081519380825490866106058361150f565b91828252878201956001948986821691826000146107f65750506001146107b8575b50610634925003876114bb565b835195869383916008546106478161150f565b9089868216918260001461079957505060011461073c575b50829161066f9151938491611410565b01826009549261067e8461150f565b9381811690811561071d57506001146106be575b85886106ba896106ab848a03601f1981018652856114bb565b51928284938452830190611433565b0390f35b600982527f6e1540171b6c0c960b71a7020d9f60077f6af931a8bbf590da0223dacf75c7af969594505b878483106107075750949550929350019050816106ab6106ba38610692565b87548385015296810196899550909101906106e8565b60ff19168452505050811515909102019050816106ab6106ba38610692565b8891929350600886527ff3f7a9fe364faab93b216da50a3214154f22a0a2b415b23a84c8169e8b636ee386905b82821061077f575050860101919061066f61065f565b80549882018401989098528a978a93909101908601610769565b60ff1916898201528215159092028801909101935061066f905061065f565b915050835286868085208486915b8583106107dd575050610634935082010138610627565b80919294505483858d0101520191018790848a936107c6565b60ff1916895261063495151560051b85010192503891506106279050565b825163b1cf6f0360e01b8152fd5b6108429150853d8711610848575b61083a81836114bb565b810190611884565b386105db565b503d610830565b84513d88823e3d90fd5b8380fd5b91905034610481576080366003190112610481576108796113df565b6108816113fa565b846064359467ffffffffffffffff8611610161573660238701121561016157850135946108b96108b0876114f3565b955195866114bb565b858552366024878301011161016157856108e496602460209301838801378501015260443591611733565b80f35b919050346104815780600319360112610481576109026113df565b9060243591821515809303610985576001600160a01b03169283156109705750338452600560205280842083855260205280842060ff1981541660ff8416179055519081527f17307eab39ab6107e8899845ad3d59bd9653f200f220920489ca2b5937696c3160203392a380f35b836024925191630b61174360e31b8352820152fd5b8480fd5b828434610a655780600319360112610a65578151918282600193600154946109b08661150f565b9182855260209687600182169182600014610a3e5750506001146109e2575b5050506106ba92916106ab9103856114bb565b9190869350600183527fb10e2d527612073b26eecdfd717e6a320cf44b4afac2b0732d9fcbe2b7fa0cf65b828410610a2657505050820101816106ab6106ba6109cf565b8054848a018601528895508794909301928101610a0d565b60ff19168782015293151560051b860190930193508492506106ab91506106ba90506109cf565b80fd5b828434610a65576020366003190112610a65576001600160a01b03610a8b6113df565b16928315610aa85750806020938392526003845220549051908152f35b91516322718ad960e21b815291820152602490fd5b9190503461048157602036600319011261048157610ad96113df565b6000805160206119f58339815191528054909390916001600160a01b03908184163303610b275716928315610b1a5750506001600160a01b03191617905580f35b5163d92e233d60e01b8152fd5b8451637bfa4b9f60e01b81528390fd5b828434610a65576020366003190112610a655750610b576020923561189c565b90516001600160a01b039091168152f35b5050346101615781600319360112610161577f360894a13ba1a3210667c828492db98dca3e2076cc3735a920a3ca505d382bbc5490516001600160a01b039091168152602090f35b8391503461016157826003193601126101615767ffffffffffffffff813581811161085957610be2903690840161148d565b929091602435818111610ec557610bfc903690840161148d565b6000805160206119f58339815191525491979095916001600160a01b03163303610eb65750818111610ea35780610c3460085461150f565b94601f95868111610e37575b508790868311600114610db2578892610da7575b50508160011b916000199060031b1c1916176008555b8311610d945750610c7c60095461150f565b818111610d38575b5082908211600114610cbd578293829392610cb2575b50508160011b916000199060031b1c19161760095580f35b013590508380610c9a565b601f198216937f6e1540171b6c0c960b71a7020d9f60077f6af931a8bbf590da0223dacf75c7af91845b868110610d205750836001959610610d06575b505050811b0160095580f35b0135600019600384901b60f8161c19169055838080610cfa565b90926020600181928686013581550194019101610ce7565b7f6e1540171b6c0c960b71a7020d9f60077f6af931a8bbf590da0223dacf75c7af8280850160051c82019260208610610d8b575b0160051c01905b818110610d805750610c84565b848155600101610d73565b92508192610d6c565b634e487b7160e01b845260419052602483fd5b013590508880610c54565b600889527ff3f7a9fe364faab93b216da50a3214154f22a0a2b415b23a84c8169e8b636ee3925090601f198416895b818110610e1f5750908460019594939210610e05575b505050811b01600855610c6a565b0135600019600384901b60f8161c19169055888080610df7565b91936020600181928787013581550195019201610de1565b909150600888527ff3f7a9fe364faab93b216da50a3214154f22a0a2b415b23a84c8169e8b636ee38680850160051c82019260208610610e9a575b9085949392910160051c01905b818110610e8c5750610c40565b898155849350600101610e7f565b92508192610e72565b634e487b7160e01b865260418352602486fd5b51637bfa4b9f60e01b81528390fd5b8580fd5b9190503461048157602036600319011261048157600754823591906001600160a01b039081163303610fdb578285526002602052808286205416151580610fd4575b610fb7575b8285526002602052818520541682858215928315610f83575b828252600260205284822080546001600160a01b03191690557fddf252ad1be2c89b69c2b068fc378daa952ba7f163c4a11628f55a4df523b3ef8280a4610f6e578380f35b51637e27328960e01b81529182015260249150fd5b600083815260046020526040902080546001600160a01b031916905580825260036020528482208054600019019055610f29565b610fc0836118d7565b610f105781516307a92f1960e51b81528490fd5b5084610f0b565b81516348f5c3ed60e01b81528490fd5b83833461016157610ffb36611458565b91835193602085019085821067ffffffffffffffff831117611026576108e496975052858452611733565b634e487b7160e01b875260418852602487fd5b828434610a65576020366003190112610a655750611059602092356118d7565b90519015158152f35b8334610a65576108e461107436611458565b91611549565b505034610161578160031936011261016157602090600a549051908152f35b919050346104815780600319360112610481576110b46113df565b916024356110c1816118d7565b15611184576110cf8161189c565b33151580611171575b80611148575b611132576001600160a01b039485169482918691167f8c5be1e5ebec7d5bd14f71427d1e84f3dd0314c0f7b2291e5b200ac8c7c3b9258880a48452602052822080546001600160a01b031916909117905580f35b835163a9fbf51f60e01b81523381850152602490fd5b506001600160a01b03811686526005602090815284872033885290528386205460ff16156110de565b506001600160a01b0381163314156110d8565b5090516307a92f1960e51b8152fd5b91905034610481576020366003190112610481576111af6113df565b6000805160206119f58339815191525490926001600160a01b039290918316330361122157833b156112145750507f360894a13ba1a3210667c828492db98dca3e2076cc3735a920a3ca505d382bbc91166001600160601b0360a01b82541617905580f35b5163340aafcd60e11b8152fd5b51637bfa4b9f60e01b8152fd5b905034610481576020366003190112610481579182602093356112508161189c565b50825283528190205490516001600160a01b039091168152f35b828434610a655780600319360112610a65578151918282835461128c8161150f565b9081845260209560019187600182169182600014610a3e5750506001146112c0575050506106ba92916106ab9103856114bb565b91908693508280527f290decd9548b62a8d60345a988386fc84ba6bc95484008f6362f93160ef3e5635b82841061130357505050820101816106ab6106ba6109cf565b8054848a0186015288955087949093019281016112ea565b905034610481576020366003190112610481576113366113df565b6000805160206119f5833981519152546001600160a01b03939192919084163303611221575050166001600160601b0360a01b600654161760065580f35b849134610481576020366003190112610481573563ffffffff60e01b811680910361048157602092506380ac58cd60e01b81149081156113ce575b81156113bd575b5015158152f35b6301ffc9a760e01b149050836113b6565b635b5e139f60e01b811491506113af565b600435906001600160a01b03821682036113f557565b600080fd5b602435906001600160a01b03821682036113f557565b60005b8381106114235750506000910152565b8181015183820152602001611413565b9060209161144c81518092818552858086019101611410565b601f01601f1916010190565b60609060031901126113f5576001600160a01b039060043582811681036113f5579160243590811681036113f5579060443590565b9181601f840112156113f55782359167ffffffffffffffff83116113f557602083818601950101116113f557565b90601f8019910116810190811067ffffffffffffffff8211176114dd57604052565b634e487b7160e01b600052604160045260246000fd5b67ffffffffffffffff81116114dd57601f01601f191660200190565b90600182811c9216801561153f575b602083101461152957565b634e487b7160e01b600052602260045260246000fd5b91607f169161151e565b6001600160a01b03918216929091831561171a576000928284528260209560028752604096848888205416151580611712575b6116e9575b8287526002815284888820541696879133151580611653575b509060027fddf252ad1be2c89b69c2b068fc378daa952ba7f163c4a11628f55a4df523b3ef9284611620575b858352600381528b8320805460010190558683525289812080546001600160a01b0319168517905580a416928383036115ff5750505050565b6064945051926364283d7b60e01b8452600484015260248301526044820152fd5b600087815260046020526040902080546001600160a01b0319169055848352600381528b832080546000190190556115c6565b919394509150806116a8575b1561166f5785929187913861159a565b87868861168c576024915190637e27328960e01b82526004820152fd5b604491519063177e802f60e01b82523360048301526024820152fd5b5033871480156116cd575b8061165f575085825260048152338589842054161461165f565b5086825260058152878220338352815260ff88832054166116b3565b90916116f4906118d7565b1561170157908491611581565b86516307a92f1960e51b8152600490fd5b50600161157c565b604051633250574960e11b815260006004820152602490fd5b929092611741838583611549565b833b61174e575b50505050565b604051630a85bd0160e11b8082523360048301526001600160a01b039283166024830152604482019490945260806064820152949316926020929091859061179a906084830190611433565b039483816000978189895af1869181611844575b5061180f575050503d600014611806573d6117c8816114f3565b906117d660405192836114bb565b81528093823d92013e5b8251928361180157604051633250574960e11b815260048101849052602490fd5b019050fd5b606092506117e0565b919450915063ffffffff60e01b160361182c575038808080611748565b60249060405190633250574960e11b82526004820152fd5b9091508481813d831161187d575b61185c81836114bb565b8101031261047d57516001600160e01b03198116810361047d5790386117ae565b503d611852565b908160209103126113f5575180151581036113f55790565b6000818152600260205260409020546001600160a01b03169081156118bf575090565b60249060405190637e27328960e01b82526004820152fd5b60075460405163e0bc85c960e01b8152600481018390526020926001600160a01b0390921691908381602481865afa9081156119c3576000916119d7575b506119cf578290602460405180948193632e31150760e11b835260048301525afa9182156119c35760009261198d575b50506008811015611977576005811415908161196b575b5061196657600190565b600090565b6006915014153861195c565b634e487b7160e01b600052602160045260246000fd5b81813d83116119bc575b6119a181836114bb565b810103126101615751906008821015610a6557503880611945565b503d611997565b6040513d6000823e3d90fd5b505050600090565b6119ee9150843d86116108485761083a81836114bb565b3861191556feb53127684a568b3173ae13b9f8a6016e243e63b6e8ee1178d6a717850b5d6103a26469706673582212205b5f1500ab224490fe64990678321b45aa1fcb052286ef2f96a5e99789712b3f64736f6c63430008180033",
  "linkReferences": {},
  "deployedLinkReferences": {}
}