{
  "_format": "hh-sol-artifact-1",
  "contractName": "FundManager",
  "sourceName": "contracts/FundManager.sol",
  "abi": [
    {
      "inputs": [
        {
          "internalType": "address",
          "name": "addrManager_",
          "type": "address"
        }
      ],
      "stateMutability": "nonpayable",
      "type": "constructor"
    },
    {
      "inputs": [],
      "name": "AmountIsZero",
      "type": "error"
    },
    {
      "inputs": [],
      "name": "ApprovalFailed",
      "type": "error"
    },
    {
      "inputs": [],
      "name": "AuctionOver",
      "type": "error"
    },
    {
      "inputs": [],
      "name": "AvailableBuyer",
      "type": "error"
    },
    {
      "inputs": [],
      "name": "BlackTokenIdNotExist",
      "type": "error"
    },
    {
      "inputs": [],
      "name": "BoxAlreadyInBlacklist",
      "type": "error"
    },
    {
      "inputs": [],
      "name": "BoxNotExists",
      "type": "error"
    },
    {
      "inputs": [],
      "name": "DeadlineIsOver",
      "type": "error"
    },
    {
      "inputs": [],
      "name": "DeadlineNotOver",
      "type": "error"
    },
    {
      "inputs": [],
      "name": "EmptyBoxInfoCID",
      "type": "error"
    },
    {
      "inputs": [],
      "name": "EmptyList",
      "type": "error"
    },
    {
      "inputs": [],
      "name": "EmptyPrice",
      "type": "error"
    },
    {
      "inputs": [],
      "name": "EmptyTokenCID",
      "type": "error"
    },
    {
      "inputs": [],
      "name": "EmptyTokenURI",
      "type": "error"
    },
    {
      "inputs": [],
      "name": "EnforcedPause",
      "type": "error"
    },
    {
      "inputs": [],
      "name": "InBlacklist",
      "type": "error"
    },
    {
      "inputs": [],
      "name": "InvalidBoxId",
      "type": "error"
    },
    {
      "inputs": [],
      "name": "InvalidCaller",
      "type": "error"
    },
    {
      "inputs": [],
      "name": "InvalidContractAddress",
      "type": "error"
    },
    {
      "inputs": [],
      "name": "InvalidContractCaller",
      "type": "error"
    },
    {
      "inputs": [],
      "name": "InvalidDeadline",
      "type": "error"
    },
    {
      "inputs": [],
      "name": "InvalidERC20Interface",
      "type": "error"
    },
    {
      "inputs": [],
      "name": "InvalidImplementation",
      "type": "error"
    },
    {
      "inputs": [],
      "name": "InvalidPeriod",
      "type": "error"
    },
    {
      "inputs": [],
      "name": "InvalidRate",
      "type": "error"
    },
    {
      "inputs": [],
      "name": "InvalidStatus",
      "type": "error"
    },
    {
      "inputs": [],
      "name": "NotAdmin",
      "type": "error"
    },
    {
      "inputs": [],
      "name": "NotAdminOrDAO",
      "type": "error"
    },
    {
      "inputs": [],
      "name": "NotBuyer",
      "type": "error"
    },
    {
      "inputs": [],
      "name": "NotDAO",
      "type": "error"
    },
    {
      "inputs": [],
      "name": "NotInSecrecy",
      "type": "error"
    },
    {
      "inputs": [],
      "name": "NotMinter",
      "type": "error"
    },
    {
      "inputs": [],
      "name": "PublicTimeNotEnd",
      "type": "error"
    },
    {
      "inputs": [],
      "name": "ReentrancyGuardReentrantCall",
      "type": "error"
    },
    {
      "inputs": [
        {
          "internalType": "address",
          "name": "token",
          "type": "address"
        }
      ],
      "name": "SafeERC20FailedOperation",
      "type": "error"
    },
    {
      "inputs": [],
      "name": "TokenAlreadyExists",
      "type": "error"
    },
    {
      "inputs": [],
      "name": "TokenNotExists",
      "type": "error"
    },
    {
      "inputs": [],
      "name": "TokenNotSupported",
      "type": "error"
    },
    {
      "inputs": [],
      "name": "WithdrawError",
      "type": "error"
    },
    {
      "inputs": [],
      "name": "ZeroAddress",
      "type": "error"
    },
    {
      "anonymous": false,
      "inputs": [
        {
          "indexed": false,
          "internalType": "uint256",
          "name": "boxId",
          "type": "uint256"
        },
        {
          "indexed": false,
          "internalType": "uint8",
          "name": "rate",
          "type": "uint8"
        }
      ],
      "name": "BuyerRefundRateAdded",
      "type": "event"
    },
    {
      "anonymous": false,
      "inputs": [
        {
          "indexed": false,
          "internalType": "uint256",
          "name": "boxId",
          "type": "uint256"
        },
        {
          "indexed": false,
          "internalType": "uint8",
          "name": "rate",
          "type": "uint8"
        }
      ],
      "name": "DaoFeeRateAdded",
      "type": "event"
    },
    {
      "anonymous": false,
      "inputs": [
        {
          "indexed": true,
          "internalType": "uint256",
          "name": "userId",
          "type": "uint256"
        },
        {
          "indexed": true,
          "internalType": "address",
          "name": "token",
          "type": "address"
        },
        {
          "indexed": false,
          "internalType": "uint256",
          "name": "amount",
          "type": "uint256"
        }
      ],
      "name": "HelperRewrdsWithdraw",
      "type": "event"
    },
    {
      "anonymous": false,
      "inputs": [
        {
          "indexed": true,
          "internalType": "uint256",
          "name": "userId",
          "type": "uint256"
        },
        {
          "indexed": true,
          "internalType": "address",
          "name": "token",
          "type": "address"
        },
        {
          "indexed": false,
          "internalType": "uint256",
          "name": "amount",
          "type": "uint256"
        }
      ],
      "name": "MinterRewardsWithdraw",
      "type": "event"
    },
    {
      "anonymous": false,
      "inputs": [
        {
          "indexed": true,
          "internalType": "uint256",
          "name": "boxId",
          "type": "uint256"
        },
        {
          "indexed": true,
          "internalType": "uint256",
          "name": "userId",
          "type": "uint256"
        },
        {
          "indexed": true,
          "internalType": "address",
          "name": "token",
          "type": "address"
        },
        {
          "indexed": false,
          "internalType": "uint256",
          "name": "amount",
          "type": "uint256"
        }
      ],
      "name": "OrderAmountPaid",
      "type": "event"
    },
    {
      "anonymous": false,
      "inputs": [
        {
          "indexed": false,
          "internalType": "uint256[]",
          "name": "list",
          "type": "uint256[]"
        },
        {
          "indexed": true,
          "internalType": "address",
          "name": "token",
          "type": "address"
        },
        {
          "indexed": true,
          "internalType": "uint256",
          "name": "userId",
          "type": "uint256"
        },
        {
          "indexed": false,
          "internalType": "uint256",
          "name": "amount",
          "type": "uint256"
        },
        {
          "indexed": false,
          "internalType": "enum IFundManager.FundsType",
          "name": "fundsType",
          "type": "uint8"
        }
      ],
      "name": "OrderAmountWithdraw",
      "type": "event"
    },
    {
      "anonymous": false,
      "inputs": [
        {
          "indexed": false,
          "internalType": "bool",
          "name": "isPaused",
          "type": "bool"
        }
      ],
      "name": "PauseToggled",
      "type": "event"
    },
    {
      "anonymous": false,
      "inputs": [
        {
          "indexed": true,
          "internalType": "uint256",
          "name": "boxId",
          "type": "uint256"
        },
        {
          "indexed": true,
          "internalType": "address",
          "name": "token",
          "type": "address"
        },
        {
          "indexed": false,
          "internalType": "uint256",
          "name": "amount",
          "type": "uint256"
        },
        {
          "indexed": false,
          "internalType": "enum IFundManager.RewardType",
          "name": "rewardType",
          "type": "uint8"
        }
      ],
      "name": "RewardsAdded",
      "type": "event"
    },
    {
      "inputs": [],
      "name": "admin",
      "outputs": [
        {
          "internalType": "address",
          "name": "",
          "type": "address"
        }
      ],
      "stateMutability": "view",
      "type": "function"
    },
    {
      "inputs": [
        {
          "internalType": "uint256",
          "name": "boxId_",
          "type": "uint256"
        }
      ],
      "name": "allocationRewards",
      "outputs": [],
      "stateMutability": "nonpayable",
      "type": "function"
    },
    {
      "inputs": [],
      "name": "extraFeeRate",
      "outputs": [
        {
          "internalType": "uint8",
          "name": "",
          "type": "uint8"
        }
      ],
      "stateMutability": "view",
      "type": "function"
    },
    {
      "inputs": [
        {
          "internalType": "address",
          "name": "token_",
          "type": "address"
        },
        {
          "internalType": "bytes",
          "name": "siweToken_",
          "type": "bytes"
        }
      ],
      "name": "helperRewardAmounts",
      "outputs": [
        {
          "internalType": "uint256",
          "name": "",
          "type": "uint256"
        }
      ],
      "stateMutability": "view",
      "type": "function"
    },
    {
      "inputs": [],
      "name": "helperRewardRate",
      "outputs": [
        {
          "internalType": "uint8",
          "name": "",
          "type": "uint8"
        }
      ],
      "stateMutability": "view",
      "type": "function"
    },
    {
      "inputs": [],
      "name": "implementation",
      "outputs": [
        {
          "internalType": "address",
          "name": "",
          "type": "address"
        }
      ],
      "stateMutability": "view",
      "type": "function"
    },
    {
      "inputs": [
        {
          "internalType": "address",
          "name": "token_",
          "type": "address"
        },
        {
          "internalType": "bytes",
          "name": "siweToken_",
          "type": "bytes"
        }
      ],
      "name": "minterRewardAmounts",
      "outputs": [
        {
          "internalType": "uint256",
          "name": "",
          "type": "uint256"
        }
      ],
      "stateMutability": "view",
      "type": "function"
    },
    {
      "inputs": [
        {
          "internalType": "uint256",
          "name": "boxId_",
          "type": "uint256"
        },
        {
          "internalType": "address",
          "name": "user_",
          "type": "address"
        }
      ],
      "name": "orderAmounts",
      "outputs": [
        {
          "internalType": "uint256",
          "name": "",
          "type": "uint256"
        }
      ],
      "stateMutability": "view",
      "type": "function"
    },
    {
      "inputs": [
        {
          "internalType": "uint256",
          "name": "boxId_",
          "type": "uint256"
        },
        {
          "internalType": "bytes",
          "name": "siweToken_",
          "type": "bytes"
        }
      ],
      "name": "orderAmounts",
      "outputs": [
        {
          "internalType": "uint256",
          "name": "",
          "type": "uint256"
        }
      ],
      "stateMutability": "view",
      "type": "function"
    },
    {
      "inputs": [],
      "name": "paused",
      "outputs": [
        {
          "internalType": "bool",
          "name": "",
          "type": "bool"
        }
      ],
      "stateMutability": "view",
      "type": "function"
    },
    {
      "inputs": [
        {
          "internalType": "uint256",
          "name": "boxId_",
          "type": "uint256"
        },
        {
          "internalType": "address",
          "name": "sender_",
          "type": "address"
        },
        {
          "internalType": "uint256",
          "name": "amount_",
          "type": "uint256"
        }
      ],
      "name": "payConfidentialityFee",
      "outputs": [],
      "stateMutability": "nonpayable",
      "type": "function"
    },
    {
      "inputs": [
        {
          "internalType": "uint256",
          "name": "boxId_",
          "type": "uint256"
        },
        {
          "internalType": "address",
          "name": "buyer_",
          "type": "address"
        },
        {
          "internalType": "uint256",
          "name": "amount_",
          "type": "uint256"
        }
      ],
      "name": "payOrderAmount",
      "outputs": [],
      "stateMutability": "nonpayable",
      "type": "function"
    },
    {
      "inputs": [],
      "name": "serviceFeeRate",
      "outputs": [
        {
          "internalType": "uint8",
          "name": "",
          "type": "uint8"
        }
      ],
      "stateMutability": "view",
      "type": "function"
    },
    {
      "inputs": [],
      "name": "setAddress",
      "outputs": [],
      "stateMutability": "nonpayable",
      "type": "function"
    },
    {
      "inputs": [
        {
          "internalType": "address",
          "name": "addrManager_",
          "type": "address"
        }
      ],
      "name": "setAddressManager",
      "outputs": [],
      "stateMutability": "nonpayable",
      "type": "function"
    },
    {
      "inputs": [
        {
          "internalType": "address",
          "name": "newAdmin_",
          "type": "address"
        }
      ],
      "name": "setAdmin",
      "outputs": [],
      "stateMutability": "nonpayable",
      "type": "function"
    },
    {
      "inputs": [
        {
          "internalType": "uint8",
          "name": "Rate_",
          "type": "uint8"
        }
      ],
      "name": "setExtraFeeRate",
      "outputs": [],
      "stateMutability": "nonpayable",
      "type": "function"
    },
    {
      "inputs": [
        {
          "internalType": "uint8",
          "name": "Rate_",
          "type": "uint8"
        }
      ],
      "name": "setHelperRewardRate",
      "outputs": [],
      "stateMutability": "nonpayable",
      "type": "function"
    },
    {
      "inputs": [
        {
          "internalType": "uint8",
          "name": "Rate_",
          "type": "uint8"
        }
      ],
      "name": "setServiceFeeRate",
      "outputs": [],
      "stateMutability": "nonpayable",
      "type": "function"
    },
    {
      "inputs": [
        {
          "internalType": "uint8",
          "name": "slippageProtection_",
          "type": "uint8"
        }
      ],
      "name": "setSlippageProtection",
      "outputs": [],
      "stateMutability": "nonpayable",
      "type": "function"
    },
    {
      "inputs": [],
      "name": "slippageProtection",
      "outputs": [
        {
          "internalType": "uint8",
          "name": "",
          "type": "uint8"
        }
      ],
      "stateMutability": "view",
      "type": "function"
    },
    {
      "inputs": [],
      "name": "togglePause",
      "outputs": [
        {
          "internalType": "bool",
          "name": "",
          "type": "bool"
        }
      ],
      "stateMutability": "nonpayable",
      "type": "function"
    },
    {
      "inputs": [
        {
          "internalType": "address",
          "name": "token_",
          "type": "address"
        }
      ],
      "name": "totalRewardAmounts",
      "outputs": [
        {
          "internalType": "uint256",
          "name": "",
          "type": "uint256"
        }
      ],
      "stateMutability": "view",
      "type": "function"
    },
    {
      "inputs": [
        {
          "internalType": "address",
          "name": "newImplementation_",
          "type": "address"
        }
      ],
      "name": "upgrade",
      "outputs": [],
      "stateMutability": "nonpayable",
      "type": "function"
    },
    {
      "inputs": [
        {
          "internalType": "address",
          "name": "token_",
          "type": "address"
        }
      ],
      "name": "withdrawHelperRewards",
      "outputs": [],
      "stateMutability": "nonpayable",
      "type": "function"
    },
    {
      "inputs": [
        {
          "internalType": "address",
          "name": "token_",
          "type": "address"
        }
      ],
      "name": "withdrawMinterRewards",
      "outputs": [],
      "stateMutability": "nonpayable",
      "type": "function"
    },
    {
      "inputs": [
        {
          "internalType": "address",
          "name": "token_",
          "type": "address"
        },
        {
          "internalType": "uint256[]",
          "name": "list_",
          "type": "uint256[]"
        }
      ],
      "name": "withdrawOrderAmounts",
      "outputs": [],
      "stateMutability": "nonpayable",
      "type": "function"
    },
    {
      "inputs": [
        {
          "internalType": "address",
          "name": "token_",
          "type": "address"
        },
        {
          "internalType": "uint256[]",
          "name": "list_",
          "type": "uint256[]"
        }
      ],
      "name": "withdrawRefundAmounts",
      "outputs": [],
      "stateMutability": "nonpayable",
      "type": "function"
    }
  ],
  "bytecode": "0x6080346100bf57601f61275238819003918201601f19168301916001600160401b038311848410176100c4578084926020946040528339810103126100bf57516001600160a01b038116908190036100bf577fb53127684a568b3173ae13b9f8a6016e243e63b6e8ee1178d6a717850b5d610380546001600160a01b03191633179055600080546001600160a81b031916909117600f60a11b1762ffffff60a81b19166205050560a91b1790556001805560405161267790816100db8239f35b600080fd5b634e487b7160e01b600052604160045260246000fdfe608080604052600436101561001357600080fd5b600090813560e01c9081630652b57a146121f7575080630900f0101461216c57806317c71cdc146120ce578063196d0d3514611ee157806322d2f00a14611c875780632bdef6bf14611c645780633e3d411914611b36578063580d67a514611a9c5780635c60da1b14611a545780635c975abb14611a2e5780635cc8fd43146118fc57806361d1bc94146118d9578063681d24e8146118955780636878a7e1146117d7578063704b6c021461176e578063821c330c14610de85780638320ac6714610dc55780638628447314610da25780638e68666414610d69578063a7c50b9914610b1d578063bb0a217f14610a7f578063befac89b146109cf578063c4ae316814610938578063cb455568146105d8578063e6569275146102de578063ebb2a931146101d7578063f0ec20c61461018d5763f851a4401461015557600080fd5b3461018a578060031936011261018a57600080516020612622833981519152546040516001600160a01b039091168152602090f35b80fd5b503461018a576101b660406101a13661233b565b90936001600160a01b039390918491906124e0565b168152600a6020522091166000526020526020604060002054604051908152f35b503461018a57602036600319011261018a5760043560ff8116908181036102da578254604051634162169f60e01b81529092906001600160a01b03906020816004818589165afa80156102cf57829187916102a0575b50163314159081610284575b50610272576064106102605760ff60b81b1990911660b89190911b60ff60b81b1617815580f35b604051636a43f8d160e01b8152600490fd5b6040516344bbc89d60e01b8152600490fd5b9050600080516020612622833981519152541633141538610239565b6102c2915060203d6020116102c8575b6102ba81836122c2565b8101906123de565b3861022d565b503d6102b0565b6040513d88823e3d90fd5b8280fd5b503461018a578060031936011261018a5780546001600160a01b0390811633811415806105bd575b6105ab57604051636f9f44c560e01b815260208082600481865afa9182156105a0578592610581575b5060405163697b932d60e11b81528181600481875afa9081156102cf578691610564575b50604051635897591960e01b81528281600481885afa90811561055957879161053c575b506040516350ec99a760e01b8152918383600481895afa9283156105125760049685918a9561051d575b50604051638ea8303160e01b815297889182905afa94851561051257879687958a976104e6575b505084929183809216801515806104d8575b6104bf575b5016801515806104b1575b610498575b50168015158061048a575b610471575b501680151580610463575b61044a575b501690811515908161043b575b50610425575080f35b6001600160601b0360a01b600654161760065580f35b9050600654168114153861041c565b6001600160601b0360a01b60035416176003553861040f565b50826003541681141561040a565b6001600160601b0360a01b6002541617600255386103ff565b5082600254168114156103fa565b6001600160601b0360a01b6004541617600455386103ef565b5082600454168114156103ea565b6001600160601b0360a01b6005541617600555386103df565b5082600554168114156103da565b869493918593985061050690828593903d106102c8576102ba81836122c2565b979250819394506103c8565b6040513d8a823e3d90fd5b610535919550823d84116102c8576102ba81836122c2565b93386103a1565b6105539150833d85116102c8576102ba81836122c2565b38610377565b6040513d89823e3d90fd5b61057b9150823d84116102c8576102ba81836122c2565b38610353565b816105999293503d84116102c8576102ba81836122c2565b903861032f565b6040513d87823e3d90fd5b6040516348f5c3ed60e01b8152600490fd5b50816000805160206126228339815191525416331415610306565b503461018a576105e73661237e565b906105f39392936124bd565b60ff60065460a01c166109265781156109145760045483929083906001600160a01b03165b828210610718575093948594506001600160a01b03169261063a81338661246b565b600254604051632b956ff760e01b81523360048201529560209187916024918391906001600160a01b03165af19485156102cf5786956106df575b5060405160608082528101839052916001600160fb1b0381116106db577f2601da974913ad5f81f92c67cdd82fe34ebc0133fb11a84f2f029235b4392fae93608092849260051b8092858501376020830152600160408301528101030190a36001805580f35b8680fd5b9094506020813d602011610710575b816106fb602093836122c2565b8101031261070b57519338610675565b600080fd5b3d91506106ee565b90938460051b840135865260086020526040862033600052602052604060002054604051630da0ade560e41b81528660051b8601356004820152602081602481875afa9081156105125788916108f5575b5081156108e3576001600160a01b0316331480159061087b575b61083657823b156106db5760405163a3b979c360e01b81528660051b8601356004820152876024820152878160448183885af1801561051257908891610867575b505060405163253d140b60e11b8152600587901b8601356004820152602081602481875afa908115610512578891610848575b506001600160a01b038981169116036108365760019101948060051b850135875260086020526040872033600052602052866040600020550190610618565b60405163351dc55d60e21b8152600490fd5b610861915060203d6020116102c8576102ba81836122c2565b386107f7565b61087090612298565b6106db5786386107c4565b506040516359f290cf60e11b8152600587901b8601356004820152602081602481875afa9081156105125788916108b4575b5015610783565b6108d6915060203d6020116108dc575b6108ce81836122c2565b8101906123fd565b386108ad565b503d6108c4565b6040516310eb483f60e21b8152600490fd5b61090e915060203d6020116102c8576102ba81836122c2565b38610769565b6040516301857f4f60e61b8152600490fd5b60405163d93c066560e01b8152600490fd5b503461018a578060031936011261018a57600080516020612622833981519152546001600160a01b031633036109bd57602060065460ff8160a01c16159060ff60a01b8260a01b169060ff60a01b1916176006557f9077d36bc00859b5c3f320310707208543dd35092cb0a0fe117d0c6a558b148b82604051838152a1604051908152f35b604051637bfa4b9f60e01b8152600490fd5b503461018a57602036600319011261018a5760043560ff8116908181036102da578254604051634162169f60e01b81529092906001600160a01b03906020816004818589165afa9081156102cf578691610a60575b50163303610a4e57601e106102605760ff60a81b1990911660a89190911b60ff60a81b1617815580f35b6040516327568d2f60e11b8152600490fd5b610a79915060203d6020116102c8576102ba81836122c2565b38610a24565b503461018a57602036600319011261018a5760043560ff8116908181036102da578254604051634162169f60e01b81529092906001600160a01b03906020816004818589165afa9081156102cf578691610afe575b50163303610a4e576032106102605760ff60a01b1990911660a09190911b60ff60a01b1617815580f35b610b17915060203d6020116102c8576102ba81836122c2565b38610ad4565b503461018a57610b2c3661237e565b929190610b376124bd565b60ff60065460a01c166109265783156109145760045483929083906001600160a01b03165b868210610c54575093948594506001600160a01b0390911692610b8081338661246b565b600254604051632b956ff760e01b81523360048201529560209187916024918391906001600160a01b03165af19485156102cf578695610c20575b5060405160608082528101839052916001600160fb1b0381116106db577f2601da974913ad5f81f92c67cdd82fe34ebc0133fb11a84f2f029235b4392fae93608092849260051b80928585013760208301528760408301528101030190a36001805580f35b9094506020813d602011610c4c575b81610c3c602093836122c2565b8101031261070b57519338610bbb565b3d9150610c2f565b90938460051b840135865260086020526040862033600052602052604060002054604051630da0ade560e41b81528660051b8601356004820152602081602481875afa908115610512578891610d4a575b5081156108e3576001600160a01b031633146105ab5760405163253d140b60e11b8152600587901b8601356004820152602081602481875afa908115610512578891610d2b575b506001600160a01b038581169116036108365760019101948060051b850135875260086020526040872033600052602052866040600020550190610b5c565b610d44915060203d6020116102c8576102ba81836122c2565b38610cec565b610d63915060203d6020116102c8576102ba81836122c2565b38610ca5565b503461018a57602036600319011261018a576020906040906001600160a01b03610d91612258565b168152600783522054604051908152f35b503461018a578060031936011261018a5760ff6020915460b81c16604051908152f35b503461018a578060031936011261018a5760ff6020915460a81c16604051908152f35b503461018a57602036600319011261018a57805460405163103864a360e11b815233600482015290602090829060249082906001600160a01b03165afa90811561174457829161174f575b50156105ab5760048054604051630da0ade560e41b81528235928101929092529091906001600160a01b0316602083602481845afa8015611744576024938391611725575b50600554604051634f4a156760e11b815260048035908201529460209186919082906001600160a01b03165afa9182156116f8576024948493611703575b506020906040519586809263253d140b60e11b825260043560048301525afa9384156116f85783946116d7575b5060043583526008602052604083209060018060a01b03169081845260205260408320549081156108e357600435845260086020526040842090845260205282604081205560018060a01b03600454169360405194637520fce760e01b86526004356004870152602086602481845afa9586156105a05785966116b2575b5060206024916040519283809263e05c5a8360e01b825260043560048301525afa9081156105a0579560049160ff978791611693575b50869081906001600160a01b038416611685575b6001600160a01b038116611677575b610fd483610fcf848c549d8e60a01c16612591565b612591565b60405163682bae5160e01b8152956020908790816001600160a01b038f165afa95861561166c578a9661164b575b506001600160a01b038781169087161461161d576110279060ff8c60b01c1690612591565b60065460405163c6bbd5a760e01b81526001600160a01b039182169c929592909160209183916004918391165afa90811561153b578b916115fe575b50604051636eb1769f60e11b8152306004820152602481018d90526020816044816001600160a01b038d165afa908115611496578c8a928c9282916115c4575b508211611546575b60405163f7729d4360e01b81526001600160a01b0393841660048201528a84166024820152610bb860448201526064810192909252608482018190529092602092849260a4928492165af190811561153b578b91611505575b506103e861111560ff871683612438565b049b61012c420142116114f1576040518061010081011067ffffffffffffffff610100830111176114dd578d8b98979695949392828f9361010001604052600160a01b600190038d1681526020810192600160a01b600190038d168452604082019b610bb88d526060830130815260808401914261012c01835260a0850193845260c08501528660e08501526040519d8e96631b67c43360e31b8852600160a01b600190038651166004890152600160a01b6001900390511660248801525162ffffff166044870152600160a01b6001900390511660648601525160848501525160a484015260c081015160c4840152600160a01b600190039060e001511660e4830152815a9361010492602095f1968715611496578c976114a5575b506005546001600160a01b031690813b156114a1578c9160448392604051948593849263f7d9757760e01b8452600435600485015260248401525af180156114965761146f575b506112a69060ff8061129b60049b9c9d9e9f99965b82808a1691168b0261244b565b96169116870261244b565b9384611418575b50826113c1575b506001600160a01b039889168a52600960209081526040808c209a891660008181529b8352818c208054948c03948501905581519384529183019a909a526000805160206126028339815191529990918735918b91a38854604051632f129fe360e11b81529560209187919082906001600160a01b03165afa9283156113b657611351958a94611395575b500303916001600160a01b031661246b565b6001600160a01b03811684526007602052604084208054611373908490612415565b90556040519182526003602083015260018060a01b031691604060043592a380f35b6113af91945060203d6020116102c8576102ba81836122c2565b923861133f565b6040513d8b823e3d90fd5b6001600160a01b039081168b52600a60209081526040808d2092881660008181529383529281902080548601905580518581526001928101929092528835916000805160206126028339815191529190a3386112b4565b6001600160a01b039081168c52600a60209081526040808e2092891660008181529383529281902080548801905580518781526002928101929092528935916000805160206126028339815191529190a3386112ad565b9060ff8061129b60049b9c9d9e6114886112a696612298565b9e9d9c9b5050505090611279565b6040513d8e823e3d90fd5b8c80fd5b9096506020813d6020116114d5575b816114c1602093836122c2565b810103126114d157519538611232565b8b80fd5b3d91506114b4565b634e487b7160e01b8d52604160045260248dfd5b634e487b7160e01b8c52601160045260248cfd5b90506020813d602011611533575b81611520602093836122c2565b8101031261152f575138611104565b8a80fd5b3d9150611513565b6040513d8d823e3d90fd5b91505060208d60446040518094819363095ea7b360e01b8352600483015260001960248301528d60018060a01b03165af1908115611496578c916115a5575b50156115935787898c6110ab565b6040516340b27c2160e11b8152600490fd5b6115be915060203d6020116108dc576108ce81836122c2565b38611585565b93505050506020813d6020116115f6575b816115e2602093836122c2565b810103126114d157898c818b9351906110a3565b3d91506115d5565b611617915060203d6020116102c8576102ba81836122c2565b38611063565b919392906004969798999a506112a66103e861163c60ff86168c612438565b049260ff8061129b869961128e565b61166591965060203d6020116102c8576102ba81836122c2565b9438611002565b6040513d8c823e3d90fd5b885460a81c8a169150610fba565b885460a81c8a169250610fab565b6116ac915060203d6020116102c8576102ba81836122c2565b38610f97565b60249196506116cf602091823d84116102c8576102ba81836122c2565b969150610f61565b6116f191945060203d6020116102c8576102ba81836122c2565b9238610ee3565b6040513d85823e3d90fd5b602091935061171e90823d84116102c8576102ba81836122c2565b9290610eb6565b61173e915060203d6020116102c8576102ba81836122c2565b38610e78565b6040513d84823e3d90fd5b611768915060203d6020116108dc576108ce81836122c2565b38610e33565b503461018a57602036600319011261018a57611788612258565b600080516020612622833981519152805490916001600160a01b039081831633036109bd57169081156117c5576001600160a01b03191617905580f35b60405163d92e233d60e01b8152600490fd5b503461018a57604036600319011261018a5760243567ffffffffffffffff8111611891576118099036906004016122e4565b815460405163103864a360e11b8152336004820152602093916001600160a01b03919085908290602490829086165afa9081156116f8578391611874575b50156105ab576118586040936124e0565b6004358352600885528383209116825283522054604051908152f35b61188b9150853d87116108dc576108ce81836122c2565b38611847565b5080fd5b503461018a5760406020916118bf6118ac3661233b565b90916001600160a01b03918291906124e0565b168352600985528383209116825283522054604051908152f35b503461018a578060031936011261018a5760ff6020915460a01c16604051908152f35b503461018a5760208060031936011261189157611917612258565b906119206124bd565b60ff60065460a01c1661092657338352600a815260408084206001600160a01b03938416808652908352908420549092909182156108e357808592338452600a825260408420868552825283604081205561197c85338861246b565b60025416602460405180958193632b956ff760e01b83523360048401525af19182156105a05785926119db575b507f992febf3b7928274a6433bffe6d1716048d58e8ffface649a3bb4db85d056bc29192604051908152a36001805580f35b91508082813d8311611a27575b6119f281836122c2565b81010312611a23577f992febf3b7928274a6433bffe6d1716048d58e8ffface649a3bb4db85d056bc29151916119a9565b8480fd5b503d6119e8565b503461018a578060031936011261018a57602060ff60065460a01c166040519015158152f35b503461018a578060031936011261018a577f360894a13ba1a3210667c828492db98dca3e2076cc3735a920a3ca505d382bbc546040516001600160a01b039091168152602090f35b503461018a57604036600319011261018a576024356001600160a01b03818116918290036102da5782541691604051809363103864a360e11b825233600483015281602460209687935afa908115611744578291611b19575b50156105ab5760409160043582526008845282822090825283522054604051908152f35b611b309150843d86116108dc576108ce81836122c2565b38611af5565b503461018a5760208060031936011261189157611b51612258565b90611b5a6124bd565b60ff60065460a01c16610926573383526009815260408084206001600160a01b03938416808652908352908420549092909182156108e35780859233845260098252604084208685528252836040812055611bb685338861246b565b60025416602460405180958193632b956ff760e01b83523360048401525af19182156105a0578592611c15575b507f8d3f77d4b6f8ec81146bd725e87e539af1937f78e54d485144708da3d99d0f709192604051908152a36001805580f35b91508082813d8311611c5d575b611c2c81836122c2565b81010312611a23577f8d3f77d4b6f8ec81146bd725e87e539af1937f78e54d485144708da3d99d0f70915191611be3565b503d611c22565b503461018a578060031936011261018a5760ff6020915460b01c16604051908152f35b503461018a57611c963661226e565b835460405163103864a360e11b81523360048201529293926001600160a01b03918216916020918281602481875afa908115610512578891611ec4575b50156105ab57816004936040519485809263682bae5160e01b82525afa928315610559578482611d409585938b91611ea7575b506040516323b872dd60e01b81526001600160a01b03909a1660048b01523060248b015260448a0192909252169693849081906064820190565b03818a8a5af192831561055957602493611e8a575b5081816005541660405194858092634f4a156760e11b82528960048301525afa928315610559578793611e6b575b506103e8611d9860ff895460a01c1686612438565b049081850393858511611e575791838260049695938b958b875260078452604087208a815401905516855260098252604085208a865282526040852086815401905584541660405196878092632f129fe360e11b82525afa80156116f857604096611e108a938a938a998891611e3a575b508561246b565b8651908152600384820152600080516020612602833981519152978891a38351928352820152a380f35b611e519150873d89116102c8576102ba81836122c2565b38611e09565b634e487b7160e01b89526011600452602489fd5b611e83919350823d84116102c8576102ba81836122c2565b9138611d83565b611ea090833d85116108dc576108ce81836122c2565b5038611d55565b611ebe9150843d86116102c8576102ba81836122c2565b38611d06565b611edb9150833d85116108dc576108ce81836122c2565b38611cd3565b503461018a57611ef03661226e565b835460405163103864a360e11b81523360048201526001600160a01b0394926020929091908390829060249082908a165afa9081156105595787916120b1575b50156105ab57602486948387600454166040519384809263253d140b60e11b82528960048301525afa80156102cf578760249186948991612094575b50604080516323b872dd60e01b878201526001600160a01b038616858201908152306020820152918201889052929091169991611fc091611fba90829060600103601f1981018352826122c2565b8a6125a5565b868852600884528060408920931692838952845260408820611fe3868254612415565b905560025416916040519788938492632b956ff760e01b845260048401525af19384156102cf57869461203f575b50907fa80e6d08234be9b6fc89fb9ecbba09b6faefc10e27c2d69fac15f81c87bfa94191604051908152a480f35b918091945082813d831161208d575b61205881836122c2565b81010312612089579051927fa80e6d08234be9b6fc89fb9ecbba09b6faefc10e27c2d69fac15f81c87bfa941612011565b8580fd5b503d61204e565b6120ab9150853d87116102c8576102ba81836122c2565b38611f6c565b6120c89150833d85116108dc576108ce81836122c2565b38611f30565b503461018a57602036600319011261018a5760043560ff8116908181036102da578254604051634162169f60e01b81529092906001600160a01b03906020816004818589165afa9081156102cf57869161214d575b50163303610a4e576014106102605760ff60b01b1990911660b09190911b60ff60b01b1617815580f35b612166915060203d6020116102c8576102ba81836122c2565b38612123565b503461018a57602036600319011261018a57612186612258565b600080516020612622833981519152546001600160a01b0390811633036109bd57813b156121e5577f360894a13ba1a3210667c828492db98dca3e2076cc3735a920a3ca505d382bbc91166001600160601b0360a01b82541617905580f35b60405163340aafcd60e11b8152600490fd5b90503461189157602036600319011261189157612212612258565b600080516020612622833981519152546001600160a01b03929083163303612249575082546001600160a01b031916911617815580f35b637bfa4b9f60e01b8152600490fd5b600435906001600160a01b038216820361070b57565b606090600319011261070b57600435906024356001600160a01b038116810361070b579060443590565b67ffffffffffffffff81116122ac57604052565b634e487b7160e01b600052604160045260246000fd5b90601f8019910116810190811067ffffffffffffffff8211176122ac57604052565b81601f8201121561070b5780359067ffffffffffffffff82116122ac5760405192612319601f8401601f1916602001856122c2565b8284526020838301011161070b57816000926020809301838601378301015290565b90604060031983011261070b576004356001600160a01b038116810361070b57916024359067ffffffffffffffff821161070b5761237b916004016122e4565b90565b604060031982011261070b576004356001600160a01b038116810361070b579160243567ffffffffffffffff9283821161070b578060238301121561070b57816004013593841161070b5760248460051b8301011161070b576024019190565b9081602091031261070b57516001600160a01b038116810361070b5790565b9081602091031261070b5751801515810361070b5790565b9190820180921161242257565b634e487b7160e01b600052601160045260246000fd5b8181029291811591840414171561242257565b8115612455570490565b634e487b7160e01b600052601260045260246000fd5b60405163a9059cbb60e01b60208201526001600160a01b039092166024830152604480830193909352918152608081019167ffffffffffffffff8311828410176122ac576124bb926040526125a5565b565b6002600154146124ce576002600155565b604051633ee5aeb560e01b8152600490fd5b339033156124ec575090565b905060018060a01b036003541690604051906319510d6760e01b825281602093849283600484015280519081602485015260005b82811061257957505060448382600083839584010152601f801991011681010301915afa91821561256d5760009261255757505090565b61237b9250803d106102c8576102ba81836122c2565b6040513d6000823e3d90fd5b81810186015187820160440152879587955001612520565b9060ff8091169116019060ff821161242257565b906000602091828151910182855af11561256d576000513d6125f857506001600160a01b0381163b155b6125d65750565b604051635274afe760e01b81526001600160a01b039091166004820152602490fd5b600114156125cf56fec0a930f0dcdcefbac45f2284fe5910ae05dff73753ccfb2478ebaaeaa548e55bb53127684a568b3173ae13b9f8a6016e243e63b6e8ee1178d6a717850b5d6103a264697066735822122041f0ecffaea6443b571ddfb038539fcfc639c4f2aee2a5162a0f82d08da7035c64736f6c63430008180033",
  "linkReferences": {},
  "deployedLinkReferences": {}
}