{
  "_format": "hh-sol-artifact-1",
  "contractName": "Exchange",
  "sourceName": "contracts/Exchange.sol",
  "abi": [
    {
      "inputs": [
        {
          "internalType": "address",
          "name": "addrManager_",
          "type": "address"
        }
      ],
      "stateMutability": "nonpayable",
      "type": "constructor"
    },
    {
      "inputs": [],
      "name": "AmountIsZero",
      "type": "error"
    },
    {
      "inputs": [],
      "name": "AuctionOver",
      "type": "error"
    },
    {
      "inputs": [],
      "name": "AvailableBuyer",
      "type": "error"
    },
    {
      "inputs": [],
      "name": "BlackTokenIdNotExist",
      "type": "error"
    },
    {
      "inputs": [],
      "name": "BoxAlreadyInBlacklist",
      "type": "error"
    },
    {
      "inputs": [],
      "name": "BoxNotExists",
      "type": "error"
    },
    {
      "inputs": [],
      "name": "DeadlineIsOver",
      "type": "error"
    },
    {
      "inputs": [],
      "name": "DeadlineNotOver",
      "type": "error"
    },
    {
      "inputs": [],
      "name": "EmptyBoxInfoCID",
      "type": "error"
    },
    {
      "inputs": [],
      "name": "EmptyPrice",
      "type": "error"
    },
    {
      "inputs": [],
      "name": "EmptyTokenCID",
      "type": "error"
    },
    {
      "inputs": [],
      "name": "EmptyTokenURI",
      "type": "error"
    },
    {
      "inputs": [],
      "name": "InBlacklist",
      "type": "error"
    },
    {
      "inputs": [],
      "name": "InvalidBoxId",
      "type": "error"
    },
    {
      "inputs": [],
      "name": "InvalidCaller",
      "type": "error"
    },
    {
      "inputs": [],
      "name": "InvalidContractAddress",
      "type": "error"
    },
    {
      "inputs": [],
      "name": "InvalidContractCaller",
      "type": "error"
    },
    {
      "inputs": [],
      "name": "InvalidDeadline",
      "type": "error"
    },
    {
      "inputs": [],
      "name": "InvalidERC20Interface",
      "type": "error"
    },
    {
      "inputs": [],
      "name": "InvalidImplementation",
      "type": "error"
    },
    {
      "inputs": [],
      "name": "InvalidPeriod",
      "type": "error"
    },
    {
      "inputs": [],
      "name": "InvalidRate",
      "type": "error"
    },
    {
      "inputs": [],
      "name": "InvalidStatus",
      "type": "error"
    },
    {
      "inputs": [],
      "name": "NotAdmin",
      "type": "error"
    },
    {
      "inputs": [],
      "name": "NotAdminOrDAO",
      "type": "error"
    },
    {
      "inputs": [],
      "name": "NotBuyer",
      "type": "error"
    },
    {
      "inputs": [],
      "name": "NotDAO",
      "type": "error"
    },
    {
      "inputs": [],
      "name": "NotInSecrecy",
      "type": "error"
    },
    {
      "inputs": [],
      "name": "NotMinter",
      "type": "error"
    },
    {
      "inputs": [],
      "name": "PublicTimeNotEnd",
      "type": "error"
    },
    {
      "inputs": [],
      "name": "RefundPermitTrue",
      "type": "error"
    },
    {
      "inputs": [],
      "name": "TokenAlreadyExists",
      "type": "error"
    },
    {
      "inputs": [],
      "name": "TokenNotExists",
      "type": "error"
    },
    {
      "inputs": [],
      "name": "TokenNotSupported",
      "type": "error"
    },
    {
      "inputs": [],
      "name": "ZeroAddress",
      "type": "error"
    },
    {
      "anonymous": false,
      "inputs": [
        {
          "indexed": true,
          "internalType": "uint256",
          "name": "boxId",
          "type": "uint256"
        },
        {
          "indexed": true,
          "internalType": "uint256",
          "name": "userId",
          "type": "uint256"
        }
      ],
      "name": "BidPlaced",
      "type": "event"
    },
    {
      "anonymous": false,
      "inputs": [
        {
          "indexed": true,
          "internalType": "uint256",
          "name": "boxId",
          "type": "uint256"
        },
        {
          "indexed": true,
          "internalType": "uint256",
          "name": "userId",
          "type": "uint256"
        },
        {
          "indexed": false,
          "internalType": "address",
          "name": "acceptedToken",
          "type": "address"
        }
      ],
      "name": "BoxListed",
      "type": "event"
    },
    {
      "anonymous": false,
      "inputs": [
        {
          "indexed": true,
          "internalType": "uint256",
          "name": "boxId",
          "type": "uint256"
        },
        {
          "indexed": true,
          "internalType": "uint256",
          "name": "userId",
          "type": "uint256"
        }
      ],
      "name": "BoxPurchased",
      "type": "event"
    },
    {
      "anonymous": false,
      "inputs": [
        {
          "indexed": true,
          "internalType": "uint256",
          "name": "boxId",
          "type": "uint256"
        },
        {
          "indexed": true,
          "internalType": "uint256",
          "name": "userId",
          "type": "uint256"
        }
      ],
      "name": "CompleterAssigned",
      "type": "event"
    },
    {
      "anonymous": false,
      "inputs": [
        {
          "indexed": true,
          "internalType": "uint256",
          "name": "boxId",
          "type": "uint256"
        },
        {
          "indexed": false,
          "internalType": "bool",
          "name": "permission",
          "type": "bool"
        }
      ],
      "name": "RefundPermitChanged",
      "type": "event"
    },
    {
      "anonymous": false,
      "inputs": [
        {
          "indexed": true,
          "internalType": "uint256",
          "name": "boxId",
          "type": "uint256"
        },
        {
          "indexed": false,
          "internalType": "uint256",
          "name": "deadline",
          "type": "uint256"
        }
      ],
      "name": "RequestDeadlineChanged",
      "type": "event"
    },
    {
      "anonymous": false,
      "inputs": [
        {
          "indexed": true,
          "internalType": "uint256",
          "name": "boxId",
          "type": "uint256"
        },
        {
          "indexed": false,
          "internalType": "uint256",
          "name": "deadline",
          "type": "uint256"
        }
      ],
      "name": "ReviewDeadlineChanged",
      "type": "event"
    },
    {
      "inputs": [
        {
          "internalType": "uint256",
          "name": "boxId_",
          "type": "uint256"
        }
      ],
      "name": "acceptedToken",
      "outputs": [
        {
          "internalType": "address",
          "name": "",
          "type": "address"
        }
      ],
      "stateMutability": "view",
      "type": "function"
    },
    {
      "inputs": [],
      "name": "admin",
      "outputs": [
        {
          "internalType": "address",
          "name": "",
          "type": "address"
        }
      ],
      "stateMutability": "view",
      "type": "function"
    },
    {
      "inputs": [
        {
          "internalType": "uint256",
          "name": "boxId_",
          "type": "uint256"
        }
      ],
      "name": "agreeRefund",
      "outputs": [],
      "stateMutability": "nonpayable",
      "type": "function"
    },
    {
      "inputs": [
        {
          "internalType": "uint256",
          "name": "boxId_",
          "type": "uint256"
        },
        {
          "internalType": "address",
          "name": "acceptedToken_",
          "type": "address"
        },
        {
          "internalType": "uint256",
          "name": "price_",
          "type": "uint256"
        }
      ],
      "name": "auction",
      "outputs": [],
      "stateMutability": "nonpayable",
      "type": "function"
    },
    {
      "inputs": [
        {
          "internalType": "uint256",
          "name": "boxId_",
          "type": "uint256"
        }
      ],
      "name": "bid",
      "outputs": [],
      "stateMutability": "nonpayable",
      "type": "function"
    },
    {
      "inputs": [],
      "name": "bidIncrementRate",
      "outputs": [
        {
          "internalType": "uint8",
          "name": "",
          "type": "uint8"
        }
      ],
      "stateMutability": "view",
      "type": "function"
    },
    {
      "inputs": [
        {
          "internalType": "uint256",
          "name": "boxId_",
          "type": "uint256"
        }
      ],
      "name": "buy",
      "outputs": [],
      "stateMutability": "nonpayable",
      "type": "function"
    },
    {
      "inputs": [
        {
          "internalType": "uint256",
          "name": "boxId_",
          "type": "uint256"
        }
      ],
      "name": "buyerOf",
      "outputs": [
        {
          "internalType": "address",
          "name": "",
          "type": "address"
        }
      ],
      "stateMutability": "view",
      "type": "function"
    },
    {
      "inputs": [
        {
          "internalType": "uint256",
          "name": "boxId_",
          "type": "uint256"
        }
      ],
      "name": "buyerOf_debug",
      "outputs": [
        {
          "internalType": "address",
          "name": "",
          "type": "address"
        }
      ],
      "stateMutability": "view",
      "type": "function"
    },
    {
      "inputs": [
        {
          "internalType": "uint256",
          "name": "boxId_",
          "type": "uint256"
        },
        {
          "internalType": "bytes",
          "name": "siweToken_",
          "type": "bytes"
        }
      ],
      "name": "calcPayMoney",
      "outputs": [
        {
          "internalType": "uint256",
          "name": "",
          "type": "uint256"
        }
      ],
      "stateMutability": "view",
      "type": "function"
    },
    {
      "inputs": [
        {
          "internalType": "uint256",
          "name": "boxId_",
          "type": "uint256"
        }
      ],
      "name": "cancelRefund",
      "outputs": [],
      "stateMutability": "nonpayable",
      "type": "function"
    },
    {
      "inputs": [
        {
          "internalType": "uint256",
          "name": "boxId_",
          "type": "uint256"
        }
      ],
      "name": "completeOrder",
      "outputs": [],
      "stateMutability": "nonpayable",
      "type": "function"
    },
    {
      "inputs": [
        {
          "internalType": "uint256",
          "name": "boxId_",
          "type": "uint256"
        }
      ],
      "name": "completerOf",
      "outputs": [
        {
          "internalType": "address",
          "name": "",
          "type": "address"
        }
      ],
      "stateMutability": "view",
      "type": "function"
    },
    {
      "inputs": [
        {
          "internalType": "uint256",
          "name": "boxId_",
          "type": "uint256"
        }
      ],
      "name": "completerOf_debug",
      "outputs": [
        {
          "internalType": "address",
          "name": "",
          "type": "address"
        }
      ],
      "stateMutability": "view",
      "type": "function"
    },
    {
      "inputs": [],
      "name": "implementation",
      "outputs": [
        {
          "internalType": "address",
          "name": "",
          "type": "address"
        }
      ],
      "stateMutability": "view",
      "type": "function"
    },
    {
      "inputs": [
        {
          "internalType": "uint256",
          "name": "boxId_",
          "type": "uint256"
        }
      ],
      "name": "isInRequestRefundDeadline",
      "outputs": [
        {
          "internalType": "bool",
          "name": "",
          "type": "bool"
        }
      ],
      "stateMutability": "view",
      "type": "function"
    },
    {
      "inputs": [
        {
          "internalType": "uint256",
          "name": "boxId_",
          "type": "uint256"
        }
      ],
      "name": "isInReviewDeadline",
      "outputs": [
        {
          "internalType": "bool",
          "name": "",
          "type": "bool"
        }
      ],
      "stateMutability": "view",
      "type": "function"
    },
    {
      "inputs": [
        {
          "internalType": "uint256",
          "name": "boxId_",
          "type": "uint256"
        }
      ],
      "name": "refundPermit",
      "outputs": [
        {
          "internalType": "bool",
          "name": "",
          "type": "bool"
        }
      ],
      "stateMutability": "view",
      "type": "function"
    },
    {
      "inputs": [
        {
          "internalType": "uint256",
          "name": "boxId_",
          "type": "uint256"
        }
      ],
      "name": "refundRequestDeadline",
      "outputs": [
        {
          "internalType": "uint256",
          "name": "",
          "type": "uint256"
        }
      ],
      "stateMutability": "view",
      "type": "function"
    },
    {
      "inputs": [],
      "name": "refundRequestPeriod",
      "outputs": [
        {
          "internalType": "uint256",
          "name": "",
          "type": "uint256"
        }
      ],
      "stateMutability": "view",
      "type": "function"
    },
    {
      "inputs": [
        {
          "internalType": "uint256",
          "name": "boxId_",
          "type": "uint256"
        }
      ],
      "name": "refundReviewDeadline",
      "outputs": [
        {
          "internalType": "uint256",
          "name": "",
          "type": "uint256"
        }
      ],
      "stateMutability": "view",
      "type": "function"
    },
    {
      "inputs": [],
      "name": "refundReviewPeriod",
      "outputs": [
        {
          "internalType": "uint256",
          "name": "",
          "type": "uint256"
        }
      ],
      "stateMutability": "view",
      "type": "function"
    },
    {
      "inputs": [
        {
          "internalType": "uint256",
          "name": "boxId_",
          "type": "uint256"
        }
      ],
      "name": "refuseRefund",
      "outputs": [],
      "stateMutability": "nonpayable",
      "type": "function"
    },
    {
      "inputs": [
        {
          "internalType": "uint256",
          "name": "boxId_",
          "type": "uint256"
        }
      ],
      "name": "requestRefund",
      "outputs": [],
      "stateMutability": "nonpayable",
      "type": "function"
    },
    {
      "inputs": [
        {
          "internalType": "uint256",
          "name": "boxId_",
          "type": "uint256"
        },
        {
          "internalType": "address",
          "name": "acceptedToken_",
          "type": "address"
        },
        {
          "internalType": "uint256",
          "name": "price_",
          "type": "uint256"
        }
      ],
      "name": "sell",
      "outputs": [],
      "stateMutability": "nonpayable",
      "type": "function"
    },
    {
      "inputs": [
        {
          "internalType": "uint256",
          "name": "boxId_",
          "type": "uint256"
        }
      ],
      "name": "sellerOf",
      "outputs": [
        {
          "internalType": "address",
          "name": "",
          "type": "address"
        }
      ],
      "stateMutability": "view",
      "type": "function"
    },
    {
      "inputs": [
        {
          "internalType": "uint256",
          "name": "boxId_",
          "type": "uint256"
        }
      ],
      "name": "sellerOf_debug",
      "outputs": [
        {
          "internalType": "address",
          "name": "",
          "type": "address"
        }
      ],
      "stateMutability": "view",
      "type": "function"
    },
    {
      "inputs": [],
      "name": "setAddress",
      "outputs": [],
      "stateMutability": "nonpayable",
      "type": "function"
    },
    {
      "inputs": [
        {
          "internalType": "address",
          "name": "addrManager_",
          "type": "address"
        }
      ],
      "name": "setAddressManager",
      "outputs": [],
      "stateMutability": "nonpayable",
      "type": "function"
    },
    {
      "inputs": [
        {
          "internalType": "address",
          "name": "newAdmin_",
          "type": "address"
        }
      ],
      "name": "setAdmin",
      "outputs": [],
      "stateMutability": "nonpayable",
      "type": "function"
    },
    {
      "inputs": [
        {
          "internalType": "uint8",
          "name": "rate_",
          "type": "uint8"
        }
      ],
      "name": "setBidIncrementRate",
      "outputs": [],
      "stateMutability": "nonpayable",
      "type": "function"
    },
    {
      "inputs": [
        {
          "internalType": "uint256",
          "name": "boxId_",
          "type": "uint256"
        },
        {
          "internalType": "bool",
          "name": "permission_",
          "type": "bool"
        }
      ],
      "name": "setRefundPermit",
      "outputs": [],
      "stateMutability": "nonpayable",
      "type": "function"
    },
    {
      "inputs": [
        {
          "internalType": "uint256",
          "name": "period_",
          "type": "uint256"
        }
      ],
      "name": "setRefundRequestPeriod",
      "outputs": [],
      "stateMutability": "nonpayable",
      "type": "function"
    },
    {
      "inputs": [
        {
          "internalType": "uint256",
          "name": "period_",
          "type": "uint256"
        }
      ],
      "name": "setRefundReviewPeriod",
      "outputs": [],
      "stateMutability": "nonpayable",
      "type": "function"
    },
    {
      "inputs": [
        {
          "internalType": "address",
          "name": "newImplementation_",
          "type": "address"
        }
      ],
      "name": "upgrade",
      "outputs": [],
      "stateMutability": "nonpayable",
      "type": "function"
    }
  ],
  "bytecode": "0x6080346100b457601f612a9038819003918201601f19168301916001600160401b038311848410176100b9578084926020946040528339810103126100b457516001600160a01b038116908190036100b45760018060a01b03197fb53127684a568b3173ae13b9f8a6016e243e63b6e8ee1178d6a717850b5d610333828254161790556000541617600055606e60ff19600754161760075562093a806005556213c6806006556040516129c090816100d08239f35b600080fd5b634e487b7160e01b600052604160045260246000fdfe608060408181526004918236101561001657600080fd5b600092833560e01c9182630652b57a14611ebe575081630900f01014611e2357816312b65bb014611bcc57816316efecef14611bac5781631d934b6c14611b8357816339e8a1cf14611b4c578163454a2ab3146118485781634a7a2816146118285781634fb354b3146117775781635bcb5950146116e15781635c60da1b1461169957816366f240f81461152957816367cdf6c914611511578163704b6c021461149757816373ebfc621461147c5781637520fce7146113e95781637fda1f06146113b25781639ec123da14611302578163a3b979c314611235578163a4b2409e14611011578163afa5e1ee14610fe8578163b3e5219e14610fb8578163b6adaaff14610d12578163bb21a49314610b52578163c70b248b14610948578163cea040931461091d578163d0575214146108d5578163d6e54ff5146108b6578163d96a094a1461060a578163da0ade5014610577578163e05c5a83146104b0578163e65692751461021d57508063f0cc2b14146101fc578063f74c8ea3146101de5763f851a440146101a657600080fd5b346101da57816003193601126101da5760008051602061296b8339815191525490516001600160a01b039091168152602090f35b5080fd5b50346101da57816003193601126101da576020906006549051908152f35b50346101da57816003193601126101da5760209060ff600754169051908152f35b9050346104ac57826003193601126104ac5782546001600160a01b03908116923384141580610491575b610482578051636f9f44c560e01b81526020949085818681855afa90811561047857879161045b575b508251636209ec2d60e01b81529580878781865afa968715610451578897610432575b508351635897591960e01b81529281848881845afa93841561042857908792918a95610407575b5081908651938480926350ec99a760e01b82525afa9485156103fe575091859697918694938a966103c9575b50509083809216801515806103bb575b6103a2575b501680151580610394575b61037b575b50168015158061036d575b610354575b5016908115159081610346575b50610331578280f35b81546001600160a01b03191617905538808280f35b905082541681141538610328565b6001600160601b0360a01b60035416176003553861031b565b508260035416811415610316565b6001600160601b0360a01b60025416176002553861030b565b508260025416811415610306565b6001600160601b0360a01b6001541617600155386102fb565b5082600154168114156102f6565b85939296508391816103ef92903d106103f7575b6103e78183611f8a565b810190611fc4565b9591926102e6565b503d6103dd565b513d8a823e3d90fd5b8291955061042190823d84116103f7576103e78183611f8a565b94906102ba565b85513d8b823e3d90fd5b8161044a9298503d89116103f7576103e78183611f8a565b9538610293565b84513d8a823e3d90fd5b6104729150863d88116103f7576103e78183611f8a565b38610270565b83513d89823e3d90fd5b516348f5c3ed60e01b81529050fd5b508160008051602061296b8339815191525416331415610247565b8280fd5b828434610574576020366003190112610574578054825163103864a360e11b815233858201526001600160a01b0392916020908290602490829087165afa918215610569579161053a575b501561052c5761052460209335600052600860205260018060a01b036001604060002001541690565b915191168152f35b50516348f5c3ed60e01b8152fd5b61055c915060203d602011610562575b6105548183611f8a565b81019061219e565b846104fb565b503d61054a565b8451903d90823e3d90fd5b80fd5b828434610574576020366003190112610574578054825163103864a360e11b815233858201526001600160a01b0392916020908290602490829087165afa91821561056957916105eb575b501561052c5761052460209335600052600860205260018060a01b036002604060002001541690565b610604915060203d602011610562576105548183611f8a565b846105c2565b8383346101da576020806003193601126104ac576001548251632e31150760e11b815285358187018190526001600160a01b039283169490939290918381602481895afa908115610478578791610889575b50600881101561087657600103610866579585968596953b15610862578251633625b75960e21b81528281018690526003602482015296868860448183855af197881561085857879897969761083c575b5084826003541660248651809b8193632b956ff760e01b835233898401525af19788156107fd578698610807575b508686526008855283862060020180546001600160a01b031916331790556024908590610708428a6128fe565b855192838092630e75722360e41b82528b888301525afa9485156107fd5786956107c5575b50506002541692833b156107c157825163196d0d3560e01b815291820186815233602082015260408101919091529092849184919082908490829060600103925af19081156107b857506107a4575b50807fb656198fd89a7699ff3d942dc974676f470781d9d437db45e5f1c6b07efc968a91a380f35b6107ad90611f60565b6104ac57828461077c565b513d84823e3d90fd5b8480fd5b819650809295503d83116107f6575b6107de8183611f8a565b810103126107f15786935192888061072d565b600080fd5b503d6107d4565b84513d88823e3d90fd5b85809299508197503d8311610835575b6108218183611f8a565b810103126107f157935195879490846106db565b503d610817565b61084890969196611f60565b610854578694896106ad565b8680fd5b84513d89823e3d90fd5b8580fd5b81516307a92f1960e51b81528790fd5b634e487b7160e01b875260218852602487fd5b6108a99150843d86116108af575b6108a18183611f8a565b810190611fac565b8861065c565b503d610897565b5050346101da57816003193601126101da576020906005549051908152f35b828434610574576020366003190112610574575061090c60209235600052600860205260018060a01b036001604060002001541690565b90516001600160a01b039091168152f35b9050346104ac5760203660031901126104ac5781602093600592358152600885522001549051908152f35b919050346104ac57602080600319360112610a38576001548251632e31150760e11b81528435818601819052946001600160a01b039283169290918481602481875afa908115610aec578891610b35575b506008811015610b22578203610b1357908692916109b687611fe3565b610a46575b5085835260088452848320600601805460ff19166001179055813b156104ac5785604484928388519586948593633625b75960e21b8552840152600660248401525af18015610a3c57610a24575b505060008051602061294b833981519152915160018152a280f35b610a2d90611f60565b610a38578338610a09565b8380fd5b84513d84823e3d90fd5b909192508451634f4a156760e11b815286838201528481602481875afa908115610aec579082918991610af6575b50163314159081610a9c575b50610a8e57908591386109bb565b83516348f5c3ed60e01b8152fd5b9050818482895416875192838092634162169f60e01b82525afa908115610aec578891610acf575b501633141538610a80565b610ae69150853d87116103f7576103e78183611f8a565b38610ac4565b86513d8a823e3d90fd5b610b0d9150863d88116103f7576103e78183611f8a565b38610a74565b5083516307a92f1960e51b8152fd5b634e487b7160e01b885260218352602488fd5b610b4c9150853d87116108af576108a18183611f8a565b38610999565b9050346104ac57816003193601126104ac57803592602480359467ffffffffffffffff91828711610a385736602388011215610a385786850135928311610d01578551602097601f199490610bae601f830187168b0184611f8a565b8183523684838301011161085457898285949382968a9401838601378301015233943315610c58575b50506001548751630e75722360e41b815296870184905286919082906001600160a01b03165afa928315610c4d5792610c1c575b610c1593506121d9565b9051908152f35b91508483813d8311610c46575b610c338183611f8a565b810103126107f157610c15925191610c0b565b503d610c29565b8551903d90823e3d90fd5b9291945060018060a01b0387541688519384926319510d6760e01b8452848a8501528051908189860152858a5b838110610ce957505050838092601f838c6044809686010152011681010301915afa908115610cdf57879183918691610cc2575b50939038610bd7565b610cd99150833d85116103f7576103e78183611f8a565b38610cb9565b86513d86823e3d90fd5b82810182015189820160440152889650879101610c85565b634e487b7160e01b84526041855283fd5b839150346101da57602092836003193601126104ac576001548151632e31150760e11b815283358185018190526024949290916001600160a01b039182169088818881855afa908115610aec578891610f9b575b506008811015610f8957600303610f79578287526008885260ff6006868920015416610f6957828752600888528160028689200154163303610e41575b869750803b15610854578680916044875180948193633625b75960e21b8352888a84015260058c8401525af18015610e3757908791610e23575b50506002541693843b1561086257859283855196879485936320870cc360e21b85528401525af19081156107b85750610e135750f35b610e1c90611f60565b6105745780f35b610e2c90611f60565b610862578588610ddd565b85513d89823e3d90fd5b610e4a836120a4565b610f595786978551634f4a156760e11b8152848682015281818981865afa908115610f32579084918a91610f3c575b50163303610e88575b50610da3565b83885260088152600386892001336001600160601b0360a01b8254161790558781846003541689895180948193632b956ff760e01b8352338c8401525af1918215610f32578992610f01575b5050837fe81caeffc2690ec63b1aa465e198aef92e3ca31aaadfd8aaf0fcc76a8f98643d8980a388610e82565b8199508092503d8311610f2b575b610f198183611f8a565b810103126107f1578796518980610ed4565b503d610f0f565b87513d8b823e3d90fd5b610f539150833d85116103f7576103e78183611f8a565b8b610e79565b8451634e1fc47d60e11b81528490fd5b84516304c1157360e21b81528490fd5b84516307a92f1960e51b81528490fd5b634e487b7160e01b8852602185528688fd5b610fb29150893d8b116108af576108a18183611f8a565b89610d66565b9050346104ac5760203660031901126104ac5760068260209460ff93358152600886522001541690519015158152f35b9050346104ac5760203660031901126104ac578160209382358152600885522001549051908152f35b919050346104ac57602080600319360112610a38576001548251632e31150760e11b8152843581860181905294916001600160a01b03908116918481602481865afa908115610aec578891611218575b506008811015611205576003036111f5578587526008845280600286892001541633036111e5578587526008845260ff60068689200154166111d5579086916110a9876120a4565b1561114a57506110bb600654426121b6565b92868352600885528360058785200155813b156104ac5782916044839288519485938492633625b75960e21b84528c8185015260248401525af180156111405761112c575b50507fc52de02f08bba719638e1bfcf9ce2622b315527f02946fd49c2f3b9c596d83479251908152a280f35b61113590611f60565b6107c1578438611100565b85513d84823e3d90fd5b9195949350803b15610862578580916044865180948193633625b75960e21b83528a89840152600560248401525af180156107fd579086916111c1575b50506002541692833b156107c1576024859283855196879485936320870cc360e21b85528401525af19081156107b85750610e1357505080f35b6111ca90611f60565b6107c1578438611187565b84516304c1157360e21b81528390fd5b845163239700bf60e11b81528390fd5b84516307a92f1960e51b81528390fd5b634e487b7160e01b885260218452602488fd5b61122f9150853d87116108af576108a18183611f8a565b38611061565b9050346104ac57816003193601126104ac57803591602435918215158093036107c1578454825163103864a360e11b8152338382015290602090829060249082906001600160a01b03165afa9081156112f85786916112d9575b50156112cb575060008051602061294b833981519152916020918486526008835260068187200160ff1981541660ff841617905551908152a280f35b90516348f5c3ed60e01b8152fd5b6112f2915060203d602011610562576105548183611f8a565b3861128f565b83513d88823e3d90fd5b9050346104ac5760203660031901126104ac5782548251634162169f60e01b8152823593916001600160a01b03919060209082908690829086165afa9081156112f8578691611393575b50163303611386576213c6808310801561137a575b61136d57505060065580f35b516302e8f35960e31b8152fd5b50624f1a008311611361565b516327568d2f60e11b8152fd5b6113ac915060203d6020116103f7576103e78183611f8a565b3861134c565b828434610574576020366003190112610574575061090c60209235600052600860205260018060a01b036003604060002001541690565b828434610574576020366003190112610574578054825163103864a360e11b815233858201526001600160a01b0392916020908290602490829087165afa918215610569579161145d575b501561052c5761052460209335600052600860205260018060a01b036003604060002001541690565b611476915060203d602011610562576105548183611f8a565b84611434565b83346105745761149461148e36611f36565b916125f6565b80f35b919050346104ac5760203660031901126104ac576114b3611f20565b60008051602061296b8339815191528054909390916001600160a01b0390818416330361150157169283156114f45750506001600160a01b03191617905580f35b5163d92e233d60e01b8152fd5b8451637bfa4b9f60e01b81528390fd5b83346105745761149461152336611f36565b9161225e565b839150346101da57602092836003193601126104ac57813580845260088552818420600201549092906001600160a01b03908116330361168a578385526008865260ff600684872001541661167b578060015416958351632e31150760e11b8152858482015281816024818b5afa918215610e3757879261165e575b5050600881101561164b57820361163c578585963b15610862578580916044865180948193633625b75960e21b83528a89840152600560248401525af180156107fd57908691611628575b50506002541692833b156107c1576024859283855196879485936320870cc360e21b85528401525af19081156107b85750610e135750f35b61163190611f60565b6107c15784876115f0565b5090516307a92f1960e51b8152fd5b634e487b7160e01b865260218352602486fd5b6116749250803d106108af576108a18183611f8a565b87806115a5565b5090516304c1157360e21b8152fd5b50905163239700bf60e11b8152fd5b5050346101da57816003193601126101da577f360894a13ba1a3210667c828492db98dca3e2076cc3735a920a3ca505d382bbc5490516001600160a01b039091168152602090f35b9050346104ac5760203660031901126104ac5782548251634162169f60e01b8152823593916001600160a01b03919060209082908690829086165afa9081156112f8578691611758575b501633036113865762093a808310801561174c575b61136d57505060055580f35b506213c6808311611740565b611771915060203d6020116103f7576103e78183611f8a565b3861172b565b9050346104ac5760203660031901126104ac5780359160ff8316809303610a385783548151634162169f60e01b81526001600160a01b039160209082908690829086165afa9081156112f8578691611809575b5016330361138657606483118015906117ff575b6117f257505060ff19600754161760075580f35b51636a43f8d160e01b8152fd5b50609683116117de565b611822915060203d6020116103f7576103e78183611f8a565b386117ca565b828434610574576020366003190112610574575061090c6020923561212c565b8383346101da576020806003193601126104ac578335908184526008815260018060a01b038060028587200154163314611b3c578060015416958451633ff76def60e21b8152848282015260249060608183818c5afa8015611b3257889089928a91611ae4575b504211611ad4576008811015611ac257600203611ab2576203f4804201804211611aa0576118dd81886128fe565b60ff60075416998a83029a838c041483151715611a8e57899a819a98999a3b15611a8a5760848a8a80946064968f5197889687956305ee484760e51b87528d870152048a8501526002604485015260648401525af1908115611a80578791611a6c575b505061194d9033886121d9565b928060025416803b1561085457885163196d0d3560e01b81528481018981523360208201526040810196909652948791869182908490829060600103925af18015611a625785948791611a49575b5087905260088452600288872001336001600160601b0360a01b825416179055600354169187519586938492632b956ff760e01b845233908401525af1938415611a4057508493611a10575b50507f0fc69407039e8ba8cdd517e2a4cae9dd19697b0a500ff37a2425c59ebc649b318380a380f35b9080929350813d8311611a39575b611a288183611f8a565b810103126107f157519083806119e7565b503d611a1e565b513d86823e3d90fd5b611a5591929550611f60565b6107c1578392858a61199b565b88513d88823e3d90fd5b611a7590611f60565b61086257858a611940565b89513d89823e3d90fd5b8880fd5b634e487b7160e01b8a5260118552838afd5b634e487b7160e01b8952601184528289fd5b86516307a92f1960e51b81528390fd5b634e487b7160e01b8952602184528289fd5b8751631508531560e31b81528490fd5b925050506060813d606011611b2a575b81611b0160609383611f8a565b81010312611b26578051906008821015611a8a5787868201519101519190918b6118af565b8780fd5b3d9150611af4565b87513d8a823e3d90fd5b83516348f5c3ed60e01b81528690fd5b828434610574576020366003190112610574575061090c60209235600052600860205260018060a01b036002604060002001541690565b8284346105745760203660031901126105745750611ba3602092356120a4565b90519015158152f35b8284346105745760203660031901126105745750611ba360209235611fe3565b839150346101da57602092836003193601126104ac576001548151632e31150760e11b815283358185018190526001600160a01b03928316969094929181816024818b5afa908115610e37578791611e06575b506008811015611df3578303611de3578486526008815260ff6006858820015416611dd357611c4d85611fe3565b15611d3857828183885416865192838092634162169f60e01b82525afa918215610e3757908392918892611d1b575b5050163303611d0c578585963b15610862578580916044865180948193633625b75960e21b83528a89840152600560248401525af180156107fd57908691611cf85750506002541692833b156107c1576024859283855196879485936320870cc360e21b85528401525af19081156107b85750610e1357505080f35b611d0190611f60565b6107c1578487611187565b5090516348f5c3ed60e01b8152fd5b611d319250803d106103f7576103e78183611f8a565b8880611c7c565b9394959186915085825260088552600684832001600160ff19825416179055823b156101da57604486918386519586948593633625b75960e21b8552840152600660248401525af18015611dc957611da6575b509060008051602061294b833981519152915160018152a280f35b93611dc160008051602061294b833981519152939295611f60565b939091611d8b565b82513d87823e3d90fd5b83516304c1157360e21b81528390fd5b83516307a92f1960e51b81528390fd5b634e487b7160e01b875260218452602487fd5b611e1d9150823d84116108af576108a18183611f8a565b88611c1f565b919050346104ac5760203660031901126104ac57611e3f611f20565b60008051602061296b8339815191525490926001600160a01b0392909183163303611eb157833b15611ea45750507f360894a13ba1a3210667c828492db98dca3e2076cc3735a920a3ca505d382bbc91166001600160601b0360a01b82541617905580f35b5163340aafcd60e11b8152fd5b51637bfa4b9f60e01b8152fd5b8491346104ac5760203660031901126104ac57611ed9611f20565b60008051602061296b833981519152546001600160a01b03939192919084163303611f1457505082546001600160a01b031916911617815580f35b637bfa4b9f60e01b8152fd5b600435906001600160a01b03821682036107f157565b60609060031901126107f157600435906024356001600160a01b03811681036107f1579060443590565b67ffffffffffffffff8111611f7457604052565b634e487b7160e01b600052604160045260246000fd5b90601f8019910116810190811067ffffffffffffffff821117611f7457604052565b908160209103126107f1575160088110156107f15790565b908160209103126107f157516001600160a01b03811681036107f15790565b600154604051632e31150760e11b81526004810183905290602090829060249082906001600160a01b03165afa90811561209857600091612079575b50600881101561206357600403612051576000526008602052600560406000200154421161204c57600190565b600090565b6040516307a92f1960e51b8152600490fd5b634e487b7160e01b600052602160045260246000fd5b612092915060203d6020116108af576108a18183611f8a565b3861201f565b6040513d6000823e3d90fd5b600154604051632e31150760e11b81526004810183905290602090829060249082906001600160a01b03165afa9081156120985760009161210d575b50600881101561206357600303612051576000526008602052600460406000200154421161204c57600190565b612126915060203d6020116108af576108a18183611f8a565b386120e0565b6000908152600860205260409020546001600160a01b03908116908115612151575090565b60005460405163682bae5160e01b8152925060209183916004918391165afa90811561209857600091612182575090565b61219b915060203d6020116103f7576103e78183611f8a565b90565b908160209103126107f1575180151581036107f15790565b919082018092116121c357565b634e487b7160e01b600052601160045260246000fd5b60025460405163580d67a560e01b815260048101929092526001600160a01b039283166024830152909160209183916044918391165afa9081156120985760009161222c575b5081039081116121c35790565b90506020813d602011612256575b8161224760209383611f8a565b810103126107f157513861221f565b3d915061223a565b60015460408051632e31150760e11b8152600480820185905296602496909560209490936001600160a01b03939092918416919086818b81865afa90811561248a576000916125d9575b5060088110156125c5576125b5579860009798998685600354168c8651809c8193632b956ff760e01b835233888401525af198891561248a57600099612586575b50846000541695845163682bae5160e01b8152888185818b5afa90811561253657600091612569575b5080978d8a8c8951928391634f4a156760e11b835289830152818a5afa90811561255e57918f928c928b91600091612541575b50163314612495575050505050508251638286227560e01b8152878282015286818c81865afa90811561248a5760009161245d575b5042111561244f5760008781526008875283812060010180546001600160a01b03191633179055915b6213c680420180421161243b57813b156107f157889385519c8d9586956305ee484760e51b8752860152840152604483016001905260648301525a9260006084928195f1978815612430577f65be9d244edea116678b9b897347d2beda911be0ede048694cb3652e907de81695969798612421575b505191168152a3565b61242a90611f60565b38612418565b50513d6000823e3d90fd5b8b601184634e487b7160e01b600052526000fd5b8251634e1fc47d60e11b8152fd5b90508681813d8311612483575b6124748183611f8a565b810103126107f157513861237a565b503d61246a565b84513d6000823e3d90fd5b89808699979916941684036124af575b50505050506123a3565b909192939499508751928380926375151b6360e01b825286898301525afa90811561253657600091612519575b501561250b57886000526008885284600020906001600160601b0360a01b8254161790559438808c89826124a5565b505050505050505050509050565b6125309150893d8b11610562576105548183611f8a565b386124dc565b86513d6000823e3d90fd5b6125589150843d86116103f7576103e78183611f8a565b38612345565b88513d6000823e3d90fd5b6125809150893d8b116103f7576103e78183611f8a565b38612312565b9098508681813d83116125ae575b61259e8183611f8a565b810103126107f1575197386122e9565b503d612594565b82516307a92f1960e51b81528a90fd5b8960218c634e487b7160e01b600052526000fd5b6125f09150873d89116108af576108a18183611f8a565b386122a8565b60015460408051632e31150760e11b8152600480820185905296602496909560209490936001600160a01b03939092918416919086818b81865afa90811561248a576000916128e1575b5060088110156125c5576125b5579860009798998685600354168c8651809c8193632b956ff760e01b835233888401525af198891561248a576000996128b2575b50846000541695845163682bae5160e01b8152888185818b5afa90811561253657600091612895575b5080978d8a8c8951928391634f4a156760e11b835289830152818a5afa90811561255e57918f928c928b91600091612878575b501633146127e5575050505050508251638286227560e01b8152878282015286818c81865afa90811561248a576000916127b8575b5042111561244f5760008781526008875283812060010180546001600160a01b03191633179055915b6203f480420180421161243b57813b156107f157889385519c8d9586956305ee484760e51b8752860152840152604483016002905260648301525a9260006084928195f1978815612430577f65be9d244edea116678b9b897347d2beda911be0ede048694cb3652e907de8169596979861242157505191168152a3565b90508681813d83116127de575b6127cf8183611f8a565b810103126107f1575138612712565b503d6127c5565b89808699979916941684036127ff575b505050505061273b565b909192939499508751928380926375151b6360e01b825286898301525afa9081156125365760009161285b575b501561250b57886000526008885284600020906001600160601b0360a01b8254161790559438808c89826127f5565b6128729150893d8b11610562576105548183611f8a565b3861282c565b61288f9150843d86116103f7576103e78183611f8a565b386126dd565b6128ac9150893d8b116103f7576103e78183611f8a565b386126aa565b9098508681813d83116128da575b6128ca8183611f8a565b810103126107f157519738612681565b503d6128c0565b6128f89150873d89116108af576108a18183611f8a565b38612640565b90602061292f7faef7723520380eee6de3a60cdea8491aaddca20c0cdb2d1850ca7f931947831592600554906121b6565b836000526008825280600460406000200155604051908152a256fe3f4d41438448f2543938fc94b8d0ed6c05bf0afae44d27a75ae402c7d2f22368b53127684a568b3173ae13b9f8a6016e243e63b6e8ee1178d6a717850b5d6103a2646970667358221220c11a72757059a361b7d5289ae1acd80dc1598217152086bc018c3a626b8878c764736f6c63430008180033",
  "linkReferences": {},
  "deployedLinkReferences": {}
}