{
  "_format": "hh-sol-artifact-1",
  "contractName": "UserId",
  "sourceName": "contracts/UserId.sol",
  "abi": [
    {
      "inputs": [
        {
          "internalType": "address",
          "name": "addrManager_",
          "type": "address"
        }
      ],
      "stateMutability": "nonpayable",
      "type": "constructor"
    },
    {
      "inputs": [],
      "name": "AmountIsZero",
      "type": "error"
    },
    {
      "inputs": [],
      "name": "AuctionOver",
      "type": "error"
    },
    {
      "inputs": [],
      "name": "AvailableBuyer",
      "type": "error"
    },
    {
      "inputs": [],
      "name": "BlackTokenIdNotExist",
      "type": "error"
    },
    {
      "inputs": [],
      "name": "Blacklisted",
      "type": "error"
    },
    {
      "inputs": [],
      "name": "BoxAlreadyInBlacklist",
      "type": "error"
    },
    {
      "inputs": [],
      "name": "BoxNotExists",
      "type": "error"
    },
    {
      "inputs": [],
      "name": "DeadlineIsOver",
      "type": "error"
    },
    {
      "inputs": [],
      "name": "DeadlineNotOver",
      "type": "error"
    },
    {
      "inputs": [],
      "name": "EmptyBoxInfoCID",
      "type": "error"
    },
    {
      "inputs": [],
      "name": "EmptyPrice",
      "type": "error"
    },
    {
      "inputs": [],
      "name": "EmptyTokenCID",
      "type": "error"
    },
    {
      "inputs": [],
      "name": "EmptyTokenURI",
      "type": "error"
    },
    {
      "inputs": [],
      "name": "InBlacklist",
      "type": "error"
    },
    {
      "inputs": [],
      "name": "InvalidBoxId",
      "type": "error"
    },
    {
      "inputs": [],
      "name": "InvalidCaller",
      "type": "error"
    },
    {
      "inputs": [],
      "name": "InvalidContractAddress",
      "type": "error"
    },
    {
      "inputs": [],
      "name": "InvalidContractCaller",
      "type": "error"
    },
    {
      "inputs": [],
      "name": "InvalidDeadline",
      "type": "error"
    },
    {
      "inputs": [],
      "name": "InvalidERC20Interface",
      "type": "error"
    },
    {
      "inputs": [],
      "name": "InvalidImplementation",
      "type": "error"
    },
    {
      "inputs": [],
      "name": "InvalidPeriod",
      "type": "error"
    },
    {
      "inputs": [],
      "name": "InvalidRate",
      "type": "error"
    },
    {
      "inputs": [],
      "name": "InvalidStatus",
      "type": "error"
    },
    {
      "inputs": [],
      "name": "NotAdmin",
      "type": "error"
    },
    {
      "inputs": [],
      "name": "NotAdminOrDAO",
      "type": "error"
    },
    {
      "inputs": [],
      "name": "NotBlacklisted",
      "type": "error"
    },
    {
      "inputs": [],
      "name": "NotBuyer",
      "type": "error"
    },
    {
      "inputs": [],
      "name": "NotDAO",
      "type": "error"
    },
    {
      "inputs": [],
      "name": "NotInSecrecy",
      "type": "error"
    },
    {
      "inputs": [],
      "name": "NotMinter",
      "type": "error"
    },
    {
      "inputs": [],
      "name": "PublicTimeNotEnd",
      "type": "error"
    },
    {
      "inputs": [],
      "name": "TokenAlreadyExists",
      "type": "error"
    },
    {
      "inputs": [],
      "name": "TokenNotExists",
      "type": "error"
    },
    {
      "inputs": [],
      "name": "TokenNotSupported",
      "type": "error"
    },
    {
      "inputs": [],
      "name": "ZeroAddress",
      "type": "error"
    },
    {
      "anonymous": false,
      "inputs": [
        {
          "indexed": false,
          "internalType": "address",
          "name": "user",
          "type": "address"
        },
        {
          "indexed": false,
          "internalType": "bool",
          "name": "status",
          "type": "bool"
        }
      ],
      "name": "Blacklist",
      "type": "event"
    },
    {
      "inputs": [
        {
          "internalType": "address",
          "name": "user_",
          "type": "address"
        }
      ],
      "name": "addBlacklist",
      "outputs": [],
      "stateMutability": "nonpayable",
      "type": "function"
    },
    {
      "inputs": [],
      "name": "admin",
      "outputs": [
        {
          "internalType": "address",
          "name": "",
          "type": "address"
        }
      ],
      "stateMutability": "view",
      "type": "function"
    },
    {
      "inputs": [
        {
          "internalType": "address",
          "name": "user_",
          "type": "address"
        }
      ],
      "name": "getUserId",
      "outputs": [
        {
          "internalType": "uint256",
          "name": "",
          "type": "uint256"
        }
      ],
      "stateMutability": "nonpayable",
      "type": "function"
    },
    {
      "inputs": [],
      "name": "implementation",
      "outputs": [
        {
          "internalType": "address",
          "name": "",
          "type": "address"
        }
      ],
      "stateMutability": "view",
      "type": "function"
    },
    {
      "inputs": [
        {
          "internalType": "address",
          "name": "user_",
          "type": "address"
        }
      ],
      "name": "isBlacklisted",
      "outputs": [
        {
          "internalType": "bool",
          "name": "",
          "type": "bool"
        }
      ],
      "stateMutability": "view",
      "type": "function"
    },
    {
      "inputs": [
        {
          "internalType": "bytes",
          "name": "token_",
          "type": "bytes"
        }
      ],
      "name": "myUserId",
      "outputs": [
        {
          "internalType": "uint256",
          "name": "",
          "type": "uint256"
        }
      ],
      "stateMutability": "view",
      "type": "function"
    },
    {
      "inputs": [
        {
          "internalType": "address",
          "name": "user_",
          "type": "address"
        }
      ],
      "name": "removeBlacklist",
      "outputs": [],
      "stateMutability": "nonpayable",
      "type": "function"
    },
    {
      "inputs": [],
      "name": "setAddress",
      "outputs": [],
      "stateMutability": "nonpayable",
      "type": "function"
    },
    {
      "inputs": [
        {
          "internalType": "address",
          "name": "addrManager_",
          "type": "address"
        }
      ],
      "name": "setAddressManager",
      "outputs": [],
      "stateMutability": "nonpayable",
      "type": "function"
    },
    {
      "inputs": [
        {
          "internalType": "address",
          "name": "newAdmin_",
          "type": "address"
        }
      ],
      "name": "setAdmin",
      "outputs": [],
      "stateMutability": "nonpayable",
      "type": "function"
    },
    {
      "inputs": [
        {
          "internalType": "address",
          "name": "newImplementation_",
          "type": "address"
        }
      ],
      "name": "upgrade",
      "outputs": [],
      "stateMutability": "nonpayable",
      "type": "function"
    }
  ],
  "bytecode": "0x60803461009f57601f610b7638819003918201601f19168301916001600160401b038311848410176100a45780849260209460405283398101031261009f57516001600160a01b0381169081900361009f5760018060a01b03197fb53127684a568b3173ae13b9f8a6016e243e63b6e8ee1178d6a717850b5d610333828254161790556000541617600055612710600755604051610abb90816100bb8239f35b600080fd5b634e487b7160e01b600052604160045260246000fdfe6080604081815260048036101561001557600080fd5b600092833560e01c9081630652b57a1461094b575080630900f010146108b45780632b956ff7146107f25780635c60da1b146107aa578063704b6c02146107315780639cfe42da1461063e578063d2d44303146104c4578063e656927514610246578063eb91e65114610117578063f851a440146100dd5763fe575a871461009c57600080fd5b346100d95760203660031901126100d957356001600160a01b038116908190036100d957818360ff92602095526006855220541690519015158152f35b8280fd5b505034610113578160031936011261011357600080516020610a668339815191525490516001600160a01b039091168152602090f35b5080fd5b50346100d9576020806003193601126102425781356001600160a01b03818116939184900361023e57818382885416875192838092634162169f60e01b82525afa80156102345782918891610207575b501633141590816101eb575b506101dd578285526006825260ff8486205416156101cf575081845260068152828420805460ff19169055825191825281018390527ff7e58a63a036e3a7ef7921f83b6ae47930cf5c293dd3bfe7a857c6863409046d9190a180f35b83516314afda6d60e31b8152fd5b83516344bbc89d60e01b8152fd5b9050600080516020610a66833981519152541633141538610173565b6102279150853d871161022d575b61021f81836109ac565b810190610a41565b38610167565b503d610215565b86513d89823e3d90fd5b8580fd5b8380fd5b50346100d957826003193601126100d95782546001600160a01b039081169233841415806104a9575b61049a578051636f9f44c560e01b81526020949085818681855afa908115610490578791610473575b50825163697b932d60e11b81529580878781865afa96871561046957889761044a575b508351636209ec2d60e01b81529281848881845afa93841561044057908792918a9561041f575b5081908651938480926350ec99a760e01b82525afa948515610416575091859697918694938a966103f1575b50509083809216801515806103e3575b6103ca575b5016801515806103bc575b6103a3575b501680151580610395575b61037c575b501690811515908161036e575b50610359578280f35b81546001600160a01b03191617905538808280f35b905082541681141538610350565b6001600160601b0360a01b600254161760025538610343565b50826002541681141561033e565b6001600160601b0360a01b600354161760035538610333565b50826003541681141561032e565b6001600160601b0360a01b600154161760015538610323565b50826001541681141561031e565b859392965083918161040e92903d1061022d5761021f81836109ac565b95919261030e565b513d8a823e3d90fd5b8291955061043990823d841161022d5761021f81836109ac565b94906102e2565b85513d8b823e3d90fd5b816104629298503d891161022d5761021f81836109ac565b95386102bb565b84513d8a823e3d90fd5b61048a9150863d881161022d5761021f81836109ac565b38610298565b83513d89823e3d90fd5b516348f5c3ed60e01b81529050fd5b5081600080516020610a66833981519152541633141561026f565b50913461063b57602092836003193601126101135767ffffffffffffffff81358181116102425736602382011215610242578083013591821161062857601f19918551916105198885601f85011601846109ac565b818352366024838301011161023e5781869260248a930183860137830101528533923315610583575b5050506001600160a01b0316808352600685528383205490919060ff166105755750815260058352819020549051908152f35b83516309550c7760e01b8152fd5b92509060018060a01b0384541686519384926319510d6760e01b8452848785015280519081602486015285895b83811061061057505050838092601f838b6044809686010152011681010301915afa9081156106065783916105e9575b50388581610542565b6106009150853d871161022d5761021f81836109ac565b386105e0565b84513d85823e3d90fd5b828101820151898201604401528896508791016105b0565b634e487b7160e01b845260418352602484fd5b80fd5b50346100d9576020806003193601126102425781356001600160a01b03818116939184900361023e57818382885416875192838092634162169f60e01b82525afa80156102345782918891610714575b501633141590816106f8575b506101dd578285526006825260ff848620541661057557509060017ff7e58a63a036e3a7ef7921f83b6ae47930cf5c293dd3bfe7a857c6863409046d9392828652600681528386208260ff198254161790558351928352820152a180f35b9050600080516020610a6683398151915254163314153861069a565b61072b9150853d871161022d5761021f81836109ac565b3861068e565b50346100d95760203660031901126100d9576001600160a01b03813581811692908390036107a657600080516020610a66833981519152938454928316330361079957831561078c5750506001600160a01b03191617905580f35b5163d92e233d60e01b8152fd5b51637bfa4b9f60e01b8152fd5b8480fd5b5050346101135781600319360112610113577f360894a13ba1a3210667c828492db98dca3e2076cc3735a920a3ca505d382bbc5490516001600160a01b039091168152602090f35b50913461063b5760209283600319360112610113578035916001600160a01b03808416840361011357908560249282541686519384809263103864a360e11b825233888301525afa9182156108a857819261086e575b5050156108605750610859906109e4565b9051908152f35b82516348f5c3ed60e01b8152fd5b9091508581813d83116108a1575b61088681836109ac565b81010312610113575190811515820361063b57503880610848565b503d61087c565b508451903d90823e3d90fd5b50346100d95760203660031901126100d9576001600160a01b038135818116939184820361023e57600080516020610a668339815191525416330361093d573b156109305750507f360894a13ba1a3210667c828492db98dca3e2076cc3735a920a3ca505d382bbc80546001600160a01b031916909117905580f35b5163340aafcd60e11b8152fd5b5051637bfa4b9f60e01b8152fd5b925050346100d95760203660031901126100d95780356001600160a01b0381811693918490036107a657600080516020610a66833981519152541633036109a057505081546001600160a01b03191617815580f35b637bfa4b9f60e01b8152fd5b90601f8019910116810190811067ffffffffffffffff8211176109ce57604052565b634e487b7160e01b600052604160045260246000fd5b6001600160a01b031660008181526006602052604090205460ff16610a2f57600052600560205260406000208054908115610a1d575090565b60019150600754809155018060075590565b6040516309550c7760e01b8152600490fd5b90816020910312610a6057516001600160a01b0381168103610a605790565b600080fdfeb53127684a568b3173ae13b9f8a6016e243e63b6e8ee1178d6a717850b5d6103a2646970667358221220426a465b99bda022d6db637d0e09b6d49a5149aad0f2e975139354adbc48589c64736f6c63430008180033",
  "linkReferences": {},
  "deployedLinkReferences": {}
}