{
  "_format": "hh-sol-artifact-1",
  "contractName": "SiweAuthWikiTruth",
  "sourceName": "contracts/SiweAuthWikiTruth.sol",
  "abi": [
    {
      "inputs": [
        {
          "internalType": "string",
          "name": "primaryDomain",
          "type": "string"
        },
        {
          "internalType": "string[]",
          "name": "domains",
          "type": "string[]"
        }
      ],
      "stateMutability": "nonpayable",
      "type": "constructor"
    },
    {
      "inputs": [],
      "name": "A13e_RevokedAuthToken",
      "type": "error"
    },
    {
      "inputs": [],
      "name": "AmountIsZero",
      "type": "error"
    },
    {
      "inputs": [],
      "name": "AuctionOver",
      "type": "error"
    },
    {
      "inputs": [],
      "name": "AvailableBuyer",
      "type": "error"
    },
    {
      "inputs": [],
      "name": "BlackTokenIdNotExist",
      "type": "error"
    },
    {
      "inputs": [],
      "name": "BoxAlreadyInBlacklist",
      "type": "error"
    },
    {
      "inputs": [],
      "name": "BoxNotExists",
      "type": "error"
    },
    {
      "inputs": [],
      "name": "DeadlineIsOver",
      "type": "error"
    },
    {
      "inputs": [],
      "name": "DeadlineNotOver",
      "type": "error"
    },
    {
      "inputs": [],
      "name": "DomainAlreadyExists",
      "type": "error"
    },
    {
      "inputs": [],
      "name": "DomainNotFound",
      "type": "error"
    },
    {
      "inputs": [],
      "name": "EmptyBoxInfoCID",
      "type": "error"
    },
    {
      "inputs": [],
      "name": "EmptyDomain",
      "type": "error"
    },
    {
      "inputs": [],
      "name": "EmptyPrice",
      "type": "error"
    },
    {
      "inputs": [],
      "name": "EmptyTokenCID",
      "type": "error"
    },
    {
      "inputs": [],
      "name": "EmptyTokenURI",
      "type": "error"
    },
    {
      "inputs": [],
      "name": "InBlacklist",
      "type": "error"
    },
    {
      "inputs": [],
      "name": "IndexOutOfBounds",
      "type": "error"
    },
    {
      "inputs": [],
      "name": "InvalidAddress",
      "type": "error"
    },
    {
      "inputs": [],
      "name": "InvalidBoxId",
      "type": "error"
    },
    {
      "inputs": [],
      "name": "InvalidCaller",
      "type": "error"
    },
    {
      "inputs": [],
      "name": "InvalidContractAddress",
      "type": "error"
    },
    {
      "inputs": [],
      "name": "InvalidContractCaller",
      "type": "error"
    },
    {
      "inputs": [],
      "name": "InvalidDeadline",
      "type": "error"
    },
    {
      "inputs": [],
      "name": "InvalidDomain",
      "type": "error"
    },
    {
      "inputs": [],
      "name": "InvalidERC20Interface",
      "type": "error"
    },
    {
      "inputs": [],
      "name": "InvalidImplementation",
      "type": "error"
    },
    {
      "inputs": [],
      "name": "InvalidPeriod",
      "type": "error"
    },
    {
      "inputs": [],
      "name": "InvalidRate",
      "type": "error"
    },
    {
      "inputs": [],
      "name": "InvalidStatus",
      "type": "error"
    },
    {
      "inputs": [],
      "name": "NotAdmin",
      "type": "error"
    },
    {
      "inputs": [],
      "name": "NotAdminOrDAO",
      "type": "error"
    },
    {
      "inputs": [],
      "name": "NotBuyer",
      "type": "error"
    },
    {
      "inputs": [],
      "name": "NotDAO",
      "type": "error"
    },
    {
      "inputs": [],
      "name": "NotInSecrecy",
      "type": "error"
    },
    {
      "inputs": [],
      "name": "NotMinter",
      "type": "error"
    },
    {
      "inputs": [],
      "name": "PublicTimeNotEnd",
      "type": "error"
    },
    {
      "inputs": [],
      "name": "SiweAuth_AddressMismatch",
      "type": "error"
    },
    {
      "inputs": [],
      "name": "SiweAuth_ChainIdMismatch",
      "type": "error"
    },
    {
      "inputs": [],
      "name": "SiweAuth_DomainMismatch",
      "type": "error"
    },
    {
      "inputs": [],
      "name": "SiweAuth_Expired",
      "type": "error"
    },
    {
      "inputs": [],
      "name": "SiweAuth_NotBeforeInFuture",
      "type": "error"
    },
    {
      "inputs": [],
      "name": "SiweParser_InvalidAddressLength",
      "type": "error"
    },
    {
      "inputs": [],
      "name": "SiweParser_InvalidNonce",
      "type": "error"
    },
    {
      "inputs": [],
      "name": "TokenAlreadyExists",
      "type": "error"
    },
    {
      "inputs": [],
      "name": "TokenNotExists",
      "type": "error"
    },
    {
      "inputs": [],
      "name": "TokenNotSupported",
      "type": "error"
    },
    {
      "inputs": [],
      "name": "ZeroAddress",
      "type": "error"
    },
    {
      "anonymous": false,
      "inputs": [
        {
          "indexed": true,
          "internalType": "string",
          "name": "domain",
          "type": "string"
        }
      ],
      "name": "DomainAdded",
      "type": "event"
    },
    {
      "anonymous": false,
      "inputs": [
        {
          "indexed": true,
          "internalType": "string",
          "name": "domain",
          "type": "string"
        }
      ],
      "name": "DomainRemoved",
      "type": "event"
    },
    {
      "anonymous": false,
      "inputs": [
        {
          "indexed": true,
          "internalType": "string",
          "name": "oldDomain",
          "type": "string"
        },
        {
          "indexed": true,
          "internalType": "string",
          "name": "newDomain",
          "type": "string"
        }
      ],
      "name": "PrimaryDomainSet",
      "type": "event"
    },
    {
      "anonymous": false,
      "inputs": [
        {
          "indexed": true,
          "internalType": "address",
          "name": "user",
          "type": "address"
        },
        {
          "indexed": true,
          "internalType": "bytes32",
          "name": "tokenHash",
          "type": "bytes32"
        }
      ],
      "name": "SessionRevoked",
      "type": "event"
    },
    {
      "anonymous": false,
      "inputs": [
        {
          "indexed": true,
          "internalType": "address",
          "name": "user",
          "type": "address"
        },
        {
          "indexed": true,
          "internalType": "string",
          "name": "domain",
          "type": "string"
        },
        {
          "indexed": false,
          "internalType": "uint256",
          "name": "expiry",
          "type": "uint256"
        }
      ],
      "name": "UserLogin",
      "type": "event"
    },
    {
      "inputs": [
        {
          "internalType": "string",
          "name": "domainName",
          "type": "string"
        }
      ],
      "name": "addDomain",
      "outputs": [],
      "stateMutability": "nonpayable",
      "type": "function"
    },
    {
      "inputs": [],
      "name": "admin",
      "outputs": [
        {
          "internalType": "address",
          "name": "",
          "type": "address"
        }
      ],
      "stateMutability": "view",
      "type": "function"
    },
    {
      "inputs": [],
      "name": "allDomains",
      "outputs": [
        {
          "internalType": "string[]",
          "name": "",
          "type": "string[]"
        }
      ],
      "stateMutability": "view",
      "type": "function"
    },
    {
      "inputs": [
        {
          "internalType": "bytes",
          "name": "token",
          "type": "bytes"
        }
      ],
      "name": "decodeAndValidateTokenPublic",
      "outputs": [
        {
          "components": [
            {
              "internalType": "string",
              "name": "domain",
              "type": "string"
            },
            {
              "internalType": "address",
              "name": "userAddr",
              "type": "address"
            },
            {
              "internalType": "uint256",
              "name": "validUntil",
              "type": "uint256"
            },
            {
              "internalType": "string",
              "name": "statement",
              "type": "string"
            },
            {
              "internalType": "string[]",
              "name": "resources",
              "type": "string[]"
            }
          ],
          "internalType": "struct AuthToken",
          "name": "",
          "type": "tuple"
        }
      ],
      "stateMutability": "view",
      "type": "function"
    },
    {
      "inputs": [],
      "name": "domain",
      "outputs": [
        {
          "internalType": "string",
          "name": "",
          "type": "string"
        }
      ],
      "stateMutability": "view",
      "type": "function"
    },
    {
      "inputs": [
        {
          "internalType": "uint256",
          "name": "index",
          "type": "uint256"
        }
      ],
      "name": "domainByIndex",
      "outputs": [
        {
          "internalType": "string",
          "name": "",
          "type": "string"
        }
      ],
      "stateMutability": "view",
      "type": "function"
    },
    {
      "inputs": [],
      "name": "domainCount",
      "outputs": [
        {
          "internalType": "uint256",
          "name": "",
          "type": "uint256"
        }
      ],
      "stateMutability": "view",
      "type": "function"
    },
    {
      "inputs": [
        {
          "internalType": "bytes",
          "name": "token",
          "type": "bytes"
        }
      ],
      "name": "getMsgSender",
      "outputs": [
        {
          "internalType": "address",
          "name": "",
          "type": "address"
        }
      ],
      "stateMutability": "view",
      "type": "function"
    },
    {
      "inputs": [
        {
          "internalType": "bytes",
          "name": "token",
          "type": "bytes"
        }
      ],
      "name": "getResources",
      "outputs": [
        {
          "internalType": "string[]",
          "name": "",
          "type": "string[]"
        }
      ],
      "stateMutability": "view",
      "type": "function"
    },
    {
      "inputs": [
        {
          "internalType": "bytes",
          "name": "token",
          "type": "bytes"
        }
      ],
      "name": "getStatement",
      "outputs": [
        {
          "internalType": "string",
          "name": "",
          "type": "string"
        }
      ],
      "stateMutability": "view",
      "type": "function"
    },
    {
      "inputs": [
        {
          "internalType": "string",
          "name": "domainToCheck",
          "type": "string"
        }
      ],
      "name": "isDomainValid",
      "outputs": [
        {
          "internalType": "bool",
          "name": "",
          "type": "bool"
        }
      ],
      "stateMutability": "view",
      "type": "function"
    },
    {
      "inputs": [
        {
          "internalType": "bytes",
          "name": "token",
          "type": "bytes"
        }
      ],
      "name": "isSessionValid",
      "outputs": [
        {
          "internalType": "bool",
          "name": "",
          "type": "bool"
        }
      ],
      "stateMutability": "view",
      "type": "function"
    },
    {
      "inputs": [
        {
          "internalType": "string",
          "name": "siweMsg",
          "type": "string"
        },
        {
          "components": [
            {
              "internalType": "bytes32",
              "name": "r",
              "type": "bytes32"
            },
            {
              "internalType": "bytes32",
              "name": "s",
              "type": "bytes32"
            },
            {
              "internalType": "uint256",
              "name": "v",
              "type": "uint256"
            }
          ],
          "internalType": "struct SignatureRSV",
          "name": "sig",
          "type": "tuple"
        }
      ],
      "name": "login",
      "outputs": [
        {
          "internalType": "bytes",
          "name": "authToken_",
          "type": "bytes"
        }
      ],
      "stateMutability": "view",
      "type": "function"
    },
    {
      "inputs": [
        {
          "internalType": "bytes32",
          "name": "token",
          "type": "bytes32"
        }
      ],
      "name": "removeAuthToken",
      "outputs": [],
      "stateMutability": "nonpayable",
      "type": "function"
    },
    {
      "inputs": [
        {
          "internalType": "string",
          "name": "domainName",
          "type": "string"
        }
      ],
      "name": "removeDomain",
      "outputs": [],
      "stateMutability": "nonpayable",
      "type": "function"
    },
    {
      "inputs": [
        {
          "internalType": "address",
          "name": "newAdmin",
          "type": "address"
        }
      ],
      "name": "setAdmin",
      "outputs": [],
      "stateMutability": "nonpayable",
      "type": "function"
    },
    {
      "inputs": [
        {
          "internalType": "string",
          "name": "newPrimaryDomain",
          "type": "string"
        }
      ],
      "name": "setPrimaryDomain",
      "outputs": [],
      "stateMutability": "nonpayable",
      "type": "function"
    },
    {
      "inputs": [
        {
          "internalType": "bytes",
          "name": "token",
          "type": "bytes"
        },
        {
          "internalType": "string",
          "name": "resource",
          "type": "string"
        }
      ],
      "name": "testHasResourceAccess",
      "outputs": [
        {
          "internalType": "bool",
          "name": "",
          "type": "bool"
        }
      ],
      "stateMutability": "view",
      "type": "function"
    },
    {
      "inputs": [
        {
          "internalType": "bytes",
          "name": "token",
          "type": "bytes"
        },
        {
          "internalType": "string",
          "name": "expectedStatement",
          "type": "string"
        }
      ],
      "name": "testStatementVerification",
      "outputs": [
        {
          "internalType": "bool",
          "name": "",
          "type": "bool"
        }
      ],
      "stateMutability": "view",
      "type": "function"
    }
  ],
  "bytecode": "0x60806040818152346200054157620033ea803803809162000021828662000546565b84398201918181840312620005415780516001600160401b03939084811162000541578162000052918401620005ab565b602092838101519086821162000541570190601f938385840112156200054157825193878511620004f15760059385851b885196620000948583018962000546565b87528380880191830101928084116200054157848301915b84831062000518575050505050815115620005075785519381850185811089821117620004f1576080958188928a5289620001126200012b60009a858c96958780975285519485928c8401978d8952808501525180928160608601528585019062000586565b601f199e8f910116810103606081018452018262000546565b51907301000000000000000000000000000000000000015afa3d15620004e8573d9062000158826200056a565b91620001678b51938462000546565b82523d888684013e5b15620004a4578381519101519084811062000492575b50600655600180546001600160a01b031916331781558451999097908a116200047e5785548881811c9116801562000473575b858210146200045f5780838c921162000417575b505083918a11600114620003b3575097808798998791620003a7575b50600019600383901b1c191690871b1784559596955b6200020a83620005f8565b6200024a8751916200026d855188868801916200022981888562000586565b86019587816003986003815203019020558a51938491885192839162000586565b830192858160049560048152030190209560ff19968a88825416179055620007b9565b957ff88e861ae9847e567df26f1b58c98f8ea42f97ddd9f6bbb5b3105a7cc541e6f796878980a2879a5b620002ac575b8951612c0e9081620007dc8239f35b81518b1015620003a157848b821b830101518051801515908162000376575b50620002de575b50998801998862000297565b9a620002ea8c620005f8565b6002546000198101908111620003635790620003568c9d6200033f898e9f8f96908b9181518481885195828a01966200032581848a62000586565b820190815203019020555180938192865192839162000586565b81018a815203019020848b825416179055620007b9565b898b80a29b9a50620002d2565b634e487b7160e01b8a526011855260248afd5b60ff9150878d51826200038e82948385890162000586565b81018881520301902054161538620002cb565b6200029d565b905084015138620001e9565b89169085875283872091875b818110620004015750918a91899a9b8a9410620003e7575b5050811b018455969596620001ff565b86015160001960f88460031b161c191690553880620003d7565b86830151845592890192918501918501620003bf565b87895283868a2091878285018b1c8401941062000455575b01881c019089905b8281106200044957508b9150620001cd565b89815501899062000437565b925081926200042f565b634e487b7160e01b88526022600452602488fd5b90607f1690620001b9565b634e487b7160e01b87526041600452602487fd5b60001990850360031b1b163862000186565b885162461bcd60e51b815260048101859052601360248201527f72616e646f6d42797465733a206661696c6564000000000000000000000000006044820152606490fd5b60609062000170565b634e487b7160e01b600052604160045260246000fd5b8551634f89e19b60e11b8152600490fd5b82518c8111620005415786916200053584848094890101620005ab565b815201920191620000ac565b600080fd5b601f909101601f19168101906001600160401b03821190821017620004f157604052565b6001600160401b038111620004f157601f01601f191660200190565b60005b8381106200059a5750506000910152565b818101518382015260200162000589565b81601f8201121562000541578051620005c4816200056a565b92620005d4604051948562000546565b818452602082840101116200054157620005f5916020808501910162000586565b90565b60025468010000000000000000811015620004f15760019182820180600255821015620007a3576002600090815281517f405787fa12a823e0f2b7631cc41b3ba8828b3321ca811111fa75cd3aa3bb5ace90930193602093929091906001600160401b0384116200078f5785548381811c9116801562000784575b868210146200077057601f811162000725575b508491601f8511600114620006c2579394508492919083620006b6575b50501b916000199060031b1c1916179055565b015192503880620006a3565b86815285812093958591601f198316915b888383106200070a5750505010620006f0575b505050811b019055565b015160001960f88460031b161c19169055388080620006e6565b858701518855909601959485019487935090810190620006d3565b868352858320601f860160051c81019187871062000765575b601f0160051c019084905b8281106200075957505062000686565b84815501849062000749565b90915081906200073e565b634e487b7160e01b83526022600452602483fd5b90607f169062000673565b634e487b7160e01b82526041600452602482fd5b634e487b7160e01b600052603260045260246000fd5b620007d39060206040519282848094519384920162000586565b81010390209056fe6080604052600436101561001257600080fd5b60003560e01c806319510d671461182057806322778929146115505780633d093b0b146115005780633e9ef0a8146114b157806344e2e74c146112a8578063479919bc146112525780636b9a0ee914610ffc5780636d5d8a5614610fb55780636f22587814610f1d578063704b6c0214610eb05780637f476b6f1461025e57806387d10335146102235780638aaf5caf146102055780638ffef02c146101ec578063a75d9919146101b2578063c2fb26a61461016f578063cca71d241461013e578063e3ba5dd91461011b5763f851a440146100ed57600080fd5b34610116576000366003190112610116576001546040516001600160a01b039091168152602090f35b600080fd5b3461011657602061013461012e36611b11565b9161200b565b6040519015158152f35b346101165760203660031901126101165760043560005260006020526040600020600160ff19825416179055600080f35b34610116576000366003190112610116576101ae60405161019a8161019381611b92565b03826118ec565b6040519182916020835260208301906119cd565b0390f35b34610116576020366003190112610116576004356001600160401b038111610116576101346101e7602092369060040161195f565b611f9d565b346101165760206101346101ff36611b11565b91611e15565b34610116576000366003190112610116576020600254604051908152f35b34610116576020366003190112610116576004356001600160401b0381116101165761019a6102596101ae92369060040161195f565b612817565b34610116576080366003190112610116576004356001600160401b0381116101165761028e90369060040161197d565b6060366023190112610116576102a2611d94565b90806000817a184f03e93ff9f4daa797ed6e38ed64bf6a1f01000000000000000080821015610ea2575b506d04ee2d6d415b85acef810000000080821015610e95575b50662386f26fc1000080821015610e88575b506305f5e10080821015610e7b575b5061271080821015610e6e575b506064811015610e60575b600a80911015610e56575b600182019281602161035361033d8761190d565b9661034b60405198896118ec565b80885261190d565b602087019590601f19013687378601015b60001901916f181899199a1a9b1b9c1cb0b131b232b360811b8282061a8353049085821561039457508290610364565b9390506103fa9250603a91506040519384916103dd60208401977f19457468657265756d205369676e6564204d6573736167653a0a0000000000008952518092868601906119aa565b8201818a858301370160008382015203601a8101845201826118ec565b5190209260206000608060249660405190815260ff606435168482015287356040820152604435606082015282805260015afa15610e4a576000516001600160a01b03811660208501529261044d6121c7565b506104566121c7565b6000945b848610610dab575b60328601808711610d965760348701809111610d9657605c87018111610d965761049b90605c880190610496368989611928565b6128a6565b936028855103610d84576104b2855160011c612863565b9560005b865160011c81101561058a576001600160ff1b0381168103610575576104eb6104e28260011b89612895565b5160f81c612aef565b60041b610ff060f082169116810361054b57600182811b01808360011b116105605761051c6104e260ff928b612895565b16019060ff821161054b5760019160f81b6001600160f81b03191660001a610544828b612895565b53016104b6565b8a634e487b7160e01b60005260116004526000fd5b8b634e487b7160e01b60005260116004526000fd5b89634e487b7160e01b60005260116004526000fd5b50889550605c888860208151910151906bffffffffffffffffffffffff19918281169160148110610d6f575b505060601c602088015250605e810191018110610d37578082811080610d4c575b610cde575b506106a561067b61067461064761061a6105f760089661223f565b604051610603816118b6565b600381526255524960e81b6020820152888a612926565b9060608b015260405161062c816118b6565b60078152662b32b939b4b7b760c91b60208201528789612926565b9060808a0152604051610659816118b6565b8581526710da185a5b88125160c21b60208201528688612926565b9190612a7f565b60a088015260405161068c816118b6565b60058152644e6f6e636560d81b60208201528486612926565b91908060c08801525110610ccc5761074f61071e6106e9610780936040516106cc816118b6565b6009815268125cdcdd595908105d60ba1b60208201528688612926565b9060e08901526040516106fb816118b6565b600f81526e45787069726174696f6e2054696d6560881b60208201528587612926565b90610100880152604051610731816118b6565b600a8152694e6f74204265666f726560b01b60208201528486612926565b90610120870152604051610762816118b6565b600a81526914995c5d595cdd08125160b21b60208201528385612926565b906101408601526107b481604051610797816118b6565b60098152685265736f757263657360b81b60208201528486612926565b8092915003610a2c575b50505060a08201514603610a1a57815160ff60405160208184516107e581838589016119aa565b81016004815203019020541615610a0857835260208201516001600160a01b039182169116036109f6576101208101518051151590816109e3575b506109d15761010081015151156109a55761083f61010082015161224e565b60408301525b604082015142101561099357806040610160920151606084015201908151519261089861087185611dc0565b9461087f60405196876118ec565b80865261088e601f1991611dc0565b0160208601611de4565b6080820193845260005b835180518210156108d957906108d2816108be81600195611e01565b518851906108cc8383611e01565b52611e01565b50016108a2565b82600080866108f761090560065492604051928391602083016119f2565b03601f1981018352826118ec565b61092c60405191610915836118d1565b8483526108f76040519384926020840196876127b5565b51906003600160981b015afa906109416127e7565b911561095d57604051602080825281906101ae908201856119cd565b606490600f6040519162461bcd60e51b8352602060048401528201526e195b98dc9e5c1d0e8819985a5b1959608a1b6044820152fd5b604051630b17115560e41b8152600490fd5b6201518042018042116109bc576040830152610845565b83634e487b7160e01b60005260116004526000fd5b60405163299d02f160e01b8152600490fd5b6109ed915061224e565b42111584610820565b6040516305cc02e160e01b8152600490fd5b60405163283d62bd60e01b8152600490fd5b60405163362c833760e01b8152600490fd5b93919492849691969480956000965b89600019810111610af1576000198a01811015610cbf57602d60f81b6001600160f81b0319610a6b838d8d612233565b35161480610c90575b15610b065760028101809111610af157610a8e909761223f565b95965b89811080610ace575b15610aad57610aa89061223f565b610a91565b610abf9099979192939495969961223f565b98969895949392919095610a3b565b50600560f91b6001600160f81b0319610ae8838d8d612233565b35161415610a9a565b84634e487b7160e01b60005260116004526000fd5b50929795909391945b610b1882611dc0565b94610b2660405196876118ec565b828652610b42601f19610b3885611dc0565b0160208801611de4565b926000965b600019890189811161056057851080610c86575b15610c6f57602d60f81b6001600160f81b0319610b79878c8e612233565b35161480610c40575b610c2a575b935b88811080610c07575b15610ba557610ba09061223f565b610b89565b96610bdc90999491929399610bc189886104968d36908b611928565b610bcb828a611e01565b52610bd68189611e01565b5061223f565b96888114610bf8575b610bee9061223f565b9398929190610b47565b801561054b5760001901610be5565b50600560f91b6001600160f81b0319610c21838c8e612233565b35161415610b92565b9450600284018411610575576002840194610b87565b5060018501851161054b57600160fd1b6001600160f81b0319610c67600188018c8e612233565b351614610b82565b9650965096505050506101608301528480806107be565b5083881415610b5b565b50600181018111610af157600160fd1b6001600160f81b0319610cb7600184018d8d612233565b351614610a74565b5092979590939194610b0f565b604051632d2f00c360e21b8152600490fd5b828110156105dc57600560f91b6001600160f81b0319610cff838688612233565b351614610d0e57600101610cde565b9081610d1f91610496368688611928565b604086015260018101809111610d37576106a56105dc565b86634e487b7160e01b60005260116004526000fd5b50600560f91b6001600160f81b0319610d66838688612233565b351614156105d7565b8391925060140360031b1b1616808a806105b6565b60405163acf8696960e01b8152600490fd5b87634e487b7160e01b60005260116004526000fd5b946001600160f81b0319600160fd1b81610dc6848989612233565b351614610dd757506001019461045a565b969293610de995919295368383611928565b94610df384612863565b9660005b85811080610e40575b15610e2e57808b610e14610e29938b612895565b511660001a610e23828c612895565b5361223f565b610df7565b50939792969195509397508252610462565b5087518110610e00565b6040513d6000823e3d90fd5b9060010190610329565b60646002910491019061031e565b6004910491019086610313565b6008910491019086610306565b60109104910190866102f7565b60209104910190866102e5565b9150508204604090866102cc565b34610116576020366003190112610116576004356001600160a01b0381811691829003610116576001549081163303610f0b578115610ef9576001600160a01b03191617600155005b60405163e6c4247b60e01b8152600490fd5b604051637bfa4b9f60e01b8152600490fd5b3461011657600036600319011261011657600254610f3a81611dc0565b610f4760405191826118ec565b8181526020916020820160026000527f405787fa12a823e0f2b7631cc41b3ba8828b3321ca811111fa75cd3aa3bb5ace936000915b838310610f9157604051806101ae8782611aad565b6001828192604051610fa781610193818d611c46565b815201960192019194610f7c565b34610116576020366003190112610116576004356001600160401b03811161011657610ff0610feb6101ae92369060040161195f565b61217c565b60405191829182611aad565b3461011657602080600319360112610116576001600160401b036004358181116101165761102e90369060040161197d565b6001805492949193926001600160a01b03163303610f0b5783156112405760ff604051858782378381878101600481520301902054161561122e57604051926110818461107a81611b92565b03856118ec565b841161121857836005916110958354611b58565b601f81116111c2575b50600090601f83116001146111365750816110eb959493926110d69260009161112b575b508160011b916000199060031b1c19161790565b90555b604051928284809451938492016119aa565b810103902091816040519283928337810160008152039020907fdbb06de499873e7fc09ba430852693de239dc242942fae24a71099215f6840e6600080a3005b9050880135896110c2565b9493929150601f1986169082600052867f036b6384b5eca791c62761152d0c79bb0604c104a5fb6f4eb0703f3154bb3db0926000975b8189106111a857506110eb97501061118e575b5050600185811b0190556110d9565b870135600019600388901b60f8161c19169055868061117f565b8a840135855597860197938401939286019289925061116c565b61120890846000527f036b6384b5eca791c62761152d0c79bb0604c104a5fb6f4eb0703f3154bb3db0601f8501861c81019187861061120e575b601f01861c0190611d36565b8761109e565b90915081906111fc565b634e487b7160e01b600052604160045260246000fd5b6040516375893cc160e11b8152600490fd5b604051634f89e19b60e11b8152600490fd5b34610116576020366003190112610116576004356001600160401b0381116101165760ff60206112878193369060040161197d565b91908260405193849283378101600481520301902054166040519015158152f35b3461011657602080600319360112610116576001600160401b0390600435828111610116576112db90369060040161197d565b92909160019160018060a01b038354163303610f0b5784156112405760ff6040518686823783818881016004815203019020541661149f57600254680100000000000000008110156112185780846113369201600255611ce9565b91909161148957851161121857611357856113518354611b58565b83611d4d565b600085601f811160011461142457806113859260009161141957508160011b916000199060031b1c19161790565b90555b60025460001981019081116114035760405185858237828187810160038152030190205560405190848483378185810160048152030190209060ff198254161790558160405192839283378101600081520390207ff88e861ae9847e567df26f1b58c98f8ea42f97ddd9f6bbb5b3105a7cc541e6f7600080a2005b634e487b7160e01b600052601160045260246000fd5b9050860135886110c2565b50601f198616908260005286846000209260005b86888383106114725750505010611458575b50508285811b019055611388565b850135600019600388901b60f8161c19169055858061144a565b858b0135875590950194938401938a935001611438565b634e487b7160e01b600052600060045260246000fd5b60405163bd45fcaf60e01b8152600490fd5b34610116576020366003190112610116576004356002548110156114ee5761019361019a6114e16101ae93611ce9565b5060405192838092611c46565b604051634e23d03560e01b8152600490fd5b34610116576020366003190112610116576004356001600160401b038111610116576115446115366101ae92369060040161195f565b61153e611d94565b50612089565b604051918291826119f2565b3461011657602080600319360112610116576001600160401b036004358181116101165761158290369060040161197d565b6001805491949293916001600160a01b03163303610f0b5760ff604051868682378481888101600481520301902054161561180e576115c2368686611928565b8381519101206040516115d88161019381611b92565b8481519101201461122e5760405185858237838187810160038152030190205490600254926000199384810190811161140357808403611703575b5050505060025480156116ed570161162a81611ce9565b611489576116388154611b58565b90816116b0575b50506002556000604051848482378281868101600381520301902055604051908383833781848101600481520301902060ff1981541690558160405192839283378101600081520390207f8ca4738b716c49ae881518dda9ff8b45b8b186e96cc3c03d463559acb699fb66600080a2005b81601f600093116001146116c85750555b848061163f565b9080839182526116e6601f878420940160051c840160018501611d36565b55556116c1565b634e487b7160e01b600052603160045260246000fd5b6117126114e161019392611ce9565b61171b84611ce9565b611489578151928311611218578261173e88946117388454611b58565b84611d4d565b8394601f82116001146117a5575080611770916117869660009161179a57508160011b916000199060031b1c19161790565b90555b81604051938285809451938492016119aa565b810160038152030190205584808080611613565b90508401518c6110c2565b94601f1982168360005285600020966000905b8282106117f457505095829160019361178698106117dd575b5050811b019055611773565b8501518960f88460031b161c191690558b806117d1565b868401518955978801978b979384019391909101906117b8565b6040516351b8374160e11b8152600490fd5b34610116576020366003190112610116576004356001600160401b0381116101165761185090369060040161195f565b80516020820120600052600060205260ff6040600020541661188957611877602091612067565b6040516001600160a01b039091168152f35b6040516313d4cf0960e31b8152600490fd5b60a081019081106001600160401b0382111761121857604052565b604081019081106001600160401b0382111761121857604052565b602081019081106001600160401b0382111761121857604052565b90601f801991011681019081106001600160401b0382111761121857604052565b6001600160401b03811161121857601f01601f191660200190565b9291926119348261190d565b9161194260405193846118ec565b829481845281830111610116578281602093846000960137010152565b9080601f830112156101165781602061197a93359101611928565b90565b9181601f84011215610116578235916001600160401b038311610116576020838186019501011161011657565b60005b8381106119bd5750506000910152565b81810151838201526020016119ad565b906020916119e6815180928185528580860191016119aa565b601f01601f1916010190565b90602090818352611a0e815160a08486015260c08501906119cd565b9160018060a01b0381830151166040850152604082015160608501526080611a47606084015194601f19958688830301848901526119cd565b9201519360a0848285030191015283519182815281810182808560051b8401019601946000925b858410611a7f575050505050505090565b909192939495968580611a9c838686600196030188528b516119cd565b990194019401929594939190611a6e565b6020808201906020835283518092526040830192602060408460051b8301019501936000915b848310611ae35750505050505090565b9091929394958480611b01600193603f198682030187528a516119cd565b9801930193019194939290611ad3565b906040600319830112610116576001600160401b036004358181116101165783611b3d9160040161195f565b9260243591821161011657611b549160040161197d565b9091565b90600182811c92168015611b88575b6020831014611b7257565b634e487b7160e01b600052602260045260246000fd5b91607f1691611b67565b60055460009291611ba282611b58565b80825291602090600190818116908115611c215750600114611bc5575b50505050565b9293945060056000527f036b6384b5eca791c62761152d0c79bb0604c104a5fb6f4eb0703f3154bb3db0926000935b858510611c0e575050506020925001019038808080611bbf565b8054858501840152938201938101611bf4565b92505050602093945060ff929192191683830152151560051b01019038808080611bbf565b805460009392611c5582611b58565b91828252602093600191600181169081600014611cbd5750600114611c7c575b5050505050565b90939495506000929192528360002092846000945b838610611ca957505050500101903880808080611c75565b805485870183015294019385908201611c91565b60ff19168685015250505090151560051b010191503880808080611c75565b9190820391821161140357565b600254811015611d205760026000527f405787fa12a823e0f2b7631cc41b3ba8828b3321ca811111fa75cd3aa3bb5ace0190600090565b634e487b7160e01b600052603260045260246000fd5b818110611d41575050565b60008155600101611d36565b9190601f8111611d5c57505050565b611d88926000526020600020906020601f840160051c83019310611d8a575b601f0160051c0190611d36565b565b9091508190611d7b565b60405190611da18261189b565b6060608083828152600060208201526000604082015282808201520152565b6001600160401b0381116112185760051b60200190565b9190820180921161140357565b60005b828110611df357505050565b606082820152602001611de7565b8051821015611d205760209160051b010190565b90611e22611e3192612817565b60208151910120923691611928565b6020815191012014611e4257600090565b600190565b81601f82011215610116578051611e5d8161190d565b92611e6b60405194856118ec565b818452602082840101116101165761197a91602080850191016119aa565b602080828403126101165781516001600160401b039283821161011657019260a0848203126101165760405193611ebf8561189b565b80518481116101165782611ed4918301611e47565b8552808301516001600160a01b038116810361011657838601526040810151604086015260608101518481116101165782611f10918301611e47565b6060860152608081015190848211610116570181601f82011215610116578051611f3981611dc0565b94611f4760405196876118ec565b818652848087019260051b8401019380851161011657858401925b858410611f785750505050505050608082015290565b8351838111610116578791611f92848480948a0101611e47565b815201930192611f62565b805115612005576000611fcc9160405180938192633d093b0b60e01b83526020600484015260248301906119cd565b0381305afa9081611fe2575b50611e4257600090565b611ffe903d806000833e611ff681836118ec565b810190611e89565b5038611fd8565b50600090565b6120179092919261217c565b9160005b835181101561205e5761202e8185611e01565b51805160208092012090612043368686611928565b8051910120146120555760010161201b565b50505050600190565b50505050600090565b805115612005576001600160a01b039060209061208390612089565b01511690565b612091611d94565b506006546000806040926108f76120c185516120ac816118d1565b84815286519283916020998a840196876127b5565b51906004600160981b015afa6120d56127e7565b9015612146576121076120f282858060ff95518301019101611e89565b938451818551938285809451938492016119aa565b8101600481520301902054161561213657808201514211612126575090565b51630b17115560e41b8152600490fd5b5163283d62bd60e01b8152600490fd5b815162461bcd60e51b815260048101849052600f60248201526e191958dc9e5c1d0e8819985a5b1959608a1b6044820152606490fd5b80516020820120600052600060205260ff604060002054166118895761197a908051156121b3576121ae608091612089565b015190565b506040516121c0816118d1565b6000815290565b6040519061018082018281106001600160401b038211176112185760405281610160606091828152600060208201528260408201528280820152826080820152600060a08201528260c08201528260e08201528261010082015282610120820152826101408201520152565b90821015611d20570190565b60001981146114035760010190565b9060405161225b816118b6565b6004928382526020368184013760005b848110806127ab575b156122a45761229f906001600160f81b03196122908285612895565b511660001a610e238286612895565b61226b565b506122b5929161ffff938491612a7f565b16916122bf612849565b9260059460055b60078110806127a1575b15612324576001600160f81b03196122e88287612895565b516004198301911682821161230f5790610e2361230a939260001a9189612895565b6122c6565b60118a634e487b7160e01b6000525260246000fd5b509194612336919460ff928391612a7f565b1691612340612849565b9560085b600a811080612797575b156123a2576001600160f81b03196123668289612895565b516007198301911682821161238d5790610e23612388939260001a918b612895565b612344565b60118c634e487b7160e01b6000525260246000fd5b50919396906123b2819497612a7f565b16906123bc612849565b96600b5b600d81108061278d575b1561241e576001600160f81b03196123e2828a612895565b51600a19830191168282116124095790610e23612404939260001a918c612895565b6123c0565b60118d634e487b7160e01b6000525260246000fd5b50919361243081989992949699612a7f565b169761243a612849565b97600e5b6010811080612783575b1561249c576001600160f81b0319612460828b612895565b51600d19830191168282116124875790610e23612482939260001a918d612895565b61243e565b60118e634e487b7160e01b6000525260246000fd5b506124ae819395979a92949699612a7f565b16926124b8612849565b9860115b6013811080612779575b1561251a576001600160f81b03196124de828c612895565b516010198301911682821161250557610e2361250093928e9260001a92612895565b6124bc565b60118f634e487b7160e01b6000525260246000fd5b509295999194988691949850612532909b979b612a7f565b16986000936107b25b838b8216106127225750604051926101808085018581106001600160401b0382111761270d57604052368537612575601f91828652612ba5565b1561270157601d60208501525b806040850152601e6060850152806080850152601e60a08501528060c08501528060e0850152601e61010085015280610120850152601e61014085015261016084015260019283926001945b61267a575b50505050506000190183811161266557610e1091612603916125fc63ffffffff96879216612ad5565b1690611dd7565b910291821691820361265057603c9161261b91611dd7565b920292831692830361263b575061197a929161263691611dd7565b611dd7565b601190634e487b7160e01b6000525260246000fd5b601183634e487b7160e01b6000525260246000fd5b601185634e487b7160e01b6000525260246000fd5b90919293958b8716828110156126fa57600019018c81116126e557600c8d821610156126d057856126c781969594938f936125fc621fffe09163ffffffff9283918b1b1689015116612ad5565b980116946125ce565b60328b634e487b7160e01b6000525260246000fd5b60118b634e487b7160e01b6000525260246000fd5b50956125d3565b601c6020850152612582565b60418b634e487b7160e01b6000525260246000fd5b9461272c86612ba5565b15612761576301e28500810180911161274c5760018b91965b011661253b565b601189634e487b7160e01b6000525260246000fd5b6301e13380810180911161274c5760018b9196612745565b50895181106124c6565b5088518110612448565b50875181106123ca565b508651811061234e565b50845181106122d0565b5081518110612274565b916127d99061197a94928452600060208501526080604085015260808401906119cd565b9160608184039101526119cd565b3d15612812573d906127f88261190d565b9161280660405193846118ec565b82523d6000602084013e565b606090565b80516020820120600052600060205260ff604060002054166118895761197a908051156121b3576121ae606091612089565b60405190612856826118b6565b6002825260203681840137565b9061286d8261190d565b61287a60405191826118ec565b828152809261288b601f199161190d565b0190602036910137565b908151811015611d20570160200190565b9290926128bb6128b68585611cdc565b612863565b91845b8481108061290b575b15612902576128fd906001600160f81b03196128e38286612895565b5116610e236128f28984611cdc565b9160001a9187612895565b6128be565b50935050905090565b50825181106128c7565b60ff16600a019060ff821161140357565b909392919382945b8186106129b5575b505b80851061295457916104968592612950943691611928565b9190565b9193600560f91b6001600160f81b031961296f838686612233565b351614612980576001019391612938565b936104968592612991943691611928565b600183018093116129a0579190565b60246000634e487b7160e01b81526011600452fd5b94909291906001600160f81b0319601d60f91b816129d4848887612233565b3516146129ef57506129e59061223f565b949290919261292e565b95612a04828561049696949596368989611928565b90815160208093012091815191012003612a665750612a229061223f565b938285109081612a4b575b50612a3b575b839182612936565b92612a459061223f565b92612a33565b600160fd1b9150612a5d868585612233565b35161438612a2d565b9450505050604051612a77816118d1565b600081529190565b90600091825b8151841015612ad057600a9081810291818304149015171561140357612aab8483612895565b5160f81c90602f19820191821161140357600191612ac891611dd7565b930192612a85565b925050565b906201518063ffffffff8093160291821691820361140357565b60f881901b6001600160f81b031916600360fc1b81101580612b97575b612b8357606160f81b81101580612b75575b612b6657604160f81b8110159081612b57575b50612b3c5750600090565b60ff612b4a60401992612915565b160160ff81116114035790565b602360f91b1015905038612b31565b5060ff612b4a60601992612915565b50603360f91b811115612b1e565b5060ff602f1991160160ff81116114035790565b50603960f81b811115612b0c565b600381166120055761ffff809116816064820616612bd157610190900616612bcc57600190565b600090565b505060019056fea26469706673582212201c4cea871a508be4f8c2a6cc8be4a0b1235b5287631e11d2d56b3cf65dcc414064736f6c63430008180033",
  "linkReferences": {},
  "deployedLinkReferences": {}
}