{
  "_format": "hh-sol-artifact-1",
  "contractName": "Exchange",
  "sourceName": "contracts/Exchange.sol",
  "abi": [
    {
      "inputs": [
        {
          "internalType": "address",
          "name": "addrManager_",
          "type": "address"
        }
      ],
      "stateMutability": "nonpayable",
      "type": "constructor"
    },
    {
      "inputs": [],
      "name": "AmountIsZero",
      "type": "error"
    },
    {
      "inputs": [],
      "name": "AuctionOver",
      "type": "error"
    },
    {
      "inputs": [],
      "name": "AvailableBuyer",
      "type": "error"
    },
    {
      "inputs": [],
      "name": "BlackTokenIdNotExist",
      "type": "error"
    },
    {
      "inputs": [],
      "name": "BoxAlreadyInBlacklist",
      "type": "error"
    },
    {
      "inputs": [],
      "name": "BoxNotExists",
      "type": "error"
    },
    {
      "inputs": [],
      "name": "DeadlineIsOver",
      "type": "error"
    },
    {
      "inputs": [],
      "name": "DeadlineNotOver",
      "type": "error"
    },
    {
      "inputs": [],
      "name": "EmptyBoxInfoCID",
      "type": "error"
    },
    {
      "inputs": [],
      "name": "EmptyPrice",
      "type": "error"
    },
    {
      "inputs": [],
      "name": "EmptyTokenCID",
      "type": "error"
    },
    {
      "inputs": [],
      "name": "EmptyTokenURI",
      "type": "error"
    },
    {
      "inputs": [],
      "name": "InBlacklist",
      "type": "error"
    },
    {
      "inputs": [],
      "name": "InvalidBoxId",
      "type": "error"
    },
    {
      "inputs": [],
      "name": "InvalidCaller",
      "type": "error"
    },
    {
      "inputs": [],
      "name": "InvalidContractAddress",
      "type": "error"
    },
    {
      "inputs": [],
      "name": "InvalidContractCaller",
      "type": "error"
    },
    {
      "inputs": [],
      "name": "InvalidDeadline",
      "type": "error"
    },
    {
      "inputs": [],
      "name": "InvalidERC20Interface",
      "type": "error"
    },
    {
      "inputs": [],
      "name": "InvalidImplementation",
      "type": "error"
    },
    {
      "inputs": [],
      "name": "InvalidPeriod",
      "type": "error"
    },
    {
      "inputs": [],
      "name": "InvalidRate",
      "type": "error"
    },
    {
      "inputs": [],
      "name": "InvalidStatus",
      "type": "error"
    },
    {
      "inputs": [],
      "name": "NotAdmin",
      "type": "error"
    },
    {
      "inputs": [],
      "name": "NotAdminOrDAO",
      "type": "error"
    },
    {
      "inputs": [],
      "name": "NotBuyer",
      "type": "error"
    },
    {
      "inputs": [],
      "name": "NotDAO",
      "type": "error"
    },
    {
      "inputs": [],
      "name": "NotInSecrecy",
      "type": "error"
    },
    {
      "inputs": [],
      "name": "NotMinter",
      "type": "error"
    },
    {
      "inputs": [],
      "name": "PublicTimeNotEnd",
      "type": "error"
    },
    {
      "inputs": [],
      "name": "RefundPermitTrue",
      "type": "error"
    },
    {
      "inputs": [],
      "name": "TokenAlreadyExists",
      "type": "error"
    },
    {
      "inputs": [],
      "name": "TokenNotExists",
      "type": "error"
    },
    {
      "inputs": [],
      "name": "TokenNotSupported",
      "type": "error"
    },
    {
      "inputs": [],
      "name": "ZeroAddress",
      "type": "error"
    },
    {
      "anonymous": false,
      "inputs": [
        {
          "indexed": true,
          "internalType": "uint256",
          "name": "boxId",
          "type": "uint256"
        },
        {
          "indexed": true,
          "internalType": "uint256",
          "name": "userId",
          "type": "uint256"
        }
      ],
      "name": "BidPlaced",
      "type": "event"
    },
    {
      "anonymous": false,
      "inputs": [
        {
          "indexed": true,
          "internalType": "uint256",
          "name": "boxId",
          "type": "uint256"
        },
        {
          "indexed": true,
          "internalType": "uint256",
          "name": "userId",
          "type": "uint256"
        },
        {
          "indexed": false,
          "internalType": "address",
          "name": "acceptedToken",
          "type": "address"
        }
      ],
      "name": "BoxListed",
      "type": "event"
    },
    {
      "anonymous": false,
      "inputs": [
        {
          "indexed": true,
          "internalType": "uint256",
          "name": "boxId",
          "type": "uint256"
        },
        {
          "indexed": true,
          "internalType": "uint256",
          "name": "userId",
          "type": "uint256"
        }
      ],
      "name": "BoxPurchased",
      "type": "event"
    },
    {
      "anonymous": false,
      "inputs": [
        {
          "indexed": true,
          "internalType": "uint256",
          "name": "boxId",
          "type": "uint256"
        },
        {
          "indexed": true,
          "internalType": "uint256",
          "name": "userId",
          "type": "uint256"
        }
      ],
      "name": "CompleterAssigned",
      "type": "event"
    },
    {
      "anonymous": false,
      "inputs": [
        {
          "indexed": true,
          "internalType": "uint256",
          "name": "boxId",
          "type": "uint256"
        },
        {
          "indexed": false,
          "internalType": "bool",
          "name": "permission",
          "type": "bool"
        }
      ],
      "name": "RefundPermitChanged",
      "type": "event"
    },
    {
      "anonymous": false,
      "inputs": [
        {
          "indexed": true,
          "internalType": "uint256",
          "name": "boxId",
          "type": "uint256"
        },
        {
          "indexed": false,
          "internalType": "uint256",
          "name": "deadline",
          "type": "uint256"
        }
      ],
      "name": "RequestDeadlineChanged",
      "type": "event"
    },
    {
      "anonymous": false,
      "inputs": [
        {
          "indexed": true,
          "internalType": "uint256",
          "name": "boxId",
          "type": "uint256"
        },
        {
          "indexed": false,
          "internalType": "uint256",
          "name": "deadline",
          "type": "uint256"
        }
      ],
      "name": "ReviewDeadlineChanged",
      "type": "event"
    },
    {
      "inputs": [
        {
          "internalType": "uint256",
          "name": "boxId_",
          "type": "uint256"
        }
      ],
      "name": "acceptedToken",
      "outputs": [
        {
          "internalType": "address",
          "name": "",
          "type": "address"
        }
      ],
      "stateMutability": "view",
      "type": "function"
    },
    {
      "inputs": [],
      "name": "admin",
      "outputs": [
        {
          "internalType": "address",
          "name": "",
          "type": "address"
        }
      ],
      "stateMutability": "view",
      "type": "function"
    },
    {
      "inputs": [
        {
          "internalType": "uint256",
          "name": "boxId_",
          "type": "uint256"
        }
      ],
      "name": "agreeRefund",
      "outputs": [],
      "stateMutability": "nonpayable",
      "type": "function"
    },
    {
      "inputs": [
        {
          "internalType": "uint256",
          "name": "boxId_",
          "type": "uint256"
        },
        {
          "internalType": "address",
          "name": "acceptedToken_",
          "type": "address"
        },
        {
          "internalType": "uint256",
          "name": "price_",
          "type": "uint256"
        }
      ],
      "name": "auction",
      "outputs": [],
      "stateMutability": "nonpayable",
      "type": "function"
    },
    {
      "inputs": [
        {
          "internalType": "uint256",
          "name": "boxId_",
          "type": "uint256"
        }
      ],
      "name": "bid",
      "outputs": [],
      "stateMutability": "nonpayable",
      "type": "function"
    },
    {
      "inputs": [],
      "name": "bidIncrementRate",
      "outputs": [
        {
          "internalType": "uint8",
          "name": "",
          "type": "uint8"
        }
      ],
      "stateMutability": "view",
      "type": "function"
    },
    {
      "inputs": [
        {
          "internalType": "uint256",
          "name": "boxId_",
          "type": "uint256"
        }
      ],
      "name": "buy",
      "outputs": [],
      "stateMutability": "nonpayable",
      "type": "function"
    },
    {
      "inputs": [
        {
          "internalType": "uint256",
          "name": "boxId_",
          "type": "uint256"
        }
      ],
      "name": "buyerOf",
      "outputs": [
        {
          "internalType": "address",
          "name": "",
          "type": "address"
        }
      ],
      "stateMutability": "view",
      "type": "function"
    },
    {
      "inputs": [
        {
          "internalType": "uint256",
          "name": "boxId_",
          "type": "uint256"
        }
      ],
      "name": "calcPayMoney",
      "outputs": [
        {
          "internalType": "uint256",
          "name": "",
          "type": "uint256"
        }
      ],
      "stateMutability": "view",
      "type": "function"
    },
    {
      "inputs": [
        {
          "internalType": "uint256",
          "name": "boxId_",
          "type": "uint256"
        }
      ],
      "name": "cancelRefund",
      "outputs": [],
      "stateMutability": "nonpayable",
      "type": "function"
    },
    {
      "inputs": [
        {
          "internalType": "uint256",
          "name": "boxId_",
          "type": "uint256"
        }
      ],
      "name": "completeOrder",
      "outputs": [],
      "stateMutability": "nonpayable",
      "type": "function"
    },
    {
      "inputs": [
        {
          "internalType": "uint256",
          "name": "boxId_",
          "type": "uint256"
        }
      ],
      "name": "completerOf",
      "outputs": [
        {
          "internalType": "address",
          "name": "",
          "type": "address"
        }
      ],
      "stateMutability": "view",
      "type": "function"
    },
    {
      "inputs": [],
      "name": "implementation",
      "outputs": [
        {
          "internalType": "address",
          "name": "",
          "type": "address"
        }
      ],
      "stateMutability": "view",
      "type": "function"
    },
    {
      "inputs": [
        {
          "internalType": "uint256",
          "name": "boxId_",
          "type": "uint256"
        }
      ],
      "name": "isInRequestRefundDeadline",
      "outputs": [
        {
          "internalType": "bool",
          "name": "",
          "type": "bool"
        }
      ],
      "stateMutability": "view",
      "type": "function"
    },
    {
      "inputs": [
        {
          "internalType": "uint256",
          "name": "boxId_",
          "type": "uint256"
        }
      ],
      "name": "isInReviewDeadline",
      "outputs": [
        {
          "internalType": "bool",
          "name": "",
          "type": "bool"
        }
      ],
      "stateMutability": "view",
      "type": "function"
    },
    {
      "inputs": [
        {
          "internalType": "uint256",
          "name": "boxId_",
          "type": "uint256"
        }
      ],
      "name": "refundPermit",
      "outputs": [
        {
          "internalType": "bool",
          "name": "",
          "type": "bool"
        }
      ],
      "stateMutability": "view",
      "type": "function"
    },
    {
      "inputs": [
        {
          "internalType": "uint256",
          "name": "boxId_",
          "type": "uint256"
        }
      ],
      "name": "refundRequestDeadline",
      "outputs": [
        {
          "internalType": "uint256",
          "name": "",
          "type": "uint256"
        }
      ],
      "stateMutability": "view",
      "type": "function"
    },
    {
      "inputs": [],
      "name": "refundRequestPeriod",
      "outputs": [
        {
          "internalType": "uint256",
          "name": "",
          "type": "uint256"
        }
      ],
      "stateMutability": "view",
      "type": "function"
    },
    {
      "inputs": [
        {
          "internalType": "uint256",
          "name": "boxId_",
          "type": "uint256"
        }
      ],
      "name": "refundReviewDeadline",
      "outputs": [
        {
          "internalType": "uint256",
          "name": "",
          "type": "uint256"
        }
      ],
      "stateMutability": "view",
      "type": "function"
    },
    {
      "inputs": [],
      "name": "refundReviewPeriod",
      "outputs": [
        {
          "internalType": "uint256",
          "name": "",
          "type": "uint256"
        }
      ],
      "stateMutability": "view",
      "type": "function"
    },
    {
      "inputs": [
        {
          "internalType": "uint256",
          "name": "boxId_",
          "type": "uint256"
        }
      ],
      "name": "refuseRefund",
      "outputs": [],
      "stateMutability": "nonpayable",
      "type": "function"
    },
    {
      "inputs": [
        {
          "internalType": "uint256",
          "name": "boxId_",
          "type": "uint256"
        }
      ],
      "name": "requestRefund",
      "outputs": [],
      "stateMutability": "nonpayable",
      "type": "function"
    },
    {
      "inputs": [
        {
          "internalType": "uint256",
          "name": "boxId_",
          "type": "uint256"
        },
        {
          "internalType": "address",
          "name": "acceptedToken_",
          "type": "address"
        },
        {
          "internalType": "uint256",
          "name": "price_",
          "type": "uint256"
        }
      ],
      "name": "sell",
      "outputs": [],
      "stateMutability": "nonpayable",
      "type": "function"
    },
    {
      "inputs": [
        {
          "internalType": "uint256",
          "name": "boxId_",
          "type": "uint256"
        }
      ],
      "name": "sellerOf",
      "outputs": [
        {
          "internalType": "address",
          "name": "",
          "type": "address"
        }
      ],
      "stateMutability": "view",
      "type": "function"
    },
    {
      "inputs": [],
      "name": "setAddress",
      "outputs": [],
      "stateMutability": "nonpayable",
      "type": "function"
    },
    {
      "inputs": [
        {
          "internalType": "address",
          "name": "addrManager_",
          "type": "address"
        }
      ],
      "name": "setAddressManager",
      "outputs": [],
      "stateMutability": "nonpayable",
      "type": "function"
    },
    {
      "inputs": [
        {
          "internalType": "address",
          "name": "newAdmin_",
          "type": "address"
        }
      ],
      "name": "setAdmin",
      "outputs": [],
      "stateMutability": "nonpayable",
      "type": "function"
    },
    {
      "inputs": [
        {
          "internalType": "uint8",
          "name": "rate_",
          "type": "uint8"
        }
      ],
      "name": "setBidIncrementRate",
      "outputs": [],
      "stateMutability": "nonpayable",
      "type": "function"
    },
    {
      "inputs": [
        {
          "internalType": "uint256",
          "name": "boxId_",
          "type": "uint256"
        },
        {
          "internalType": "bool",
          "name": "permission_",
          "type": "bool"
        }
      ],
      "name": "setRefundPermit",
      "outputs": [],
      "stateMutability": "nonpayable",
      "type": "function"
    },
    {
      "inputs": [
        {
          "internalType": "uint256",
          "name": "period_",
          "type": "uint256"
        }
      ],
      "name": "setRefundRequestPeriod",
      "outputs": [],
      "stateMutability": "nonpayable",
      "type": "function"
    },
    {
      "inputs": [
        {
          "internalType": "uint256",
          "name": "period_",
          "type": "uint256"
        }
      ],
      "name": "setRefundReviewPeriod",
      "outputs": [],
      "stateMutability": "nonpayable",
      "type": "function"
    },
    {
      "inputs": [
        {
          "internalType": "address",
          "name": "newImplementation_",
          "type": "address"
        }
      ],
      "name": "upgrade",
      "outputs": [],
      "stateMutability": "nonpayable",
      "type": "function"
    }
  ],
  "bytecode": "0x6080346100b457601f61278138819003918201601f19168301916001600160401b038311848410176100b9578084926020946040528339810103126100b457516001600160a01b038116908190036100b45760018060a01b03197fb53127684a568b3173ae13b9f8a6016e243e63b6e8ee1178d6a717850b5d610333828254161790556000541617600055606e60ff19600754161760075562093a806005556213c6806006556040516126b190816100d08239f35b600080fd5b634e487b7160e01b600052604160045260246000fdfe608060408181526004918236101561001657600080fd5b600092833560e01c9182630652b57a1461224f575081630900f010146121b457816312b65bb014611f7c57816316efecef14611f5c5781631d934b6c14611f3357838263454a2ab314611c4a575081634a7a281614611c195781634fb354b314611b685781635bcb595014611ad25781635c60da1b14611a8a57816366f240f81461191a57816367cdf6c91461164a578163704b6c02146115d057816373ebfc621461127e5781637520fce7146111f85781639ec123da14611148578163a3b979c31461107b578163a4b2409e14610e57578163afa5e1ee14610e2e578163b3e5219e14610dfe578163b6adaaff14610b58578163b9793cc814610aba578163c70b248b146108be578163cea0409314610893578163d6e54ff514610874578163d96a094a146105c8578163da0ade5014610542578163e05c5a8314610491578163e6569275146101fe57508063f0cc2b14146101dd578063f74c8ea3146101bf5763f851a4401461018757600080fd5b346101bb57816003193601126101bb5760008051602061265c8339815191525490516001600160a01b039091168152602090f35b5080fd5b50346101bb57816003193601126101bb576020906006549051908152f35b50346101bb57816003193601126101bb5760209060ff600754169051908152f35b90503461048d578260031936011261048d5782546001600160a01b03908116923384141580610472575b610463578051636f9f44c560e01b81526020949085818681855afa90811561045957879161043c575b508251636209ec2d60e01b81529580878781865afa968715610432578897610413575b508351635897591960e01b81529281848881845afa93841561040957908792918a956103e8575b5081908651938480926350ec99a760e01b82525afa9485156103df575091859697918694938a966103aa575b505090838092168015158061039c575b610383575b501680151580610375575b61035c575b50168015158061034e575b610335575b5016908115159081610327575b50610312578280f35b81546001600160a01b03191617905538808280f35b905082541681141538610309565b6001600160601b0360a01b6003541617600355386102fc565b5082600354168114156102f7565b6001600160601b0360a01b6002541617600255386102ec565b5082600254168114156102e7565b6001600160601b0360a01b6001541617600155386102dc565b5082600154168114156102d7565b85939296508391816103d092903d106103d8575b6103c8818361231b565b810190612355565b9591926102c7565b503d6103be565b513d8a823e3d90fd5b8291955061040290823d84116103d8576103c8818361231b565b949061029b565b85513d8b823e3d90fd5b8161042b9298503d89116103d8576103c8818361231b565b9538610274565b84513d8a823e3d90fd5b6104539150863d88116103d8576103c8818361231b565b38610251565b83513d89823e3d90fd5b516348f5c3ed60e01b81529050fd5b508160008051602061265c8339815191525416331415610228565b8280fd5b90503461048d576020928360031936011261053f578054835163103864a360e11b815233818501526001600160a01b03939186908290602490829088165afa908115610535578391610508575b50156104fa573581526008845282902060010154915191168152f35b83516348f5c3ed60e01b8152fd5b6105289150863d881161052e575b610520818361231b565b81019061252f565b386104de565b503d610516565b85513d85823e3d90fd5b80fd5b90503461048d576020928360031936011261053f578054835163103864a360e11b815233818501526001600160a01b03939186908290602490829088165afa9081156105355783916105ab575b50156104fa573581526008845282902060020154915191168152f35b6105c29150863d881161052e57610520818361231b565b3861058f565b8383346101bb5760208060031936011261048d576001548251632e31150760e11b815285358187018190526001600160a01b039283169490939290918381602481895afa908115610459578791610847575b50600881101561083457600103610824579585968596953b15610820578251633625b75960e21b81528281018690526003602482015296868860448183855af19788156108165787989796976107fa575b5084826003541660248651809b8193632b956ff760e01b835233898401525af19788156107bb5786986107c5575b508686526008855283862060020180546001600160a01b0319163317905560249085906106c6428a6125ef565b855192838092630e75722360e41b82528b888301525afa9485156107bb578695610783575b50506002541692833b1561077f57825163196d0d3560e01b815291820186815233602082015260408101919091529092849184919082908490829060600103925af19081156107765750610762575b50807fb656198fd89a7699ff3d942dc974676f470781d9d437db45e5f1c6b07efc968a91a380f35b61076b906122f1565b61048d57828461073a565b513d84823e3d90fd5b8480fd5b819650809295503d83116107b4575b61079c818361231b565b810103126107af578693519288806106eb565b600080fd5b503d610792565b84513d88823e3d90fd5b85809299508197503d83116107f3575b6107df818361231b565b810103126107af5793519587949084610699565b503d6107d5565b610806909691966122f1565b6108125786948961066b565b8680fd5b84513d89823e3d90fd5b8580fd5b81516307a92f1960e51b81528790fd5b634e487b7160e01b875260218852602487fd5b6108679150843d861161086d575b61085f818361231b565b81019061233d565b8861061a565b503d610855565b5050346101bb57816003193601126101bb576020906005549051908152f35b90503461048d57602036600319011261048d5781602093600592358152600885522001549051908152f35b9190503461048d576020806003193601126109ae576001548251632e31150760e11b81528435818601819052946001600160a01b039283169290918481602481875afa908115610a54578891610a9d575b506008811015610a8a578203610a7b579086929161092c87612374565b6109bc575b5085835260088452848320600601805460ff19166001179055813b1561048d5785604484928388519586948593633625b75960e21b8552840152600660248401525af180156109b25761099a575b505060008051602061263c833981519152915160018152a280f35b6109a3906122f1565b6109ae57833861097f565b8380fd5b84513d84823e3d90fd5b909192508451634f4a156760e11b815286838201528481602481875afa908115610a54579082918991610a5e575b50163314159081610a04575b506104fa5790859138610931565b9050818482895416875192838092634162169f60e01b82525afa908115610a54578891610a37575b5016331415386109f6565b610a4e9150853d87116103d8576103c8818361231b565b38610a2c565b86513d8a823e3d90fd5b610a759150863d88116103d8576103c8818361231b565b386109ea565b5083516307a92f1960e51b8152fd5b634e487b7160e01b885260218352602488fd5b610ab49150853d871161086d5761085f818361231b565b3861090f565b90503461048d576020928360031936011261053f576001548351630e75722360e41b8152833593810184905292908590849060249082906001600160a01b03165afa918215610b4d5791610b1c575b610b159250339061256a565b9051908152f35b90508382813d8311610b46575b610b33818361231b565b810103126107af57610b15915190610b09565b503d610b29565b8451903d90823e3d90fd5b839150346101bb576020928360031936011261048d576001548151632e31150760e11b815283358185018190526024949290916001600160a01b039182169088818881855afa908115610a54578891610de1575b506008811015610dcf57600303610dbf578287526008885260ff6006868920015416610daf57828752600888528160028689200154163303610c87575b869750803b15610812578680916044875180948193633625b75960e21b8352888a84015260058c8401525af18015610c7d57908791610c69575b50506002541693843b1561082057859283855196879485936320870cc360e21b85528401525af19081156107765750610c595750f35b610c62906122f1565b61053f5780f35b610c72906122f1565b610820578588610c23565b85513d89823e3d90fd5b610c9083612435565b610d9f5786978551634f4a156760e11b8152848682015281818981865afa908115610d78579084918a91610d82575b50163303610cce575b50610be9565b83885260088152600386892001336001600160601b0360a01b8254161790558781846003541689895180948193632b956ff760e01b8352338c8401525af1918215610d78578992610d47575b5050837fe81caeffc2690ec63b1aa465e198aef92e3ca31aaadfd8aaf0fcc76a8f98643d8980a388610cc8565b8199508092503d8311610d71575b610d5f818361231b565b810103126107af578796518980610d1a565b503d610d55565b87513d8b823e3d90fd5b610d999150833d85116103d8576103c8818361231b565b8b610cbf565b8451634e1fc47d60e11b81528490fd5b84516304c1157360e21b81528490fd5b84516307a92f1960e51b81528490fd5b634e487b7160e01b8852602185528688fd5b610df89150893d8b1161086d5761085f818361231b565b89610bac565b90503461048d57602036600319011261048d5760068260209460ff93358152600886522001541690519015158152f35b90503461048d57602036600319011261048d578160209382358152600885522001549051908152f35b9190503461048d576020806003193601126109ae576001548251632e31150760e11b8152843581860181905294916001600160a01b03908116918481602481865afa908115610a5457889161105e575b50600881101561104b5760030361103b5785875260088452806002868920015416330361102b578587526008845260ff600686892001541661101b57908691610eef87612435565b15610f905750610f0160065442612547565b92868352600885528360058785200155813b1561048d5782916044839288519485938492633625b75960e21b84528c8185015260248401525af18015610f8657610f72575b50507fc52de02f08bba719638e1bfcf9ce2622b315527f02946fd49c2f3b9c596d83479251908152a280f35b610f7b906122f1565b61077f578438610f46565b85513d84823e3d90fd5b9195949350803b15610820578580916044865180948193633625b75960e21b83528a89840152600560248401525af180156107bb57908691611007575b50506002541692833b1561077f576024859283855196879485936320870cc360e21b85528401525af19081156107765750610c5957505080f35b611010906122f1565b61077f578438610fcd565b84516304c1157360e21b81528390fd5b845163239700bf60e11b81528390fd5b84516307a92f1960e51b81528390fd5b634e487b7160e01b885260218452602488fd5b6110759150853d871161086d5761085f818361231b565b38610ea7565b90503461048d578160031936011261048d578035916024359182151580930361077f578454825163103864a360e11b8152338382015290602090829060249082906001600160a01b03165afa90811561113e57869161111f575b5015611111575060008051602061263c833981519152916020918486526008835260068187200160ff1981541660ff841617905551908152a280f35b90516348f5c3ed60e01b8152fd5b611138915060203d60201161052e57610520818361231b565b386110d5565b83513d88823e3d90fd5b90503461048d57602036600319011261048d5782548251634162169f60e01b8152823593916001600160a01b03919060209082908690829086165afa90811561113e5786916111d9575b501633036111cc576213c680831080156111c0575b6111b357505060065580f35b516302e8f35960e31b8152fd5b50624f1a0083116111a7565b516327568d2f60e11b8152fd5b6111f2915060203d6020116103d8576103c8818361231b565b38611192565b90503461048d576020928360031936011261053f578054835163103864a360e11b815233818501526001600160a01b03939186908290602490829088165afa908115610535578391611261575b50156104fa573581526008845282902060030154915191168152f35b6112789150863d881161052e57610520818361231b565b38611245565b82843461053f5761128e366122c7565b6001548551632e31150760e11b8152808801859052929660249660209491936001600160a01b039391929184169186818b81865afa9081156114ae576000916115b3575b50600881101561159f5761158f5760009798998685600354168c8651809c8193632b956ff760e01b8352338c8401525af19889156114ae5760009961155e575b5090859187866000541686519889809263682bae5160e01b82525afa96871561155357600097611534575b508451634f4a156760e11b81528381018a9052879089818f81895afa9081156115295790889160009161150c575b501633146114b9575050508251638286227560e01b8152878282015286818c81865afa9081156114ae57600091611481575b504211156114735760008781526008875283812060010180546001600160a01b03191633179055915b6203f480420180421161145f57813b156107af57889385519c8d9586956305ee484760e51b8752860152840152604483016002905260648301525a9260006084928195f1978815611454577f65be9d244edea116678b9b897347d2beda911be0ede048694cb3652e907de81695969798611445575b505191168152a380f35b61144e906122f1565b8861143b565b50513d6000823e3d90fd5b8b601184634e487b7160e01b600052526000fd5b8251634e1fc47d60e11b8152fd5b90508681813d83116114a7575b611498818361231b565b810103126107af57518b61139d565b503d61148e565b84513d6000823e3d90fd5b868295939516908782151591826114ff575b50506114d9575b50506113c6565b60008a815260088a5286902080546001600160a01b031916909117905595508b806114d2565b168214159050878f6114cb565b61152391508b3d8d116103d8576103c8818361231b565b8f61136b565b87513d6000823e3d90fd5b61154c919750883d8a116103d8576103c8818361231b565b958c61133d565b85513d6000823e3d90fd5b919098508682813d8311611588575b611577818361231b565b810103126107af5790519785611312565b503d61156d565b82516307a92f1960e51b81528590fd5b89602187634e487b7160e01b600052526000fd5b6115ca9150873d891161086d5761085f818361231b565b8b6112d2565b9190503461048d57602036600319011261048d576115ec6122b1565b60008051602061265c8339815191528054909390916001600160a01b0390818416330361163a571692831561162d5750506001600160a01b03191617905580f35b5163d92e233d60e01b8152fd5b8451637bfa4b9f60e01b81528390fd5b82843461053f5761165a366122c7565b6001548551632e31150760e11b8152808801859052929660249660209491936001600160a01b039391929184169186818b81865afa9081156114ae576000916118fd575b50600881101561159f5761158f5760009798998685600354168c8651809c8193632b956ff760e01b8352338c8401525af19889156114ae576000996118cc575b5090859187866000541686519889809263682bae5160e01b82525afa968715611553576000976118ad575b508451634f4a156760e11b81528381018a9052879089818f81895afa90811561152957908891600091611890575b5016331461183d575050508251638286227560e01b8152878282015286818c81865afa9081156114ae57600091611810575b504211156114735760008781526008875283812060010180546001600160a01b03191633179055915b6213c680420180421161145f57813b156107af57889385519c8d9586956305ee484760e51b8752860152840152604483016001905260648301525a9260006084928195f1978815611454577f65be9d244edea116678b9b897347d2beda911be0ede048694cb3652e907de8169596979861144557505191168152a380f35b90508681813d8311611836575b611827818361231b565b810103126107af57518b611769565b503d61181d565b86829593951690878215159182611883575b505061185d575b5050611792565b60008a815260088a5286902080546001600160a01b031916909117905595508b80611856565b168214159050878f61184f565b6118a791508b3d8d116103d8576103c8818361231b565b8f611737565b6118c5919750883d8a116103d8576103c8818361231b565b958c611709565b919098508682813d83116118f6575b6118e5818361231b565b810103126107af57905197856116de565b503d6118db565b6119149150873d891161086d5761085f818361231b565b8b61169e565b839150346101bb576020928360031936011261048d57813580845260088552818420600201549092906001600160a01b039081163303611a7b578385526008865260ff6006848720015416611a6c578060015416958351632e31150760e11b8152858482015281816024818b5afa918215610c7d578792611a4f575b50506008811015611a3c578203611a2d578585963b15610820578580916044865180948193633625b75960e21b83528a89840152600560248401525af180156107bb57908691611a19575b50506002541692833b1561077f576024859283855196879485936320870cc360e21b85528401525af19081156107765750610c595750f35b611a22906122f1565b61077f5784876119e1565b5090516307a92f1960e51b8152fd5b634e487b7160e01b865260218352602486fd5b611a659250803d1061086d5761085f818361231b565b8780611996565b5090516304c1157360e21b8152fd5b50905163239700bf60e11b8152fd5b5050346101bb57816003193601126101bb577f360894a13ba1a3210667c828492db98dca3e2076cc3735a920a3ca505d382bbc5490516001600160a01b039091168152602090f35b90503461048d57602036600319011261048d5782548251634162169f60e01b8152823593916001600160a01b03919060209082908690829086165afa90811561113e578691611b49575b501633036111cc5762093a8083108015611b3d575b6111b357505060055580f35b506213c6808311611b31565b611b62915060203d6020116103d8576103c8818361231b565b38611b1c565b90503461048d57602036600319011261048d5780359160ff83168093036109ae5783548151634162169f60e01b81526001600160a01b039160209082908690829086165afa90811561113e578691611bfa575b501633036111cc5760648311801590611bf0575b611be357505060ff19600754161760075580f35b51636a43f8d160e01b8152fd5b5060968311611bcf565b611c13915060203d6020116103d8576103c8818361231b565b38611bbb565b82843461053f57602036600319011261053f5750611c39602092356124bd565b90516001600160a01b039091168152f35b80918434611f2f5760209182600319360112611f2a5780359160018060a01b03918260035416948083518097632b956ff760e01b825233858301528160249b8c925af1958615610459578796611efb575b50848752600881528360028489200154163314611eec578487526008815282872060020180546001600160a01b03191633179055600154835160016208921160e21b0319815283810187905290851698909160608383818d5afa80156104095789918a948b92611e9d575b50504211611e8d576008811015611e7b57600203611e6b576203f480420190814211611e5a57611d3682886125ef565b60ff60075416808402908482041484151715611e48578a8a9b9a98999a3b15611e4457898960849260649682968b5198899788966305ee484760e51b88528d88015204908501526000604485015260648401525af180156107bb57908691611e30575b5050611da690338761256a565b926002541692833b1561077f57825163196d0d3560e01b815291820186815233602082015260408101919091529092849184919082908490829060600103925af19081156107765750611e1c575b50807f0fc69407039e8ba8cdd517e2a4cae9dd19697b0a500ff37a2425c59ebc649b3191a380f35b611e25906122f1565b61048d578284611df4565b611e39906122f1565b61077f578489611d99565b8880fd5b50634e487b7160e01b89526011845288fd5b634e487b7160e01b89526011845288fd5b83516307a92f1960e51b81528390fd5b50634e487b7160e01b88526021835287fd5b8451631508531560e31b81528490fd5b92509350506060813d606011611ee4575b81611ebb6060938361231b565b81010312611e44578051926008841015611ee057810151908501519092908b80611d06565b8980fd5b3d9150611eae565b5090516348f5c3ed60e01b8152fd5b9080965081813d8311611f23575b611f13818361231b565b810103126107af57519488611c9b565b503d611f09565b505050fd5b5050fd5b82843461053f57602036600319011261053f5750611f5360209235612435565b90519015158152f35b82843461053f57602036600319011261053f5750611f5360209235612374565b839150346101bb576020928360031936011261048d576001548151632e31150760e11b815283358185018190526001600160a01b03928316969094929181816024818b5afa908115610c7d578791612197575b506008811015612184578303611e6b578486526008815260ff600685882001541661217457611ffd85612374565b156120d957828183885416865192838092634162169f60e01b82525afa918215610c7d579083929188926120bc575b5050163303611eec578585963b15610820578580916044865180948193633625b75960e21b83528a89840152600560248401525af180156107bb579086916120a85750506002541692833b1561077f576024859283855196879485936320870cc360e21b85528401525af19081156107765750610c5957505080f35b6120b1906122f1565b61077f578487610fcd565b6120d29250803d106103d8576103c8818361231b565b888061202c565b9394959186915085825260088552600684832001600160ff19825416179055823b156101bb57604486918386519586948593633625b75960e21b8552840152600660248401525af1801561216a57612147575b509060008051602061263c833981519152915160018152a280f35b9361216260008051602061263c8339815191529392956122f1565b93909161212c565b82513d87823e3d90fd5b83516304c1157360e21b81528390fd5b634e487b7160e01b875260218452602487fd5b6121ae9150823d841161086d5761085f818361231b565b88611fcf565b9190503461048d57602036600319011261048d576121d06122b1565b60008051602061265c8339815191525490926001600160a01b039290918316330361224257833b156122355750507f360894a13ba1a3210667c828492db98dca3e2076cc3735a920a3ca505d382bbc91166001600160601b0360a01b82541617905580f35b5163340aafcd60e11b8152fd5b51637bfa4b9f60e01b8152fd5b84913461048d57602036600319011261048d5761226a6122b1565b60008051602061265c833981519152546001600160a01b039391929190841633036122a557505082546001600160a01b031916911617815580f35b637bfa4b9f60e01b8152fd5b600435906001600160a01b03821682036107af57565b60609060031901126107af57600435906024356001600160a01b03811681036107af579060443590565b67ffffffffffffffff811161230557604052565b634e487b7160e01b600052604160045260246000fd5b90601f8019910116810190811067ffffffffffffffff82111761230557604052565b908160209103126107af575160088110156107af5790565b908160209103126107af57516001600160a01b03811681036107af5790565b600154604051632e31150760e11b81526004810183905290602090829060249082906001600160a01b03165afa9081156124295760009161240a575b5060088110156123f4576004036123e257600052600860205260056040600020015442116123dd57600190565b600090565b6040516307a92f1960e51b8152600490fd5b634e487b7160e01b600052602160045260246000fd5b612423915060203d60201161086d5761085f818361231b565b386123b0565b6040513d6000823e3d90fd5b600154604051632e31150760e11b81526004810183905290602090829060249082906001600160a01b03165afa9081156124295760009161249e575b5060088110156123f4576003036123e257600052600860205260046040600020015442116123dd57600190565b6124b7915060203d60201161086d5761085f818361231b565b38612471565b6000908152600860205260409020546001600160a01b039081169081156124e2575090565b60005460405163682bae5160e01b8152925060209183916004918391165afa90811561242957600091612513575090565b61252c915060203d6020116103d8576103c8818361231b565b90565b908160209103126107af575180151581036107af5790565b9190820180921161255457565b634e487b7160e01b600052601160045260246000fd5b60025460405163580d67a560e01b815260048101929092526001600160a01b039283166024830152909160209183916044918391165afa908115612429576000916125bd575b5081039081116125545790565b90506020813d6020116125e7575b816125d86020938361231b565b810103126107af5751386125b0565b3d91506125cb565b9060206126207faef7723520380eee6de3a60cdea8491aaddca20c0cdb2d1850ca7f93194783159260055490612547565b836000526008825280600460406000200155604051908152a256fe3f4d41438448f2543938fc94b8d0ed6c05bf0afae44d27a75ae402c7d2f22368b53127684a568b3173ae13b9f8a6016e243e63b6e8ee1178d6a717850b5d6103a2646970667358221220d9e1b8a566effd4ea37d2a39cd3ef305ea67209ccc8c1b8c706d5350b70d52cb64736f6c63430008180033",
  "linkReferences": {},
  "deployedLinkReferences": {}
}