{
  "_format": "hh-sol-artifact-1",
  "contractName": "Exchange",
  "sourceName": "contracts/Exchange.sol",
  "abi": [
    {
      "inputs": [],
      "stateMutability": "nonpayable",
      "type": "constructor"
    },
    {
      "inputs": [],
      "name": "AmountIsZero",
      "type": "error"
    },
    {
      "inputs": [],
      "name": "AuctionOver",
      "type": "error"
    },
    {
      "inputs": [],
      "name": "AvailableBuyer",
      "type": "error"
    },
    {
      "inputs": [],
      "name": "BlackTokenIdNotExist",
      "type": "error"
    },
    {
      "inputs": [],
      "name": "BoxAlreadyInBlacklist",
      "type": "error"
    },
    {
      "inputs": [],
      "name": "BoxNotExists",
      "type": "error"
    },
    {
      "inputs": [],
      "name": "DeadlineIsOver",
      "type": "error"
    },
    {
      "inputs": [],
      "name": "DeadlineNotOver",
      "type": "error"
    },
    {
      "inputs": [],
      "name": "EmptyBoxInfoCID",
      "type": "error"
    },
    {
      "inputs": [],
      "name": "EmptyPrice",
      "type": "error"
    },
    {
      "inputs": [],
      "name": "EmptyTokenCID",
      "type": "error"
    },
    {
      "inputs": [],
      "name": "EmptyTokenURI",
      "type": "error"
    },
    {
      "inputs": [],
      "name": "InBlacklist",
      "type": "error"
    },
    {
      "inputs": [],
      "name": "InvalidBoxId",
      "type": "error"
    },
    {
      "inputs": [],
      "name": "InvalidCaller",
      "type": "error"
    },
    {
      "inputs": [],
      "name": "InvalidContractAddress",
      "type": "error"
    },
    {
      "inputs": [],
      "name": "InvalidContractCaller",
      "type": "error"
    },
    {
      "inputs": [],
      "name": "InvalidDeadline",
      "type": "error"
    },
    {
      "inputs": [],
      "name": "InvalidERC20Interface",
      "type": "error"
    },
    {
      "inputs": [],
      "name": "InvalidImplementation",
      "type": "error"
    },
    {
      "inputs": [],
      "name": "InvalidPeriod",
      "type": "error"
    },
    {
      "inputs": [],
      "name": "InvalidRate",
      "type": "error"
    },
    {
      "inputs": [],
      "name": "InvalidStatus",
      "type": "error"
    },
    {
      "inputs": [],
      "name": "NotAdmin",
      "type": "error"
    },
    {
      "inputs": [],
      "name": "NotAdminOrDAO",
      "type": "error"
    },
    {
      "inputs": [],
      "name": "NotBuyer",
      "type": "error"
    },
    {
      "inputs": [],
      "name": "NotDAO",
      "type": "error"
    },
    {
      "inputs": [],
      "name": "NotInSecrecy",
      "type": "error"
    },
    {
      "inputs": [],
      "name": "NotMinter",
      "type": "error"
    },
    {
      "inputs": [],
      "name": "PublicTimeNotEnd",
      "type": "error"
    },
    {
      "inputs": [],
      "name": "RefundPermitTrue",
      "type": "error"
    },
    {
      "inputs": [],
      "name": "TokenAlreadyExists",
      "type": "error"
    },
    {
      "inputs": [],
      "name": "TokenNotExists",
      "type": "error"
    },
    {
      "inputs": [],
      "name": "TokenNotSupported",
      "type": "error"
    },
    {
      "inputs": [],
      "name": "ZeroAddress",
      "type": "error"
    },
    {
      "anonymous": false,
      "inputs": [
        {
          "indexed": true,
          "internalType": "uint256",
          "name": "boxId",
          "type": "uint256"
        },
        {
          "indexed": true,
          "internalType": "uint256",
          "name": "userId",
          "type": "uint256"
        }
      ],
      "name": "BidPlaced",
      "type": "event"
    },
    {
      "anonymous": false,
      "inputs": [
        {
          "indexed": true,
          "internalType": "uint256",
          "name": "boxId",
          "type": "uint256"
        },
        {
          "indexed": true,
          "internalType": "uint256",
          "name": "userId",
          "type": "uint256"
        },
        {
          "indexed": false,
          "internalType": "address",
          "name": "acceptedToken",
          "type": "address"
        }
      ],
      "name": "BoxListed",
      "type": "event"
    },
    {
      "anonymous": false,
      "inputs": [
        {
          "indexed": true,
          "internalType": "uint256",
          "name": "boxId",
          "type": "uint256"
        },
        {
          "indexed": true,
          "internalType": "uint256",
          "name": "userId",
          "type": "uint256"
        }
      ],
      "name": "BoxPurchased",
      "type": "event"
    },
    {
      "anonymous": false,
      "inputs": [
        {
          "indexed": true,
          "internalType": "uint256",
          "name": "boxId",
          "type": "uint256"
        },
        {
          "indexed": true,
          "internalType": "uint256",
          "name": "userId",
          "type": "uint256"
        }
      ],
      "name": "CompleterAssigned",
      "type": "event"
    },
    {
      "anonymous": false,
      "inputs": [
        {
          "indexed": true,
          "internalType": "uint256",
          "name": "boxId",
          "type": "uint256"
        },
        {
          "indexed": false,
          "internalType": "bool",
          "name": "permission",
          "type": "bool"
        }
      ],
      "name": "RefundPermitChanged",
      "type": "event"
    },
    {
      "anonymous": false,
      "inputs": [
        {
          "indexed": true,
          "internalType": "uint256",
          "name": "boxId",
          "type": "uint256"
        },
        {
          "indexed": false,
          "internalType": "uint256",
          "name": "deadline",
          "type": "uint256"
        }
      ],
      "name": "RequestDeadlineChanged",
      "type": "event"
    },
    {
      "anonymous": false,
      "inputs": [
        {
          "indexed": true,
          "internalType": "uint256",
          "name": "boxId",
          "type": "uint256"
        },
        {
          "indexed": false,
          "internalType": "uint256",
          "name": "deadline",
          "type": "uint256"
        }
      ],
      "name": "ReviewDeadlineChanged",
      "type": "event"
    },
    {
      "inputs": [
        {
          "internalType": "uint256",
          "name": "boxId_",
          "type": "uint256"
        }
      ],
      "name": "acceptedToken",
      "outputs": [
        {
          "internalType": "address",
          "name": "",
          "type": "address"
        }
      ],
      "stateMutability": "view",
      "type": "function"
    },
    {
      "inputs": [],
      "name": "admin",
      "outputs": [
        {
          "internalType": "address",
          "name": "",
          "type": "address"
        }
      ],
      "stateMutability": "view",
      "type": "function"
    },
    {
      "inputs": [
        {
          "internalType": "uint256",
          "name": "boxId_",
          "type": "uint256"
        }
      ],
      "name": "agreeRefund",
      "outputs": [],
      "stateMutability": "nonpayable",
      "type": "function"
    },
    {
      "inputs": [
        {
          "internalType": "uint256",
          "name": "boxId_",
          "type": "uint256"
        },
        {
          "internalType": "address",
          "name": "acceptedToken_",
          "type": "address"
        },
        {
          "internalType": "uint256",
          "name": "price_",
          "type": "uint256"
        }
      ],
      "name": "auction",
      "outputs": [],
      "stateMutability": "nonpayable",
      "type": "function"
    },
    {
      "inputs": [
        {
          "internalType": "uint256",
          "name": "boxId_",
          "type": "uint256"
        }
      ],
      "name": "bid",
      "outputs": [],
      "stateMutability": "nonpayable",
      "type": "function"
    },
    {
      "inputs": [],
      "name": "bidIncrementRate",
      "outputs": [
        {
          "internalType": "uint8",
          "name": "",
          "type": "uint8"
        }
      ],
      "stateMutability": "view",
      "type": "function"
    },
    {
      "inputs": [
        {
          "internalType": "uint256",
          "name": "boxId_",
          "type": "uint256"
        }
      ],
      "name": "buy",
      "outputs": [],
      "stateMutability": "nonpayable",
      "type": "function"
    },
    {
      "inputs": [
        {
          "internalType": "uint256",
          "name": "boxId_",
          "type": "uint256"
        }
      ],
      "name": "calcPayMoney",
      "outputs": [
        {
          "internalType": "uint256",
          "name": "",
          "type": "uint256"
        }
      ],
      "stateMutability": "view",
      "type": "function"
    },
    {
      "inputs": [
        {
          "internalType": "uint256",
          "name": "boxId_",
          "type": "uint256"
        }
      ],
      "name": "cancelRefund",
      "outputs": [],
      "stateMutability": "nonpayable",
      "type": "function"
    },
    {
      "inputs": [
        {
          "internalType": "uint256",
          "name": "boxId_",
          "type": "uint256"
        }
      ],
      "name": "completeOrder",
      "outputs": [],
      "stateMutability": "nonpayable",
      "type": "function"
    },
    {
      "inputs": [],
      "name": "implementation",
      "outputs": [
        {
          "internalType": "address",
          "name": "",
          "type": "address"
        }
      ],
      "stateMutability": "view",
      "type": "function"
    },
    {
      "inputs": [
        {
          "internalType": "uint256",
          "name": "boxId_",
          "type": "uint256"
        }
      ],
      "name": "isInRequestRefundDeadline",
      "outputs": [
        {
          "internalType": "bool",
          "name": "",
          "type": "bool"
        }
      ],
      "stateMutability": "view",
      "type": "function"
    },
    {
      "inputs": [
        {
          "internalType": "uint256",
          "name": "boxId_",
          "type": "uint256"
        }
      ],
      "name": "isInReviewDeadline",
      "outputs": [
        {
          "internalType": "bool",
          "name": "",
          "type": "bool"
        }
      ],
      "stateMutability": "view",
      "type": "function"
    },
    {
      "inputs": [
        {
          "internalType": "uint256",
          "name": "boxId_",
          "type": "uint256"
        }
      ],
      "name": "refundPermit",
      "outputs": [
        {
          "internalType": "bool",
          "name": "",
          "type": "bool"
        }
      ],
      "stateMutability": "view",
      "type": "function"
    },
    {
      "inputs": [
        {
          "internalType": "uint256",
          "name": "boxId_",
          "type": "uint256"
        }
      ],
      "name": "refundRequestDeadline",
      "outputs": [
        {
          "internalType": "uint256",
          "name": "",
          "type": "uint256"
        }
      ],
      "stateMutability": "view",
      "type": "function"
    },
    {
      "inputs": [],
      "name": "refundRequestPeriod",
      "outputs": [
        {
          "internalType": "uint256",
          "name": "",
          "type": "uint256"
        }
      ],
      "stateMutability": "view",
      "type": "function"
    },
    {
      "inputs": [
        {
          "internalType": "uint256",
          "name": "boxId_",
          "type": "uint256"
        }
      ],
      "name": "refundReviewDeadline",
      "outputs": [
        {
          "internalType": "uint256",
          "name": "",
          "type": "uint256"
        }
      ],
      "stateMutability": "view",
      "type": "function"
    },
    {
      "inputs": [],
      "name": "refundReviewPeriod",
      "outputs": [
        {
          "internalType": "uint256",
          "name": "",
          "type": "uint256"
        }
      ],
      "stateMutability": "view",
      "type": "function"
    },
    {
      "inputs": [
        {
          "internalType": "uint256",
          "name": "boxId_",
          "type": "uint256"
        }
      ],
      "name": "refuseRefund",
      "outputs": [],
      "stateMutability": "nonpayable",
      "type": "function"
    },
    {
      "inputs": [
        {
          "internalType": "uint256",
          "name": "boxId_",
          "type": "uint256"
        }
      ],
      "name": "requestRefund",
      "outputs": [],
      "stateMutability": "nonpayable",
      "type": "function"
    },
    {
      "inputs": [
        {
          "internalType": "uint256",
          "name": "boxId_",
          "type": "uint256"
        },
        {
          "internalType": "address",
          "name": "acceptedToken_",
          "type": "address"
        },
        {
          "internalType": "uint256",
          "name": "price_",
          "type": "uint256"
        }
      ],
      "name": "sell",
      "outputs": [],
      "stateMutability": "nonpayable",
      "type": "function"
    },
    {
      "inputs": [],
      "name": "setAddress",
      "outputs": [],
      "stateMutability": "nonpayable",
      "type": "function"
    },
    {
      "inputs": [
        {
          "internalType": "address",
          "name": "addrManager_",
          "type": "address"
        }
      ],
      "name": "setAddressManager",
      "outputs": [],
      "stateMutability": "nonpayable",
      "type": "function"
    },
    {
      "inputs": [
        {
          "internalType": "address",
          "name": "newAdmin_",
          "type": "address"
        }
      ],
      "name": "setAdmin",
      "outputs": [],
      "stateMutability": "nonpayable",
      "type": "function"
    },
    {
      "inputs": [
        {
          "internalType": "uint8",
          "name": "rate_",
          "type": "uint8"
        }
      ],
      "name": "setBidIncrementRate",
      "outputs": [],
      "stateMutability": "nonpayable",
      "type": "function"
    },
    {
      "inputs": [
        {
          "internalType": "uint256",
          "name": "boxId_",
          "type": "uint256"
        },
        {
          "internalType": "bool",
          "name": "permission_",
          "type": "bool"
        }
      ],
      "name": "setRefundPermit",
      "outputs": [],
      "stateMutability": "nonpayable",
      "type": "function"
    },
    {
      "inputs": [
        {
          "internalType": "uint256",
          "name": "period_",
          "type": "uint256"
        }
      ],
      "name": "setRefundRequestPeriod",
      "outputs": [],
      "stateMutability": "nonpayable",
      "type": "function"
    },
    {
      "inputs": [
        {
          "internalType": "uint256",
          "name": "period_",
          "type": "uint256"
        }
      ],
      "name": "setRefundReviewPeriod",
      "outputs": [],
      "stateMutability": "nonpayable",
      "type": "function"
    },
    {
      "inputs": [
        {
          "internalType": "address",
          "name": "newImplementation_",
          "type": "address"
        }
      ],
      "name": "upgrade",
      "outputs": [],
      "stateMutability": "nonpayable",
      "type": "function"
    }
  ],
  "bytecode": "0x60808060405234610047577fb53127684a568b3173ae13b9f8a6016e243e63b6e8ee1178d6a717850b5d610380546001600160a01b0319163317905561246b908161004d8239f35b600080fdfe608060408181526004918236101561001657600080fd5b600092833560e01c9182630652b57a14612021575081630900f01014611f8657816312b65bb014611d4e57816316efecef14611d2e5781631d934b6c14611d0557838263454a2ab314611a12575081634a7a2816146119e15781634fb354b3146119305781635bcb59501461189d5781635c60da1b1461185557816366f240f8146116e557816367cdf6c914611415578163704b6c021461139b57816373ebfc62146110495781639ec123da14610f8f578163a3b979c314610eab578163a4b2409e14610c87578163afa5e1ee14610c5e578163b3e5219e14610c2e578163b6adaaff14610988578163b9793cc8146108e7578163c70b248b146106dd578163cea04093146106b2578163d6e54ff514610694578163d96a094a146103e8578163e6569275146101dd57508063f0cc2b14146101bc578063f74c8ea31461019e5763f851a4401461016657600080fd5b3461019a578160031936011261019a576000805160206124168339815191525490516001600160a01b039091168152602090f35b5080fd5b503461019a578160031936011261019a576020906005549051908152f35b503461019a578160031936011261019a5760209060ff600654169051908152f35b919050346103e457826003193601126103e45782546001600160a01b039081169290919033841415806103c9575b6103bb578151636f9f44c560e01b815290602080838381895afa9283156103b1578793610392575b508351636209ec2d60e01b81529581878481845afa968715610388578897610367575b508190855193848092635897591960e01b82525afa93841561035e5750918495918593889561032b575b505082168015158061031d575b610304575b5016801515806102f6575b6102dd575b50169081151590816102ce575b506102b8575080f35b6001600160601b0360a01b600354161760035580f35b905060035416811415386102af565b6001600160601b0360a01b6002541617600255386102a2565b50826002541681141561029d565b6001600160601b0360a01b600154161760015538610292565b50826001541681141561028d565b84929550908161034f92903d10610357575b61034781836120ed565b810190612127565b939038610280565b503d61033d565b513d88823e3d90fd5b8291975061038190823d84116103575761034781836120ed565b9690610256565b85513d8a823e3d90fd5b816103aa9294503d85116103575761034781836120ed565b9138610233565b84513d89823e3d90fd5b90516348f5c3ed60e01b8152fd5b5082600080516020612416833981519152541633141561020b565b8280fd5b83833461019a576020806003193601126103e4576001548251632e31150760e11b815285358187018190526001600160a01b039283169490939290918381602481895afa90811561068a57879161065d575b50600881101561064a5760010361063a579585968596953b15610636578251633625b75960e21b81528281018690526003602482015296868860448183855af19788156103b157879897969761061a575b5084826003541660248651809b8193632b956ff760e01b835233898401525af19788156105db5786986105e5575b508686526007855283862060020180546001600160a01b0319163317905560249085906104e6428a6123a9565b855192838092630e75722360e41b82528b888301525afa9485156105db5786956105a3575b50506002541692833b1561059f5782516312081e8960e31b815291820186815233602082015260408101919091529092849184919082908490829060600103925af19081156105965750610582575b50807fb656198fd89a7699ff3d942dc974676f470781d9d437db45e5f1c6b07efc968a91a380f35b61058b906120c3565b6103e457828461055a565b513d84823e3d90fd5b8480fd5b819650809295503d83116105d4575b6105bc81836120ed565b810103126105cf5786935192888061050b565b600080fd5b503d6105b2565b84513d88823e3d90fd5b85809299508197503d8311610613575b6105ff81836120ed565b810103126105cf57935195879490846104b9565b503d6105f5565b610626909691966120c3565b6106325786948961048b565b8680fd5b8580fd5b81516307a92f1960e51b81528790fd5b634e487b7160e01b875260218852602487fd5b61067d9150843d8611610683575b61067581836120ed565b81019061210f565b8861043a565b503d61066b565b83513d89823e3d90fd5b9050346103e457826003193601126103e45760209250549051908152f35b9050346103e45760203660031901126103e45781602093600592358152600785522001549051908152f35b919050346103e4576020806003193601126107cd576001548251632e31150760e11b81528435818601819052946001600160a01b039283169290918481602481875afa9081156108815788916108ca575b5060088110156108b75782036108a8579086929161074b87612146565b6107db575b5085835260078452848320600601805460ff19166001179055813b156103e45785604484928388519586948593633625b75960e21b8552840152600660248401525af180156107d1576107b9575b50506000805160206123f6833981519152915160018152a280f35b6107c2906120c3565b6107cd57833861079e565b8380fd5b84513d84823e3d90fd5b909192508451634f4a156760e11b815286838201528481602481875afa90811561088157908291899161088b575b50163314159081610831575b506108235790859138610750565b83516348f5c3ed60e01b8152fd5b9050818482895416875192838092634162169f60e01b82525afa908115610881578891610864575b501633141538610815565b61087b9150853d87116103575761034781836120ed565b38610859565b86513d8a823e3d90fd5b6108a29150863d88116103575761034781836120ed565b38610809565b5083516307a92f1960e51b8152fd5b634e487b7160e01b885260218352602488fd5b6108e19150853d87116106835761067581836120ed565b3861072e565b9050346103e45760209283600319360112610985576001548351630e75722360e41b8152833593810184905292908590849060249082906001600160a01b03165afa91821561097a5791610949575b61094292503390612324565b9051908152f35b90508382813d8311610973575b61096081836120ed565b810103126105cf57610942915190610936565b503d610956565b8451903d90823e3d90fd5b80fd5b8391503461019a57602092836003193601126103e4576001548151632e31150760e11b815283358185018190526024949290916001600160a01b039182169088818881855afa908115610881578891610c11575b506008811015610bff57600303610bef578287526007885260ff6006868920015416610bdf57828752600788528160028689200154163303610ab7575b869750803b15610632578680916044875180948193633625b75960e21b8352888a84015260058c8401525af18015610aad57908791610a99575b50506002541693843b1561063657859283855196879485936320870cc360e21b85528401525af19081156105965750610a895750f35b610a92906120c3565b6109855780f35b610aa2906120c3565b610636578588610a53565b85513d89823e3d90fd5b610ac083612207565b610bcf5786978551634f4a156760e11b8152848682015281818981865afa908115610ba8579084918a91610bb2575b50163303610afe575b50610a19565b83885260078152600386892001336001600160601b0360a01b8254161790558781846003541689895180948193632b956ff760e01b8352338c8401525af1918215610ba8578992610b77575b5050837fe81caeffc2690ec63b1aa465e198aef92e3ca31aaadfd8aaf0fcc76a8f98643d8980a388610af8565b8199508092503d8311610ba1575b610b8f81836120ed565b810103126105cf578796518980610b4a565b503d610b85565b87513d8b823e3d90fd5b610bc99150833d85116103575761034781836120ed565b8b610aef565b8451634e1fc47d60e11b81528490fd5b84516304c1157360e21b81528490fd5b84516307a92f1960e51b81528490fd5b634e487b7160e01b8852602185528688fd5b610c289150893d8b116106835761067581836120ed565b896109dc565b9050346103e45760203660031901126103e45760068260209460ff93358152600786522001541690519015158152f35b9050346103e45760203660031901126103e4578160209382358152600785522001549051908152f35b919050346103e4576020806003193601126107cd576001548251632e31150760e11b8152843581860181905294916001600160a01b03908116918481602481865afa908115610881578891610e8e575b506008811015610e7b57600303610e6b57858752600784528060028689200154163303610e5b578587526007845260ff6006868920015416610e4b57908691610d1f87612207565b15610dc05750610d3160055442612301565b92868352600785528360058785200155813b156103e45782916044839288519485938492633625b75960e21b84528c8185015260248401525af18015610db657610da2575b50507fc52de02f08bba719638e1bfcf9ce2622b315527f02946fd49c2f3b9c596d83479251908152a280f35b610dab906120c3565b61059f578438610d76565b85513d84823e3d90fd5b9195949350803b15610636578580916044865180948193633625b75960e21b83528a89840152600560248401525af180156105db57908691610e37575b50506002541692833b1561059f576024859283855196879485936320870cc360e21b85528401525af19081156105965750610a8957505080f35b610e40906120c3565b61059f578438610dfd565b84516304c1157360e21b81528390fd5b845163239700bf60e11b81528390fd5b84516307a92f1960e51b81528390fd5b634e487b7160e01b885260218452602488fd5b610ea59150853d87116106835761067581836120ed565b38610cd7565b83833461019a578060031936011261019a578235906024358015158091036107cd578354825163103864a360e11b81523387820152602093918490829060249082906001600160a01b03165afa908115610f85578691610f4f575b5015610f4057906000805160206123f683398151915292918486526007835260068187200160ff1981541660ff841617905551908152a280f35b516348f5c3ed60e01b81528590fd5b90508381813d8311610f7e575b610f6681836120ed565b81010312610636575180151581036106365787610f06565b503d610f5c565b82513d88823e3d90fd5b9050346103e45760203660031901126103e45782548251634162169f60e01b8152823593916001600160a01b03919060209082908690829086165afa90811561103f578691611020575b50163303611013576213c68083108015611007575b610ffa57505060055580f35b516302e8f35960e31b8152fd5b50624f1a008311610fee565b516327568d2f60e11b8152fd5b611039915060203d6020116103575761034781836120ed565b38610fd9565b83513d88823e3d90fd5b8284346109855761105936612099565b6001548551632e31150760e11b8152808801859052929660249660209491936001600160a01b039391929184169186818b81865afa9081156112795760009161137e575b50600881101561136a5761135a5760009798998685600354168c8651809c8193632b956ff760e01b8352338c8401525af198891561127957600099611329575b5090859187866000541686519889809263682bae5160e01b82525afa96871561131e576000976112ff575b508451634f4a156760e11b81528381018a9052879089818f81895afa9081156112f4579088916000916112d7575b50163314611284575050508251638286227560e01b8152878282015286818c81865afa9081156112795760009161124c575b5042111561123e5760008781526007875283812060010180546001600160a01b03191633179055915b6203f480420180421161122a57813b156105cf57889385519c8d9586956305ee484760e51b8752860152840152604483016002905260648301525a9260006084928195f197881561121f577f65be9d244edea116678b9b897347d2beda911be0ede048694cb3652e907de81695969798611210575b505191168152a380f35b611219906120c3565b88611206565b50513d6000823e3d90fd5b8b601184634e487b7160e01b600052526000fd5b8251634e1fc47d60e11b8152fd5b90508681813d8311611272575b61126381836120ed565b810103126105cf57518b611168565b503d611259565b84513d6000823e3d90fd5b868295939516908782151591826112ca575b50506112a4575b5050611191565b60008a815260078a5286902080546001600160a01b031916909117905595508b8061129d565b168214159050878f611296565b6112ee91508b3d8d116103575761034781836120ed565b8f611136565b87513d6000823e3d90fd5b611317919750883d8a116103575761034781836120ed565b958c611108565b85513d6000823e3d90fd5b919098508682813d8311611353575b61134281836120ed565b810103126105cf57905197856110dd565b503d611338565b82516307a92f1960e51b81528590fd5b89602187634e487b7160e01b600052526000fd5b6113959150873d89116106835761067581836120ed565b8b61109d565b919050346103e45760203660031901126103e4576113b7612083565b6000805160206124168339815191528054909390916001600160a01b0390818416330361140557169283156113f85750506001600160a01b03191617905580f35b5163d92e233d60e01b8152fd5b8451637bfa4b9f60e01b81528390fd5b8284346109855761142536612099565b6001548551632e31150760e11b8152808801859052929660249660209491936001600160a01b039391929184169186818b81865afa908115611279576000916116c8575b50600881101561136a5761135a5760009798998685600354168c8651809c8193632b956ff760e01b8352338c8401525af198891561127957600099611697575b5090859187866000541686519889809263682bae5160e01b82525afa96871561131e57600097611678575b508451634f4a156760e11b81528381018a9052879089818f81895afa9081156112f45790889160009161165b575b50163314611608575050508251638286227560e01b8152878282015286818c81865afa908115611279576000916115db575b5042111561123e5760008781526007875283812060010180546001600160a01b03191633179055915b6213c680420180421161122a57813b156105cf57889385519c8d9586956305ee484760e51b8752860152840152604483016001905260648301525a9260006084928195f197881561121f577f65be9d244edea116678b9b897347d2beda911be0ede048694cb3652e907de8169596979861121057505191168152a380f35b90508681813d8311611601575b6115f281836120ed565b810103126105cf57518b611534565b503d6115e8565b8682959395169087821515918261164e575b5050611628575b505061155d565b60008a815260078a5286902080546001600160a01b031916909117905595508b80611621565b168214159050878f61161a565b61167291508b3d8d116103575761034781836120ed565b8f611502565b611690919750883d8a116103575761034781836120ed565b958c6114d4565b919098508682813d83116116c1575b6116b081836120ed565b810103126105cf57905197856114a9565b503d6116a6565b6116df9150873d89116106835761067581836120ed565b8b611469565b8391503461019a57602092836003193601126103e457813580845260078552818420600201549092906001600160a01b039081163303611846578385526007865260ff6006848720015416611837578060015416958351632e31150760e11b8152858482015281816024818b5afa918215610aad57879261181a575b505060088110156118075782036117f8578585963b15610636578580916044865180948193633625b75960e21b83528a89840152600560248401525af180156105db579086916117e4575b50506002541692833b1561059f576024859283855196879485936320870cc360e21b85528401525af19081156105965750610a895750f35b6117ed906120c3565b61059f5784876117ac565b5090516307a92f1960e51b8152fd5b634e487b7160e01b865260218352602486fd5b6118309250803d106106835761067581836120ed565b8780611761565b5090516304c1157360e21b8152fd5b50905163239700bf60e11b8152fd5b50503461019a578160031936011261019a577f360894a13ba1a3210667c828492db98dca3e2076cc3735a920a3ca505d382bbc5490516001600160a01b039091168152602090f35b9050346103e45760203660031901126103e45782548251634162169f60e01b8152823593916001600160a01b03919060209082908690829086165afa90811561103f578691611911575b501633036110135762093a8083108015611905575b610ffa57505580f35b506213c68083116118fc565b61192a915060203d6020116103575761034781836120ed565b386118e7565b9050346103e45760203660031901126103e45780359160ff83168093036107cd5783548151634162169f60e01b81526001600160a01b039160209082908690829086165afa90811561103f5786916119c2575b5016330361101357606483118015906119b8575b6119ab57505060ff19600654161760065580f35b51636a43f8d160e01b8152fd5b5060968311611997565b6119db915060203d6020116103575761034781836120ed565b38611983565b8284346109855760203660031901126109855750611a016020923561228f565b90516001600160a01b039091168152f35b80918434611d015760209182600319360112611cfc5780359160018060a01b03918260035416948083518097632b956ff760e01b825233858301528160249b8c925af195861561068a578796611ccd575b50848752600781528360028489200154163314611cbe578487526007815282872060020180546001600160a01b03191633179055600154835160016208921160e21b0319815283810187905290851698909160608383818d5afa8015611cb45789918a948b92611c65575b50504211611c55576008811015611c4357600203611c33576203f480420190814211611c2257611afe82886123a9565b60ff60065416808402908482041484151715611c10578a8a9b9a98999a3b15611c0c57898960849260649682968b5198899788966305ee484760e51b88528d88015204908501526000604485015260648401525af180156105db57908691611bf8575b5050611b6e903387612324565b926002541692833b1561059f5782516312081e8960e31b815291820186815233602082015260408101919091529092849184919082908490829060600103925af19081156105965750611be4575b50807f0fc69407039e8ba8cdd517e2a4cae9dd19697b0a500ff37a2425c59ebc649b3191a380f35b611bed906120c3565b6103e4578284611bbc565b611c01906120c3565b61059f578489611b61565b8880fd5b50634e487b7160e01b89526011845288fd5b634e487b7160e01b89526011845288fd5b83516307a92f1960e51b81528390fd5b50634e487b7160e01b88526021835287fd5b8451631508531560e31b81528490fd5b92509350506060813d606011611cac575b81611c83606093836120ed565b81010312611c0c578051926008841015611ca857810151908501519092908b80611ace565b8980fd5b3d9150611c76565b85513d8b823e3d90fd5b5090516348f5c3ed60e01b8152fd5b9080965081813d8311611cf5575b611ce581836120ed565b810103126105cf57519488611a63565b503d611cdb565b505050fd5b5050fd5b8284346109855760203660031901126109855750611d2560209235612207565b90519015158152f35b8284346109855760203660031901126109855750611d2560209235612146565b8391503461019a57602092836003193601126103e4576001548151632e31150760e11b815283358185018190526001600160a01b03928316969094929181816024818b5afa908115610aad578791611f69575b506008811015611f56578303611c33578486526007815260ff6006858820015416611f4657611dcf85612146565b15611eab57828183885416865192838092634162169f60e01b82525afa918215610aad57908392918892611e8e575b5050163303611cbe578585963b15610636578580916044865180948193633625b75960e21b83528a89840152600560248401525af180156105db57908691611e7a5750506002541692833b1561059f576024859283855196879485936320870cc360e21b85528401525af19081156105965750610a8957505080f35b611e83906120c3565b61059f578487610dfd565b611ea49250803d106103575761034781836120ed565b8880611dfe565b9394959186915085825260078552600684832001600160ff19825416179055823b1561019a57604486918386519586948593633625b75960e21b8552840152600660248401525af18015611f3c57611f19575b50906000805160206123f6833981519152915160018152a280f35b93611f346000805160206123f68339815191529392956120c3565b939091611efe565b82513d87823e3d90fd5b83516304c1157360e21b81528390fd5b634e487b7160e01b875260218452602487fd5b611f809150823d84116106835761067581836120ed565b88611da1565b919050346103e45760203660031901126103e457611fa2612083565b6000805160206124168339815191525490926001600160a01b039290918316330361201457833b156120075750507f360894a13ba1a3210667c828492db98dca3e2076cc3735a920a3ca505d382bbc91166001600160601b0360a01b82541617905580f35b5163340aafcd60e11b8152fd5b51637bfa4b9f60e01b8152fd5b8491346103e45760203660031901126103e45761203c612083565b600080516020612416833981519152546001600160a01b0393919291908416330361207757505082546001600160a01b031916911617815580f35b637bfa4b9f60e01b8152fd5b600435906001600160a01b03821682036105cf57565b60609060031901126105cf57600435906024356001600160a01b03811681036105cf579060443590565b67ffffffffffffffff81116120d757604052565b634e487b7160e01b600052604160045260246000fd5b90601f8019910116810190811067ffffffffffffffff8211176120d757604052565b908160209103126105cf575160088110156105cf5790565b908160209103126105cf57516001600160a01b03811681036105cf5790565b600154604051632e31150760e11b81526004810183905290602090829060249082906001600160a01b03165afa9081156121fb576000916121dc575b5060088110156121c6576004036121b457600052600760205260056040600020015442116121af57600190565b600090565b6040516307a92f1960e51b8152600490fd5b634e487b7160e01b600052602160045260246000fd5b6121f5915060203d6020116106835761067581836120ed565b38612182565b6040513d6000823e3d90fd5b600154604051632e31150760e11b81526004810183905290602090829060249082906001600160a01b03165afa9081156121fb57600091612270575b5060088110156121c6576003036121b457600052600760205260046040600020015442116121af57600190565b612289915060203d6020116106835761067581836120ed565b38612243565b6000908152600760205260409020546001600160a01b039081169081156122b4575090565b60005460405163682bae5160e01b8152925060209183916004918391165afa9081156121fb576000916122e5575090565b6122fe915060203d6020116103575761034781836120ed565b90565b9190820180921161230e57565b634e487b7160e01b600052601160045260246000fd5b60025460405163580d67a560e01b815260048101929092526001600160a01b039283166024830152909160209183916044918391165afa9081156121fb57600091612377575b50810390811161230e5790565b90506020813d6020116123a1575b81612392602093836120ed565b810103126105cf57513861236a565b3d9150612385565b9060206123da7faef7723520380eee6de3a60cdea8491aaddca20c0cdb2d1850ca7f93194783159260045490612301565b836000526007825280600460406000200155604051908152a256fe3f4d41438448f2543938fc94b8d0ed6c05bf0afae44d27a75ae402c7d2f22368b53127684a568b3173ae13b9f8a6016e243e63b6e8ee1178d6a717850b5d6103a26469706673582212206846916ba22fc567e911503ba93f9e04766a30ecfa6404f94162d0428c44e6e064736f6c63430008180033",
  "linkReferences": {},
  "deployedLinkReferences": {}
}