{
  "_format": "hh-sol-artifact-1",
  "contractName": "ERC20Secret",
  "sourceName": "contracts/token/ERC20Secret.sol",
  "abi": [
    {
      "inputs": [
        {
          "internalType": "address",
          "name": "underlyingToken_",
          "type": "address"
        }
      ],
      "stateMutability": "nonpayable",
      "type": "constructor"
    },
    {
      "inputs": [],
      "name": "EIPError",
      "type": "error"
    },
    {
      "inputs": [
        {
          "internalType": "address",
          "name": "spender",
          "type": "address"
        },
        {
          "internalType": "uint256",
          "name": "allowance",
          "type": "uint256"
        },
        {
          "internalType": "uint256",
          "name": "needed",
          "type": "uint256"
        }
      ],
      "name": "ERC20InsufficientAllowance",
      "type": "error"
    },
    {
      "inputs": [
        {
          "internalType": "address",
          "name": "sender",
          "type": "address"
        },
        {
          "internalType": "uint256",
          "name": "balance",
          "type": "uint256"
        },
        {
          "internalType": "uint256",
          "name": "needed",
          "type": "uint256"
        }
      ],
      "name": "ERC20InsufficientBalance",
      "type": "error"
    },
    {
      "inputs": [
        {
          "internalType": "address",
          "name": "approver",
          "type": "address"
        }
      ],
      "name": "ERC20InvalidApprover",
      "type": "error"
    },
    {
      "inputs": [
        {
          "internalType": "address",
          "name": "receiver",
          "type": "address"
        }
      ],
      "name": "ERC20InvalidReceiver",
      "type": "error"
    },
    {
      "inputs": [
        {
          "internalType": "address",
          "name": "sender",
          "type": "address"
        }
      ],
      "name": "ERC20InvalidSender",
      "type": "error"
    },
    {
      "inputs": [
        {
          "internalType": "address",
          "name": "spender",
          "type": "address"
        }
      ],
      "name": "ERC20InvalidSpender",
      "type": "error"
    },
    {
      "inputs": [],
      "name": "ExpiredDeadline",
      "type": "error"
    },
    {
      "inputs": [],
      "name": "InsufficientBalance",
      "type": "error"
    },
    {
      "inputs": [],
      "name": "InvalidPermitAmount",
      "type": "error"
    },
    {
      "inputs": [],
      "name": "InvalidPermitLabel",
      "type": "error"
    },
    {
      "inputs": [],
      "name": "InvalidSignature",
      "type": "error"
    },
    {
      "inputs": [],
      "name": "ReentrancyGuardReentrantCall",
      "type": "error"
    },
    {
      "inputs": [],
      "name": "SignatureUsed",
      "type": "error"
    },
    {
      "inputs": [],
      "name": "ZeroAmount",
      "type": "error"
    },
    {
      "anonymous": false,
      "inputs": [
        {
          "indexed": true,
          "internalType": "address",
          "name": "owner",
          "type": "address"
        },
        {
          "indexed": true,
          "internalType": "address",
          "name": "spender",
          "type": "address"
        },
        {
          "indexed": false,
          "internalType": "uint256",
          "name": "value",
          "type": "uint256"
        }
      ],
      "name": "Approval",
      "type": "event"
    },
    {
      "anonymous": false,
      "inputs": [
        {
          "indexed": true,
          "internalType": "address",
          "name": "from",
          "type": "address"
        },
        {
          "indexed": true,
          "internalType": "address",
          "name": "to",
          "type": "address"
        },
        {
          "indexed": false,
          "internalType": "uint256",
          "name": "value",
          "type": "uint256"
        }
      ],
      "name": "Transfer",
      "type": "event"
    },
    {
      "inputs": [],
      "name": "DOMAIN_SEPARATOR",
      "outputs": [
        {
          "internalType": "bytes32",
          "name": "",
          "type": "bytes32"
        }
      ],
      "stateMutability": "view",
      "type": "function"
    },
    {
      "inputs": [],
      "name": "EIP_PERMIT_TYPEHASH",
      "outputs": [
        {
          "internalType": "bytes32",
          "name": "",
          "type": "bytes32"
        }
      ],
      "stateMutability": "view",
      "type": "function"
    },
    {
      "inputs": [
        {
          "internalType": "address",
          "name": "owner",
          "type": "address"
        },
        {
          "internalType": "address",
          "name": "spender",
          "type": "address"
        }
      ],
      "name": "allowance",
      "outputs": [
        {
          "internalType": "uint256",
          "name": "",
          "type": "uint256"
        }
      ],
      "stateMutability": "view",
      "type": "function"
    },
    {
      "inputs": [
        {
          "components": [
            {
              "internalType": "enum ERC20Secret.PermitLabel",
              "name": "label",
              "type": "uint8"
            },
            {
              "internalType": "address",
              "name": "owner",
              "type": "address"
            },
            {
              "internalType": "address",
              "name": "spender",
              "type": "address"
            },
            {
              "internalType": "uint256",
              "name": "amount",
              "type": "uint256"
            },
            {
              "internalType": "uint256",
              "name": "deadline",
              "type": "uint256"
            },
            {
              "components": [
                {
                  "internalType": "bytes32",
                  "name": "r",
                  "type": "bytes32"
                },
                {
                  "internalType": "bytes32",
                  "name": "s",
                  "type": "bytes32"
                },
                {
                  "internalType": "uint256",
                  "name": "v",
                  "type": "uint256"
                }
              ],
              "internalType": "struct SignatureRSV",
              "name": "signature",
              "type": "tuple"
            }
          ],
          "internalType": "struct ERC20Secret.EIP712Permit",
          "name": "permit",
          "type": "tuple"
        }
      ],
      "name": "allowanceWithPermit",
      "outputs": [
        {
          "internalType": "uint256",
          "name": "",
          "type": "uint256"
        }
      ],
      "stateMutability": "view",
      "type": "function"
    },
    {
      "inputs": [
        {
          "internalType": "address",
          "name": "spender",
          "type": "address"
        },
        {
          "internalType": "uint256",
          "name": "value",
          "type": "uint256"
        }
      ],
      "name": "approve",
      "outputs": [
        {
          "internalType": "bool",
          "name": "",
          "type": "bool"
        }
      ],
      "stateMutability": "nonpayable",
      "type": "function"
    },
    {
      "inputs": [
        {
          "components": [
            {
              "internalType": "enum ERC20Secret.PermitLabel",
              "name": "label",
              "type": "uint8"
            },
            {
              "internalType": "address",
              "name": "owner",
              "type": "address"
            },
            {
              "internalType": "address",
              "name": "spender",
              "type": "address"
            },
            {
              "internalType": "uint256",
              "name": "amount",
              "type": "uint256"
            },
            {
              "internalType": "uint256",
              "name": "deadline",
              "type": "uint256"
            },
            {
              "components": [
                {
                  "internalType": "bytes32",
                  "name": "r",
                  "type": "bytes32"
                },
                {
                  "internalType": "bytes32",
                  "name": "s",
                  "type": "bytes32"
                },
                {
                  "internalType": "uint256",
                  "name": "v",
                  "type": "uint256"
                }
              ],
              "internalType": "struct SignatureRSV",
              "name": "signature",
              "type": "tuple"
            }
          ],
          "internalType": "struct ERC20Secret.EIP712Permit",
          "name": "permit",
          "type": "tuple"
        }
      ],
      "name": "approveWithPermit",
      "outputs": [],
      "stateMutability": "nonpayable",
      "type": "function"
    },
    {
      "inputs": [
        {
          "internalType": "address",
          "name": "account",
          "type": "address"
        }
      ],
      "name": "balanceOf",
      "outputs": [
        {
          "internalType": "uint256",
          "name": "",
          "type": "uint256"
        }
      ],
      "stateMutability": "view",
      "type": "function"
    },
    {
      "inputs": [
        {
          "components": [
            {
              "internalType": "enum ERC20Secret.PermitLabel",
              "name": "label",
              "type": "uint8"
            },
            {
              "internalType": "address",
              "name": "owner",
              "type": "address"
            },
            {
              "internalType": "address",
              "name": "spender",
              "type": "address"
            },
            {
              "internalType": "uint256",
              "name": "amount",
              "type": "uint256"
            },
            {
              "internalType": "uint256",
              "name": "deadline",
              "type": "uint256"
            },
            {
              "components": [
                {
                  "internalType": "bytes32",
                  "name": "r",
                  "type": "bytes32"
                },
                {
                  "internalType": "bytes32",
                  "name": "s",
                  "type": "bytes32"
                },
                {
                  "internalType": "uint256",
                  "name": "v",
                  "type": "uint256"
                }
              ],
              "internalType": "struct SignatureRSV",
              "name": "signature",
              "type": "tuple"
            }
          ],
          "internalType": "struct ERC20Secret.EIP712Permit",
          "name": "permit",
          "type": "tuple"
        }
      ],
      "name": "balanceOfWithPermit",
      "outputs": [
        {
          "internalType": "uint256",
          "name": "",
          "type": "uint256"
        }
      ],
      "stateMutability": "view",
      "type": "function"
    },
    {
      "inputs": [],
      "name": "decimals",
      "outputs": [
        {
          "internalType": "uint8",
          "name": "",
          "type": "uint8"
        }
      ],
      "stateMutability": "view",
      "type": "function"
    },
    {
      "inputs": [
        {
          "components": [
            {
              "internalType": "bytes32",
              "name": "r",
              "type": "bytes32"
            },
            {
              "internalType": "bytes32",
              "name": "s",
              "type": "bytes32"
            },
            {
              "internalType": "uint256",
              "name": "v",
              "type": "uint256"
            }
          ],
          "internalType": "struct SignatureRSV",
          "name": "signature",
          "type": "tuple"
        }
      ],
      "name": "isSignatureUsed",
      "outputs": [
        {
          "internalType": "bool",
          "name": "",
          "type": "bool"
        }
      ],
      "stateMutability": "view",
      "type": "function"
    },
    {
      "inputs": [],
      "name": "name",
      "outputs": [
        {
          "internalType": "string",
          "name": "",
          "type": "string"
        }
      ],
      "stateMutability": "view",
      "type": "function"
    },
    {
      "inputs": [],
      "name": "symbol",
      "outputs": [
        {
          "internalType": "string",
          "name": "",
          "type": "string"
        }
      ],
      "stateMutability": "view",
      "type": "function"
    },
    {
      "inputs": [],
      "name": "totalSupply",
      "outputs": [
        {
          "internalType": "uint256",
          "name": "",
          "type": "uint256"
        }
      ],
      "stateMutability": "view",
      "type": "function"
    },
    {
      "inputs": [
        {
          "internalType": "address",
          "name": "to",
          "type": "address"
        },
        {
          "internalType": "uint256",
          "name": "value",
          "type": "uint256"
        }
      ],
      "name": "transfer",
      "outputs": [
        {
          "internalType": "bool",
          "name": "",
          "type": "bool"
        }
      ],
      "stateMutability": "nonpayable",
      "type": "function"
    },
    {
      "inputs": [
        {
          "internalType": "address",
          "name": "from",
          "type": "address"
        },
        {
          "internalType": "address",
          "name": "to",
          "type": "address"
        },
        {
          "internalType": "uint256",
          "name": "value",
          "type": "uint256"
        }
      ],
      "name": "transferFrom",
      "outputs": [
        {
          "internalType": "bool",
          "name": "",
          "type": "bool"
        }
      ],
      "stateMutability": "nonpayable",
      "type": "function"
    },
    {
      "inputs": [
        {
          "components": [
            {
              "internalType": "enum ERC20Secret.PermitLabel",
              "name": "label",
              "type": "uint8"
            },
            {
              "internalType": "address",
              "name": "owner",
              "type": "address"
            },
            {
              "internalType": "address",
              "name": "spender",
              "type": "address"
            },
            {
              "internalType": "uint256",
              "name": "amount",
              "type": "uint256"
            },
            {
              "internalType": "uint256",
              "name": "deadline",
              "type": "uint256"
            },
            {
              "components": [
                {
                  "internalType": "bytes32",
                  "name": "r",
                  "type": "bytes32"
                },
                {
                  "internalType": "bytes32",
                  "name": "s",
                  "type": "bytes32"
                },
                {
                  "internalType": "uint256",
                  "name": "v",
                  "type": "uint256"
                }
              ],
              "internalType": "struct SignatureRSV",
              "name": "signature",
              "type": "tuple"
            }
          ],
          "internalType": "struct ERC20Secret.EIP712Permit",
          "name": "permit",
          "type": "tuple"
        }
      ],
      "name": "transferWithPermit",
      "outputs": [],
      "stateMutability": "nonpayable",
      "type": "function"
    },
    {
      "inputs": [],
      "name": "underlyingToken",
      "outputs": [
        {
          "internalType": "contract IERC20Metadata",
          "name": "",
          "type": "address"
        }
      ],
      "stateMutability": "view",
      "type": "function"
    },
    {
      "inputs": [
        {
          "internalType": "uint256",
          "name": "amount",
          "type": "uint256"
        }
      ],
      "name": "unwrap",
      "outputs": [],
      "stateMutability": "nonpayable",
      "type": "function"
    },
    {
      "inputs": [
        {
          "internalType": "uint256",
          "name": "amount",
          "type": "uint256"
        }
      ],
      "name": "wrap",
      "outputs": [],
      "stateMutability": "nonpayable",
      "type": "function"
    }
  ],
  "bytecode": "0x60c0604081815234620002da578162001a648038038091620000228285620002df565b8339602093849181010312620002da57516001600160a01b0381169290839003620002da5760016000908155608093845282516001600160401b03939192919080830185811182821017620002c65782528381528382518785820193868552858084015280519081606085015287855b838110620002ab5750505091620000c882828587601f9996819884010152881998899101168101036060810184520182620002df565b51907301000000000000000000000000000000000000015afa3d15620002a1573d8681116200028d576200010685855194601f8401160184620002df565b82523d858584013e5b1562000249578281519101519083811062000237575b506001558051918201927f8b73c3c69bb8fe3d512ecc4cf759cc79239f7b179b0ffacaa9a75d522b39400f84527f15ef475ca979307cd97a9ea25138acb58e3254cce83f7e67858cb2df7f2f270a828401527fc89efdaa54c0f20c7adf612882df0950f5a951637e0307cdcb4c672f298b8bc6606084015246868401523060a084015260a0835260c08301948386109086111762000223575083905251902060a05261174a91826200031a833951818181610354015281816104e3015281816106180152818161098d01528181610a3501528181610b3f0152610c09015260a0518181816101f1015281816108680152818161094301526113e50152f35b634e487b7160e01b81526041600452602490fd5b60001990840360031b1b163862000125565b815162461bcd60e51b815260048101849052601360248201527f72616e646f6d42797465733a206661696c6564000000000000000000000000006044820152606490fd5b634e487b7160e01b86526041600452602486fd5b606091506200010f565b8083018201518187018e01528a96508c945089910162000092565b634e487b7160e01b85526041600452602485fd5b600080fd5b601f909101601f19168101906001600160401b038211908210176200030357604052565b634e487b7160e01b600052604160045260246000fdfe6080604081815260048036101561001557600080fd5b600092833560e01c908163036e070814610ca05750806306fdde0314610be3578063095ea7b314610bb957806318160ddd14610b1157806323b872dd14610a645780632495a59914610a20578063313ce567146109665780633644e5151461092b57806370a08231146109055780637986b37d1461076a57806393355f421461071c578063940cf112146106d257806395d89b41146105f2578063a9059cbb146105c1578063dd62ed3e1461058c578063de0e9a3e1461047b578063e35ac9fb1461041e578063ea598cb0146103065763eb06f992146100f457600080fd5b346103025761010236610de9565b61010a6112a2565b60a0810161011881516112c5565b9081865260209284845260ff86882054166102f25761013782516112fa565b506080810191825142116102e257815160038110156102a5576001036102d257815160038110156102a557156102b8575b81519060038210156102a55785830190868a60808b60018060a01b039687875116828a019a60608a8d51169b019a8b51915192855194898601966000805160206116f5833981519152885286015260608501528584015260a083015260c082015260c081526101d681610d73565b5190208c8787511695519181518681019161190160f01b83527f0000000000000000000000000000000000000000000000000000000000000000602283015260428201526042815261022781610d8f565b5190209160ff82820151169186825192015192815194855287850152830152606082015282805260015afa1561029b57828a51160361028b57519251915161027493909282169116611052565b8452528120600160ff198254161790556001815580f35b87516303bfcdeb60e21b81528790fd5b88513d8b823e3d90fd5b634e487b7160e01b895260218752602489fd5b60608201511561016857865163291ded6160e01b81528690fd5b8651635105556960e01b81528690fd5b865163f87d927160e01b81528690fd5b8551638baa579f60e01b81528590fd5b8280fd5b509034610302576020366003190112610302578135916103246112a2565b82156104105781516323b872dd60e01b8152339181019190915230602482015260448101839052602081606481877f00000000000000000000000000000000000000000000000000000000000000006001600160a01b03165af18015610406576103d7575b506103a561039f8361039a33611142565b610fb4565b336114b5565b51908152817fddf252ad1be2c89b69c2b068fc378daa952ba7f163c4a11628f55a4df523b3ef60203393a36001815580f35b6103f89060203d6020116103ff575b6103f08183610dc7565b810190610f9c565b5038610389565b503d6103e6565b82513d86823e3d90fd5b9051631f2a200560e01b8152fd5b50346103025761042d36610de9565b906104378261132f565b1561046d57506020818101516001600160a01b039081168552600382528385209284015116845290815291819020549051908152f35b82516303bfcdeb60e21b8152fd5b509190346105885760203660031901126105885782359061049a6112a2565b8115610579576104a933611142565b82811061056957936104bf61039f848697610f79565b815163a9059cbb60e01b8152339181019190915260248101839052602081604481877f00000000000000000000000000000000000000000000000000000000000000006001600160a01b03165af180156104065761054a575b50519081527fddf252ad1be2c89b69c2b068fc378daa952ba7f163c4a11628f55a4df523b3ef60203392a36001815580f35b6105629060203d6020116103ff576103f08183610dc7565b5038610518565b8151631e9acf1760e31b81528590fd5b51631f2a200560e01b81528390fd5b5080fd5b5050346105885780600319360112610588576020906105ba6105ac610d10565b6105b4610d2b565b90610f2e565b9051908152f35b5050346105885780600319360112610588576020906105eb6105e1610d10565b6024359033611052565b5160018152f35b50903461030257826003193601126103025780516395d89b4160e01b81529183908390817f00000000000000000000000000000000000000000000000000000000000000006001600160a01b03165afa9182156106c8578361069f94936106a3575b505061068d6022825184610672829651809260208086019101610cc8565b8101612e5360f01b6020820152036002810185520183610dc7565b51918291602083526020830190610ceb565b0390f35b6106c09293503d8091833e6106b88183610dc7565b810190610ead565b903880610654565b81513d85823e3d90fd5b50913461071957506106e336610de9565b916106ed8361132f565b1561070b57506020918201516105ba906001600160a01b0316611142565b90516303bfcdeb60e21b8152fd5b80fd5b5034610302576060366003190112610302578160209360ff9261075a835161074381610d41565b8235815260243588820152604435858201526112c5565b8252855220541690519015158152f35b50346103025761077936610de9565b6107816112a2565b60a0810161078f81516112c5565b9081865260209284845260ff86882054166102f2576107ae82516112fa565b506080810191825142116102e257815160038110156102a5576002036102d257815160038110156102a557156108eb575b81519060038210156102a55785830190868a60808b60018060a01b039687875116828a019a60608a8d51169b019a8b51915192855194898601966000805160206116f5833981519152885286015260608501528584015260a083015260c082015260c0815261084d81610d73565b5190208c8787511695519181518681019161190160f01b83527f0000000000000000000000000000000000000000000000000000000000000000602283015260428201526042815261089e81610d8f565b5190209160ff82820151169186825192015192815194855287850152830152606082015282805260015afa1561029b57828a51160361028b57519251915161027493909282169116610fc1565b6060820151156107df57865163291ded6160e01b81528690fd5b505034610588576020366003190112610588576020906105ba610926610d10565b610f0f565b505034610588578160031936011261058857602090517f00000000000000000000000000000000000000000000000000000000000000008152f35b509134610719578060031936011261071957815163313ce56760e01b8152926020908490817f00000000000000000000000000000000000000000000000000000000000000006001600160a01b03165afa928315610a145781936109d2575b60208460ff855191168152f35b9092506020813d602011610a0c575b816109ee60209383610dc7565b8101031261030257519160ff83168303610719575060ff60206109c5565b3d91506109e1565b509051903d90823e3d90fd5b505034610588578160031936011261058857517f00000000000000000000000000000000000000000000000000000000000000006001600160a01b03168152602090f35b50913461071957606036600319011261071957610a7f610d10565b610a87610d2b565b90836044359360018060a01b038316815260036020528181203382526020522054946000198610610ac1575b6020856105eb868686611052565b838610610ae65750908291610ade6105eb94602097033383610fc1565b909192610ab3565b8451637dc7a0d960e11b81523391810191825260208201879052604082018590529081906060010390fd5b50903461030257826003193601126103025780516370a0823160e01b815230928101929092526020826024817f00000000000000000000000000000000000000000000000000000000000000006001600160a01b03165afa9182156106c8578392610b81575b6020838351908152f35b9091506020813d602011610bb1575b81610b9d60209383610dc7565b810103126103025760209250519038610b77565b3d9150610b90565b5050346105885780600319360112610588576020906105eb610bd9610d10565b6024359033610fc1565b50903461030257826003193601126103025780516306fdde0360e01b81529183908390817f00000000000000000000000000000000000000000000000000000000000000006001600160a01b03165afa9182156106c8578361069f9493610c83575b505061068d60278251809466029b2b1b932ba160cd1b6020830152610c738151809260208686019101610cc8565b8101036007810185520183610dc7565b610c989293503d8091833e6106b88183610dc7565b903880610c45565b849034610588578160031936011261058857806000805160206116f583398151915260209252f35b60005b838110610cdb5750506000910152565b8181015183820152602001610ccb565b90602091610d0481518092818552858086019101610cc8565b601f01601f1916010190565b600435906001600160a01b0382168203610d2657565b600080fd5b602435906001600160a01b0382168203610d2657565b6060810190811067ffffffffffffffff821117610d5d57604052565b634e487b7160e01b600052604160045260246000fd5b60e0810190811067ffffffffffffffff821117610d5d57604052565b6080810190811067ffffffffffffffff821117610d5d57604052565b6020810190811067ffffffffffffffff821117610d5d57604052565b90601f8019910116810190811067ffffffffffffffff821117610d5d57604052565b610100600319820112610d26576040519060c0820182811067ffffffffffffffff821117610d5d576040526004356003811015610d265782526001600160a01b03906024358281168103610d265760208401526044359182168203610d2657606091604084015260643582840152608435608084015260a3190112610d2657604051610e7481610d41565b60a435815260c435602082015260e435604082015260a082015290565b67ffffffffffffffff8111610d5d57601f01601f191660200190565b602081830312610d265780519067ffffffffffffffff8211610d26570181601f82011215610d26578051610ee081610e91565b92610eee6040519485610dc7565b81845260208284010111610d2657610f0c9160208085019101610cc8565b90565b336001600160a01b03821603610f2857610f0c90611142565b50600090565b6001600160a01b039081163381141580610f6d575b610f655760005260036020526040600020911660005260205260406000205490565b505050600090565b50338284161415610f43565b91908203918211610f8657565b634e487b7160e01b600052601160045260246000fd5b90816020910312610d2657518015158103610d265790565b91908201809211610f8657565b6001600160a01b0390811691821561103957169182156110205760207f8c5be1e5ebec7d5bd14f71427d1e84f3dd0314c0f7b2291e5b200ac8c7c3b92591600093845260038252604084208585528252806040852055604051908152a3565b604051634a1406b160e11b815260006004820152602490fd5b60405163e602df0560e01b815260006004820152602490fd5b92916001600160a01b03808516156110ef578216156110d65761107484611142565b938185106110a457906110a2939461039a61109c9361109c8461109688611142565b94610f79565b906114b5565b565b60405163391434e360e21b81526001600160a01b03919091166004820152602481018590526044810191909152606490fd5b60405163ec442f0560e01b815260006004820152602490fd5b604051634b637e8f60e11b815260006004820152602490fd5b90600182811c92168015611138575b602083101461112257565b634e487b7160e01b600052602260045260246000fd5b91607f1691611117565b60009060018060a01b031681526020906002825260408120604051908183825461116b81611108565b9384845260019188600182169182600014611280575050600114611244575b505061119892500382610dc7565b80511561123e57818091600154906111da604051916111b683610dab565b8483526111cc6040519384928a84019687611692565b03601f198101835282610dc7565b51906004600160981b015afa906111ef6116c4565b91156112075782828051810103126107195750015190565b60405162461bcd60e51b815260048101849052600f60248201526e191958dc9e5c1d0e8819985a5b1959608a1b6044820152606490fd5b50905090565b87925086528186209086915b8583106112685750506111989350820101388061118a565b80548388018501528694508893909201918101611250565b925093505061119894915060ff191682840152151560051b820101388061118a565b6002600054146112b3576002600055565b604051633ee5aeb560e01b8152600490fd5b80519060406020820151910151604051916020830193845260408301526060820152606081526112f481610d8f565b51902090565b611303906112c5565b600052600460205260ff6040600020541661131d57600090565b604051638baa579f60e01b8152600490fd5b60808101805142116114a3578151600381101561145f57611491578151600381101561145f5715611475575b815190600382101561145f5760206000608082860160a0600180821b03809781845116604098838a8d0151169060608d01519051918b51938b8501956000805160206116f583398151915287528d8601526060850152888401528583015260c082015260c081526113cb81610d73565b5190209251169701519085518581019161190160f01b83527f0000000000000000000000000000000000000000000000000000000000000000602283015260428201526042815261141b81610d8f565b5190209060ff8682015116908581519101519187519384528684015286830152606082015282805260015afa156114555750600051161490565b513d6000823e3d90fd5b634e487b7160e01b600052602160045260246000fd5b60608201511561135b5760405163291ded6160e01b8152600490fd5b604051635105556960e01b8152600490fd5b60405163f87d927160e01b8152600490fd5b604090815190602093848301528382528282019067ffffffffffffffff9280831084841117610d5d578285526001948554916114f085610dab565b60008093819282885261150b85519889928d84019485611692565b039661151f601f1998898101835282610dc7565b51906003600160981b015afa926115346116c4565b931561165c576001600160a01b031682526002875281208251909690948511611648576115618754611108565b601f8111611602575b508093601f86116001146115a457505091839491849394611599575b50501b916000199060031b1c1916179055565b015192503880611586565b8783528183209493928692918316915b888383106115e857505050106115cf575b505050811b019055565b015160001960f88460031b161c191690553880806115c5565b8587015188559096019594850194879350908101906115b4565b878352818320601f870160051c81019183881061163e575b601f0160051c019087905b82811061163357505061156a565b848155018790611625565b909150819061161a565b634e487b7160e01b82526041600452602482fd5b815162461bcd60e51b815260048101899052600f60248201526e195b98dc9e5c1d0e8819985a5b1959608a1b6044820152606490fd5b916116b690610f0c9492600085526020850152608060408501526080840190610ceb565b916060818403910152610ceb565b3d156116ef573d906116d582610e91565b916116e36040519384610dc7565b82523d6000602084013e565b60609056fedf30529b599cef851a2b7e4fc96b13d343aea28107d97873f3e0bc909d1e22c6a26469706673582212207427756bc2e7c96ae2be9d9d1b0fec0848c80c1a1513e80eb8163a41a17de43a64736f6c63430008180033",
  "linkReferences": {},
  "deployedLinkReferences": {}
}