{
  "_format": "hh-sol-artifact-1",
  "contractName": "TruthBox",
  "sourceName": "contracts/TruthBox.sol",
  "abi": [
    {
      "inputs": [],
      "stateMutability": "nonpayable",
      "type": "constructor"
    },
    {
      "inputs": [],
      "name": "AmountIsZero",
      "type": "error"
    },
    {
      "inputs": [],
      "name": "AuctionOver",
      "type": "error"
    },
    {
      "inputs": [],
      "name": "AvailableBuyer",
      "type": "error"
    },
    {
      "inputs": [],
      "name": "BlackTokenIdNotExist",
      "type": "error"
    },
    {
      "inputs": [],
      "name": "BoxAlreadyInBlacklist",
      "type": "error"
    },
    {
      "inputs": [],
      "name": "BoxNotExists",
      "type": "error"
    },
    {
      "inputs": [],
      "name": "DeadlineIsOver",
      "type": "error"
    },
    {
      "inputs": [],
      "name": "DeadlineNotIn30days",
      "type": "error"
    },
    {
      "inputs": [],
      "name": "DeadlineNotOver",
      "type": "error"
    },
    {
      "inputs": [],
      "name": "EmptyBoxInfoCID",
      "type": "error"
    },
    {
      "inputs": [],
      "name": "EmptyKey",
      "type": "error"
    },
    {
      "inputs": [],
      "name": "EmptyPrice",
      "type": "error"
    },
    {
      "inputs": [],
      "name": "EmptyTokenCID",
      "type": "error"
    },
    {
      "inputs": [],
      "name": "EmptyTokenURI",
      "type": "error"
    },
    {
      "inputs": [],
      "name": "InBlacklist",
      "type": "error"
    },
    {
      "inputs": [],
      "name": "InvalidBoxId",
      "type": "error"
    },
    {
      "inputs": [],
      "name": "InvalidCaller",
      "type": "error"
    },
    {
      "inputs": [],
      "name": "InvalidContractAddress",
      "type": "error"
    },
    {
      "inputs": [],
      "name": "InvalidContractCaller",
      "type": "error"
    },
    {
      "inputs": [],
      "name": "InvalidDeadline",
      "type": "error"
    },
    {
      "inputs": [],
      "name": "InvalidERC20Interface",
      "type": "error"
    },
    {
      "inputs": [],
      "name": "InvalidImplementation",
      "type": "error"
    },
    {
      "inputs": [],
      "name": "InvalidPeriod",
      "type": "error"
    },
    {
      "inputs": [],
      "name": "InvalidRate",
      "type": "error"
    },
    {
      "inputs": [],
      "name": "InvalidSeconds",
      "type": "error"
    },
    {
      "inputs": [],
      "name": "InvalidStatus",
      "type": "error"
    },
    {
      "inputs": [],
      "name": "InvalidToken",
      "type": "error"
    },
    {
      "inputs": [],
      "name": "NotAdmin",
      "type": "error"
    },
    {
      "inputs": [],
      "name": "NotAdminOrDAO",
      "type": "error"
    },
    {
      "inputs": [],
      "name": "NotBuyer",
      "type": "error"
    },
    {
      "inputs": [],
      "name": "NotDAO",
      "type": "error"
    },
    {
      "inputs": [],
      "name": "NotInSecrecy",
      "type": "error"
    },
    {
      "inputs": [],
      "name": "NotMinter",
      "type": "error"
    },
    {
      "inputs": [],
      "name": "PublicTimeNotEnd",
      "type": "error"
    },
    {
      "inputs": [],
      "name": "TokenAlreadyExists",
      "type": "error"
    },
    {
      "inputs": [],
      "name": "TokenNotExists",
      "type": "error"
    },
    {
      "inputs": [],
      "name": "TokenNotSupported",
      "type": "error"
    },
    {
      "inputs": [],
      "name": "ZeroAddress",
      "type": "error"
    },
    {
      "anonymous": false,
      "inputs": [
        {
          "indexed": true,
          "internalType": "uint256",
          "name": "boxId",
          "type": "uint256"
        },
        {
          "indexed": true,
          "internalType": "uint256",
          "name": "userId",
          "type": "uint256"
        }
      ],
      "name": "BoxCreated",
      "type": "event"
    },
    {
      "anonymous": false,
      "inputs": [
        {
          "indexed": true,
          "internalType": "uint256",
          "name": "boxId",
          "type": "uint256"
        },
        {
          "indexed": false,
          "internalType": "string",
          "name": "boxInfoCID",
          "type": "string"
        }
      ],
      "name": "BoxInfoChanged",
      "type": "event"
    },
    {
      "anonymous": false,
      "inputs": [
        {
          "indexed": true,
          "internalType": "uint256",
          "name": "boxId",
          "type": "uint256"
        },
        {
          "indexed": false,
          "internalType": "enum TruthBox.Status",
          "name": "status",
          "type": "uint8"
        }
      ],
      "name": "BoxStatusChanged",
      "type": "event"
    },
    {
      "anonymous": false,
      "inputs": [
        {
          "indexed": true,
          "internalType": "uint256",
          "name": "boxId",
          "type": "uint256"
        },
        {
          "indexed": false,
          "internalType": "uint256",
          "name": "deadline",
          "type": "uint256"
        }
      ],
      "name": "DeadlineChanged",
      "type": "event"
    },
    {
      "anonymous": false,
      "inputs": [
        {
          "indexed": true,
          "internalType": "uint256",
          "name": "boxId",
          "type": "uint256"
        },
        {
          "indexed": false,
          "internalType": "uint256",
          "name": "price",
          "type": "uint256"
        }
      ],
      "name": "PriceChanged",
      "type": "event"
    },
    {
      "anonymous": false,
      "inputs": [
        {
          "indexed": false,
          "internalType": "uint256",
          "name": "boxId",
          "type": "uint256"
        },
        {
          "indexed": false,
          "internalType": "bytes",
          "name": "privateKey",
          "type": "bytes"
        },
        {
          "indexed": true,
          "internalType": "uint256",
          "name": "userId",
          "type": "uint256"
        }
      ],
      "name": "PrivateKeyPublished",
      "type": "event"
    },
    {
      "inputs": [
        {
          "internalType": "uint256",
          "name": "boxId_",
          "type": "uint256"
        }
      ],
      "name": "addBoxToBlacklist",
      "outputs": [],
      "stateMutability": "nonpayable",
      "type": "function"
    },
    {
      "inputs": [
        {
          "internalType": "uint256",
          "name": "boxId_",
          "type": "uint256"
        },
        {
          "internalType": "uint256",
          "name": "seconds_",
          "type": "uint256"
        }
      ],
      "name": "addDeadline",
      "outputs": [],
      "stateMutability": "nonpayable",
      "type": "function"
    },
    {
      "inputs": [],
      "name": "admin",
      "outputs": [
        {
          "internalType": "address",
          "name": "",
          "type": "address"
        }
      ],
      "stateMutability": "view",
      "type": "function"
    },
    {
      "inputs": [
        {
          "internalType": "address",
          "name": "to_",
          "type": "address"
        },
        {
          "internalType": "string",
          "name": "tokenCID_",
          "type": "string"
        },
        {
          "internalType": "string",
          "name": "boxInfoCID_",
          "type": "string"
        },
        {
          "internalType": "bytes",
          "name": "key_",
          "type": "bytes"
        },
        {
          "internalType": "uint256",
          "name": "price_",
          "type": "uint256"
        }
      ],
      "name": "create",
      "outputs": [
        {
          "internalType": "uint256",
          "name": "",
          "type": "uint256"
        }
      ],
      "stateMutability": "nonpayable",
      "type": "function"
    },
    {
      "inputs": [
        {
          "internalType": "address",
          "name": "to_",
          "type": "address"
        },
        {
          "internalType": "string",
          "name": "tokenCID_",
          "type": "string"
        },
        {
          "internalType": "string",
          "name": "boxInfoCID_",
          "type": "string"
        }
      ],
      "name": "createAndPublish",
      "outputs": [
        {
          "internalType": "uint256",
          "name": "",
          "type": "uint256"
        }
      ],
      "stateMutability": "nonpayable",
      "type": "function"
    },
    {
      "inputs": [
        {
          "internalType": "uint256",
          "name": "boxId_",
          "type": "uint256"
        },
        {
          "internalType": "uint256",
          "name": "time_",
          "type": "uint256"
        }
      ],
      "name": "extendDeadline",
      "outputs": [],
      "stateMutability": "nonpayable",
      "type": "function"
    },
    {
      "inputs": [
        {
          "internalType": "uint256",
          "name": "boxId_",
          "type": "uint256"
        }
      ],
      "name": "getBasicData",
      "outputs": [
        {
          "internalType": "enum TruthBox.Status",
          "name": "",
          "type": "uint8"
        },
        {
          "internalType": "uint256",
          "name": "",
          "type": "uint256"
        },
        {
          "internalType": "uint256",
          "name": "",
          "type": "uint256"
        }
      ],
      "stateMutability": "view",
      "type": "function"
    },
    {
      "inputs": [
        {
          "internalType": "uint256",
          "name": "boxId_",
          "type": "uint256"
        }
      ],
      "name": "getDeadline",
      "outputs": [
        {
          "internalType": "uint256",
          "name": "",
          "type": "uint256"
        }
      ],
      "stateMutability": "view",
      "type": "function"
    },
    {
      "inputs": [
        {
          "internalType": "uint256",
          "name": "boxId_",
          "type": "uint256"
        }
      ],
      "name": "getPrice",
      "outputs": [
        {
          "internalType": "uint256",
          "name": "",
          "type": "uint256"
        }
      ],
      "stateMutability": "view",
      "type": "function"
    },
    {
      "inputs": [
        {
          "internalType": "uint256",
          "name": "boxId_",
          "type": "uint256"
        },
        {
          "internalType": "bytes",
          "name": "siweToken_",
          "type": "bytes"
        }
      ],
      "name": "getPrivateData",
      "outputs": [
        {
          "internalType": "bytes",
          "name": "",
          "type": "bytes"
        }
      ],
      "stateMutability": "view",
      "type": "function"
    },
    {
      "inputs": [
        {
          "internalType": "uint256",
          "name": "boxId_",
          "type": "uint256"
        }
      ],
      "name": "getStatus",
      "outputs": [
        {
          "internalType": "enum TruthBox.Status",
          "name": "",
          "type": "uint8"
        }
      ],
      "stateMutability": "view",
      "type": "function"
    },
    {
      "inputs": [],
      "name": "implementation",
      "outputs": [
        {
          "internalType": "address",
          "name": "",
          "type": "address"
        }
      ],
      "stateMutability": "view",
      "type": "function"
    },
    {
      "inputs": [],
      "name": "incrementRate",
      "outputs": [
        {
          "internalType": "uint8",
          "name": "",
          "type": "uint8"
        }
      ],
      "stateMutability": "view",
      "type": "function"
    },
    {
      "inputs": [
        {
          "internalType": "uint256",
          "name": "boxId_",
          "type": "uint256"
        }
      ],
      "name": "isInBlacklist",
      "outputs": [
        {
          "internalType": "bool",
          "name": "",
          "type": "bool"
        }
      ],
      "stateMutability": "view",
      "type": "function"
    },
    {
      "inputs": [],
      "name": "nextBoxId",
      "outputs": [
        {
          "internalType": "uint256",
          "name": "",
          "type": "uint256"
        }
      ],
      "stateMutability": "view",
      "type": "function"
    },
    {
      "inputs": [
        {
          "internalType": "uint256",
          "name": "boxId_",
          "type": "uint256"
        }
      ],
      "name": "payConfiFee",
      "outputs": [],
      "stateMutability": "nonpayable",
      "type": "function"
    },
    {
      "inputs": [
        {
          "internalType": "uint256",
          "name": "boxId_",
          "type": "uint256"
        }
      ],
      "name": "publishByBuyer",
      "outputs": [],
      "stateMutability": "nonpayable",
      "type": "function"
    },
    {
      "inputs": [
        {
          "internalType": "uint256",
          "name": "boxId_",
          "type": "uint256"
        }
      ],
      "name": "publishByMinter",
      "outputs": [],
      "stateMutability": "nonpayable",
      "type": "function"
    },
    {
      "inputs": [],
      "name": "setAddress",
      "outputs": [],
      "stateMutability": "nonpayable",
      "type": "function"
    },
    {
      "inputs": [
        {
          "internalType": "address",
          "name": "addrManager_",
          "type": "address"
        }
      ],
      "name": "setAddressManager",
      "outputs": [],
      "stateMutability": "nonpayable",
      "type": "function"
    },
    {
      "inputs": [
        {
          "internalType": "address",
          "name": "newAdmin_",
          "type": "address"
        }
      ],
      "name": "setAdmin",
      "outputs": [],
      "stateMutability": "nonpayable",
      "type": "function"
    },
    {
      "inputs": [
        {
          "internalType": "uint256",
          "name": "boxId_",
          "type": "uint256"
        },
        {
          "internalType": "uint256",
          "name": "price_",
          "type": "uint256"
        },
        {
          "internalType": "enum TruthBox.Status",
          "name": "status_",
          "type": "uint8"
        },
        {
          "internalType": "uint256",
          "name": "deadline_",
          "type": "uint256"
        }
      ],
      "name": "setBasicData",
      "outputs": [],
      "stateMutability": "nonpayable",
      "type": "function"
    },
    {
      "inputs": [
        {
          "internalType": "uint8",
          "name": "rate_",
          "type": "uint8"
        }
      ],
      "name": "setIncrementRate",
      "outputs": [],
      "stateMutability": "nonpayable",
      "type": "function"
    },
    {
      "inputs": [
        {
          "internalType": "uint256",
          "name": "boxId_",
          "type": "uint256"
        },
        {
          "internalType": "uint256",
          "name": "price_",
          "type": "uint256"
        }
      ],
      "name": "setPrice",
      "outputs": [],
      "stateMutability": "nonpayable",
      "type": "function"
    },
    {
      "inputs": [
        {
          "internalType": "uint256",
          "name": "boxId_",
          "type": "uint256"
        },
        {
          "internalType": "enum TruthBox.Status",
          "name": "status_",
          "type": "uint8"
        }
      ],
      "name": "setStatus",
      "outputs": [],
      "stateMutability": "nonpayable",
      "type": "function"
    },
    {
      "inputs": [
        {
          "internalType": "address",
          "name": "newImplementation_",
          "type": "address"
        }
      ],
      "name": "upgrade",
      "outputs": [],
      "stateMutability": "nonpayable",
      "type": "function"
    }
  ],
  "bytecode": "0x60808060405234610047577fb53127684a568b3173ae13b9f8a6016e243e63b6e8ee1178d6a717850b5d610380546001600160a01b03191633179055612538908161004d8239f35b600080fdfe608080604052600436101561001357600080fd5b600090813560e01c9081630652b57a14611bde57508063088cbf7e14611bba5780630900f01014611b2f5780630b51c84d146119fd5780632d1fdef61461199f578063345b6821146116d15780634b5c4d70146114c15780635c60da1b146114795780635c622a0e1461144b5780635ebad5001461142d578063704b6c02146113b257806382862275146113855780639945c0cf146112ef578063aaf89bb914611216578063baf9896b14610e12578063bdc908e014610d6d578063cdae6a4414610cf7578063d896dd6414610c6f578063da4e703614610631578063de0b05ed146105ee578063e0bc85c91461059e578063e65692751461029b578063e75722301461026e578063f7d97577146101c8578063f851a440146101925763ffddb7bc1461013f57600080fd5b3461018f57602036600319011261018f5760609060406004359161016283611fc4565b92815260076020522060026001820154910154906101836040518094611d6c565b60208301526040820152f35b80fd5b503461018f578060031936011261018f576000805160206124a3833981519152546040516001600160a01b039091168152602090f35b503461018f576101d736611c55565b825460405163103864a360e11b815233600482015290602090829060249082906001600160a01b03165afa908115610263578491610234575b50156102225761021f9161237b565b80f35b6040516348f5c3ed60e01b8152600490fd5b610256915060203d60201161025c575b61024e8183611cb7565b810190611e64565b38610210565b503d610244565b6040513d86823e3d90fd5b503461018f57602036600319011261018f5760016040602092600435815260078452200154604051908152f35b503461018f578060031936011261018f5780546001600160a01b039081163381141580610583575b610222576040516326889ba960e11b815260208082600481865afa918215610578578592610559575b5060405163697b932d60e11b81528181600481875afa90811561054e578691610531575b50604051636209ec2d60e01b81528281600481885afa908115610526578791610509575b506040516350ec99a760e01b8152918383600481895afa9283156104df5760049685918a956104ea575b50604051635897591960e01b815297889182905afa9485156104df57879687958a976104a3575b50508492918380921680151580610495575b61047c575b50168015158061046e575b610455575b501680151580610447575b61042e575b501680151580610420575b610407575b50169081151590816103f8575b506103e2575080f35b6001600160601b0360a01b600154161760015580f35b905060015416811415386103d9565b6001600160601b0360a01b6002541617600255386103cc565b5082600254168114156103c7565b6001600160601b0360a01b6005541617600555386103bc565b5082600554168114156103b7565b6001600160601b0360a01b6004541617600455386103ac565b5082600454168114156103a7565b6001600160601b0360a01b60035416176003553861039c565b508260035416811415610397565b86949391859398506104cc90828593903d106104d8575b6104c48183611cb7565b810190611da7565b97925081939450610385565b503d6104ba565b6040513d8a823e3d90fd5b610502919550823d84116104d8576104c48183611cb7565b933861035e565b6105209150833d85116104d8576104c48183611cb7565b38610334565b6040513d89823e3d90fd5b6105489150823d84116104d8576104c48183611cb7565b38610310565b6040513d88823e3d90fd5b816105719293503d84116104d8576104c48183611cb7565b90386102ec565b6040513d87823e3d90fd5b50816000805160206124a383398151915254163314156102c3565b503461018f57602036600319011261018f576004358152600760205260ff6040822054169060088210156105da57602082600760405191148152f35b634e487b7160e01b81526021600452602490fd5b503461018f57602036600319011261018f57600435808252600860205260408220546001600160a01b03163303610222578061062c61021f92611eb1565b6121b2565b503461018f5760a036600319011261018f5761064b611c3f565b9060243567ffffffffffffffff811161099c5761066c903690600401611d79565b929060443567ffffffffffffffff8111610c6b5761068e903690600401611d79565b92909460643567ffffffffffffffff8111610c67576106b1903690600401611d79565b908115610c555760843515610c43578215610c31578515610c1f576106d7913691611cf5565b93600654946060908051610ab9575b506040516106f381611c7f565b6000815260843560208201526213c6804201604082015286600052600760205260406000209080516008811015610aa35760029161073360409285611e00565b60208101516001850155015191015560405161074e81611c7f565b338152602081019182526000604082015286600052600860205260406000209160018060a01b038251166001600160601b0360a01b8454161783555180519067ffffffffffffffff8211610a8d576107a96001850154611dc6565b601f8111610a46575b50602090601f83116001146109ba5760408b9c94848c9d9c989560008051602061248383398151915298956002956000926109af575b50508160011b916000199060031b1c19161760018501555b0151910155600160065401600655610825604051928392602084526020840191611e18565b0390a26003546001600160a01b0316803b156109ab57610860938580946040519687958694859363399f900b60e21b85528c60048601611e39565b03925af180156109a057610988575b50600154604051632b956ff760e01b81523360048201529160209183916024918391906001600160a01b03165af190811561097d578391610926575b507f8aa4fa52648a6d15edce8a179c792c86f3719d0cc3c572cf90f91948f0f2cb68602080948493847f7c87de6bb6f4ea1e180c4c0d62810fc5ee1b270cec877e7323a3b9fe17c7b26a6040519380a36084358152a2806000805160206124c3833981519152836040516213c68042018152a2604051908152f35b90506020813d602011610975575b8161094160209383611cb7565b8101031261097057517f8aa4fa52648a6d15edce8a179c792c86f3719d0cc3c572cf90f91948f0f2cb686108ab565b600080fd5b3d9150610934565b6040513d85823e3d90fd5b61099190611c6b565b61099c57813861086f565b5080fd5b6040513d84823e3d90fd5b8480fd5b0151905038806107e8565b906001850160005260206000209160005b601f1985168110610a2e57508b9c9460018560008051602061248383398151915298958e9f9e9a9795604095600297601f19811610610a15575b505050811b016001850155610800565b015160001960f88460031b161c19169055388080610a05565b919260206001819286850151815501940192016109cb565b600185016000526020600020601f840160051c810160208510610a86575b601f830160051c82018110610a7a5750506107b2565b60008155600101610a64565b5080610a64565b634e487b7160e01b600052604160045260246000fd5b634e487b7160e01b600052602160045260246000fd5b905060405160209187838301523360601b604083015260348252610adc82611c7f565b6000806040519384610afe878201928884526040808401526060830190611d2c565b0394610b12601f1996878101835282611cb7565b51906001600160981b015afa91610b276120e9565b9215610be4579160009291839285835193015192868110610bcf575b50610b779060405192610b5584611c9b565b858452610b6b6040519485928a840197886120b7565b03908101835282611cb7565b51906003600160981b015afa90610b8c6120e9565b9115610b995750386106e6565b6064906040519062461bcd60e51b82526004820152600f60248201526e195b98dc9e5c1d0e8819985a5b1959608a1b6044820152fd5b841990870360031b1b90921691610b77610b43565b60405162461bcd60e51b81526004810185905260136024820152721c985b991bdb509e5d195cce8819985a5b1959606a1b6044820152606490fd5b604051636dbcdd3760e11b8152600490fd5b604051632761c7f960e21b8152600490fd5b604051632c3be8db60e21b8152600490fd5b604051630f35a7eb60e21b8152600490fd5b8580fd5b8380fd5b503461018f57604036600319011261018f57602435600881101561099c57815460405163103864a360e11b815233600482015290602090829060249082906001600160a01b03165afa90811561097d578391610cd8575b50156102225761021f906004356123c4565b610cf1915060203d60201161025c5761024e8183611cb7565b38610cc6565b503461018f57610d0636611c55565b825460405163103864a360e11b815233600482015290602090829060249082906001600160a01b03165afa908115610263578491610d4e575b50156102225761021f91611f50565b610d67915060203d60201161025c5761024e8183611cb7565b38610d3f565b503461018f57608036600319011261018f576044356004356008821015610e0e57825460405163103864a360e11b815233600482015290602090829060249082906001600160a01b03165afa908115610263578491610def575b501561022257610de661021f92610de06024358461237b565b826123c4565b60643590612449565b610e08915060203d60201161025c5761024e8183611cb7565b38610dc7565b8280fd5b503461018f57606036600319011261018f57610e2c611c3f565b67ffffffffffffffff90602435828111610c6b57610e4e903690600401611d79565b604493919335828111610c6757610e69903690600401611d79565b94908215610c31578515610c1f5760405190610e8482611c9b565b8782526006549660609289611141575b50604051610ea181611c7f565b60068152602081016000815260408201600081528a600052600760205260406000209251916008831015610aa357610edb60029385611e00565b5160018401555191015560405192610ef284611c7f565b338452602084019081526000604085015288600052600860205260406000209060018060a01b038551166001600160601b0360a01b83541617825551938451978811610a8d578a978a95610f496001850154611dc6565b601f81116110da575b50602090601f831160011461104d57928260029360409360008051602061248383398151915299989796600092611042575b50508160011b916000199060031b1c19161760018501555b0151910155600160065401600655610fc1604051928392602084526020840191611e18565b0390a26003546001600160a01b031690813b15610c6b5783610ffb956040519687958694859363399f900b60e21b85528b60048601611e39565b03925af1801561097d5761102e575b602082806000805160206124e38339815191528360405160068152a2604051908152f35b6110388391611c6b565b61099c578161100a565b015190503880610f84565b906001850160005260206000209160005b601f19851681106110bc5750836040936000805160206124838339815191529998979693600193600297601f198116106110a3575b505050811b016001850155610f9c565b015160001960f88460031b161c19169055388080611093565b8282015184558f9c508e99506001909301926020928301920161105e565b9193809698999a5060019193959750016000526020600020601f840160051c81016020851061113a575b918c979593918e9b9a999795935b601f830160051c82018110611128575050610f52565b600081558f9c508e9950600101611112565b5080611104565b90925060405160209189838301523360601b60408301526034825261116582611c7f565b6000806040519384611187878201928884526040808401526060830190611d2c565b039461119b601f1996878101835282611cb7565b51906001600160981b015afa916111b06120e9565b9215610be4579160009291839285835193015192868110611201575b506111de9060405192610b5584611c9b565b51906003600160981b015afa906111f36120e9565b9115610b9957509138610e94565b841990870360031b1b909216916111de6111cc565b503461018f57602036600319011261018f5760043560ff8116808203610e0e578254604051634162169f60e01b81526001600160a01b03916020908290600490829086165afa9081156105785785916112d0575b501633036112be5780159081156112b3575b506112a1576005805460ff60a01b191660a09290921b60ff60a01b1691909117905580f35b604051636a43f8d160e01b8152600490fd5b60c89150113861127c565b6040516327568d2f60e11b8152600490fd5b6112e9915060203d6020116104d8576104c48183611cb7565b3861126a565b503461018f57602036600319011261018f5760048054604051630da0ade560e41b815282359281018390526001600160a01b03916020908290602490829086165afa908115610263578491611366575b50163303611354578061062c61021f92611e7c565b60405163239700bf60e11b8152600490fd5b61137f915060203d6020116104d8576104c48183611cb7565b3861133f565b503461018f57602036600319011261018f5760026040602092600435815260078452200154604051908152f35b503461018f57602036600319011261018f576113cc611c3f565b6000805160206124a3833981519152805490916001600160a01b0390818316330361141b5716908115611409576001600160a01b03191617905580f35b60405163d92e233d60e01b8152600490fd5b604051637bfa4b9f60e01b8152600490fd5b503461018f578060031936011261018f576020600654604051908152f35b503461018f57602036600319011261018f57602061146a600435611fc4565b6114776040518092611d6c565bf35b503461018f578060031936011261018f577f360894a13ba1a3210667c828492db98dca3e2076cc3735a920a3ca505d382bbc546040516001600160a01b039091168152602090f35b503461018f5760208060031936011261099c578154604051634162169f60e01b815260048035936001600160a01b03939092918391839190829087165afa801561057857839186916116b4575b501633036112be5761151f83611f1d565b5082845260079182825260ff60408620541660088110156116265783146116a257848160045416604051630da0ade560e41b81528660048201528481602481855afa801561097d5784918491611685575b501661163a575b5084905282825260ff6040862054166008811015611626579081600687931415908161161a575b506115d2575b508390528181526040808520805460ff191684179055519182526000805160206124e383398151915291a280f35b60035416803b1561099c57818091602460405180948193630852cd8d60e31b83528a60048401525af180156109a057156115a45761160f90611c6b565b610c6b5783386115a4565b6005915014153861159e565b634e487b7160e01b86526021600452602486fd5b803b1561099c5781809160446040518094819363a3b979c360e01b83528b6004840152600160248401525af180156109a057156115775761167a90611c6b565b6109ab578438611577565b61169c9150863d88116104d8576104c48183611cb7565b38611570565b60405163b1cf6f0360e01b8152600490fd5b6116cb9150833d85116104d8576104c48183611cb7565b3861150e565b503461018f57604036600319011261018f576004356024803567ffffffffffffffff8111610c6b5736602382011215610c6b576117179036908381600401359101611cf5565b3390331561192d575b506001600160a01b0390811691821561191b5761173c84611fc4565b6008811015806118fb578115801561190e575b8181156118eb575b50156118535750505061176983611f1d565b1603610222575b815260209060088252604081209060028201546001809301906040519185849582549261179c84611dc6565b808752936001811690811561183057506001146117f4575b505050506117c7826117db950383611cb7565b604051926117d484611c9b565b8352612119565b906117f0604051928284938452830190611d2c565b0390f35b86528186209196508592915b82841061181d575050508201909301926117c7856117db846117b4565b8054868501890152928701928101611800565b60ff19168488015250505090151560051b83010193506117c7856117db846117b4565b6118d857600581149081156118cd575b50611871575b505050611770565b6020826004541660405192838092630da0ade560e41b82528860048301525afa9081156105785785916118ae575b50160361022257388080611869565b6118c7915060203d6020116104d8576104c48183611cb7565b3861189f565b600391501438611863565b50634e487b7160e01b8552602160045284fd5b90506118fb576002821481611757565b634e487b7160e01b875260216004528287fd5b505060006001821461174f565b60405163c1ab6dc160e01b8152600490fd5b6002546040516319510d6760e01b81526020600482018190529093509183916001600160a01b031690829081906119679088830190611d2c565b03915afa908115610263578491611980575b5038611720565b611999915060203d6020116104d8576104c48183611cb7565b38611979565b503461018f576119ae36611c55565b6001600160a01b036119bf83611f1d565b163303610222576119cf82611eb1565b6119d882611ed1565b6213c68081116119eb5761021f91611f50565b6040516302e8f35960e31b8152600490fd5b503461018f57602036600319011261018f57600435611a1b81611e7c565b611a2481611ed1565b8082526007602052604082206001015460055483906001600160a01b0316803b1561099c57819060646040518094819363024cfb4760e41b83528860048401523360248401528760448401525af1801561026357611b1c575b5060ff60055460a01c1690818102918183041490151715611b08576064611aa591048261237b565b8060005260076020526002604060002001546213c6808101809111611af25760206000805160206124c383398151915291836000526007825280600260406000200155604051908152a280f35b634e487b7160e01b600052601160045260246000fd5b634e487b7160e01b83526011600452602483fd5b611b2890939193611c6b565b9138611a7d565b503461018f57602036600319011261018f57611b49611c3f565b6000805160206124a3833981519152546001600160a01b03908116330361141b57813b15611ba8577f360894a13ba1a3210667c828492db98dca3e2076cc3735a920a3ca505d382bbc91166001600160601b0360a01b82541617905580f35b60405163340aafcd60e11b8152600490fd5b503461018f578060031936011261018f57602060ff60055460a01c16604051908152f35b90503461099c57602036600319011261099c57611bf9611c3f565b6000805160206124a3833981519152546001600160a01b03929083163303611c30575082546001600160a01b031916911617815580f35b637bfa4b9f60e01b8152600490fd5b600435906001600160a01b038216820361097057565b6040906003190112610970576004359060243590565b67ffffffffffffffff8111610a8d57604052565b6060810190811067ffffffffffffffff821117610a8d57604052565b6020810190811067ffffffffffffffff821117610a8d57604052565b90601f8019910116810190811067ffffffffffffffff821117610a8d57604052565b67ffffffffffffffff8111610a8d57601f01601f191660200190565b929192611d0182611cd9565b91611d0f6040519384611cb7565b829481845281830111610970578281602093846000960137010152565b919082519283825260005b848110611d58575050826000602080949584010152601f8019910116010190565b602081830181015184830182015201611d37565b906008821015610aa35752565b9181601f840112156109705782359167ffffffffffffffff8311610970576020838186019501011161097057565b9081602091031261097057516001600160a01b03811681036109705790565b90600182811c92168015611df6575b6020831014611de057565b634e487b7160e01b600052602260045260246000fd5b91607f1691611dd5565b906008811015610aa35760ff80198354169116179055565b908060209392818452848401376000828201840152601f01601f1916010190565b9081526001600160a01b039091166020820152606060408201819052611e6193910191611e18565b90565b90816020910312610970575180151581036109705790565b600052600760205260ff604060002054166008811015610aa357600503611e9f57565b6040516307a92f1960e51b8152600490fd5b600052600760205260ff604060002054166008811015610aa357611e9f57565b6000526007602052600260406000200154428110908115611f06575b50611ef457565b60405163c8af701160e01b8152600490fd5b90506203f480420190814211611af2571138611eed565b6000908152600860205260409020546001600160a01b03168015611f3e5790565b6040516337381c9960e21b8152600490fd5b908015611fb257600082815260076020526002604082200154918201809211611f9e57816000805160206124c3833981519152926002604084876020965260078652200155604051908152a2565b634e487b7160e01b81526011600452602490fd5b6040516302824e7360e31b8152600490fd5b60009080825260076020526040822091600260ff8454169301544211611fe957505090565b90916008811015806120a357600182148015612097575b1561207e57505060048054604051630da0ade560e41b8152918201939093526001600160a01b03926020908290602490829087165afa9182156120725791612053575b501661204e57600690565b600390565b61206c915060203d6020116104d8576104c48183611cb7565b38612043565b604051903d90823e3d90fd5b9092506105da5750600581146120915790565b50600690565b50508160028214612000565b634e487b7160e01b83526021600452602483fd5b916120db90611e619492600085526020850152608060408501526080840190611d2c565b916060818403910152611d2c565b3d15612114573d906120fa82611cd9565b916121086040519384611cb7565b82523d6000602084013e565b606090565b61214b61215e6000948594610b6b604051948592602084019789895260408501526080606085015260a0840190611d2c565b601f199384848303016080850152611d2c565b51906004600160981b015afa6121726120e9565b901561217b5790565b60405162461bcd60e51b815260206004820152600f60248201526e191958dc9e5c1d0e8819985a5b1959608a1b6044820152606490fd5b6000908082526020906007825281604080852060ff1990600682825416179055838251600681526000805160206124e3833981519152948591a283865260088552818620600281015491600180920190845192899280548a61221382611dc6565b808852946001831692831561235757505050600114612314575b505050906122418161225594930382611cb7565b83519161224d83611c9b565b888352612119565b91858560018060a01b03600154166024855180948193632b956ff760e01b83523360048401525af19687156123095780976122d7575b50509181848695947f49e6caa43a01f3c7785f39bcce3ff3a17b674fa62b8f13c94ce1f4ee2efc9e27976122d2955160068152a28080519586958652850152830190611d2c565b0390a2565b909196508582813d8311612302575b6122f08183611cb7565b8101031261018f57505194818461228b565b503d6122e6565b8351903d90823e3d90fd5b8a52888a209493925088918a915b8183106123405750939450919250908201016122418261225561222d565b8654858401850152958601958a9390920191612322565b168782015293151560051b860190930193506122419250849150612255905061222d565b9080612385575050565b60207f8aa4fa52648a6d15edce8a179c792c86f3719d0cc3c572cf90f91948f0f2cb6891836000526007825280600160406000200155604051908152a2565b906008811015610aa357806123d7575050565b60058114612418575b60206000805160206124e3833981519152918360005260078252612408816040600020611e00565b6124156040518092611d6c565ba2565b6213c6804201804211611af2576000805160206124e38339815191529161244160209285612449565b9150506123e0565b90428111612455575050565b60206000805160206124c383398151915291836000526007825280600260406000200155604051908152a256fea80feba9ebb2590a8f11dfdc13aceedff675fd5920eea141b6f55c22c6b8436fb53127684a568b3173ae13b9f8a6016e243e63b6e8ee1178d6a717850b5d6103b50b49938e915b0ab39e99a2d0810e190d6a377647ef06ec45b1e54b892968a6f5da82b1649f3e1bf563baf1aed70575caf9bda52414029afc923bbce28e99dda26469706673582212203a1715c7d39779c46ffab98831b428c781eed6bfddb91d9b5ed1965a9736801264736f6c63430008180033",
  "linkReferences": {},
  "deployedLinkReferences": {}
}