{
  "_format": "hh-sol-artifact-1",
  "contractName": "TruthBox",
  "sourceName": "contracts/TruthBox.sol",
  "abi": [
    {
      "inputs": [
        {
          "internalType": "address",
          "name": "addrManager_",
          "type": "address"
        }
      ],
      "stateMutability": "nonpayable",
      "type": "constructor"
    },
    {
      "inputs": [],
      "name": "AmountIsZero",
      "type": "error"
    },
    {
      "inputs": [],
      "name": "AuctionOver",
      "type": "error"
    },
    {
      "inputs": [],
      "name": "AvailableBuyer",
      "type": "error"
    },
    {
      "inputs": [],
      "name": "BlackTokenIdNotExist",
      "type": "error"
    },
    {
      "inputs": [],
      "name": "BoxAlreadyInBlacklist",
      "type": "error"
    },
    {
      "inputs": [],
      "name": "BoxNotExists",
      "type": "error"
    },
    {
      "inputs": [],
      "name": "DeadlineIsOver",
      "type": "error"
    },
    {
      "inputs": [],
      "name": "DeadlineNotIn30days",
      "type": "error"
    },
    {
      "inputs": [],
      "name": "DeadlineNotOver",
      "type": "error"
    },
    {
      "inputs": [],
      "name": "EmptyBoxInfoCID",
      "type": "error"
    },
    {
      "inputs": [],
      "name": "EmptyKey",
      "type": "error"
    },
    {
      "inputs": [],
      "name": "EmptyPrice",
      "type": "error"
    },
    {
      "inputs": [],
      "name": "EmptyTokenCID",
      "type": "error"
    },
    {
      "inputs": [],
      "name": "EmptyTokenURI",
      "type": "error"
    },
    {
      "inputs": [],
      "name": "InBlacklist",
      "type": "error"
    },
    {
      "inputs": [],
      "name": "InvalidBoxId",
      "type": "error"
    },
    {
      "inputs": [],
      "name": "InvalidCaller",
      "type": "error"
    },
    {
      "inputs": [],
      "name": "InvalidContractAddress",
      "type": "error"
    },
    {
      "inputs": [],
      "name": "InvalidContractCaller",
      "type": "error"
    },
    {
      "inputs": [],
      "name": "InvalidDeadline",
      "type": "error"
    },
    {
      "inputs": [],
      "name": "InvalidERC20Interface",
      "type": "error"
    },
    {
      "inputs": [],
      "name": "InvalidImplementation",
      "type": "error"
    },
    {
      "inputs": [],
      "name": "InvalidPeriod",
      "type": "error"
    },
    {
      "inputs": [],
      "name": "InvalidRate",
      "type": "error"
    },
    {
      "inputs": [],
      "name": "InvalidSeconds",
      "type": "error"
    },
    {
      "inputs": [],
      "name": "InvalidStatus",
      "type": "error"
    },
    {
      "inputs": [],
      "name": "InvalidToken",
      "type": "error"
    },
    {
      "inputs": [],
      "name": "NotAdmin",
      "type": "error"
    },
    {
      "inputs": [],
      "name": "NotAdminOrDAO",
      "type": "error"
    },
    {
      "inputs": [],
      "name": "NotBuyer",
      "type": "error"
    },
    {
      "inputs": [],
      "name": "NotDAO",
      "type": "error"
    },
    {
      "inputs": [],
      "name": "NotInSecrecy",
      "type": "error"
    },
    {
      "inputs": [],
      "name": "NotMinter",
      "type": "error"
    },
    {
      "inputs": [],
      "name": "PublicTimeNotEnd",
      "type": "error"
    },
    {
      "inputs": [],
      "name": "TokenAlreadyExists",
      "type": "error"
    },
    {
      "inputs": [],
      "name": "TokenNotExists",
      "type": "error"
    },
    {
      "inputs": [],
      "name": "TokenNotSupported",
      "type": "error"
    },
    {
      "inputs": [],
      "name": "ZeroAddress",
      "type": "error"
    },
    {
      "anonymous": false,
      "inputs": [
        {
          "indexed": true,
          "internalType": "uint256",
          "name": "boxId",
          "type": "uint256"
        },
        {
          "indexed": true,
          "internalType": "uint256",
          "name": "userId",
          "type": "uint256"
        },
        {
          "indexed": false,
          "internalType": "string",
          "name": "boxInfoCID",
          "type": "string"
        }
      ],
      "name": "BoxCreated",
      "type": "event"
    },
    {
      "anonymous": false,
      "inputs": [
        {
          "indexed": true,
          "internalType": "uint256",
          "name": "boxId",
          "type": "uint256"
        },
        {
          "indexed": false,
          "internalType": "enum Status",
          "name": "status",
          "type": "uint8"
        }
      ],
      "name": "BoxStatusChanged",
      "type": "event"
    },
    {
      "anonymous": false,
      "inputs": [
        {
          "indexed": true,
          "internalType": "uint256",
          "name": "boxId",
          "type": "uint256"
        },
        {
          "indexed": false,
          "internalType": "uint256",
          "name": "deadline",
          "type": "uint256"
        }
      ],
      "name": "DeadlineChanged",
      "type": "event"
    },
    {
      "anonymous": false,
      "inputs": [
        {
          "indexed": true,
          "internalType": "uint256",
          "name": "boxId",
          "type": "uint256"
        },
        {
          "indexed": false,
          "internalType": "uint256",
          "name": "price",
          "type": "uint256"
        }
      ],
      "name": "PriceChanged",
      "type": "event"
    },
    {
      "anonymous": false,
      "inputs": [
        {
          "indexed": false,
          "internalType": "uint256",
          "name": "boxId",
          "type": "uint256"
        },
        {
          "indexed": false,
          "internalType": "bytes",
          "name": "privateKey",
          "type": "bytes"
        },
        {
          "indexed": true,
          "internalType": "uint256",
          "name": "userId",
          "type": "uint256"
        }
      ],
      "name": "PrivateKeyPublished",
      "type": "event"
    },
    {
      "inputs": [
        {
          "internalType": "uint256",
          "name": "boxId_",
          "type": "uint256"
        }
      ],
      "name": "addBoxToBlacklist",
      "outputs": [],
      "stateMutability": "nonpayable",
      "type": "function"
    },
    {
      "inputs": [
        {
          "internalType": "uint256",
          "name": "boxId_",
          "type": "uint256"
        },
        {
          "internalType": "uint256",
          "name": "seconds_",
          "type": "uint256"
        }
      ],
      "name": "addDeadline",
      "outputs": [],
      "stateMutability": "nonpayable",
      "type": "function"
    },
    {
      "inputs": [],
      "name": "admin",
      "outputs": [
        {
          "internalType": "address",
          "name": "",
          "type": "address"
        }
      ],
      "stateMutability": "view",
      "type": "function"
    },
    {
      "inputs": [
        {
          "internalType": "address",
          "name": "to_",
          "type": "address"
        },
        {
          "internalType": "string",
          "name": "tokenCID_",
          "type": "string"
        },
        {
          "internalType": "string",
          "name": "boxInfoCID_",
          "type": "string"
        },
        {
          "internalType": "bytes",
          "name": "key_",
          "type": "bytes"
        },
        {
          "internalType": "uint256",
          "name": "price_",
          "type": "uint256"
        }
      ],
      "name": "create",
      "outputs": [
        {
          "internalType": "uint256",
          "name": "",
          "type": "uint256"
        }
      ],
      "stateMutability": "nonpayable",
      "type": "function"
    },
    {
      "inputs": [
        {
          "internalType": "address",
          "name": "to_",
          "type": "address"
        },
        {
          "internalType": "string",
          "name": "tokenCID_",
          "type": "string"
        },
        {
          "internalType": "string",
          "name": "boxInfoCID_",
          "type": "string"
        }
      ],
      "name": "createAndPublish",
      "outputs": [
        {
          "internalType": "uint256",
          "name": "",
          "type": "uint256"
        }
      ],
      "stateMutability": "nonpayable",
      "type": "function"
    },
    {
      "inputs": [
        {
          "internalType": "uint256",
          "name": "boxId_",
          "type": "uint256"
        },
        {
          "internalType": "uint256",
          "name": "time_",
          "type": "uint256"
        }
      ],
      "name": "extendDeadline",
      "outputs": [],
      "stateMutability": "nonpayable",
      "type": "function"
    },
    {
      "inputs": [
        {
          "internalType": "uint256",
          "name": "boxId_",
          "type": "uint256"
        }
      ],
      "name": "getBasicData",
      "outputs": [
        {
          "internalType": "enum Status",
          "name": "",
          "type": "uint8"
        },
        {
          "internalType": "uint256",
          "name": "",
          "type": "uint256"
        },
        {
          "internalType": "uint256",
          "name": "",
          "type": "uint256"
        }
      ],
      "stateMutability": "view",
      "type": "function"
    },
    {
      "inputs": [
        {
          "internalType": "uint256",
          "name": "boxId_",
          "type": "uint256"
        }
      ],
      "name": "getDeadline",
      "outputs": [
        {
          "internalType": "uint256",
          "name": "",
          "type": "uint256"
        }
      ],
      "stateMutability": "view",
      "type": "function"
    },
    {
      "inputs": [
        {
          "internalType": "uint256",
          "name": "boxId_",
          "type": "uint256"
        }
      ],
      "name": "getPrice",
      "outputs": [
        {
          "internalType": "uint256",
          "name": "",
          "type": "uint256"
        }
      ],
      "stateMutability": "view",
      "type": "function"
    },
    {
      "inputs": [
        {
          "internalType": "uint256",
          "name": "boxId_",
          "type": "uint256"
        },
        {
          "internalType": "bytes",
          "name": "siweToken_",
          "type": "bytes"
        }
      ],
      "name": "getPrivateData",
      "outputs": [
        {
          "internalType": "bytes",
          "name": "",
          "type": "bytes"
        }
      ],
      "stateMutability": "view",
      "type": "function"
    },
    {
      "inputs": [
        {
          "internalType": "uint256",
          "name": "boxId_",
          "type": "uint256"
        }
      ],
      "name": "getStatus",
      "outputs": [
        {
          "internalType": "enum Status",
          "name": "",
          "type": "uint8"
        }
      ],
      "stateMutability": "view",
      "type": "function"
    },
    {
      "inputs": [],
      "name": "implementation",
      "outputs": [
        {
          "internalType": "address",
          "name": "",
          "type": "address"
        }
      ],
      "stateMutability": "view",
      "type": "function"
    },
    {
      "inputs": [],
      "name": "incrementRate",
      "outputs": [
        {
          "internalType": "uint8",
          "name": "",
          "type": "uint8"
        }
      ],
      "stateMutability": "view",
      "type": "function"
    },
    {
      "inputs": [
        {
          "internalType": "uint256",
          "name": "boxId_",
          "type": "uint256"
        }
      ],
      "name": "isInBlacklist",
      "outputs": [
        {
          "internalType": "bool",
          "name": "",
          "type": "bool"
        }
      ],
      "stateMutability": "view",
      "type": "function"
    },
    {
      "inputs": [
        {
          "internalType": "uint256",
          "name": "boxId_",
          "type": "uint256"
        },
        {
          "internalType": "bytes",
          "name": "siweToken_",
          "type": "bytes"
        }
      ],
      "name": "minterOf",
      "outputs": [
        {
          "internalType": "address",
          "name": "",
          "type": "address"
        }
      ],
      "stateMutability": "view",
      "type": "function"
    },
    {
      "inputs": [
        {
          "internalType": "uint256",
          "name": "boxId_",
          "type": "uint256"
        }
      ],
      "name": "minterOf",
      "outputs": [
        {
          "internalType": "address",
          "name": "",
          "type": "address"
        }
      ],
      "stateMutability": "view",
      "type": "function"
    },
    {
      "inputs": [],
      "name": "nextBoxId",
      "outputs": [
        {
          "internalType": "uint256",
          "name": "",
          "type": "uint256"
        }
      ],
      "stateMutability": "view",
      "type": "function"
    },
    {
      "inputs": [
        {
          "internalType": "uint256",
          "name": "boxId_",
          "type": "uint256"
        }
      ],
      "name": "payConfiFee",
      "outputs": [],
      "stateMutability": "nonpayable",
      "type": "function"
    },
    {
      "inputs": [
        {
          "internalType": "uint256",
          "name": "boxId_",
          "type": "uint256"
        }
      ],
      "name": "publishByBuyer",
      "outputs": [],
      "stateMutability": "nonpayable",
      "type": "function"
    },
    {
      "inputs": [
        {
          "internalType": "uint256",
          "name": "boxId_",
          "type": "uint256"
        }
      ],
      "name": "publishByMinter",
      "outputs": [],
      "stateMutability": "nonpayable",
      "type": "function"
    },
    {
      "inputs": [],
      "name": "setAddress",
      "outputs": [],
      "stateMutability": "nonpayable",
      "type": "function"
    },
    {
      "inputs": [
        {
          "internalType": "address",
          "name": "addrManager_",
          "type": "address"
        }
      ],
      "name": "setAddressManager",
      "outputs": [],
      "stateMutability": "nonpayable",
      "type": "function"
    },
    {
      "inputs": [
        {
          "internalType": "address",
          "name": "newAdmin_",
          "type": "address"
        }
      ],
      "name": "setAdmin",
      "outputs": [],
      "stateMutability": "nonpayable",
      "type": "function"
    },
    {
      "inputs": [
        {
          "internalType": "uint256",
          "name": "boxId_",
          "type": "uint256"
        },
        {
          "internalType": "uint256",
          "name": "price_",
          "type": "uint256"
        },
        {
          "internalType": "enum Status",
          "name": "status_",
          "type": "uint8"
        },
        {
          "internalType": "uint256",
          "name": "deadline_",
          "type": "uint256"
        }
      ],
      "name": "setBasicData",
      "outputs": [],
      "stateMutability": "nonpayable",
      "type": "function"
    },
    {
      "inputs": [
        {
          "internalType": "uint8",
          "name": "rate_",
          "type": "uint8"
        }
      ],
      "name": "setIncrementRate",
      "outputs": [],
      "stateMutability": "nonpayable",
      "type": "function"
    },
    {
      "inputs": [
        {
          "internalType": "uint256",
          "name": "boxId_",
          "type": "uint256"
        },
        {
          "internalType": "uint256",
          "name": "price_",
          "type": "uint256"
        }
      ],
      "name": "setPrice",
      "outputs": [],
      "stateMutability": "nonpayable",
      "type": "function"
    },
    {
      "inputs": [
        {
          "internalType": "uint256",
          "name": "boxId_",
          "type": "uint256"
        },
        {
          "internalType": "enum Status",
          "name": "status_",
          "type": "uint8"
        }
      ],
      "name": "setStatus",
      "outputs": [],
      "stateMutability": "nonpayable",
      "type": "function"
    },
    {
      "inputs": [
        {
          "internalType": "address",
          "name": "newImplementation_",
          "type": "address"
        }
      ],
      "name": "upgrade",
      "outputs": [],
      "stateMutability": "nonpayable",
      "type": "function"
    }
  ],
  "bytecode": "0x6080346100b457601f6126d438819003918201601f19168301916001600160401b038311848410176100b9578084926020946040528339810103126100b457516001600160a01b038116908190036100b4577fb53127684a568b3173ae13b9f8a6016e243e63b6e8ee1178d6a717850b5d610380546001600160a01b03199081163317909155600080549091169190911790556005805460ff60a01b1916601960a31b17905560405161260490816100d08239f35b600080fd5b634e487b7160e01b600052604160045260246000fdfe608080604052600436101561001357600080fd5b600090813560e01c9081630652b57a14611c0657508063088cbf7e14611be25780630900f01014611b575780630b51c84d14611a255780632d1fdef6146119c7578063345b6821146117b35780634b5c4d70146115985780635c60da1b146115505780635c622a0e146115225780635ebad50014611504578063704b6c0214611489578063828622751461145c5780639945c0cf146113c65780639ae35d90146113835780639e942ace146112ef578063aaf89bb914611216578063baf9896b14610dd8578063bdc908e014610d37578063cdae6a4414610cc1578063d896dd6414610c39578063da4e703614610647578063de0b05ed14610604578063e0bc85c9146105b4578063e6569275146102b1578063e757223014610284578063f7d97577146101de578063f851a440146101a85763ffddb7bc1461015557600080fd5b346101a55760203660031901126101a5576060906040600435916101788361209c565b92815260076020522060026001820154910154906101996040518094611dd2565b60208301526040820152f35b80fd5b50346101a557806003193601126101a55760008051602061254f833981519152546040516001600160a01b039091168152602090f35b50346101a5576101ed36611c7d565b825460405163103864a360e11b815233600482015290602090829060249082906001600160a01b03165afa90811561027957849161024a575b50156102385761023591612447565b80f35b6040516348f5c3ed60e01b8152600490fd5b61026c915060203d602011610272575b6102648183611cdc565b810190611e7d565b38610226565b503d61025a565b6040513d86823e3d90fd5b50346101a55760203660031901126101a55760016040602092600435815260078452200154604051908152f35b50346101a557806003193601126101a55780546001600160a01b039081163381141580610599575b610238576040516326889ba960e11b815260208082600481865afa91821561058e57859261056f575b5060405163697b932d60e11b81528181600481875afa908115610564578691610547575b50604051636209ec2d60e01b81528281600481885afa90811561053c57879161051f575b506040516350ec99a760e01b8152918383600481895afa9283156104f55760049685918a95610500575b50604051635897591960e01b815297889182905afa9485156104f557879687958a976104b9575b505084929183809216801515806104ab575b610492575b501680151580610484575b61046b575b50168015158061045d575b610444575b501680151580610436575b61041d575b501690811515908161040e575b506103f8575080f35b6001600160601b0360a01b600154161760015580f35b905060015416811415386103ef565b6001600160601b0360a01b6002541617600255386103e2565b5082600254168114156103dd565b6001600160601b0360a01b6005541617600555386103d2565b5082600554168114156103cd565b6001600160601b0360a01b6004541617600455386103c2565b5082600454168114156103bd565b6001600160601b0360a01b6003541617600355386103b2565b5082600354168114156103ad565b86949391859398506104e290828593903d106104ee575b6104da8183611cdc565b810190611e0c565b9792508193945061039b565b503d6104d0565b6040513d8a823e3d90fd5b610518919550823d84116104ee576104da8183611cdc565b9338610374565b6105369150833d85116104ee576104da8183611cdc565b3861034a565b6040513d89823e3d90fd5b61055e9150823d84116104ee576104da8183611cdc565b38610326565b6040513d88823e3d90fd5b816105879293503d84116104ee576104da8183611cdc565b9038610302565b6040513d87823e3d90fd5b508160008051602061254f83398151915254163314156102d9565b50346101a55760203660031901126101a5576004358152600760205260ff6040822054169060088210156105f057602082600760405191148152f35b634e487b7160e01b81526021600452602490fd5b50346101a55760203660031901126101a557600435808252600860205260408220546001600160a01b03163303610238578061064261023592611f13565b61227e565b50346101a55760a03660031901126101a557610661611c67565b6024356001600160401b038111610c3557610680903690600401611ddf565b6044929192356001600160401b038111610c31576106a2903690600401611ddf565b9190936064356001600160401b038111610c2d576106c4903690600401611ddf565b908115610c1b5760843515610c09578315610bf7578415610be5576106ea913691611d18565b946006549560006060918051610a84575b5060405161070881611ca6565b6000815260843560208201526213c6804201604082015288600052600760205260406000209080516008811015610a6e5760029161074860409285611e65565b6020810151600185015501519101556040519061076482611ca6565b33825260208201928352604082015287600052600860205260406000209160018060a01b038251166001600160601b0360a01b845416178355518051906001600160401b038211610a58576107bc6001850154611e2b565b601f8111610a11575b50602090601f831160011461099c57918060029492604094600092610991575b50508160011b916000199060031b1c19161760018501555b01519101556001600654016006556000602060018060a01b0360015416602460405180948193632b956ff760e01b83523360048401525af19182156109855788958892600094610935575b509060008051602061258f83398151915291610871604051928392602084526020840191611e95565b0390a36003546001600160a01b031690813b1561093157836108ab956040519687958694859363399f900b60e21b85528b60048601611eb6565b03925af180156109265761090e575b602082807f8aa4fa52648a6d15edce8a179c792c86f3719d0cc3c572cf90f91948f0f2cb68836040516084358152a28060008051602061256f833981519152836040516213c68042018152a2604051908152f35b6109188391611c93565b61092257816108ba565b5080fd5b6040513d85823e3d90fd5b8380fd5b9650925090506020853d60201161097d575b8161095460209383611cdc565b810103126109785760008051602061258f8339815191528791899651939091610848565b600080fd5b3d9150610947565b6040513d6000823e3d90fd5b0151905038806107e5565b906001850160005260206000209160005b601f19851681106109f95750926002949260019260409583601f198116106109e0575b505050811b0160018501556107fd565b015160001960f88460031b161c191690553880806109d0565b919260206001819286850151815501940192016109ad565b600185016000526020600020601f840160051c810160208510610a51575b601f830160051c82018110610a455750506107c5565b60008155600101610a2f565b5080610a2f565b634e487b7160e01b600052604160045260246000fd5b634e487b7160e01b600052602160045260246000fd5b610ac9929150600080604051936020948c8682015233821b604082015260348152610aae81611ca6565b60405196879187830193888552604080850152830190611d92565b0395610add601f1997888101835282611cdc565b51906001600160981b015afa610af16121b5565b9015610baa57600091829184815191015190858110610b9a575b5090610b41829660405192610b1f84611cc1565b858452610b356040519485928a84019788612183565b03908101835282611cdc565b51906003600160981b015afa90610b566121b5565b9115610b64575090386106fb565b6064906040519062461bcd60e51b82526004820152600f60248201526e195b98dc9e5c1d0e8819985a5b1959608a1b6044820152fd5b831990860360031b1b1638610b0b565b60405162461bcd60e51b81526004810184905260136024820152721c985b991bdb509e5d195cce8819985a5b1959606a1b6044820152606490fd5b604051636dbcdd3760e11b8152600490fd5b604051632761c7f960e21b8152600490fd5b604051632c3be8db60e21b8152600490fd5b604051630f35a7eb60e21b8152600490fd5b8680fd5b8480fd5b8280fd5b50346101a55760403660031901126101a557602435600881101561092257815460405163103864a360e11b815233600482015290602090829060249082906001600160a01b03165afa908115610926578391610ca2575b50156102385761023590600435612490565b610cbb915060203d602011610272576102648183611cdc565b38610c90565b50346101a557610cd036611c7d565b825460405163103864a360e11b815233600482015290602090829060249082906001600160a01b03165afa908115610279578491610d18575b50156102385761023591611fb2565b610d31915060203d602011610272576102648183611cdc565b38610d09565b50346101a55760803660031901126101a5576044356004356008821015610c3557825460405163103864a360e11b815233600482015290602090829060249082906001600160a01b03165afa908115610279578491610db9575b501561023857610db061023592610daa60243584612447565b82612490565b60643590612515565b610dd2915060203d602011610272576102648183611cdc565b38610d91565b50346101a55760603660031901126101a557610df2611c67565b6024356001600160401b038111610c3557610e11903690600401611ddf565b6044929192356001600160401b038111610c3157610e33903690600401611ddf565b9190938115610bf7578215610be55760405194610e4f86611cc1565b86865260065495600060609189611163575b50604051610e6e81611ca6565b60068152600060208201526000604082015288600052600760205260406000209080516008811015610a6e57600291610ea960409285611e65565b60208101516001850155015191015560405190610ec582611ca6565b33825260208201928352604082015287600052600860205260406000209160018060a01b038251166001600160601b0360a01b845416178355518051906001600160401b038211610a5857610f1d6001850154611e2b565b601f811161111c575b50602090601f83116001146110a95791806002949260409460009261109e575b50508160011b916000199060031b1c19161760018501555b01519101556001600654016006556000602060018060a01b0360015416602460405180948193632b956ff760e01b83523360048401525af19182156109855788958892600094611053575b509060008051602061258f83398151915291610fd2604051928392602084526020840191611e95565b0390a36003546001600160a01b031690813b15610931578361100c956040519687958694859363399f900b60e21b85528b60048601611eb6565b03925af180156109265761103f575b602082806000805160206125af8339815191528360405160068152a2604051908152f35b6110498391611c93565b610922578161101b565b9650925090506020853d602011611096575b8161107260209383611cdc565b810103126109785760008051602061258f8339815191528791899651939091610fa9565b3d9150611065565b015190503880610f46565b90601f198316916001860160005260206000209260005b818110611104575092600192859260409660029896106110eb575b505050811b016001850155610f5e565b015160001960f88460031b161c191690553880806110db565b929360206001819287860151815501950193016110c0565b600185016000526020600020601f840160051c81016020851061115c575b601f830160051c82018110611150575050610f26565b6000815560010161113a565b508061113a565b61118d929150600080604051936020948c8682015233821b604082015260348152610aae81611ca6565b03956111a1601f1997888101835282611cdc565b51906001600160981b015afa6111b56121b5565b9015610baa57600091829184815191015190858110611206575b50906111e3829660405192610b1f84611cc1565b51906003600160981b015afa906111f86121b5565b9115610b6457509038610e61565b831990860360031b1b16386111cf565b50346101a55760203660031901126101a55760043560ff8116808203610c35578254604051634162169f60e01b81526001600160a01b03916020908290600490829086165afa90811561058e5785916112d0575b501633036112be5780159081156112b3575b506112a1576005805460ff60a01b191660a09290921b60ff60a01b1691909117905580f35b604051636a43f8d160e01b8152600490fd5b60c89150113861127c565b6040516327568d2f60e11b8152600490fd5b6112e9915060203d6020116104ee576104da8183611cdc565b3861126a565b50346101a55760203660031901126101a557805460405163103864a360e11b81523360048201526001600160a01b0392916020908290602490829087165afa9182156113775791611358575b50156102385760209061134f600435611f7f565b60405191168152f35b611371915060203d602011610272576102648183611cdc565b3861133b565b604051903d90823e3d90fd5b50346101a5576113a06113b161139836611d4f565b929092612026565b916001600160a01b03918291611f7f565b16911690810361023857602090604051908152f35b50346101a55760203660031901126101a55760048054604051630da0ade560e41b815282359281018390526001600160a01b03916020908290602490829086165afa90811561027957849161143d575b5016330361142b578061064261023592611ede565b60405163239700bf60e11b8152600490fd5b611456915060203d6020116104ee576104da8183611cdc565b38611416565b50346101a55760203660031901126101a55760026040602092600435815260078452200154604051908152f35b50346101a55760203660031901126101a5576114a3611c67565b60008051602061254f833981519152805490916001600160a01b039081831633036114f257169081156114e0576001600160a01b03191617905580f35b60405163d92e233d60e01b8152600490fd5b604051637bfa4b9f60e01b8152600490fd5b50346101a557806003193601126101a5576020600654604051908152f35b50346101a55760203660031901126101a557602061154160043561209c565b61154e6040518092611dd2565bf35b50346101a557806003193601126101a5577f360894a13ba1a3210667c828492db98dca3e2076cc3735a920a3ca505d382bbc546040516001600160a01b039091168152602090f35b50346101a557602080600319360112610922578154604051634162169f60e01b815260048035936001600160a01b03939092918391839190829087165afa801561058e5783918691611796575b501633036112be576115f683611f7f565b5082845260079182825260ff604086205416600881101561170857831461178457848160045416604051630da0ade560e41b81528660048201528481602481855afa80156109265784918491611767575b501661171c575b5084905282825260ff604086205416600881101561170857908160068793141590816116fc575b506116a9575b508390528181526040808520805460ff191684179055519182526000805160206125af83398151915291a280f35b60035416803b1561092257818091602460405180948193630852cd8d60e31b83528a60048401525af180156116f1571561167b576116e690611c93565b61093157833861167b565b6040513d84823e3d90fd5b60059150141538611675565b634e487b7160e01b86526021600452602486fd5b803b156109225781809160446040518094819363a3b979c360e01b83528b6004840152600160248401525af180156116f1571561164e5761175c90611c93565b610c3157843861164e565b61177e9150863d88116104ee576104da8183611cdc565b38611647565b60405163b1cf6f0360e01b8152600490fd5b6117ad9150833d85116104ee576104da8183611cdc565b386115e5565b50346101a5576117d86117c536611d4f565b90916001600160a01b0391829190612026565b169081156119b5576117e98361209c565b60088110158061170857811580156119a8575b818115611998575b50156118ff57505061181583611f7f565b1603610238575b815260209060088252604081209060028201546001809301906040519185849582549261184884611e2b565b80875293600181169081156118dc57506001146118a0575b5050505061187382611887950383611cdc565b6040519261188084611cc1565b83526121e5565b9061189c604051928284938452830190611d92565b0390f35b86528186209196508592915b8284106118c9575050508201909301926118738561188784611860565b80548685018901529287019281016118ac565b60ff19168488015250505090151560051b83010193506118738561188784611860565b6119845760058114908115611979575b5061191c575b505061181c565b60246020826004541660405192838092630da0ade560e41b82528860048301525afa90811561058e57859161195a575b501603610238573880611915565b611973915060203d6020116104ee576104da8183611cdc565b3861194c565b60039150143861190f565b634e487b7160e01b85526021600452602485fd5b9050611708576002821481611804565b50506000600182146117fc565b60405163c1ab6dc160e01b8152600490fd5b50346101a5576119d636611c7d565b6001600160a01b036119e783611f7f565b163303610238576119f782611f13565b611a0082611f33565b6213c6808111611a135761023591611fb2565b6040516302e8f35960e31b8152600490fd5b50346101a55760203660031901126101a557600435611a4381611ede565b611a4c81611f33565b8082526007602052604082206001015460055483906001600160a01b0316803b15610922578190606460405180948193631169780560e11b83528860048401523360248401528760448401525af1801561027957611b44575b5060ff60055460a01c1690818102918183041490151715611b30576064611acd910482612447565b8060005260076020526002604060002001546213c6808101809111611b1a57602060008051602061256f83398151915291836000526007825280600260406000200155604051908152a280f35b634e487b7160e01b600052601160045260246000fd5b634e487b7160e01b83526011600452602483fd5b611b5090939193611c93565b9138611aa5565b50346101a55760203660031901126101a557611b71611c67565b60008051602061254f833981519152546001600160a01b0390811633036114f257813b15611bd0577f360894a13ba1a3210667c828492db98dca3e2076cc3735a920a3ca505d382bbc91166001600160601b0360a01b82541617905580f35b60405163340aafcd60e11b8152600490fd5b50346101a557806003193601126101a557602060ff60055460a01c16604051908152f35b90503461092257602036600319011261092257611c21611c67565b60008051602061254f833981519152546001600160a01b03929083163303611c58575082546001600160a01b031916911617815580f35b637bfa4b9f60e01b8152600490fd5b600435906001600160a01b038216820361097857565b6040906003190112610978576004359060243590565b6001600160401b038111610a5857604052565b606081019081106001600160401b03821117610a5857604052565b602081019081106001600160401b03821117610a5857604052565b90601f801991011681019081106001600160401b03821117610a5857604052565b6001600160401b038111610a5857601f01601f191660200190565b929192611d2482611cfd565b91611d326040519384611cdc565b829481845281830111610978578281602093846000960137010152565b9060406003198301126109785760043591602435906001600160401b038211610978578060238301121561097857816024611d8f93600401359101611d18565b90565b919082519283825260005b848110611dbe575050826000602080949584010152601f8019910116010190565b602081830181015184830182015201611d9d565b906008821015610a6e5752565b9181601f84011215610978578235916001600160401b038311610978576020838186019501011161097857565b9081602091031261097857516001600160a01b03811681036109785790565b90600182811c92168015611e5b575b6020831014611e4557565b634e487b7160e01b600052602260045260246000fd5b91607f1691611e3a565b906008811015610a6e5760ff80198354169116179055565b90816020910312610978575180151581036109785790565b908060209392818452848401376000828201840152601f01601f1916010190565b9081526001600160a01b039091166020820152606060408201819052611d8f93910191611e95565b600052600760205260ff604060002054166008811015610a6e57600503611f0157565b6040516307a92f1960e51b8152600490fd5b600052600760205260ff604060002054166008811015610a6e57611f0157565b6000526007602052600260406000200154428110908115611f68575b50611f5657565b60405163c8af701160e01b8152600490fd5b90506203f480420190814211611b1a571138611f4f565b6000908152600860205260409020546001600160a01b03168015611fa05790565b6040516337381c9960e21b8152600490fd5b90801561201457600082815260076020526002604082200154918201809211612000578160008051602061256f833981519152926002604084876020965260078652200155604051908152a2565b634e487b7160e01b81526011600452602490fd5b6040516302824e7360e31b8152600490fd5b33903315612032575090565b6002546040516319510d6760e01b81526020600482018190529093509183916001600160a01b0316908290819061206d906024830190611d92565b03915afa90811561098557600091612083575090565b611d8f915060203d6020116104ee576104da8183611cdc565b60009080825260076020526040822091600260ff84541693015442116120c157505090565b909160088110158061216f57600182148015612163575b1561214a57505060048054604051630da0ade560e41b8152918201939093526001600160a01b03926020908290602490829087165afa918215611377579161212b575b501661212657600690565b600390565b612144915060203d6020116104ee576104da8183611cdc565b3861211b565b9092506105f057506005811461215d5790565b50600690565b505081600282146120d8565b634e487b7160e01b83526021600452602483fd5b916121a790611d8f9492600085526020850152608060408501526080840190611d92565b916060818403910152611d92565b3d156121e0573d906121c682611cfd565b916121d46040519384611cdc565b82523d6000602084013e565b606090565b61221761222a6000948594610b35604051948592602084019789895260408501526080606085015260a0840190611d92565b601f199384848303016080850152611d92565b51906004600160981b015afa61223e6121b5565b90156122475790565b60405162461bcd60e51b815260206004820152600f60248201526e191958dc9e5c1d0e8819985a5b1959608a1b6044820152606490fd5b6000908082526020906007825281604080852060ff1990600682825416179055838251600681526000805160206125af833981519152948591a283865260088552818620600281015491600180920190845192899280548a6122df82611e2b565b8088529460018316928315612423575050506001146123e0575b5050509061230d8161232194930382611cdc565b83519161231983611cc1565b8883526121e5565b91858560018060a01b03600154166024855180948193632b956ff760e01b83523360048401525af19687156123d55780976123a3575b50509181848695947f49e6caa43a01f3c7785f39bcce3ff3a17b674fa62b8f13c94ce1f4ee2efc9e279761239e955160068152a28080519586958652850152830190611d92565b0390a2565b909196508582813d83116123ce575b6123bc8183611cdc565b810103126101a5575051948184612357565b503d6123b2565b8351903d90823e3d90fd5b8a52888a209493925088918a915b81831061240c57509394509192509082010161230d826123216122f9565b8654858401850152958601958a93909201916123ee565b168782015293151560051b8601909301935061230d925084915061232190506122f9565b9080612451575050565b60207f8aa4fa52648a6d15edce8a179c792c86f3719d0cc3c572cf90f91948f0f2cb6891836000526007825280600160406000200155604051908152a2565b906008811015610a6e57806124a3575050565b600581146124e4575b60206000805160206125af8339815191529183600052600782526124d4816040600020611e65565b6124e16040518092611dd2565ba2565b6213c6804201804211611b1a576000805160206125af8339815191529161250d60209285612515565b9150506124ac565b90428111612521575050565b602060008051602061256f83398151915291836000526007825280600260406000200155604051908152a256feb53127684a568b3173ae13b9f8a6016e243e63b6e8ee1178d6a717850b5d6103b50b49938e915b0ab39e99a2d0810e190d6a377647ef06ec45b1e54b892968a64b49bc70b6bd0e150245f0c265d8dc2c41b30d3062d637816e8402820162dc13f5da82b1649f3e1bf563baf1aed70575caf9bda52414029afc923bbce28e99dda2646970667358221220c1bc80a873b9d7efe489ecaa6e6595a1b5f0e696da001092ded85e22b08db32a64736f6c63430008180033",
  "linkReferences": {},
  "deployedLinkReferences": {}
}