{
  "_format": "hh-sol-artifact-1",
  "contractName": "AddressManager",
  "sourceName": "contracts/AddressManager.sol",
  "abi": [
    {
      "inputs": [],
      "stateMutability": "nonpayable",
      "type": "constructor"
    },
    {
      "inputs": [],
      "name": "AmountIsZero",
      "type": "error"
    },
    {
      "inputs": [],
      "name": "AuctionOver",
      "type": "error"
    },
    {
      "inputs": [],
      "name": "AvailableBuyer",
      "type": "error"
    },
    {
      "inputs": [],
      "name": "BlackTokenIdNotExist",
      "type": "error"
    },
    {
      "inputs": [],
      "name": "BoxAlreadyInBlacklist",
      "type": "error"
    },
    {
      "inputs": [],
      "name": "BoxNotExists",
      "type": "error"
    },
    {
      "inputs": [],
      "name": "CannotRemoveOfficialToken",
      "type": "error"
    },
    {
      "inputs": [],
      "name": "DeadlineIsOver",
      "type": "error"
    },
    {
      "inputs": [],
      "name": "DeadlineNotOver",
      "type": "error"
    },
    {
      "inputs": [],
      "name": "EmptyBoxInfoCID",
      "type": "error"
    },
    {
      "inputs": [],
      "name": "EmptyPrice",
      "type": "error"
    },
    {
      "inputs": [],
      "name": "EmptyTokenCID",
      "type": "error"
    },
    {
      "inputs": [],
      "name": "EmptyTokenURI",
      "type": "error"
    },
    {
      "inputs": [],
      "name": "InBlacklist",
      "type": "error"
    },
    {
      "inputs": [],
      "name": "InvalidAddress",
      "type": "error"
    },
    {
      "inputs": [],
      "name": "InvalidBoxId",
      "type": "error"
    },
    {
      "inputs": [],
      "name": "InvalidCaller",
      "type": "error"
    },
    {
      "inputs": [],
      "name": "InvalidContractAddress",
      "type": "error"
    },
    {
      "inputs": [],
      "name": "InvalidContractCaller",
      "type": "error"
    },
    {
      "inputs": [],
      "name": "InvalidDeadline",
      "type": "error"
    },
    {
      "inputs": [],
      "name": "InvalidERC20Interface",
      "type": "error"
    },
    {
      "inputs": [],
      "name": "InvalidImplementation",
      "type": "error"
    },
    {
      "inputs": [],
      "name": "InvalidIndex",
      "type": "error"
    },
    {
      "inputs": [],
      "name": "InvalidPeriod",
      "type": "error"
    },
    {
      "inputs": [],
      "name": "InvalidRate",
      "type": "error"
    },
    {
      "inputs": [],
      "name": "InvalidStatus",
      "type": "error"
    },
    {
      "inputs": [],
      "name": "NotAdmin",
      "type": "error"
    },
    {
      "inputs": [],
      "name": "NotAdminOrDAO",
      "type": "error"
    },
    {
      "inputs": [],
      "name": "NotBuyer",
      "type": "error"
    },
    {
      "inputs": [],
      "name": "NotDAO",
      "type": "error"
    },
    {
      "inputs": [],
      "name": "NotInSecrecy",
      "type": "error"
    },
    {
      "inputs": [],
      "name": "NotMinter",
      "type": "error"
    },
    {
      "inputs": [],
      "name": "PublicTimeNotEnd",
      "type": "error"
    },
    {
      "inputs": [],
      "name": "RemoveError",
      "type": "error"
    },
    {
      "inputs": [],
      "name": "TokenAlreadyExists",
      "type": "error"
    },
    {
      "inputs": [],
      "name": "TokenIsActive",
      "type": "error"
    },
    {
      "inputs": [],
      "name": "TokenIsNotActive",
      "type": "error"
    },
    {
      "inputs": [],
      "name": "TokenNotExists",
      "type": "error"
    },
    {
      "inputs": [],
      "name": "TokenNotSupported",
      "type": "error"
    },
    {
      "inputs": [],
      "name": "ZeroAddress",
      "type": "error"
    },
    {
      "inputs": [
        {
          "internalType": "address",
          "name": "reservedAddress_",
          "type": "address"
        }
      ],
      "name": "addReservedAddress",
      "outputs": [],
      "stateMutability": "nonpayable",
      "type": "function"
    },
    {
      "inputs": [
        {
          "internalType": "address",
          "name": "token_",
          "type": "address"
        }
      ],
      "name": "addToken",
      "outputs": [],
      "stateMutability": "nonpayable",
      "type": "function"
    },
    {
      "inputs": [],
      "name": "admin",
      "outputs": [
        {
          "internalType": "address",
          "name": "",
          "type": "address"
        }
      ],
      "stateMutability": "view",
      "type": "function"
    },
    {
      "inputs": [],
      "name": "dao",
      "outputs": [
        {
          "internalType": "address",
          "name": "",
          "type": "address"
        }
      ],
      "stateMutability": "view",
      "type": "function"
    },
    {
      "inputs": [],
      "name": "daoFundManager",
      "outputs": [
        {
          "internalType": "address",
          "name": "",
          "type": "address"
        }
      ],
      "stateMutability": "view",
      "type": "function"
    },
    {
      "inputs": [],
      "name": "exchange",
      "outputs": [
        {
          "internalType": "address",
          "name": "",
          "type": "address"
        }
      ],
      "stateMutability": "view",
      "type": "function"
    },
    {
      "inputs": [],
      "name": "fundManager",
      "outputs": [
        {
          "internalType": "address",
          "name": "",
          "type": "address"
        }
      ],
      "stateMutability": "view",
      "type": "function"
    },
    {
      "inputs": [
        {
          "internalType": "uint256",
          "name": "index_",
          "type": "uint256"
        }
      ],
      "name": "getAddressFromIndex",
      "outputs": [
        {
          "internalType": "address",
          "name": "",
          "type": "address"
        }
      ],
      "stateMutability": "view",
      "type": "function"
    },
    {
      "inputs": [
        {
          "internalType": "uint256",
          "name": "index_",
          "type": "uint256"
        }
      ],
      "name": "getTokenByIndex",
      "outputs": [
        {
          "internalType": "address",
          "name": "",
          "type": "address"
        }
      ],
      "stateMutability": "view",
      "type": "function"
    },
    {
      "inputs": [],
      "name": "getTokenList",
      "outputs": [
        {
          "internalType": "address[]",
          "name": "",
          "type": "address[]"
        }
      ],
      "stateMutability": "view",
      "type": "function"
    },
    {
      "inputs": [],
      "name": "governance",
      "outputs": [
        {
          "internalType": "address",
          "name": "",
          "type": "address"
        }
      ],
      "stateMutability": "view",
      "type": "function"
    },
    {
      "inputs": [],
      "name": "implementation",
      "outputs": [
        {
          "internalType": "address",
          "name": "",
          "type": "address"
        }
      ],
      "stateMutability": "view",
      "type": "function"
    },
    {
      "inputs": [
        {
          "internalType": "address",
          "name": "token_",
          "type": "address"
        }
      ],
      "name": "isOfficialToken",
      "outputs": [
        {
          "internalType": "bool",
          "name": "",
          "type": "bool"
        }
      ],
      "stateMutability": "view",
      "type": "function"
    },
    {
      "inputs": [
        {
          "internalType": "address",
          "name": "contract_",
          "type": "address"
        }
      ],
      "name": "isProjectContract",
      "outputs": [
        {
          "internalType": "bool",
          "name": "",
          "type": "bool"
        }
      ],
      "stateMutability": "view",
      "type": "function"
    },
    {
      "inputs": [
        {
          "internalType": "address",
          "name": "token_",
          "type": "address"
        }
      ],
      "name": "isTokenSupported",
      "outputs": [
        {
          "internalType": "bool",
          "name": "",
          "type": "bool"
        }
      ],
      "stateMutability": "view",
      "type": "function"
    },
    {
      "inputs": [],
      "name": "officialToken",
      "outputs": [
        {
          "internalType": "address",
          "name": "",
          "type": "address"
        }
      ],
      "stateMutability": "view",
      "type": "function"
    },
    {
      "inputs": [],
      "name": "quoter",
      "outputs": [
        {
          "internalType": "address",
          "name": "",
          "type": "address"
        }
      ],
      "stateMutability": "view",
      "type": "function"
    },
    {
      "inputs": [
        {
          "internalType": "address",
          "name": "token_",
          "type": "address"
        }
      ],
      "name": "removeToken",
      "outputs": [],
      "stateMutability": "nonpayable",
      "type": "function"
    },
    {
      "inputs": [],
      "name": "reservedList",
      "outputs": [
        {
          "internalType": "address[]",
          "name": "",
          "type": "address[]"
        }
      ],
      "stateMutability": "view",
      "type": "function"
    },
    {
      "inputs": [
        {
          "internalType": "address[]",
          "name": "list_",
          "type": "address[]"
        }
      ],
      "name": "setAddressList",
      "outputs": [],
      "stateMutability": "nonpayable",
      "type": "function"
    },
    {
      "inputs": [
        {
          "internalType": "address",
          "name": "newAdmin_",
          "type": "address"
        }
      ],
      "name": "setAdmin",
      "outputs": [],
      "stateMutability": "nonpayable",
      "type": "function"
    },
    {
      "inputs": [],
      "name": "setAllAddress",
      "outputs": [],
      "stateMutability": "nonpayable",
      "type": "function"
    },
    {
      "inputs": [
        {
          "internalType": "address",
          "name": "token_",
          "type": "address"
        }
      ],
      "name": "setOfficialToken",
      "outputs": [],
      "stateMutability": "nonpayable",
      "type": "function"
    },
    {
      "inputs": [],
      "name": "siweAuth",
      "outputs": [
        {
          "internalType": "address",
          "name": "",
          "type": "address"
        }
      ],
      "stateMutability": "view",
      "type": "function"
    },
    {
      "inputs": [],
      "name": "swapContract",
      "outputs": [
        {
          "internalType": "address",
          "name": "",
          "type": "address"
        }
      ],
      "stateMutability": "view",
      "type": "function"
    },
    {
      "inputs": [],
      "name": "truthBox",
      "outputs": [
        {
          "internalType": "address",
          "name": "",
          "type": "address"
        }
      ],
      "stateMutability": "view",
      "type": "function"
    },
    {
      "inputs": [],
      "name": "truthNFT",
      "outputs": [
        {
          "internalType": "address",
          "name": "",
          "type": "address"
        }
      ],
      "stateMutability": "view",
      "type": "function"
    },
    {
      "inputs": [
        {
          "internalType": "address",
          "name": "newImplementation_",
          "type": "address"
        }
      ],
      "name": "upgrade",
      "outputs": [],
      "stateMutability": "nonpayable",
      "type": "function"
    },
    {
      "inputs": [],
      "name": "userId",
      "outputs": [
        {
          "internalType": "address",
          "name": "",
          "type": "address"
        }
      ],
      "stateMutability": "view",
      "type": "function"
    }
  ],
  "bytecode": "0x60808060405234610047577fb53127684a568b3173ae13b9f8a6016e243e63b6e8ee1178d6a717850b5d610380546001600160a01b03191633179055611484908161004d8239f35b600080fdfe608060408181526004918236101561001657600080fd5b600092833560e01c9182630900f010146110f2575081630a7263b01461108a5781631277b83314610efa5781632070c94614610ebc578163273cbaa014610e395781634162169f14610e1157816344acfe6a14610c505781634d11375214610c2757816350ec99a714610bff5781635897591914610bd65781635aa6e67514610bad5781635be6b37e146107a75781635c60da1b1461075f5781635e253fc6146107365781635e519cdf146106de5781635fa7b584146106115781636209ec2d146105e8578163644b7a43146105b7578163682bae51146105845781636f9f44c51461055b578163704b6c02146104e157816375151b631461048457816377c23878146103ac5781638ea830311461038357816397fd4955146102ef578163c6bbd5a7146102c6578163d2f7265a1461029d578163d48bfca71461019c575063f851a4401461016457600080fd5b3461019857816003193601126101985760008051602061142f8339815191525490516001600160a01b039091168152602090f35b5080fd5b905034610299576020366003190112610299576101b761118e565b60008051602061142f833981519152546001600160a01b03908116330361028957811691821561027b57828552600e60205260ff848620541660038110156102685760011461025a57828552600e60205260ff8486205416906003821015610247575015610238575b508252600e6020528120805460ff1916600117905580f35b610241906112b6565b38610220565b634e487b7160e01b865260219052602485fd5b83516336da557360e11b8152fd5b634e487b7160e01b865260218252602486fd5b835163e6c4247b60e01b8152fd5b8351637bfa4b9f60e01b81528390fd5b8280fd5b50503461019857816003193601126101985760085490516001600160a01b039091168152602090f35b505034610198578160031936011261019857600a5490516001600160a01b039091168152602090f35b8284346103805780600319360112610380578151918291600b54808552602080950194600b83527f0175b7a638427703f0dbe7bb9bbf987a2551717b34e79f33b5b1008d1fa01db992905b8282106103605761035c8686610352828b0383611213565b51918291826111a4565b0390f35b83546001600160a01b03168752958601956001938401939091019061033a565b80fd5b50503461019857816003193601126101985760095490516001600160a01b039091168152602090f35b905034610299576020366003190112610299576103c761118e565b60008051602061142f833981519152546001600160a01b0391908216330361028957169182156104775750600b5490600160401b821015610462576001820180600b5582101561044d5750600b6000527f0175b7a638427703f0dbe7bb9bbf987a2551717b34e79f33b5b1008d1fa01db90180546001600160a01b031916909117905580f35b603290634e487b7160e01b6000525260246000fd5b604190634e487b7160e01b6000525260246000fd5b5163e6c4247b60e01b8152fd5b90508234610380576020366003190112610380576001600160a01b036104a861118e565b168152600e60205260ff83822054169160038310156104ce576020836001865191148152f35b634e487b7160e01b825260219052602490fd5b91905034610299576020366003190112610299576104fd61118e565b60008051602061142f8339815191528054909390916001600160a01b0390818416330361054b571692831561053e5750506001600160a01b03191617905580f35b5163d92e233d60e01b8152fd5b8451637bfa4b9f60e01b81528390fd5b50503461019857816003193601126101985760055490516001600160a01b039091168152602090f35b5050346101985781600319360112610198576020906105a1611235565b905491519160018060a01b039160031b1c168152f35b82843461038057602036600319011261038057506105d76020923561138c565b90516001600160a01b039091168152f35b50503461019857816003193601126101985760075490516001600160a01b039091168152602090f35b9050346102995760203660031901126102995761062c61118e565b60008051602061142f833981519152546001600160a01b03929190831633036106cf57821691828552600e60205260ff848620541660038110156106bc576001036106ad57610679611235565b90549060031b1c16821461069f57508252600e6020528120805460ff1916600217905580f35b82516344870fff60e01b8152fd5b50825163b5cc46ad60e01b8152fd5b634e487b7160e01b865260218352602486fd5b508251637bfa4b9f60e01b8152fd5b82843461038057602036600319011261038057506001600160a01b038061070361118e565b169081156107275760209350610717611235565b93905490519360031b1c16148152f35b50505163e6c4247b60e01b8152fd5b50503461019857816003193601126101985760025490516001600160a01b039091168152602090f35b5050346101985781600319360112610198577f360894a13ba1a3210667c828492db98dca3e2076cc3735a920a3ca505d382bbc5490516001600160a01b039091168152602090f35b905034610299576020906020600319360112610ba95767ffffffffffffffff918135838111610ba55736602382011215610ba55780830135938411610b92578360051b8551946107fa6020830187611213565b85526024602086019183010191368311610b8e57602401905b828210610b6a57505060008051602061142f833981519152546001600160a01b03959250851633039050610b5d57508261084c836112db565b5116610b26575b8261085d836112e8565b5116610aeb575b8261086e836112f8565b5116610ab0575b8261087f83611308565b5116610a75575b8261089083611318565b5116610a3d575b50816108a282611328565b5116610a02575b816108b382611338565b51166109c7575b816108c482611348565b511661098c575b816108d582611359565b5116610949575b816108e68261136a565b5116610925575b816108f78261137b565b5116610901578280f35b61090a9061137b565b51166001600160601b0360a01b600a541617600a5538808280f35b8161092f8261136a565b51166001600160601b0360a01b60095416176009556108ed565b61096382600754168361095b84611359565b5116906113bd565b156108dc578161097282611359565b51166001600160601b0360a01b60075416176007556108dc565b61099e82600854168361095b84611348565b156108cb57816109ad82611348565b51166001600160601b0360a01b60085416176008556108cb565b6109d982600654168361095b84611338565b156108ba57816109e882611338565b51166001600160601b0360a01b60065416176006556108ba565b610a1482600554168361095b84611328565b156108a95781610a2382611328565b51166001600160601b0360a01b60055416176005556108a9565b610a4e838254168461095b85611318565b156108975782610a5d83611318565b5182546001600160a01b031916911617905538610897565b610a8783600354168461095b85611308565b156108865782610a9683611308565b51166001600160601b0360a01b6003541617600355610886565b610ac283600254168461095b856112f8565b156108755782610ad1836112f8565b51166001600160601b0360a01b6002541617600255610875565b610afd83600154168461095b856112e8565b156108645782610b0c836112e8565b51166001600160601b0360a01b6001541617600155610864565b610b37838554168461095b856112db565b156108535782610b46836112db565b5185546001600160a01b0319169116178455610853565b51637bfa4b9f60e01b8152fd5b81356001600160a01b0381168103610b89578152908301908301610813565b600080fd5b8780fd5b634e487b7160e01b865260418352602486fd5b8580fd5b8380fd5b50503461019857816003193601126101985760015490516001600160a01b039091168152602090f35b50503461019857816003193601126101985760035490516001600160a01b039091168152602090f35b9050346102995782600319360112610299575490516001600160a01b03909116815260209150f35b50503461019857816003193601126101985760065490516001600160a01b039091168152602090f35b83833461019857602036600319011261019857610c6b61118e565b60008051602061142f833981519152549091906001600160a01b039081163303610e015780610c98611235565b91905460039260031b1c168285169283158015610df8575b610de857838752600e60205260ff85882054169282610d3d575b5050506003811015610d2a57610d0c949550600103610d0f575b5050610cee611235565b90919060018060a01b038084549260031b9316831b921b1916179055565b80f35b8452600e6020528320805460ff191660011790558380610ce4565b634e487b7160e01b855260218652602485fd5b6003841015610dd5578315610dc5576001918291825b610d7a575b505050505b8552600e602052828520805460ff19166002179055868080610cca565b600d54841015610dc057848783610d908761127f565b905490851b1c1614610da757508280940193610d53565b92505050610cee610db79261127f565b87808080610d58565b610d58565b5050610dd0816112b6565b610d5d565b634e487b7160e01b885260218952602488fd5b845163e6c4247b60e01b81528890fd5b50818414610cb0565b8151637bfa4b9f60e01b81528590fd5b505034610198578160031936011261019857905490516001600160a01b039091168152602090f35b8284346103805780600319360112610380578151918291600d54808552602080950194600d83527fd7b6990105719101dabeb77144f2a3385c8033acd3af97e9423a695e81ad1eb592905b828210610e9c5761035c8686610352828b0383611213565b83546001600160a01b031687529586019560019384019390910190610e84565b5050346101985760203660031901126101985760209160ff9082906001600160a01b03610ee761118e565b168152600c855220541690519015158152f35b8391503461019857816003193601126101985760008051602061142f833981519152546001600160a01b03939084163303610b5d578360085416803b15610ba957815194848685818363e656927560e01b968783525af180156110805761106c575b8495508060075416803b15610ba557858091868651809481938883525af1801561103a57908691611058575b50508060055416803b15610ba557858091868651809481938883525af1801561103a57908691611044575b50508060065416803b15610ba557858091868651809481938883525af1801561103a57908691611026575b505060035416803b1561102257849384928451958693849283525af190811561101957506110095750f35b611012906111e9565b6103805780f35b513d84823e3d90fd5b8480fd5b61102f906111e9565b611022578487610fde565b84513d88823e3d90fd5b61104d906111e9565b611022578487610fb3565b611061906111e9565b611022578487610f88565b939094611078906111e9565b928490610f5c565b83513d87823e3d90fd5b90503461029957602036600319011261029957803590600b548210156110e45750600b6020935260018060a01b03907f0175b7a638427703f0dbe7bb9bbf987a2551717b34e79f33b5b1008d1fa01db90154169051908152f35b82516363df817160e01b8152fd5b915034610ba9576020366003190112610ba95761110d61118e565b60008051602061142f8339815191525490936001600160a01b03939091841633036111805750833b156111735750507f360894a13ba1a3210667c828492db98dca3e2076cc3735a920a3ca505d382bbc91166001600160601b0360a01b82541617905580f35b5163340aafcd60e11b8152fd5b637bfa4b9f60e01b81529050fd5b600435906001600160a01b0382168203610b8957565b602090602060408183019282815285518094520193019160005b8281106111cc575050505090565b83516001600160a01b0316855293810193928101926001016111be565b67ffffffffffffffff81116111fd57604052565b634e487b7160e01b600052604160045260246000fd5b90601f8019910116810190811067ffffffffffffffff8211176111fd57604052565b600d541561126957600d6000527fd7b6990105719101dabeb77144f2a3385c8033acd3af97e9423a695e81ad1eb590600090565b634e487b7160e01b600052603260045260246000fd5b600d5481101561126957600d6000527fd7b6990105719101dabeb77144f2a3385c8033acd3af97e9423a695e81ad1eb50190600090565b600d5490600160401b8210156111fd57610cee8260016112d99401600d5561127f565b565b8051156112695760200190565b8051600110156112695760400190565b8051600210156112695760600190565b8051600310156112695760800190565b8051600410156112695760a00190565b8051600510156112695760c00190565b8051600610156112695760e00190565b805160071015611269576101000190565b805160081015611269576101200190565b805160091015611269576101400190565b8051600a1015611269576101600190565b600d548110156113b45761139f9061127f565b905460039190911b1c6001600160a01b031690565b5061139f611235565b6001600160a01b0390811691821561140d57169081811461140657600052600c60205260406000209060ff19918281541690556000526001604060002091825416179055600190565b5050600090565b90915016600052600c6020526040600020600160ff1982541617905560019056feb53127684a568b3173ae13b9f8a6016e243e63b6e8ee1178d6a717850b5d6103a264697066735822122099280340e5f454175da7b74776922e99147ebc59cf39eeecb5d06d22b1c4f85e64736f6c63430008180033",
  "linkReferences": {},
  "deployedLinkReferences": {}
}