{
  "_format": "hh-sol-artifact-1",
  "contractName": "WROSEsecret",
  "sourceName": "contracts/token/WROSEsecret.sol",
  "abi": [
    {
      "inputs": [
        {
          "internalType": "address",
          "name": "underlyingToken_",
          "type": "address"
        }
      ],
      "stateMutability": "nonpayable",
      "type": "constructor"
    },
    {
      "inputs": [],
      "name": "EIPError",
      "type": "error"
    },
    {
      "inputs": [
        {
          "internalType": "address",
          "name": "spender",
          "type": "address"
        },
        {
          "internalType": "uint256",
          "name": "allowance",
          "type": "uint256"
        },
        {
          "internalType": "uint256",
          "name": "needed",
          "type": "uint256"
        }
      ],
      "name": "ERC20InsufficientAllowance",
      "type": "error"
    },
    {
      "inputs": [
        {
          "internalType": "address",
          "name": "sender",
          "type": "address"
        },
        {
          "internalType": "uint256",
          "name": "balance",
          "type": "uint256"
        },
        {
          "internalType": "uint256",
          "name": "needed",
          "type": "uint256"
        }
      ],
      "name": "ERC20InsufficientBalance",
      "type": "error"
    },
    {
      "inputs": [
        {
          "internalType": "address",
          "name": "approver",
          "type": "address"
        }
      ],
      "name": "ERC20InvalidApprover",
      "type": "error"
    },
    {
      "inputs": [
        {
          "internalType": "address",
          "name": "receiver",
          "type": "address"
        }
      ],
      "name": "ERC20InvalidReceiver",
      "type": "error"
    },
    {
      "inputs": [
        {
          "internalType": "address",
          "name": "sender",
          "type": "address"
        }
      ],
      "name": "ERC20InvalidSender",
      "type": "error"
    },
    {
      "inputs": [
        {
          "internalType": "address",
          "name": "spender",
          "type": "address"
        }
      ],
      "name": "ERC20InvalidSpender",
      "type": "error"
    },
    {
      "inputs": [],
      "name": "ExpiredDeadline",
      "type": "error"
    },
    {
      "inputs": [],
      "name": "InsufficientBalance",
      "type": "error"
    },
    {
      "inputs": [],
      "name": "InvalidPermitAmount",
      "type": "error"
    },
    {
      "inputs": [],
      "name": "InvalidPermitLabel",
      "type": "error"
    },
    {
      "inputs": [],
      "name": "InvalidSignature",
      "type": "error"
    },
    {
      "inputs": [],
      "name": "ReentrancyGuardReentrantCall",
      "type": "error"
    },
    {
      "inputs": [],
      "name": "SignatureUsed",
      "type": "error"
    },
    {
      "inputs": [],
      "name": "ZeroAmount",
      "type": "error"
    },
    {
      "anonymous": false,
      "inputs": [
        {
          "indexed": true,
          "internalType": "address",
          "name": "owner",
          "type": "address"
        },
        {
          "indexed": true,
          "internalType": "address",
          "name": "spender",
          "type": "address"
        },
        {
          "indexed": false,
          "internalType": "uint256",
          "name": "value",
          "type": "uint256"
        }
      ],
      "name": "Approval",
      "type": "event"
    },
    {
      "anonymous": false,
      "inputs": [
        {
          "indexed": true,
          "internalType": "address",
          "name": "from",
          "type": "address"
        },
        {
          "indexed": true,
          "internalType": "address",
          "name": "to",
          "type": "address"
        },
        {
          "indexed": false,
          "internalType": "uint256",
          "name": "value",
          "type": "uint256"
        }
      ],
      "name": "Transfer",
      "type": "event"
    },
    {
      "inputs": [],
      "name": "DOMAIN_SEPARATOR",
      "outputs": [
        {
          "internalType": "bytes32",
          "name": "",
          "type": "bytes32"
        }
      ],
      "stateMutability": "view",
      "type": "function"
    },
    {
      "inputs": [],
      "name": "EIP_PERMIT_TYPEHASH",
      "outputs": [
        {
          "internalType": "bytes32",
          "name": "",
          "type": "bytes32"
        }
      ],
      "stateMutability": "view",
      "type": "function"
    },
    {
      "inputs": [
        {
          "internalType": "address",
          "name": "owner",
          "type": "address"
        },
        {
          "internalType": "address",
          "name": "spender",
          "type": "address"
        }
      ],
      "name": "allowance",
      "outputs": [
        {
          "internalType": "uint256",
          "name": "",
          "type": "uint256"
        }
      ],
      "stateMutability": "view",
      "type": "function"
    },
    {
      "inputs": [
        {
          "components": [
            {
              "internalType": "enum WROSEsecret.PermitLabel",
              "name": "label",
              "type": "uint8"
            },
            {
              "internalType": "address",
              "name": "owner",
              "type": "address"
            },
            {
              "internalType": "address",
              "name": "spender",
              "type": "address"
            },
            {
              "internalType": "uint256",
              "name": "amount",
              "type": "uint256"
            },
            {
              "internalType": "uint256",
              "name": "deadline",
              "type": "uint256"
            },
            {
              "components": [
                {
                  "internalType": "bytes32",
                  "name": "r",
                  "type": "bytes32"
                },
                {
                  "internalType": "bytes32",
                  "name": "s",
                  "type": "bytes32"
                },
                {
                  "internalType": "uint256",
                  "name": "v",
                  "type": "uint256"
                }
              ],
              "internalType": "struct SignatureRSV",
              "name": "signature",
              "type": "tuple"
            }
          ],
          "internalType": "struct WROSEsecret.EIP712Permit",
          "name": "permit",
          "type": "tuple"
        }
      ],
      "name": "allowanceWithPermit",
      "outputs": [
        {
          "internalType": "uint256",
          "name": "",
          "type": "uint256"
        }
      ],
      "stateMutability": "view",
      "type": "function"
    },
    {
      "inputs": [
        {
          "internalType": "address",
          "name": "spender",
          "type": "address"
        },
        {
          "internalType": "uint256",
          "name": "value",
          "type": "uint256"
        }
      ],
      "name": "approve",
      "outputs": [
        {
          "internalType": "bool",
          "name": "",
          "type": "bool"
        }
      ],
      "stateMutability": "nonpayable",
      "type": "function"
    },
    {
      "inputs": [
        {
          "components": [
            {
              "internalType": "enum WROSEsecret.PermitLabel",
              "name": "label",
              "type": "uint8"
            },
            {
              "internalType": "address",
              "name": "owner",
              "type": "address"
            },
            {
              "internalType": "address",
              "name": "spender",
              "type": "address"
            },
            {
              "internalType": "uint256",
              "name": "amount",
              "type": "uint256"
            },
            {
              "internalType": "uint256",
              "name": "deadline",
              "type": "uint256"
            },
            {
              "components": [
                {
                  "internalType": "bytes32",
                  "name": "r",
                  "type": "bytes32"
                },
                {
                  "internalType": "bytes32",
                  "name": "s",
                  "type": "bytes32"
                },
                {
                  "internalType": "uint256",
                  "name": "v",
                  "type": "uint256"
                }
              ],
              "internalType": "struct SignatureRSV",
              "name": "signature",
              "type": "tuple"
            }
          ],
          "internalType": "struct WROSEsecret.EIP712Permit",
          "name": "permit",
          "type": "tuple"
        }
      ],
      "name": "approveWithPermit",
      "outputs": [],
      "stateMutability": "nonpayable",
      "type": "function"
    },
    {
      "inputs": [
        {
          "internalType": "address",
          "name": "account",
          "type": "address"
        }
      ],
      "name": "balanceOf",
      "outputs": [
        {
          "internalType": "uint256",
          "name": "",
          "type": "uint256"
        }
      ],
      "stateMutability": "view",
      "type": "function"
    },
    {
      "inputs": [
        {
          "components": [
            {
              "internalType": "enum WROSEsecret.PermitLabel",
              "name": "label",
              "type": "uint8"
            },
            {
              "internalType": "address",
              "name": "owner",
              "type": "address"
            },
            {
              "internalType": "address",
              "name": "spender",
              "type": "address"
            },
            {
              "internalType": "uint256",
              "name": "amount",
              "type": "uint256"
            },
            {
              "internalType": "uint256",
              "name": "deadline",
              "type": "uint256"
            },
            {
              "components": [
                {
                  "internalType": "bytes32",
                  "name": "r",
                  "type": "bytes32"
                },
                {
                  "internalType": "bytes32",
                  "name": "s",
                  "type": "bytes32"
                },
                {
                  "internalType": "uint256",
                  "name": "v",
                  "type": "uint256"
                }
              ],
              "internalType": "struct SignatureRSV",
              "name": "signature",
              "type": "tuple"
            }
          ],
          "internalType": "struct WROSEsecret.EIP712Permit",
          "name": "permit",
          "type": "tuple"
        }
      ],
      "name": "balanceOfWithPermit",
      "outputs": [
        {
          "internalType": "uint256",
          "name": "",
          "type": "uint256"
        }
      ],
      "stateMutability": "view",
      "type": "function"
    },
    {
      "inputs": [],
      "name": "decimals",
      "outputs": [
        {
          "internalType": "uint8",
          "name": "",
          "type": "uint8"
        }
      ],
      "stateMutability": "view",
      "type": "function"
    },
    {
      "inputs": [],
      "name": "deposit",
      "outputs": [],
      "stateMutability": "payable",
      "type": "function"
    },
    {
      "inputs": [
        {
          "components": [
            {
              "internalType": "bytes32",
              "name": "r",
              "type": "bytes32"
            },
            {
              "internalType": "bytes32",
              "name": "s",
              "type": "bytes32"
            },
            {
              "internalType": "uint256",
              "name": "v",
              "type": "uint256"
            }
          ],
          "internalType": "struct SignatureRSV",
          "name": "signature",
          "type": "tuple"
        }
      ],
      "name": "isSignatureUsed",
      "outputs": [
        {
          "internalType": "bool",
          "name": "",
          "type": "bool"
        }
      ],
      "stateMutability": "view",
      "type": "function"
    },
    {
      "inputs": [],
      "name": "name",
      "outputs": [
        {
          "internalType": "string",
          "name": "",
          "type": "string"
        }
      ],
      "stateMutability": "view",
      "type": "function"
    },
    {
      "inputs": [],
      "name": "symbol",
      "outputs": [
        {
          "internalType": "string",
          "name": "",
          "type": "string"
        }
      ],
      "stateMutability": "view",
      "type": "function"
    },
    {
      "inputs": [],
      "name": "totalSupply",
      "outputs": [
        {
          "internalType": "uint256",
          "name": "",
          "type": "uint256"
        }
      ],
      "stateMutability": "view",
      "type": "function"
    },
    {
      "inputs": [
        {
          "internalType": "address",
          "name": "to",
          "type": "address"
        },
        {
          "internalType": "uint256",
          "name": "value",
          "type": "uint256"
        }
      ],
      "name": "transfer",
      "outputs": [
        {
          "internalType": "bool",
          "name": "",
          "type": "bool"
        }
      ],
      "stateMutability": "nonpayable",
      "type": "function"
    },
    {
      "inputs": [
        {
          "internalType": "address",
          "name": "from",
          "type": "address"
        },
        {
          "internalType": "address",
          "name": "to",
          "type": "address"
        },
        {
          "internalType": "uint256",
          "name": "value",
          "type": "uint256"
        }
      ],
      "name": "transferFrom",
      "outputs": [
        {
          "internalType": "bool",
          "name": "",
          "type": "bool"
        }
      ],
      "stateMutability": "nonpayable",
      "type": "function"
    },
    {
      "inputs": [
        {
          "components": [
            {
              "internalType": "enum WROSEsecret.PermitLabel",
              "name": "label",
              "type": "uint8"
            },
            {
              "internalType": "address",
              "name": "owner",
              "type": "address"
            },
            {
              "internalType": "address",
              "name": "spender",
              "type": "address"
            },
            {
              "internalType": "uint256",
              "name": "amount",
              "type": "uint256"
            },
            {
              "internalType": "uint256",
              "name": "deadline",
              "type": "uint256"
            },
            {
              "components": [
                {
                  "internalType": "bytes32",
                  "name": "r",
                  "type": "bytes32"
                },
                {
                  "internalType": "bytes32",
                  "name": "s",
                  "type": "bytes32"
                },
                {
                  "internalType": "uint256",
                  "name": "v",
                  "type": "uint256"
                }
              ],
              "internalType": "struct SignatureRSV",
              "name": "signature",
              "type": "tuple"
            }
          ],
          "internalType": "struct WROSEsecret.EIP712Permit",
          "name": "permit",
          "type": "tuple"
        }
      ],
      "name": "transferWithPermit",
      "outputs": [],
      "stateMutability": "nonpayable",
      "type": "function"
    },
    {
      "inputs": [],
      "name": "underlyingToken",
      "outputs": [
        {
          "internalType": "contract IWROSE",
          "name": "",
          "type": "address"
        }
      ],
      "stateMutability": "view",
      "type": "function"
    },
    {
      "inputs": [
        {
          "internalType": "uint256",
          "name": "amount",
          "type": "uint256"
        }
      ],
      "name": "unwrap",
      "outputs": [],
      "stateMutability": "nonpayable",
      "type": "function"
    },
    {
      "inputs": [
        {
          "internalType": "uint256",
          "name": "amount",
          "type": "uint256"
        }
      ],
      "name": "withdraw",
      "outputs": [],
      "stateMutability": "nonpayable",
      "type": "function"
    },
    {
      "inputs": [
        {
          "internalType": "uint256",
          "name": "amount",
          "type": "uint256"
        }
      ],
      "name": "wrap",
      "outputs": [],
      "stateMutability": "nonpayable",
      "type": "function"
    },
    {
      "stateMutability": "payable",
      "type": "receive"
    }
  ],
  "bytecode": "0x60c0604081815234620002e8578162001c8d8038038091620000228285620002ed565b8339602093849181010312620002e857516001600160a01b0381169290839003620002e85760016000908155608093845282516001600160401b03939192919080830185811182821017620002d45782528381528382518785820193868552858084015280519081606085015287855b838110620002b95750505091620000c882828587601f9996819884010152881998899101168101036060810184520182620002ed565b51907301000000000000000000000000000000000000015afa3d15620002af573d8681116200029b576200010685855194601f8401160184620002ed565b82523d858584013e5b1562000257578281519101519083811062000245575b506001558051918201927f8b73c3c69bb8fe3d512ecc4cf759cc79239f7b179b0ffacaa9a75d522b39400f84527f15ef475ca979307cd97a9ea25138acb58e3254cce83f7e67858cb2df7f2f270a828401527fc89efdaa54c0f20c7adf612882df0950f5a951637e0307cdcb4c672f298b8bc6606084015246868401523060a084015260a0835260c08301948386109086111762000231575083905251902060a05261196591826200032883395181818161038b0152818161050c01528181610652015281816109c601528181610aab01528181610b6501528181610c6f01528181610d3901526117e0015260a051818181610224015281816108a00152818161097c01526117060152f35b634e487b7160e01b81526041600452602490fd5b60001990840360031b1b163862000125565b815162461bcd60e51b815260048101849052601360248201527f72616e646f6d42797465733a206661696c6564000000000000000000000000006044820152606490fd5b634e487b7160e01b86526041600452602486fd5b606091506200010f565b8083018201518187018e01528a96508c945089910162000092565b634e487b7160e01b85526041600452602485fd5b600080fd5b601f909101601f19168101906001600160401b038211908210176200031157604052565b634e487b7160e01b600052604160045260246000fdfe60806040818152600480361015610036575b505050361561001f57600080fd5b60ff600554161561002c57005b6100346117d6565b005b600092833560e01c908163036e070814610dd05750806306fdde0314610d13578063095ea7b314610ce957806318160ddd14610c4157806323b872dd14610b945780632495a59914610b505780632e1a7d4d14610a59578063313ce5671461099f5780633644e5151461096457806370a082311461093e5780637986b37d146107a157806393355f4214610753578063940cf1121461070c57806395d89b411461062c578063a9059cbb146105fb578063d0e30db0146105d8578063dd62ed3e146105a3578063de0e9a3e146104a4578063e35ac9fb14610443578063ea598cb01461033d5763eb06f9920361001157346103395761013436610f2d565b61013c61124c565b60a0810161014a81516115e6565b9081865260209284845260ff868820541661032957610169825161161b565b5060808101918251421161031957815160038110156102da5760010361030957815160038110156102da57156102ef575b81519060038210156102da578583019086600060808b60018060a01b039687875116828a019a60608a8d51169b019a8b5191519285519489860196600080516020611910833981519152885286015260608501528584015260a083015260c082015260c0815261020981610eb7565b5190208c8787511695519181518681019161190160f01b83527f0000000000000000000000000000000000000000000000000000000000000000602283015260428201526042815261025a81610ed3565b5190209160ff82820151169186825192015192815194855287850152830152606082015282805260015afa156102cf578260005116036102bf5751925191516102a893909282169116611196565b8452528120600160ff198254161790556001815580f35b87516303bfcdeb60e21b81528790fd5b88513d6000823e3d90fd5b602187634e487b7160e01b6000525260246000fd5b60608201511561019a57865163291ded6160e01b81528690fd5b8651635105556960e01b81528690fd5b865163f87d927160e01b81528690fd5b8551638baa579f60e01b81528590fd5b8280fd5b5090346103395760203660031901126103395781359161035b61124c565b82156104355781516323b872dd60e01b8152339181019190915230602482015260448101839052602081606481877f00000000000000000000000000000000000000000000000000000000000000006001600160a01b03165af1801561042b576103fc575b506103dc6103d6836103d1336112a9565b6110f8565b33611409565b51908152816000805160206118f083398151915260203393a36001815580f35b61041d9060203d602011610424575b6104158183610f0b565b8101906110e0565b50386103c0565b503d61040b565b82513d86823e3d90fd5b9051631f2a200560e01b8152fd5b5091346104a15761045336610f2d565b9061045d82611650565b156104925760209350828060018060a01b03928387860151168152600387522092015116600052825280600020549051908152f35b5050516303bfcdeb60e21b8152fd5b80fd5b5091903461059f57602036600319011261059f578235906104c361124c565b8115610590576104d2336112a9565b82811061058057936104e86103d6848697611053565b815163a9059cbb60e01b8152339181019190915260248101839052602081604481877f00000000000000000000000000000000000000000000000000000000000000006001600160a01b03165af1801561042b57610561575b50519081526000805160206118f083398151915260203392a36001815580f35b6105799060203d602011610424576104158183610f0b565b5038610541565b8151631e9acf1760e31b81528590fd5b51631f2a200560e01b81528390fd5b5080fd5b50503461059f578060031936011261059f576020906105d16105c3610e40565b6105cb610e5b565b90611095565b9051908152f35b83806003193601126104a1576105ec61124c565b6105f46117d6565b6001815580f35b50503461059f578060031936011261059f5760209061062561061b610e40565b6024359033611196565b5160018152f35b50903461033957826003193601126103395780516395d89b4160e01b81529183908390817f00000000000000000000000000000000000000000000000000000000000000006001600160a01b03165afa91821561070257836106d994936106dd575b50506106c760228251846106ac829651809260208086019101610df8565b8101612e5360f01b6020820152036002810185520183610f0b565b51918291602083526020830190610e1b565b0390f35b6106fa9293503d8091833e6106f28183610f0b565b810190610ff1565b90388061068e565b81513d85823e3d90fd5b5091346104a1575061071d36610f2d565b9161072783611650565b1561074557506020918201516105d1906001600160a01b03166112a9565b90516303bfcdeb60e21b8152fd5b5034610339576060366003190112610339578160209360ff92610791835161077a81610e9b565b8235815260243588820152604435858201526115e6565b8252855220541690519015158152f35b5034610339576107b036610f2d565b6107b861124c565b60a081016107c681516115e6565b9081865260209284845260ff8688205416610329576107e5825161161b565b5060808101918251421161031957815160038110156102da5760020361030957815160038110156102da5715610924575b81519060038210156102da578583019086600060808b60018060a01b039687875116828a019a60608a8d51169b019a8b5191519285519489860196600080516020611910833981519152885286015260608501528584015260a083015260c082015260c0815261088581610eb7565b5190208c8787511695519181518681019161190160f01b83527f000000000000000000000000000000000000000000000000000000000000000060228301526042820152604281526108d681610ed3565b5190209160ff82820151169186825192015192815194855287850152830152606082015282805260015afa156102cf578260005116036102bf5751925191516102a893909282169116611105565b60608201511561081657865163291ded6160e01b81528690fd5b50503461059f57602036600319011261059f576020906105d161095f610e40565b611076565b50503461059f578160031936011261059f57602090517f00000000000000000000000000000000000000000000000000000000000000008152f35b5091346104a157806003193601126104a157815163313ce56760e01b8152926020908490817f00000000000000000000000000000000000000000000000000000000000000006001600160a01b03165afa928315610a4d578193610a0b575b60208460ff855191168152f35b9092506020813d602011610a45575b81610a2760209383610f0b565b8101031261033957519160ff831683036104a1575060ff60206109fe565b3d9150610a1a565b509051903d90823e3d90fd5b5091903461059f57602036600319011261059f57823590610a7861124c565b811561059057610a87336112a9565b82811061058057610aa96103d68460ff19936001856005541617600555611053565b7f00000000000000000000000000000000000000000000000000000000000000006001600160a01b031694853b15610b4c578360248692838651998a948593632e1a7d4d60e01b85528401525af1801561042b57610b38575b83808080809850863382f1156107025760055416600555519081526000805160206118f083398151915260203392a36001815580f35b929093610b4490610e71565b918390610b02565b8480fd5b50503461059f578160031936011261059f57517f00000000000000000000000000000000000000000000000000000000000000006001600160a01b03168152602090f35b5091346104a15760603660031901126104a157610baf610e40565b610bb7610e5b565b90836044359360018060a01b038316815260036020528181203382526020522054946000198610610bf1575b602085610625868686611196565b838610610c165750908291610c0e61062594602097033383611105565b909192610be3565b8451637dc7a0d960e11b81523391810191825260208201879052604082018590529081906060010390fd5b50903461033957826003193601126103395780516370a0823160e01b815230928101929092526020826024817f00000000000000000000000000000000000000000000000000000000000000006001600160a01b03165afa918215610702578392610cb1575b6020838351908152f35b9091506020813d602011610ce1575b81610ccd60209383610f0b565b810103126103395760209250519038610ca7565b3d9150610cc0565b50503461059f578060031936011261059f57602090610625610d09610e40565b6024359033611105565b50903461033957826003193601126103395780516306fdde0360e01b81529183908390817f00000000000000000000000000000000000000000000000000000000000000006001600160a01b03165afa91821561070257836106d99493610db3575b50506106c760278251809466029b2b1b932ba160cd1b6020830152610da38151809260208686019101610df8565b8101036007810185520183610f0b565b610dc89293503d8091833e6106f28183610f0b565b903880610d75565b84903461059f578160031936011261059f578060008051602061191083398151915260209252f35b60005b838110610e0b5750506000910152565b8181015183820152602001610dfb565b90602091610e3481518092818552858086019101610df8565b601f01601f1916010190565b600435906001600160a01b0382168203610e5657565b600080fd5b602435906001600160a01b0382168203610e5657565b67ffffffffffffffff8111610e8557604052565b634e487b7160e01b600052604160045260246000fd5b6060810190811067ffffffffffffffff821117610e8557604052565b60e0810190811067ffffffffffffffff821117610e8557604052565b6080810190811067ffffffffffffffff821117610e8557604052565b6020810190811067ffffffffffffffff821117610e8557604052565b90601f8019910116810190811067ffffffffffffffff821117610e8557604052565b610100600319820112610e56576040519060c0820182811067ffffffffffffffff821117610e85576040526004356003811015610e565782526001600160a01b03906024358281168103610e565760208401526044359182168203610e5657606091604084015260643582840152608435608084015260a3190112610e5657604051610fb881610e9b565b60a435815260c435602082015260e435604082015260a082015290565b67ffffffffffffffff8111610e8557601f01601f191660200190565b602081830312610e565780519067ffffffffffffffff8211610e56570181601f82011215610e5657805161102481610fd5565b926110326040519485610f0b565b81845260208284010111610e56576110509160208085019101610df8565b90565b9190820391821161106057565b634e487b7160e01b600052601160045260246000fd5b336001600160a01b0382160361108f57611050906112a9565b50600090565b6001600160a01b0390811633811415806110d4575b6110cc5760005260036020526040600020911660005260205260406000205490565b505050600090565b503382841614156110aa565b90816020910312610e5657518015158103610e565790565b9190820180921161106057565b6001600160a01b0390811691821561117d57169182156111645760207f8c5be1e5ebec7d5bd14f71427d1e84f3dd0314c0f7b2291e5b200ac8c7c3b92591600093845260038252604084208585528252806040852055604051908152a3565b604051634a1406b160e11b815260006004820152602490fd5b60405163e602df0560e01b815260006004820152602490fd5b92916001600160a01b03808516156112335782161561121a576111b8846112a9565b938185106111e857906111e693946103d16111e0936111e0846111da886112a9565b94611053565b90611409565b565b60405163391434e360e21b81526001600160a01b03919091166004820152602481018590526044810191909152606490fd5b60405163ec442f0560e01b815260006004820152602490fd5b604051634b637e8f60e11b815260006004820152602490fd5b60026000541461125d576002600055565b604051633ee5aeb560e01b8152600490fd5b90600182811c9216801561129f575b602083101461128957565b634e487b7160e01b600052602260045260246000fd5b91607f169161127e565b60009060018060a01b03168152602090600282526040812060405190818382546112d28161126f565b93848452600191886001821691826000146113e75750506001146113ab575b50506112ff92500382610f0b565b8051156113a557818091600154906113416040519161131d83610eef565b8483526113336040519384928a8401968761188d565b03601f198101835282610f0b565b51906004600160981b015afa906113566118bf565b911561136e5782828051810103126104a15750015190565b60405162461bcd60e51b815260048101849052600f60248201526e191958dc9e5c1d0e8819985a5b1959608a1b6044820152606490fd5b50905090565b87925086528186209086915b8583106113cf5750506112ff935082010138806112f1565b805483880185015286945088939092019181016113b7565b92509350506112ff94915060ff191682840152151560051b82010138806112f1565b604090815190602093848301528382528282019067ffffffffffffffff9280831084841117610e855782855260019485549161144485610eef565b60008093819282885261145f85519889928d8401948561188d565b0396611473601f1998898101835282610f0b565b51906003600160981b015afa926114886118bf565b93156115b0576001600160a01b03168252600287528120825190969094851161159c576114b5875461126f565b601f8111611556575b508093601f86116001146114f8575050918394918493946114ed575b50501b916000199060031b1c1916179055565b0151925038806114da565b8783528183209493928692918316915b8883831061153c5750505010611523575b505050811b019055565b015160001960f88460031b161c19169055388080611519565b858701518855909601959485019487935090810190611508565b878352818320601f870160051c810191838810611592575b601f0160051c019087905b8281106115875750506114be565b848155018790611579565b909150819061156e565b634e487b7160e01b82526041600452602482fd5b815162461bcd60e51b815260048101899052600f60248201526e195b98dc9e5c1d0e8819985a5b1959608a1b6044820152606490fd5b805190604060208201519101516040519160208301938452604083015260608201526060815261161581610ed3565b51902090565b611624906115e6565b600052600460205260ff6040600020541661163e57600090565b604051638baa579f60e01b8152600490fd5b60808101805142116117c45781516003811015611780576117b257815160038110156117805715611796575b81519060038210156117805760206000608082860160a0600180821b03809781845116604098838a8d0151169060608d01519051918b51938b85019560008051602061191083398151915287528d8601526060850152888401528583015260c082015260c081526116ec81610eb7565b5190209251169701519085518581019161190160f01b83527f0000000000000000000000000000000000000000000000000000000000000000602283015260428201526042815261173c81610ed3565b5190209060ff8682015116908581519101519187519384528684015286830152606082015282805260015afa156117765750600051161490565b513d6000823e3d90fd5b634e487b7160e01b600052602160045260246000fd5b60608201511561167c5760405163291ded6160e01b8152600490fd5b604051635105556960e01b8152600490fd5b60405163f87d927160e01b8152600490fd5b6000341561187b577f00000000000000000000000000000000000000000000000000000000000000006001600160a01b0316803b1561059f578160049160405192838092630d0e30db60e41b825234905af1801561187057611861575b506118446103d6346103d1336112a9565b604051903482526000805160206118f083398151915260203393a3565b61186a90610e71565b38611833565b6040513d84823e3d90fd5b604051631f2a200560e01b8152600490fd5b916118b1906110509492600085526020850152608060408501526080840190610e1b565b916060818403910152610e1b565b3d156118ea573d906118d082610fd5565b916118de6040519384610f0b565b82523d6000602084013e565b60609056feddf252ad1be2c89b69c2b068fc378daa952ba7f163c4a11628f55a4df523b3efdf30529b599cef851a2b7e4fc96b13d343aea28107d97873f3e0bc909d1e22c6a26469706673582212207c0f22d0bf89576bd861053e5c38aa237a6121d64ec43154add33e66602542ac64736f6c63430008180033",
  "linkReferences": {},
  "deployedLinkReferences": {}
}