{
  "_format": "hh-sol-artifact-1",
  "contractName": "WROSEsecret",
  "sourceName": "contracts/token/WROSEsecret.sol",
  "abi": [
    {
      "inputs": [
        {
          "internalType": "address",
          "name": "underlyingToken_",
          "type": "address"
        }
      ],
      "stateMutability": "nonpayable",
      "type": "constructor"
    },
    {
      "inputs": [],
      "name": "EIPError",
      "type": "error"
    },
    {
      "inputs": [
        {
          "internalType": "address",
          "name": "spender",
          "type": "address"
        },
        {
          "internalType": "uint256",
          "name": "allowance",
          "type": "uint256"
        },
        {
          "internalType": "uint256",
          "name": "needed",
          "type": "uint256"
        }
      ],
      "name": "ERC20InsufficientAllowance",
      "type": "error"
    },
    {
      "inputs": [
        {
          "internalType": "address",
          "name": "sender",
          "type": "address"
        },
        {
          "internalType": "uint256",
          "name": "balance",
          "type": "uint256"
        },
        {
          "internalType": "uint256",
          "name": "needed",
          "type": "uint256"
        }
      ],
      "name": "ERC20InsufficientBalance",
      "type": "error"
    },
    {
      "inputs": [
        {
          "internalType": "address",
          "name": "approver",
          "type": "address"
        }
      ],
      "name": "ERC20InvalidApprover",
      "type": "error"
    },
    {
      "inputs": [
        {
          "internalType": "address",
          "name": "receiver",
          "type": "address"
        }
      ],
      "name": "ERC20InvalidReceiver",
      "type": "error"
    },
    {
      "inputs": [
        {
          "internalType": "address",
          "name": "sender",
          "type": "address"
        }
      ],
      "name": "ERC20InvalidSender",
      "type": "error"
    },
    {
      "inputs": [
        {
          "internalType": "address",
          "name": "spender",
          "type": "address"
        }
      ],
      "name": "ERC20InvalidSpender",
      "type": "error"
    },
    {
      "inputs": [],
      "name": "ExpiredDeadline",
      "type": "error"
    },
    {
      "inputs": [],
      "name": "InsufficientBalance",
      "type": "error"
    },
    {
      "inputs": [],
      "name": "InvalidPermitAmount",
      "type": "error"
    },
    {
      "inputs": [],
      "name": "InvalidPermitLabel",
      "type": "error"
    },
    {
      "inputs": [],
      "name": "InvalidSignature",
      "type": "error"
    },
    {
      "inputs": [],
      "name": "ReentrancyGuardReentrantCall",
      "type": "error"
    },
    {
      "inputs": [],
      "name": "SignatureUsed",
      "type": "error"
    },
    {
      "inputs": [],
      "name": "ZeroAmount",
      "type": "error"
    },
    {
      "anonymous": false,
      "inputs": [
        {
          "indexed": true,
          "internalType": "address",
          "name": "owner",
          "type": "address"
        },
        {
          "indexed": true,
          "internalType": "address",
          "name": "spender",
          "type": "address"
        },
        {
          "indexed": false,
          "internalType": "uint256",
          "name": "value",
          "type": "uint256"
        }
      ],
      "name": "Approval",
      "type": "event"
    },
    {
      "anonymous": false,
      "inputs": [
        {
          "indexed": true,
          "internalType": "address",
          "name": "from",
          "type": "address"
        },
        {
          "indexed": true,
          "internalType": "address",
          "name": "to",
          "type": "address"
        },
        {
          "indexed": false,
          "internalType": "uint256",
          "name": "value",
          "type": "uint256"
        }
      ],
      "name": "Transfer",
      "type": "event"
    },
    {
      "inputs": [],
      "name": "DOMAIN_SEPARATOR",
      "outputs": [
        {
          "internalType": "bytes32",
          "name": "",
          "type": "bytes32"
        }
      ],
      "stateMutability": "view",
      "type": "function"
    },
    {
      "inputs": [],
      "name": "EIP_PERMIT_TYPEHASH",
      "outputs": [
        {
          "internalType": "bytes32",
          "name": "",
          "type": "bytes32"
        }
      ],
      "stateMutability": "view",
      "type": "function"
    },
    {
      "inputs": [
        {
          "internalType": "address",
          "name": "owner",
          "type": "address"
        },
        {
          "internalType": "address",
          "name": "spender",
          "type": "address"
        }
      ],
      "name": "allowance",
      "outputs": [
        {
          "internalType": "uint256",
          "name": "",
          "type": "uint256"
        }
      ],
      "stateMutability": "view",
      "type": "function"
    },
    {
      "inputs": [
        {
          "components": [
            {
              "internalType": "enum WROSEsecret.PermitLabel",
              "name": "label",
              "type": "uint8"
            },
            {
              "internalType": "address",
              "name": "owner",
              "type": "address"
            },
            {
              "internalType": "address",
              "name": "spender",
              "type": "address"
            },
            {
              "internalType": "uint256",
              "name": "amount",
              "type": "uint256"
            },
            {
              "internalType": "uint256",
              "name": "deadline",
              "type": "uint256"
            },
            {
              "components": [
                {
                  "internalType": "bytes32",
                  "name": "r",
                  "type": "bytes32"
                },
                {
                  "internalType": "bytes32",
                  "name": "s",
                  "type": "bytes32"
                },
                {
                  "internalType": "uint256",
                  "name": "v",
                  "type": "uint256"
                }
              ],
              "internalType": "struct SignatureRSV",
              "name": "signature",
              "type": "tuple"
            }
          ],
          "internalType": "struct WROSEsecret.EIP712Permit",
          "name": "permit",
          "type": "tuple"
        }
      ],
      "name": "allowanceWithPermit",
      "outputs": [
        {
          "internalType": "uint256",
          "name": "",
          "type": "uint256"
        }
      ],
      "stateMutability": "view",
      "type": "function"
    },
    {
      "inputs": [
        {
          "internalType": "address",
          "name": "spender",
          "type": "address"
        },
        {
          "internalType": "uint256",
          "name": "value",
          "type": "uint256"
        }
      ],
      "name": "approve",
      "outputs": [
        {
          "internalType": "bool",
          "name": "",
          "type": "bool"
        }
      ],
      "stateMutability": "nonpayable",
      "type": "function"
    },
    {
      "inputs": [
        {
          "components": [
            {
              "internalType": "enum WROSEsecret.PermitLabel",
              "name": "label",
              "type": "uint8"
            },
            {
              "internalType": "address",
              "name": "owner",
              "type": "address"
            },
            {
              "internalType": "address",
              "name": "spender",
              "type": "address"
            },
            {
              "internalType": "uint256",
              "name": "amount",
              "type": "uint256"
            },
            {
              "internalType": "uint256",
              "name": "deadline",
              "type": "uint256"
            },
            {
              "components": [
                {
                  "internalType": "bytes32",
                  "name": "r",
                  "type": "bytes32"
                },
                {
                  "internalType": "bytes32",
                  "name": "s",
                  "type": "bytes32"
                },
                {
                  "internalType": "uint256",
                  "name": "v",
                  "type": "uint256"
                }
              ],
              "internalType": "struct SignatureRSV",
              "name": "signature",
              "type": "tuple"
            }
          ],
          "internalType": "struct WROSEsecret.EIP712Permit",
          "name": "permit",
          "type": "tuple"
        }
      ],
      "name": "approveWithPermit",
      "outputs": [],
      "stateMutability": "nonpayable",
      "type": "function"
    },
    {
      "inputs": [
        {
          "internalType": "address",
          "name": "account",
          "type": "address"
        }
      ],
      "name": "balanceOf",
      "outputs": [
        {
          "internalType": "uint256",
          "name": "",
          "type": "uint256"
        }
      ],
      "stateMutability": "view",
      "type": "function"
    },
    {
      "inputs": [
        {
          "components": [
            {
              "internalType": "enum WROSEsecret.PermitLabel",
              "name": "label",
              "type": "uint8"
            },
            {
              "internalType": "address",
              "name": "owner",
              "type": "address"
            },
            {
              "internalType": "address",
              "name": "spender",
              "type": "address"
            },
            {
              "internalType": "uint256",
              "name": "amount",
              "type": "uint256"
            },
            {
              "internalType": "uint256",
              "name": "deadline",
              "type": "uint256"
            },
            {
              "components": [
                {
                  "internalType": "bytes32",
                  "name": "r",
                  "type": "bytes32"
                },
                {
                  "internalType": "bytes32",
                  "name": "s",
                  "type": "bytes32"
                },
                {
                  "internalType": "uint256",
                  "name": "v",
                  "type": "uint256"
                }
              ],
              "internalType": "struct SignatureRSV",
              "name": "signature",
              "type": "tuple"
            }
          ],
          "internalType": "struct WROSEsecret.EIP712Permit",
          "name": "permit",
          "type": "tuple"
        }
      ],
      "name": "balanceOfWithPermit",
      "outputs": [
        {
          "internalType": "uint256",
          "name": "",
          "type": "uint256"
        }
      ],
      "stateMutability": "view",
      "type": "function"
    },
    {
      "inputs": [],
      "name": "decimals",
      "outputs": [
        {
          "internalType": "uint8",
          "name": "",
          "type": "uint8"
        }
      ],
      "stateMutability": "view",
      "type": "function"
    },
    {
      "inputs": [],
      "name": "deposit",
      "outputs": [],
      "stateMutability": "payable",
      "type": "function"
    },
    {
      "inputs": [
        {
          "components": [
            {
              "internalType": "bytes32",
              "name": "r",
              "type": "bytes32"
            },
            {
              "internalType": "bytes32",
              "name": "s",
              "type": "bytes32"
            },
            {
              "internalType": "uint256",
              "name": "v",
              "type": "uint256"
            }
          ],
          "internalType": "struct SignatureRSV",
          "name": "signature",
          "type": "tuple"
        }
      ],
      "name": "isSignatureUsed",
      "outputs": [
        {
          "internalType": "bool",
          "name": "",
          "type": "bool"
        }
      ],
      "stateMutability": "view",
      "type": "function"
    },
    {
      "inputs": [],
      "name": "name",
      "outputs": [
        {
          "internalType": "string",
          "name": "",
          "type": "string"
        }
      ],
      "stateMutability": "view",
      "type": "function"
    },
    {
      "inputs": [],
      "name": "symbol",
      "outputs": [
        {
          "internalType": "string",
          "name": "",
          "type": "string"
        }
      ],
      "stateMutability": "view",
      "type": "function"
    },
    {
      "inputs": [],
      "name": "totalSupply",
      "outputs": [
        {
          "internalType": "uint256",
          "name": "",
          "type": "uint256"
        }
      ],
      "stateMutability": "view",
      "type": "function"
    },
    {
      "inputs": [
        {
          "internalType": "address",
          "name": "to",
          "type": "address"
        },
        {
          "internalType": "uint256",
          "name": "value",
          "type": "uint256"
        }
      ],
      "name": "transfer",
      "outputs": [
        {
          "internalType": "bool",
          "name": "",
          "type": "bool"
        }
      ],
      "stateMutability": "nonpayable",
      "type": "function"
    },
    {
      "inputs": [
        {
          "internalType": "address",
          "name": "from",
          "type": "address"
        },
        {
          "internalType": "address",
          "name": "to",
          "type": "address"
        },
        {
          "internalType": "uint256",
          "name": "value",
          "type": "uint256"
        }
      ],
      "name": "transferFrom",
      "outputs": [
        {
          "internalType": "bool",
          "name": "",
          "type": "bool"
        }
      ],
      "stateMutability": "nonpayable",
      "type": "function"
    },
    {
      "inputs": [
        {
          "components": [
            {
              "internalType": "enum WROSEsecret.PermitLabel",
              "name": "label",
              "type": "uint8"
            },
            {
              "internalType": "address",
              "name": "owner",
              "type": "address"
            },
            {
              "internalType": "address",
              "name": "spender",
              "type": "address"
            },
            {
              "internalType": "uint256",
              "name": "amount",
              "type": "uint256"
            },
            {
              "internalType": "uint256",
              "name": "deadline",
              "type": "uint256"
            },
            {
              "components": [
                {
                  "internalType": "bytes32",
                  "name": "r",
                  "type": "bytes32"
                },
                {
                  "internalType": "bytes32",
                  "name": "s",
                  "type": "bytes32"
                },
                {
                  "internalType": "uint256",
                  "name": "v",
                  "type": "uint256"
                }
              ],
              "internalType": "struct SignatureRSV",
              "name": "signature",
              "type": "tuple"
            }
          ],
          "internalType": "struct WROSEsecret.EIP712Permit",
          "name": "permit",
          "type": "tuple"
        }
      ],
      "name": "transferWithPermit",
      "outputs": [],
      "stateMutability": "nonpayable",
      "type": "function"
    },
    {
      "inputs": [],
      "name": "underlyingToken",
      "outputs": [
        {
          "internalType": "contract IWROSE",
          "name": "",
          "type": "address"
        }
      ],
      "stateMutability": "view",
      "type": "function"
    },
    {
      "inputs": [
        {
          "internalType": "uint256",
          "name": "amount",
          "type": "uint256"
        }
      ],
      "name": "unwrap",
      "outputs": [],
      "stateMutability": "nonpayable",
      "type": "function"
    },
    {
      "inputs": [
        {
          "internalType": "uint256",
          "name": "amount",
          "type": "uint256"
        }
      ],
      "name": "withdraw",
      "outputs": [],
      "stateMutability": "nonpayable",
      "type": "function"
    },
    {
      "inputs": [
        {
          "internalType": "uint256",
          "name": "amount",
          "type": "uint256"
        }
      ],
      "name": "wrap",
      "outputs": [],
      "stateMutability": "nonpayable",
      "type": "function"
    },
    {
      "stateMutability": "payable",
      "type": "receive"
    }
  ],
  "bytecode": "0x60e060409080825234620002ea578062001b9b8038038091620000238285620002ef565b8339602092839181010312620002ea57516001600160a01b0381169190829003620002ea576001600090815560a09290925282516001600160401b03939082810185811182821017620002d657825283815283825184810192858452848083015280519081606084015286845b838110620002bd575050509281620000c7608082878783601f9a8299010152881998899101168101036060810184520182620002ef565b51907301000000000000000000000000000000000000015afa3d15620002b3573d8681116200029f576200010585855194601f8401160184620002ef565b82523d858584013e5b156200025b578281519101519083811062000249575b506080528051918201927f8b73c3c69bb8fe3d512ecc4cf759cc79239f7b179b0ffacaa9a75d522b39400f84527fc1d2283d883258850b4bbcb476e53047346a926cf2d189a1098f06ffa3f24faa828401527fc89efdaa54c0f20c7adf612882df0950f5a951637e0307cdcb4c672f298b8bc660608401524660808401523060a084015260a0835260c08301948386109086111762000235575083905251902060c05261187190816200032a82396080518181816111f5015261132b015260a0518181816103a9015281816105280152818161095501528181610a3901528181610af801528181610c0301526116dc015260c0518181816102280152818161082b0152818161090b01526116020152f35b634e487b7160e01b81526041600452602490fd5b60001990840360031b1b163862000124565b815162461bcd60e51b815260048101849052601360248201527f72616e646f6d42797465733a206661696c6564000000000000000000000000006044820152606490fd5b634e487b7160e01b86526041600452602486fd5b606091506200010e565b8281018201518582016080015289955088910162000090565b634e487b7160e01b85526041600452602485fd5b600080fd5b601f909101601f19168101906001600160401b038211908210176200031357604052565b634e487b7160e01b600052604160045260246000fdfe608060409080825260049182361015610035575b5050361561002057600080fd5b5460ff161561002b57005b6100336116d2565b005b600091823560e01c908163036e070814610d005750806306fdde0314610cb0578063095ea7b314610c8757806318160ddd14610bd457806323b872dd14610b275780632495a59914610ae45780632e1a7d4d146109e8578063313ce5671461092e5780633644e515146108f457806370a08231146108cf5780637986b37d1461072757806393355f42146106d6578063940cf1121461068f57806395d89b4114610646578063a9059cbb14610616578063d0e30db0146105f3578063dd62ed3e146105bf578063de0e9a3e146104c2578063e35ac9fb14610461578063ea598cb01461035a5763eb06f992036100135782346103565761013436610e71565b61013c611115565b60a081019161014b83516114e2565b918286526020936003855260ff86882054166103465761016b8151611517565b50608082019081514211610336578251600381101561031157600103610326578251600381101561031157156102f7575b82519360038510156102e2578684019187600060808b60018060a01b03998a9889895116906060848d019d8e51169c019b8c519151928551948986019660008051602061181c833981519152885286015260608501528584015260a083015260c082015260c0815261020d81610dfb565b5190208c8888511695519181518681019161190160f01b83527f0000000000000000000000000000000000000000000000000000000000000000602283015260428201526042815261025e81610e17565b5190209160ff82820151169186825192015192815194855287850152830152606082015282805260015afa156102d7578360005116036102c9575091816003969594926102b294511692511690519161105f565b8452528120600160ff198254161790556001815580f35b87516303bfcdeb60e21b8152fd5b88513d6000823e3d90fd5b602190634e487b7160e01b6000525260246000fd5b60608301511561019c57865163291ded6160e01b81528490fd5b602185634e487b7160e01b6000525260246000fd5b8651635105556960e01b81528490fd5b865163f87d927160e01b81528490fd5b8551630d75493360e01b81528390fd5b8280fd5b5082903461035657602036600319011261035657813591610379611115565b82156104535781516323b872dd60e01b8152339181019190915230602482015260448101839052602081606481877f00000000000000000000000000000000000000000000000000000000000000006001600160a01b03165af180156104495761041a575b506103fa6103f4836103ef33611172565b610fc1565b336112f0565b51908152816000805160206117fc83398151915260203393a36001815580f35b61043b9060203d602011610442575b6104338183610e4f565b810190610fa9565b50836103de565b503d610429565b82513d86823e3d90fd5b9051631f2a200560e01b8152fd5b5090346104bf5761047136610e71565b9061047b8261154c565b156104b05760209350828060018060a01b03928387860151168152600287522092015116600052825280600020549051908152f35b5050516303bfcdeb60e21b8152fd5b80fd5b50346105bb5760203660031901126105bb578235906104df611115565b81156105ac576104ee33611172565b82811061059c57936105046103f4848697610f19565b815163a9059cbb60e01b8152339181019190915260248101839052602081604481877f00000000000000000000000000000000000000000000000000000000000000006001600160a01b03165af180156104495761057d575b50519081526000805160206117fc83398151915260203392a36001815580f35b6105959060203d602011610442576104338183610e4f565b503861055d565b8151631e9acf1760e31b81528590fd5b51631f2a200560e01b81528390fd5b5080fd5b50346105bb57806003193601126105bb576020906105ec6105de610d68565b6105e6610d83565b90610f5e565b9051908152f35b82806003193601126104bf57610607611115565b61060f6116d2565b6001815580f35b50346105bb57806003193601126105bb5760209061063f610635610d68565b602435903361105f565b5160018152f35b50346105bb57816003193601126105bb57805161068b9161066682610ddf565b6006825265524f53452e5360d01b602083015251918291602083526020830190610d28565b0390f35b5090346104bf57506106a036610e71565b916106aa8361154c565b156106c857506020918201516105ec906001600160a01b0316611172565b90516303bfcdeb60e21b8152fd5b508234610356576060366003190112610356578160209361071560ff938351906106ff82610dc3565b35815260243587820152604435848201526114e2565b81526003855220541690519015158152f35b5082346103565761073736610e71565b61073f611115565b60a081019161074e83516114e2565b918286526020936003855260ff86882054166103465761076e8151611517565b50608082019081514211610336578251600381101561031157600203610326578251600381101561031157156108b5575b82519360038510156102e2578684019187600060808b60018060a01b03998a9889895116906060848d019d8e51169c019b8c519151928551948986019660008051602061181c833981519152885286015260608501528584015260a083015260c082015260c0815261081081610dfb565b5190208c8888511695519181518681019161190160f01b83527f0000000000000000000000000000000000000000000000000000000000000000602283015260428201526042815261086181610e17565b5190209160ff82820151169186825192015192815194855287850152830152606082015282805260015afa156102d7578360005116036102c9575091816003969594926102b2945116925116905191610fce565b60608301511561079f57865163291ded6160e01b81528490fd5b50346105bb5760203660031901126105bb576020906105ec6108ef610d68565b610f3c565b50346105bb57816003193601126105bb57602090517f00000000000000000000000000000000000000000000000000000000000000008152f35b5090346104bf57806003193601126104bf57815163313ce56760e01b8152926020908490817f00000000000000000000000000000000000000000000000000000000000000006001600160a01b03165afa9283156109dc57819361099a575b60208460ff855191168152f35b9092506020813d6020116109d4575b816109b660209383610e4f565b8101031261035657519160ff831683036104bf575060ff602061098d565b3d91506109a9565b509051903d90823e3d90fd5b50346105bb5760203660031901126105bb57823590610a05611115565b81156105ac57610a1433611172565b82811061059c57938394610a376103f48560ff1993600185875416178655610f19565b7f00000000000000000000000000000000000000000000000000000000000000006001600160a01b0316803b15610ae05785906024855180998193632e1a7d4d60e01b835289888401525af18015610ad657610ac2575b84808080809950873382f115610449578154169055519081526000805160206117fc83398151915260203392a36001815580f35b939094610ace90610d99565b928490610a8e565b83513d87823e3d90fd5b8580fd5b50346105bb57816003193601126105bb57517f00000000000000000000000000000000000000000000000000000000000000006001600160a01b03168152602090f35b5090346104bf5760603660031901126104bf57610b42610d68565b610b4a610d83565b90836044359360018060a01b038316815260026020528181203382526020522054946000198610610b84575b60208561063f86868661105f565b838610610ba95750908291610ba161063f94602097033383610fce565b909192610b76565b8451637dc7a0d960e11b81523391810191825260208201879052604082018590529081906060010390fd5b5082903461035657826003193601126103565780516370a0823160e01b815230928101929092526020826024817f00000000000000000000000000000000000000000000000000000000000000006001600160a01b03165afa918215610c7d578392610c45575b6020838351908152f35b9091506020813d602011610c75575b81610c6160209383610e4f565b810103126103565760209250519083610c3b565b3d9150610c54565b81513d85823e3d90fd5b50346105bb57806003193601126105bb5760209061063f610ca6610d68565b6024359033610fce565b50346105bb57816003193601126105bb57805161068b91610cd082610ddf565b601182527029b2b1b932ba102927a9a2902a37b5b2b760791b602083015251918291602083526020830190610d28565b8390346105bb57816003193601126105bb578060008051602061181c83398151915260209252f35b919082519283825260005b848110610d54575050826000602080949584010152601f8019910116010190565b602081830181015184830182015201610d33565b600435906001600160a01b0382168203610d7e57565b600080fd5b602435906001600160a01b0382168203610d7e57565b67ffffffffffffffff8111610dad57604052565b634e487b7160e01b600052604160045260246000fd5b6060810190811067ffffffffffffffff821117610dad57604052565b6040810190811067ffffffffffffffff821117610dad57604052565b60e0810190811067ffffffffffffffff821117610dad57604052565b6080810190811067ffffffffffffffff821117610dad57604052565b6020810190811067ffffffffffffffff821117610dad57604052565b90601f8019910116810190811067ffffffffffffffff821117610dad57604052565b610100600319820112610d7e576040519060c0820182811067ffffffffffffffff821117610dad576040526004356003811015610d7e5782526001600160a01b03906024358281168103610d7e5760208401526044359182168203610d7e57606091604084015260643582840152608435608084015260a3190112610d7e57604051610efc81610dc3565b60a435815260c435602082015260e435604082015260a082015290565b91908203918211610f2657565b634e487b7160e01b600052601160045260246000fd5b336001600160a01b03821603610f5857610f5590611172565b90565b50600090565b6001600160a01b039081163381141580610f9d575b610f955760005260026020526040600020911660005260205260406000205490565b505050600090565b50338284161415610f73565b90816020910312610d7e57518015158103610d7e5790565b91908201809211610f2657565b6001600160a01b03908116918215611046571691821561102d5760207f8c5be1e5ebec7d5bd14f71427d1e84f3dd0314c0f7b2291e5b200ac8c7c3b92591600093845260028252604084208585528252806040852055604051908152a3565b604051634a1406b160e11b815260006004820152602490fd5b60405163e602df0560e01b815260006004820152602490fd5b92916001600160a01b03808516156110fc578216156110e35761108184611172565b938185106110b157906110af93946103ef6110a9936110a9846110a388611172565b94610f19565b906112f0565b565b60405163391434e360e21b81526001600160a01b03919091166004820152602481018590526044810191909152606490fd5b60405163ec442f0560e01b815260006004820152602490fd5b604051634b637e8f60e11b815260006004820152602490fd5b600260005414611126576002600055565b604051633ee5aeb560e01b8152600490fd5b90600182811c92168015611168575b602083101461115257565b634e487b7160e01b600052602260045260246000fd5b91607f1691611147565b60009060018060a01b031681526001906020916001835260408220604051809284908354936111a085611138565b94858552886001821691826000146112ce575050600114611292575b50506111ca92500382610e4f565b80511561128c5781809161121a6112286040516111e681610e33565b848152604051928391898301957f000000000000000000000000000000000000000000000000000000000000000087611789565b03601f198101835282610e4f565b51906004600160981b015afa9061123d6117bb565b91156112555782828051810103126104bf5750015190565b60405162461bcd60e51b815260048101849052600f60248201526e191958dc9e5c1d0e8819985a5b1959608a1b6044820152606490fd5b50905090565b87925086528186209086915b8583106112b65750506111ca935082010138806111bc565b8054838801850152869450889390920191810161129e565b92509350506111ca94915060ff191682840152151560051b82010138806111bc565b604051916020908184015280835261130783610ddf565b61135060405161131681610e33565b600080958282809452604051948591878301937f000000000000000000000000000000000000000000000000000000000000000085611789565b0393611364601f1995868101835282610e4f565b51906003600160981b015afa926113796117bb565b93156114ab5760018060a01b03168452600192838352604085209481519367ffffffffffffffff8511611497576113b08754611138565b601f8111611451575b508093601f86116001146113f3575050918394918493946113e8575b50501b916000199060031b1c1916179055565b0151925038806113d5565b8783528183209493928692918316915b88838310611437575050501061141e575b505050811b019055565b015160001960f88460031b161c19169055388080611414565b858701518855909601959485019487935090810190611403565b878352818320601f870160051c81019183881061148d575b601f0160051c019087905b8281106114825750506113b9565b848155018790611474565b9091508190611469565b634e487b7160e01b82526041600452602482fd5b60405162461bcd60e51b815260048101849052600f60248201526e195b98dc9e5c1d0e8819985a5b1959608a1b6044820152606490fd5b805190604060208201519101516040519160208301938452604083015260608201526060815261151181610e17565b51902090565b611520906114e2565b600052600360205260ff6040600020541661153a57600090565b604051638baa579f60e01b8152600490fd5b60808101805142116116c0578151600381101561167c576116ae578151600381101561167c5715611692575b815190600382101561167c5760206000608082860160a0600180821b03809781845116604098838a8d0151169060608d01519051918b51938b85019560008051602061181c83398151915287528d8601526060850152888401528583015260c082015260c081526115e881610dfb565b5190209251169701519085518581019161190160f01b83527f0000000000000000000000000000000000000000000000000000000000000000602283015260428201526042815261163881610e17565b5190209060ff8682015116908581519101519187519384528684015286830152606082015282805260015afa156116725750600051161490565b513d6000823e3d90fd5b634e487b7160e01b600052602160045260246000fd5b6060820151156115785760405163291ded6160e01b8152600490fd5b604051635105556960e01b8152600490fd5b60405163f87d927160e01b8152600490fd5b60003415611777577f00000000000000000000000000000000000000000000000000000000000000006001600160a01b0316803b156105bb578160049160405192838092630d0e30db60e41b825234905af1801561176c5761175d575b506117406103f4346103ef33611172565b604051903482526000805160206117fc83398151915260203393a3565b61176690610d99565b3861172f565b6040513d84823e3d90fd5b604051631f2a200560e01b8152600490fd5b916117ad90610f559492600085526020850152608060408501526080840190610d28565b916060818403910152610d28565b3d156117f6573d9067ffffffffffffffff8211610dad57604051916117ea601f8201601f191660200184610e4f565b82523d6000602084013e565b60609056feddf252ad1be2c89b69c2b068fc378daa952ba7f163c4a11628f55a4df523b3efdf30529b599cef851a2b7e4fc96b13d343aea28107d97873f3e0bc909d1e22c6a2646970667358221220fbfbf9a689a81610ebfe276578e9bb2bc076e047d41109b3d7f755bf34313e7364736f6c63430008180033",
  "linkReferences": {},
  "deployedLinkReferences": {}
}