{
  "_format": "hh-sol-artifact-1",
  "contractName": "TruthBox",
  "sourceName": "contracts/TruthBox.sol",
  "abi": [
    {
      "inputs": [
        {
          "internalType": "address",
          "name": "addrManager_",
          "type": "address"
        }
      ],
      "stateMutability": "nonpayable",
      "type": "constructor"
    },
    {
      "inputs": [],
      "name": "AmountIsZero",
      "type": "error"
    },
    {
      "inputs": [],
      "name": "AuctionOver",
      "type": "error"
    },
    {
      "inputs": [],
      "name": "AvailableBuyer",
      "type": "error"
    },
    {
      "inputs": [],
      "name": "BlackTokenIdNotExist",
      "type": "error"
    },
    {
      "inputs": [],
      "name": "BoxAlreadyInBlacklist",
      "type": "error"
    },
    {
      "inputs": [],
      "name": "BoxNotExists",
      "type": "error"
    },
    {
      "inputs": [],
      "name": "DeadlineIsOver",
      "type": "error"
    },
    {
      "inputs": [],
      "name": "DeadlineNotIn30days",
      "type": "error"
    },
    {
      "inputs": [],
      "name": "DeadlineNotOver",
      "type": "error"
    },
    {
      "inputs": [],
      "name": "EmptyBoxInfoCID",
      "type": "error"
    },
    {
      "inputs": [],
      "name": "EmptyKey",
      "type": "error"
    },
    {
      "inputs": [],
      "name": "EmptyPrice",
      "type": "error"
    },
    {
      "inputs": [],
      "name": "EmptyTokenCID",
      "type": "error"
    },
    {
      "inputs": [],
      "name": "EmptyTokenURI",
      "type": "error"
    },
    {
      "inputs": [],
      "name": "InBlacklist",
      "type": "error"
    },
    {
      "inputs": [],
      "name": "InvalidBoxId",
      "type": "error"
    },
    {
      "inputs": [],
      "name": "InvalidCaller",
      "type": "error"
    },
    {
      "inputs": [],
      "name": "InvalidContractAddress",
      "type": "error"
    },
    {
      "inputs": [],
      "name": "InvalidContractCaller",
      "type": "error"
    },
    {
      "inputs": [],
      "name": "InvalidDeadline",
      "type": "error"
    },
    {
      "inputs": [],
      "name": "InvalidERC20Interface",
      "type": "error"
    },
    {
      "inputs": [],
      "name": "InvalidImplementation",
      "type": "error"
    },
    {
      "inputs": [],
      "name": "InvalidPeriod",
      "type": "error"
    },
    {
      "inputs": [],
      "name": "InvalidRate",
      "type": "error"
    },
    {
      "inputs": [],
      "name": "InvalidSeconds",
      "type": "error"
    },
    {
      "inputs": [],
      "name": "InvalidStatus",
      "type": "error"
    },
    {
      "inputs": [],
      "name": "InvalidToken",
      "type": "error"
    },
    {
      "inputs": [],
      "name": "NotAdmin",
      "type": "error"
    },
    {
      "inputs": [],
      "name": "NotAdminOrDAO",
      "type": "error"
    },
    {
      "inputs": [],
      "name": "NotBuyer",
      "type": "error"
    },
    {
      "inputs": [],
      "name": "NotDAO",
      "type": "error"
    },
    {
      "inputs": [],
      "name": "NotInSecrecy",
      "type": "error"
    },
    {
      "inputs": [],
      "name": "NotMinter",
      "type": "error"
    },
    {
      "inputs": [],
      "name": "PublicTimeNotEnd",
      "type": "error"
    },
    {
      "inputs": [],
      "name": "TokenAlreadyExists",
      "type": "error"
    },
    {
      "inputs": [],
      "name": "TokenNotExists",
      "type": "error"
    },
    {
      "inputs": [],
      "name": "TokenNotSupported",
      "type": "error"
    },
    {
      "inputs": [],
      "name": "ZeroAddress",
      "type": "error"
    },
    {
      "anonymous": false,
      "inputs": [
        {
          "indexed": true,
          "internalType": "uint256",
          "name": "boxId",
          "type": "uint256"
        },
        {
          "indexed": true,
          "internalType": "uint256",
          "name": "userId",
          "type": "uint256"
        },
        {
          "indexed": false,
          "internalType": "string",
          "name": "boxInfoCID",
          "type": "string"
        }
      ],
      "name": "BoxCreated",
      "type": "event"
    },
    {
      "anonymous": false,
      "inputs": [
        {
          "indexed": true,
          "internalType": "uint256",
          "name": "boxId",
          "type": "uint256"
        },
        {
          "indexed": false,
          "internalType": "enum Status",
          "name": "status",
          "type": "uint8"
        }
      ],
      "name": "BoxStatusChanged",
      "type": "event"
    },
    {
      "anonymous": false,
      "inputs": [
        {
          "indexed": true,
          "internalType": "uint256",
          "name": "boxId",
          "type": "uint256"
        },
        {
          "indexed": false,
          "internalType": "uint256",
          "name": "deadline",
          "type": "uint256"
        }
      ],
      "name": "DeadlineChanged",
      "type": "event"
    },
    {
      "anonymous": false,
      "inputs": [
        {
          "indexed": true,
          "internalType": "uint256",
          "name": "boxId",
          "type": "uint256"
        },
        {
          "indexed": false,
          "internalType": "uint256",
          "name": "price",
          "type": "uint256"
        }
      ],
      "name": "PriceChanged",
      "type": "event"
    },
    {
      "anonymous": false,
      "inputs": [
        {
          "indexed": false,
          "internalType": "uint256",
          "name": "boxId",
          "type": "uint256"
        },
        {
          "indexed": false,
          "internalType": "bytes",
          "name": "privateKey",
          "type": "bytes"
        },
        {
          "indexed": true,
          "internalType": "uint256",
          "name": "userId",
          "type": "uint256"
        }
      ],
      "name": "PrivateKeyPublished",
      "type": "event"
    },
    {
      "inputs": [
        {
          "internalType": "uint256",
          "name": "boxId_",
          "type": "uint256"
        }
      ],
      "name": "addBoxToBlacklist",
      "outputs": [],
      "stateMutability": "nonpayable",
      "type": "function"
    },
    {
      "inputs": [
        {
          "internalType": "uint256",
          "name": "boxId_",
          "type": "uint256"
        },
        {
          "internalType": "uint256",
          "name": "seconds_",
          "type": "uint256"
        }
      ],
      "name": "addDeadline",
      "outputs": [],
      "stateMutability": "nonpayable",
      "type": "function"
    },
    {
      "inputs": [],
      "name": "admin",
      "outputs": [
        {
          "internalType": "address",
          "name": "",
          "type": "address"
        }
      ],
      "stateMutability": "view",
      "type": "function"
    },
    {
      "inputs": [
        {
          "internalType": "address",
          "name": "to_",
          "type": "address"
        },
        {
          "internalType": "string",
          "name": "tokenCID_",
          "type": "string"
        },
        {
          "internalType": "string",
          "name": "boxInfoCID_",
          "type": "string"
        },
        {
          "internalType": "bytes",
          "name": "key_",
          "type": "bytes"
        },
        {
          "internalType": "uint256",
          "name": "price_",
          "type": "uint256"
        }
      ],
      "name": "create",
      "outputs": [
        {
          "internalType": "uint256",
          "name": "",
          "type": "uint256"
        }
      ],
      "stateMutability": "nonpayable",
      "type": "function"
    },
    {
      "inputs": [
        {
          "internalType": "address",
          "name": "to_",
          "type": "address"
        },
        {
          "internalType": "string",
          "name": "tokenCID_",
          "type": "string"
        },
        {
          "internalType": "string",
          "name": "boxInfoCID_",
          "type": "string"
        }
      ],
      "name": "createAndPublish",
      "outputs": [
        {
          "internalType": "uint256",
          "name": "",
          "type": "uint256"
        }
      ],
      "stateMutability": "nonpayable",
      "type": "function"
    },
    {
      "inputs": [
        {
          "internalType": "uint256",
          "name": "boxId_",
          "type": "uint256"
        },
        {
          "internalType": "uint256",
          "name": "time_",
          "type": "uint256"
        }
      ],
      "name": "extendDeadline",
      "outputs": [],
      "stateMutability": "nonpayable",
      "type": "function"
    },
    {
      "inputs": [
        {
          "internalType": "uint256",
          "name": "boxId_",
          "type": "uint256"
        }
      ],
      "name": "getBasicData",
      "outputs": [
        {
          "internalType": "enum Status",
          "name": "",
          "type": "uint8"
        },
        {
          "internalType": "uint256",
          "name": "",
          "type": "uint256"
        },
        {
          "internalType": "uint256",
          "name": "",
          "type": "uint256"
        }
      ],
      "stateMutability": "view",
      "type": "function"
    },
    {
      "inputs": [
        {
          "internalType": "uint256",
          "name": "boxId_",
          "type": "uint256"
        }
      ],
      "name": "getDeadline",
      "outputs": [
        {
          "internalType": "uint256",
          "name": "",
          "type": "uint256"
        }
      ],
      "stateMutability": "view",
      "type": "function"
    },
    {
      "inputs": [
        {
          "internalType": "uint256",
          "name": "boxId_",
          "type": "uint256"
        }
      ],
      "name": "getPrice",
      "outputs": [
        {
          "internalType": "uint256",
          "name": "",
          "type": "uint256"
        }
      ],
      "stateMutability": "view",
      "type": "function"
    },
    {
      "inputs": [
        {
          "internalType": "uint256",
          "name": "boxId_",
          "type": "uint256"
        },
        {
          "internalType": "bytes",
          "name": "siweToken_",
          "type": "bytes"
        }
      ],
      "name": "getPrivateData",
      "outputs": [
        {
          "internalType": "bytes",
          "name": "",
          "type": "bytes"
        }
      ],
      "stateMutability": "view",
      "type": "function"
    },
    {
      "inputs": [
        {
          "internalType": "uint256",
          "name": "boxId_",
          "type": "uint256"
        }
      ],
      "name": "getStatus",
      "outputs": [
        {
          "internalType": "enum Status",
          "name": "",
          "type": "uint8"
        }
      ],
      "stateMutability": "view",
      "type": "function"
    },
    {
      "inputs": [],
      "name": "implementation",
      "outputs": [
        {
          "internalType": "address",
          "name": "",
          "type": "address"
        }
      ],
      "stateMutability": "view",
      "type": "function"
    },
    {
      "inputs": [],
      "name": "incrementRate",
      "outputs": [
        {
          "internalType": "uint8",
          "name": "",
          "type": "uint8"
        }
      ],
      "stateMutability": "view",
      "type": "function"
    },
    {
      "inputs": [
        {
          "internalType": "uint256",
          "name": "boxId_",
          "type": "uint256"
        }
      ],
      "name": "isInBlacklist",
      "outputs": [
        {
          "internalType": "bool",
          "name": "",
          "type": "bool"
        }
      ],
      "stateMutability": "view",
      "type": "function"
    },
    {
      "inputs": [
        {
          "internalType": "uint256",
          "name": "boxId_",
          "type": "uint256"
        },
        {
          "internalType": "bytes",
          "name": "siweToken_",
          "type": "bytes"
        }
      ],
      "name": "minterOf",
      "outputs": [
        {
          "internalType": "address",
          "name": "",
          "type": "address"
        }
      ],
      "stateMutability": "view",
      "type": "function"
    },
    {
      "inputs": [
        {
          "internalType": "uint256",
          "name": "boxId_",
          "type": "uint256"
        }
      ],
      "name": "minterOf",
      "outputs": [
        {
          "internalType": "address",
          "name": "",
          "type": "address"
        }
      ],
      "stateMutability": "view",
      "type": "function"
    },
    {
      "inputs": [
        {
          "internalType": "uint256",
          "name": "boxId_",
          "type": "uint256"
        }
      ],
      "name": "minterOf_debug",
      "outputs": [
        {
          "internalType": "address",
          "name": "",
          "type": "address"
        }
      ],
      "stateMutability": "view",
      "type": "function"
    },
    {
      "inputs": [],
      "name": "nextBoxId",
      "outputs": [
        {
          "internalType": "uint256",
          "name": "",
          "type": "uint256"
        }
      ],
      "stateMutability": "view",
      "type": "function"
    },
    {
      "inputs": [
        {
          "internalType": "uint256",
          "name": "boxId_",
          "type": "uint256"
        }
      ],
      "name": "payConfiFee",
      "outputs": [],
      "stateMutability": "nonpayable",
      "type": "function"
    },
    {
      "inputs": [
        {
          "internalType": "uint256",
          "name": "boxId_",
          "type": "uint256"
        }
      ],
      "name": "publishByBuyer",
      "outputs": [],
      "stateMutability": "nonpayable",
      "type": "function"
    },
    {
      "inputs": [
        {
          "internalType": "uint256",
          "name": "boxId_",
          "type": "uint256"
        }
      ],
      "name": "publishByMinter",
      "outputs": [],
      "stateMutability": "nonpayable",
      "type": "function"
    },
    {
      "inputs": [],
      "name": "setAddress",
      "outputs": [],
      "stateMutability": "nonpayable",
      "type": "function"
    },
    {
      "inputs": [
        {
          "internalType": "address",
          "name": "addrManager_",
          "type": "address"
        }
      ],
      "name": "setAddressManager",
      "outputs": [],
      "stateMutability": "nonpayable",
      "type": "function"
    },
    {
      "inputs": [
        {
          "internalType": "address",
          "name": "newAdmin_",
          "type": "address"
        }
      ],
      "name": "setAdmin",
      "outputs": [],
      "stateMutability": "nonpayable",
      "type": "function"
    },
    {
      "inputs": [
        {
          "internalType": "uint256",
          "name": "boxId_",
          "type": "uint256"
        },
        {
          "internalType": "uint256",
          "name": "price_",
          "type": "uint256"
        },
        {
          "internalType": "enum Status",
          "name": "status_",
          "type": "uint8"
        },
        {
          "internalType": "uint256",
          "name": "deadline_",
          "type": "uint256"
        }
      ],
      "name": "setBasicData",
      "outputs": [],
      "stateMutability": "nonpayable",
      "type": "function"
    },
    {
      "inputs": [
        {
          "internalType": "uint8",
          "name": "rate_",
          "type": "uint8"
        }
      ],
      "name": "setIncrementRate",
      "outputs": [],
      "stateMutability": "nonpayable",
      "type": "function"
    },
    {
      "inputs": [
        {
          "internalType": "uint256",
          "name": "boxId_",
          "type": "uint256"
        },
        {
          "internalType": "uint256",
          "name": "price_",
          "type": "uint256"
        }
      ],
      "name": "setPrice",
      "outputs": [],
      "stateMutability": "nonpayable",
      "type": "function"
    },
    {
      "inputs": [
        {
          "internalType": "uint256",
          "name": "boxId_",
          "type": "uint256"
        },
        {
          "internalType": "enum Status",
          "name": "status_",
          "type": "uint8"
        }
      ],
      "name": "setStatus",
      "outputs": [],
      "stateMutability": "nonpayable",
      "type": "function"
    },
    {
      "inputs": [
        {
          "internalType": "address",
          "name": "newImplementation_",
          "type": "address"
        }
      ],
      "name": "upgrade",
      "outputs": [],
      "stateMutability": "nonpayable",
      "type": "function"
    }
  ],
  "bytecode": "0x6080346100b457601f61268d38819003918201601f19168301916001600160401b038311848410176100b9578084926020946040528339810103126100b457516001600160a01b038116908190036100b4577fb53127684a568b3173ae13b9f8a6016e243e63b6e8ee1178d6a717850b5d610380546001600160a01b03199081163317909155600080549091169190911790556005805460ff60a01b1916601960a31b1790556040516125bd90816100d08239f35b600080fd5b634e487b7160e01b600052604160045260246000fdfe608080604052600436101561001357600080fd5b600090813560e01c9081630652b57a14611ba057508063088cbf7e14611b7c5780630900f01014611af15780630b51c84d146119bf5780632d1fdef614611961578063345b6821146117ef5780634b5c4d70146115d45780635c60da1b1461158c5780635c622a0e1461155e5780635ebad50014611540578063704b6c02146114c557806382862275146114985780639945c0cf146114025780639ae35d90146113bf5780639e942ace1461132b578063aaf89bb914611252578063baf9896b14610e14578063bdc908e014610d73578063cdae6a4414610cfd578063d896dd6414610c75578063da4e703614610683578063de0b05ed14610640578063e064371b1461060f578063e0bc85c9146105bf578063e6569275146102bc578063e75722301461028f578063f7d97577146101e9578063f851a440146101b35763ffddb7bc1461016057600080fd5b346101b05760203660031901126101b05760609060406004359161018383611ffc565b92815260076020522060026001820154910154906101a46040518094611d6c565b60208301526040820152f35b80fd5b50346101b057806003193601126101b057600080516020612508833981519152546040516001600160a01b039091168152602090f35b50346101b0576101f836611c17565b825460405163103864a360e11b815233600482015290602090829060249082906001600160a01b03165afa908115610284578491610255575b50156102435761024091612392565b80f35b6040516348f5c3ed60e01b8152600490fd5b610277915060203d60201161027d575b61026f8183611c76565b810190611ddd565b38610231565b503d610265565b6040513d86823e3d90fd5b50346101b05760203660031901126101b05760016040602092600435815260078452200154604051908152f35b50346101b057806003193601126101b05780546001600160a01b0390811633811415806105a4575b610243576040516326889ba960e11b815260208082600481865afa91821561059957859261057a575b5060405163697b932d60e11b81528181600481875afa90811561056f578691610552575b50604051636209ec2d60e01b81528281600481885afa90811561054757879161052a575b506040516350ec99a760e01b8152918383600481895afa9283156105005760049685918a9561050b575b50604051635897591960e01b815297889182905afa94851561050057879687958a976104c4575b505084929183809216801515806104b6575b61049d575b50168015158061048f575b610476575b501680151580610468575b61044f575b501680151580610441575b610428575b5016908115159081610419575b50610403575080f35b6001600160601b0360a01b600154161760015580f35b905060015416811415386103fa565b6001600160601b0360a01b6002541617600255386103ed565b5082600254168114156103e8565b6001600160601b0360a01b6005541617600555386103dd565b5082600554168114156103d8565b6001600160601b0360a01b6004541617600455386103cd565b5082600454168114156103c8565b6001600160601b0360a01b6003541617600355386103bd565b5082600354168114156103b8565b86949391859398506104ed90828593903d106104f9575b6104e58183611c76565b810190611da6565b979250819394506103a6565b503d6104db565b6040513d8a823e3d90fd5b610523919550823d84116104f9576104e58183611c76565b933861037f565b6105419150833d85116104f9576104e58183611c76565b38610355565b6040513d89823e3d90fd5b6105699150823d84116104f9576104e58183611c76565b38610331565b6040513d88823e3d90fd5b816105929293503d84116104f9576104e58183611c76565b903861030d565b6040513d87823e3d90fd5b508160008051602061250883398151915254163314156102e4565b50346101b05760203660031901126101b0576004358152600760205260ff6040822054169060088210156105fb57602082600760405191148152f35b634e487b7160e01b81526021600452602490fd5b50346101b05760203660031901126101b057602061062e600435611edf565b6040516001600160a01b039091168152f35b50346101b05760203660031901126101b057600435808252600860205260408220546001600160a01b03163303610243578061067e61024092611e73565b61224d565b50346101b05760a03660031901126101b05761069d611c01565b6024356001600160401b038111610c71576106bc903690600401611d79565b6044929192356001600160401b038111610c6d576106de903690600401611d79565b9190936064356001600160401b038111610c6957610700903690600401611d79565b908115610c575760843515610c45578315610c33578415610c2157610726913691611cb2565b946006549560006060918051610ac0575b5060405161074481611c40565b6000815260843560208201526213c6804201604082015288600052600760205260406000209080516008811015610aaa5760029161078460409285611dc5565b602081015160018501550151910155604051906107a082611c40565b33825260208201928352604082015287600052600860205260406000209160018060a01b038251166001600160601b0360a01b845416178355518051906001600160401b038211610a94576107f860018501546120cf565b601f8111610a4d575b50602090601f83116001146109d8579180600294926040946000926109cd575b50508160011b916000199060031b1c19161760018501555b01519101556001600654016006556000602060018060a01b0360015416602460405180948193632b956ff760e01b83523360048401525af19182156109c15788958892600094610971575b5090600080516020612548833981519152916108ad604051928392602084526020840191611df5565b0390a36003546001600160a01b031690813b1561096d57836108e7956040519687958694859363399f900b60e21b85528b60048601611e16565b03925af180156109625761094a575b602082807f8aa4fa52648a6d15edce8a179c792c86f3719d0cc3c572cf90f91948f0f2cb68836040516084358152a280600080516020612528833981519152836040516213c68042018152a2604051908152f35b6109548391611c2d565b61095e57816108f6565b5080fd5b6040513d85823e3d90fd5b8380fd5b9650925090506020853d6020116109b9575b8161099060209383611c76565b810103126109b4576000805160206125488339815191528791899651939091610884565b600080fd5b3d9150610983565b6040513d6000823e3d90fd5b015190503880610821565b906001850160005260206000209160005b601f1985168110610a355750926002949260019260409583601f19811610610a1c575b505050811b016001850155610839565b015160001960f88460031b161c19169055388080610a0c565b919260206001819286850151815501940192016109e9565b600185016000526020600020601f840160051c810160208510610a8d575b601f830160051c82018110610a81575050610801565b60008155600101610a6b565b5080610a6b565b634e487b7160e01b600052604160045260246000fd5b634e487b7160e01b600052602160045260246000fd5b610b05929150600080604051936020948c8682015233821b604082015260348152610aea81611c40565b60405196879187830193888552604080850152830190611d2c565b0395610b19601f1997888101835282611c76565b51906001600160981b015afa610b2d6124d7565b9015610be657600091829184815191015190858110610bd6575b5090610b7d829660405192610b5b84611c5b565b858452610b716040519485928a840197886124a5565b03908101835282611c76565b51906003600160981b015afa90610b926124d7565b9115610ba057509038610737565b6064906040519062461bcd60e51b82526004820152600f60248201526e195b98dc9e5c1d0e8819985a5b1959608a1b6044820152fd5b831990860360031b1b1638610b47565b60405162461bcd60e51b81526004810184905260136024820152721c985b991bdb509e5d195cce8819985a5b1959606a1b6044820152606490fd5b604051636dbcdd3760e11b8152600490fd5b604051632761c7f960e21b8152600490fd5b604051632c3be8db60e21b8152600490fd5b604051630f35a7eb60e21b8152600490fd5b8680fd5b8480fd5b8280fd5b50346101b05760403660031901126101b057602435600881101561095e57815460405163103864a360e11b815233600482015290602090829060249082906001600160a01b03165afa908115610962578391610cde575b501561024357610240906004356123db565b610cf7915060203d60201161027d5761026f8183611c76565b38610ccc565b50346101b057610d0c36611c17565b825460405163103864a360e11b815233600482015290602090829060249082906001600160a01b03165afa908115610284578491610d54575b50156102435761024091611f12565b610d6d915060203d60201161027d5761026f8183611c76565b38610d45565b50346101b05760803660031901126101b0576044356004356008821015610c7157825460405163103864a360e11b815233600482015290602090829060249082906001600160a01b03165afa908115610284578491610df5575b501561024357610dec61024092610de660243584612392565b826123db565b6064359061246c565b610e0e915060203d60201161027d5761026f8183611c76565b38610dcd565b50346101b05760603660031901126101b057610e2e611c01565b6024356001600160401b038111610c7157610e4d903690600401611d79565b6044929192356001600160401b038111610c6d57610e6f903690600401611d79565b9190938115610c33578215610c215760405194610e8b86611c5b565b8686526006549560006060918961119f575b50604051610eaa81611c40565b60068152600060208201526000604082015288600052600760205260406000209080516008811015610aaa57600291610ee560409285611dc5565b60208101516001850155015191015560405190610f0182611c40565b33825260208201928352604082015287600052600860205260406000209160018060a01b038251166001600160601b0360a01b845416178355518051906001600160401b038211610a9457610f5960018501546120cf565b601f8111611158575b50602090601f83116001146110e5579180600294926040946000926110da575b50508160011b916000199060031b1c19161760018501555b01519101556001600654016006556000602060018060a01b0360015416602460405180948193632b956ff760e01b83523360048401525af19182156109c1578895889260009461108f575b50906000805160206125488339815191529161100e604051928392602084526020840191611df5565b0390a36003546001600160a01b031690813b1561096d5783611048956040519687958694859363399f900b60e21b85528b60048601611e16565b03925af180156109625761107b575b602082806000805160206125688339815191528360405160068152a2604051908152f35b6110858391611c2d565b61095e5781611057565b9650925090506020853d6020116110d2575b816110ae60209383611c76565b810103126109b4576000805160206125488339815191528791899651939091610fe5565b3d91506110a1565b015190503880610f82565b90601f198316916001860160005260206000209260005b81811061114057509260019285926040966002989610611127575b505050811b016001850155610f9a565b015160001960f88460031b161c19169055388080611117565b929360206001819287860151815501950193016110fc565b600185016000526020600020601f840160051c810160208510611198575b601f830160051c8201811061118c575050610f62565b60008155600101611176565b5080611176565b6111c9929150600080604051936020948c8682015233821b604082015260348152610aea81611c40565b03956111dd601f1997888101835282611c76565b51906001600160981b015afa6111f16124d7565b9015610be657600091829184815191015190858110611242575b509061121f829660405192610b5b84611c5b565b51906003600160981b015afa906112346124d7565b9115610ba057509038610e9d565b831990860360031b1b163861120b565b50346101b05760203660031901126101b05760043560ff8116808203610c71578254604051634162169f60e01b81526001600160a01b03916020908290600490829086165afa90811561059957859161130c575b501633036112fa5780159081156112ef575b506112dd576005805460ff60a01b191660a09290921b60ff60a01b1691909117905580f35b604051636a43f8d160e01b8152600490fd5b60c8915011386112b8565b6040516327568d2f60e11b8152600490fd5b611325915060203d6020116104f9576104e58183611c76565b386112a6565b50346101b05760203660031901126101b057805460405163103864a360e11b81523360048201526001600160a01b0392916020908290602490829087165afa9182156113b35791611394575b50156102435760209061138b600435611edf565b60405191168152f35b6113ad915060203d60201161027d5761026f8183611c76565b38611377565b604051903d90823e3d90fd5b50346101b0576113dc6113ed6113d436611ce9565b929092611f86565b916001600160a01b03918291611edf565b16911690810361024357602090604051908152f35b50346101b05760203660031901126101b05760048054604051630da0ade560e41b815282359281018390526001600160a01b03916020908290602490829086165afa908115610284578491611479575b50163303611467578061067e61024092611e3e565b60405163239700bf60e11b8152600490fd5b611492915060203d6020116104f9576104e58183611c76565b38611452565b50346101b05760203660031901126101b05760026040602092600435815260078452200154604051908152f35b50346101b05760203660031901126101b0576114df611c01565b600080516020612508833981519152805490916001600160a01b0390818316330361152e571690811561151c576001600160a01b03191617905580f35b60405163d92e233d60e01b8152600490fd5b604051637bfa4b9f60e01b8152600490fd5b50346101b057806003193601126101b0576020600654604051908152f35b50346101b05760203660031901126101b057602061157d600435611ffc565b61158a6040518092611d6c565bf35b50346101b057806003193601126101b0577f360894a13ba1a3210667c828492db98dca3e2076cc3735a920a3ca505d382bbc546040516001600160a01b039091168152602090f35b50346101b05760208060031936011261095e578154604051634162169f60e01b815260048035936001600160a01b03939092918391839190829087165afa801561059957839186916117d2575b501633036112fa5761163283611edf565b5082845260079182825260ff60408620541660088110156117445783146117c057848160045416604051630da0ade560e41b81528660048201528481602481855afa801561096257849184916117a3575b5016611758575b5084905282825260ff60408620541660088110156117445790816006879314159081611738575b506116e5575b508390528181526040808520805460ff1916841790555191825260008051602061256883398151915291a280f35b60035416803b1561095e57818091602460405180948193630852cd8d60e31b83528a60048401525af1801561172d57156116b75761172290611c2d565b61096d5783386116b7565b6040513d84823e3d90fd5b600591501415386116b1565b634e487b7160e01b86526021600452602486fd5b803b1561095e5781809160446040518094819363a3b979c360e01b83528b6004840152600160248401525af1801561172d571561168a5761179890611c2d565b610c6d57843861168a565b6117ba9150863d88116104f9576104e58183611c76565b38611683565b60405163b1cf6f0360e01b8152600490fd5b6117e99150833d85116104f9576104e58183611c76565b38611621565b50346101b0576118159061180236611ce9565b90926001600160a01b0391829190611f86565b1691821561194f5761182684611ffc565b60088110158061192e5781158015611942575b81811561191e575b501561187d5750505061185383611edf565b16036102435761186561187991612109565b604051918291602083526020830190611d2c565b0390f35b61190a57600581149081156118ff575b506118a2575b50505061186561187991612109565b60246020836004541660405192838092630da0ade560e41b82528960048301525afa9182156113b357916118e0575b50160361024357388080611893565b6118f9915060203d6020116104f9576104e58183611c76565b386118d1565b60039150143861188d565b634e487b7160e01b82526021600452602482fd5b905061192e576002821481611841565b634e487b7160e01b83526021600452602483fd5b5050600060018214611839565b60405163c1ab6dc160e01b8152600490fd5b50346101b05761197036611c17565b6001600160a01b0361198183611edf565b1633036102435761199182611e73565b61199a82611e93565b6213c68081116119ad5761024091611f12565b6040516302e8f35960e31b8152600490fd5b50346101b05760203660031901126101b0576004356119dd81611e3e565b6119e681611e93565b8082526007602052604082206001015460055483906001600160a01b0316803b1561095e578190606460405180948193631169780560e11b83528860048401523360248401528760448401525af1801561028457611ade575b5060ff60055460a01c1690818102918183041490151715611aca576064611a67910482612392565b8060005260076020526002604060002001546213c6808101809111611ab457602060008051602061252883398151915291836000526007825280600260406000200155604051908152a280f35b634e487b7160e01b600052601160045260246000fd5b634e487b7160e01b83526011600452602483fd5b611aea90939193611c2d565b9138611a3f565b50346101b05760203660031901126101b057611b0b611c01565b600080516020612508833981519152546001600160a01b03908116330361152e57813b15611b6a577f360894a13ba1a3210667c828492db98dca3e2076cc3735a920a3ca505d382bbc91166001600160601b0360a01b82541617905580f35b60405163340aafcd60e11b8152600490fd5b50346101b057806003193601126101b057602060ff60055460a01c16604051908152f35b90503461095e57602036600319011261095e57611bbb611c01565b600080516020612508833981519152546001600160a01b03929083163303611bf2575082546001600160a01b031916911617815580f35b637bfa4b9f60e01b8152600490fd5b600435906001600160a01b03821682036109b457565b60409060031901126109b4576004359060243590565b6001600160401b038111610a9457604052565b606081019081106001600160401b03821117610a9457604052565b602081019081106001600160401b03821117610a9457604052565b90601f801991011681019081106001600160401b03821117610a9457604052565b6001600160401b038111610a9457601f01601f191660200190565b929192611cbe82611c97565b91611ccc6040519384611c76565b8294818452818301116109b4578281602093846000960137010152565b9060406003198301126109b45760043591602435906001600160401b0382116109b457806023830112156109b457816024611d2993600401359101611cb2565b90565b919082519283825260005b848110611d58575050826000602080949584010152601f8019910116010190565b602081830181015184830182015201611d37565b906008821015610aaa5752565b9181601f840112156109b4578235916001600160401b0383116109b457602083818601950101116109b457565b908160209103126109b457516001600160a01b03811681036109b45790565b906008811015610aaa5760ff80198354169116179055565b908160209103126109b4575180151581036109b45790565b908060209392818452848401376000828201840152601f01601f1916010190565b9081526001600160a01b039091166020820152606060408201819052611d2993910191611df5565b600052600760205260ff604060002054166008811015610aaa57600503611e6157565b6040516307a92f1960e51b8152600490fd5b600052600760205260ff604060002054166008811015610aaa57611e6157565b6000526007602052600260406000200154428110908115611ec8575b50611eb657565b60405163c8af701160e01b8152600490fd5b90506203f480420190814211611ab4571138611eaf565b6000908152600860205260409020546001600160a01b03168015611f005790565b6040516337381c9960e21b8152600490fd5b908015611f7457600082815260076020526002604082200154918201809211611f605781600080516020612528833981519152926002604084876020965260078652200155604051908152a2565b634e487b7160e01b81526011600452602490fd5b6040516302824e7360e31b8152600490fd5b33903315611f92575090565b6002546040516319510d6760e01b81526020600482018190529093509183916001600160a01b03169082908190611fcd906024830190611d2c565b03915afa9081156109c157600091611fe3575090565b611d29915060203d6020116104f9576104e58183611c76565b60009080825260076020526040822091600260ff845416930154421161202157505090565b909160088110158061192e576001821480156120c3575b156120aa57505060048054604051630da0ade560e41b8152918201939093526001600160a01b03926020908290602490829087165afa9182156113b3579161208b575b501661208657600690565b600390565b6120a4915060203d6020116104f9576104e58183611c76565b3861207b565b9092506105fb5750600581146120bd5790565b50600690565b50508160028214612038565b90600182811c921680156120ff575b60208310146120e957565b634e487b7160e01b600052602260045260246000fd5b91607f16916120de565b6000908152602090600882528060408120600281015490600180910190604051918491815491612138836120cf565b92838652858a60018316928360001461222a575050506001146121ee575b50505081612165910382611c76565b6121996040519161217583611c5b565b84835261218b60405193849289840196876124a5565b03601f198101835282611c76565b51906004600160981b015afa906121ae6124d7565b91156121b8575090565b6064906040519062461bcd60e51b82526004820152600f60248201526e191958dc9e5c1d0e8819985a5b1959608a1b6044820152fd5b8652878620889350869291905b828410612212575050508201018161216538612156565b805486850186015288975089949093019281016121fb565b92509350939150612165945060ff191682840152151560051b8201019138612156565b60009080825260209060078252604060ff8185205416600881101561237e5760060361234c575b61227d82612109565b90848460018060a01b03600154166024845180948193632b956ff760e01b83523360048401525af195861561234157809661230d575b505082918185946000805160206125688339815191527f49e6caa43a01f3c7785f39bcce3ff3a17b674fa62b8f13c94ce1f4ee2efc9e2797612308955160068152a28080519586958652850152830190611d2c565b0390a2565b909195508482813d831161233a575b6123268183611c76565b810103126101b057505193816123086122b3565b503d61231c565b8251903d90823e3d90fd5b81845260078352808420600660ff198254161790558160008051602061256883398151915284835160068152a2612274565b634e487b7160e01b85526021600452602485fd5b908061239c575050565b60207f8aa4fa52648a6d15edce8a179c792c86f3719d0cc3c572cf90f91948f0f2cb6891836000526007825280600160406000200155604051908152a2565b906008811015610aaa578015611e615760058114612450575b6000828152600760205260ff604082205416600881101561190a57820361241a57505050565b816124406000805160206125688339815191529360408487602096526007865220611dc5565b61244d6040518092611d6c565ba2565b6213c6804201804211611ab457612467908361246c565b6123f4565b90428111612478575050565b602060008051602061252883398151915291836000526007825280600260406000200155604051908152a2565b916124c990611d299492600085526020850152608060408501526080840190611d2c565b916060818403910152611d2c565b3d15612502573d906124e882611c97565b916124f66040519384611c76565b82523d6000602084013e565b60609056feb53127684a568b3173ae13b9f8a6016e243e63b6e8ee1178d6a717850b5d6103b50b49938e915b0ab39e99a2d0810e190d6a377647ef06ec45b1e54b892968a64b49bc70b6bd0e150245f0c265d8dc2c41b30d3062d637816e8402820162dc13f5da82b1649f3e1bf563baf1aed70575caf9bda52414029afc923bbce28e99dda264697066735822122045d5cde4f786c50ad599ba857168a0a5c18b50fd710515840b95f01ebc4f8aff64736f6c63430008180033",
  "linkReferences": {},
  "deployedLinkReferences": {}
}