{
  "_format": "hh-sol-artifact-1",
  "contractName": "FundManager",
  "sourceName": "contracts/FundManager.sol",
  "abi": [
    {
      "inputs": [],
      "stateMutability": "nonpayable",
      "type": "constructor"
    },
    {
      "inputs": [],
      "name": "AmountIsZero",
      "type": "error"
    },
    {
      "inputs": [],
      "name": "ApprovalFailed",
      "type": "error"
    },
    {
      "inputs": [],
      "name": "AuctionOver",
      "type": "error"
    },
    {
      "inputs": [],
      "name": "AvailableBuyer",
      "type": "error"
    },
    {
      "inputs": [],
      "name": "BlackTokenIdNotExist",
      "type": "error"
    },
    {
      "inputs": [],
      "name": "BoxAlreadyInBlacklist",
      "type": "error"
    },
    {
      "inputs": [],
      "name": "BoxNotExists",
      "type": "error"
    },
    {
      "inputs": [],
      "name": "DeadlineIsOver",
      "type": "error"
    },
    {
      "inputs": [],
      "name": "DeadlineNotOver",
      "type": "error"
    },
    {
      "inputs": [],
      "name": "EmptyBoxInfoCID",
      "type": "error"
    },
    {
      "inputs": [],
      "name": "EmptyList",
      "type": "error"
    },
    {
      "inputs": [],
      "name": "EmptyPrice",
      "type": "error"
    },
    {
      "inputs": [],
      "name": "EmptyTokenCID",
      "type": "error"
    },
    {
      "inputs": [],
      "name": "EmptyTokenURI",
      "type": "error"
    },
    {
      "inputs": [],
      "name": "EnforcedPause",
      "type": "error"
    },
    {
      "inputs": [],
      "name": "InBlacklist",
      "type": "error"
    },
    {
      "inputs": [],
      "name": "InvalidBoxId",
      "type": "error"
    },
    {
      "inputs": [],
      "name": "InvalidCaller",
      "type": "error"
    },
    {
      "inputs": [],
      "name": "InvalidContractAddress",
      "type": "error"
    },
    {
      "inputs": [],
      "name": "InvalidContractCaller",
      "type": "error"
    },
    {
      "inputs": [],
      "name": "InvalidDeadline",
      "type": "error"
    },
    {
      "inputs": [],
      "name": "InvalidERC20Interface",
      "type": "error"
    },
    {
      "inputs": [],
      "name": "InvalidImplementation",
      "type": "error"
    },
    {
      "inputs": [],
      "name": "InvalidPeriod",
      "type": "error"
    },
    {
      "inputs": [],
      "name": "InvalidRate",
      "type": "error"
    },
    {
      "inputs": [],
      "name": "InvalidStatus",
      "type": "error"
    },
    {
      "inputs": [],
      "name": "NotAdmin",
      "type": "error"
    },
    {
      "inputs": [],
      "name": "NotAdminOrDAO",
      "type": "error"
    },
    {
      "inputs": [],
      "name": "NotBuyer",
      "type": "error"
    },
    {
      "inputs": [],
      "name": "NotDAO",
      "type": "error"
    },
    {
      "inputs": [],
      "name": "NotInSecrecy",
      "type": "error"
    },
    {
      "inputs": [],
      "name": "NotMinter",
      "type": "error"
    },
    {
      "inputs": [],
      "name": "PublicTimeNotEnd",
      "type": "error"
    },
    {
      "inputs": [],
      "name": "ReentrancyGuardReentrantCall",
      "type": "error"
    },
    {
      "inputs": [
        {
          "internalType": "address",
          "name": "token",
          "type": "address"
        }
      ],
      "name": "SafeERC20FailedOperation",
      "type": "error"
    },
    {
      "inputs": [],
      "name": "TokenAlreadyExists",
      "type": "error"
    },
    {
      "inputs": [],
      "name": "TokenNotExists",
      "type": "error"
    },
    {
      "inputs": [],
      "name": "TokenNotSupported",
      "type": "error"
    },
    {
      "inputs": [],
      "name": "WithdrawError",
      "type": "error"
    },
    {
      "inputs": [],
      "name": "ZeroAddress",
      "type": "error"
    },
    {
      "anonymous": false,
      "inputs": [
        {
          "indexed": false,
          "internalType": "uint256",
          "name": "boxId",
          "type": "uint256"
        },
        {
          "indexed": false,
          "internalType": "uint8",
          "name": "rate",
          "type": "uint8"
        }
      ],
      "name": "BuyerRefundRateAdded",
      "type": "event"
    },
    {
      "anonymous": false,
      "inputs": [
        {
          "indexed": false,
          "internalType": "uint256",
          "name": "boxId",
          "type": "uint256"
        },
        {
          "indexed": false,
          "internalType": "uint8",
          "name": "rate",
          "type": "uint8"
        }
      ],
      "name": "DaoFeeRateAdded",
      "type": "event"
    },
    {
      "anonymous": false,
      "inputs": [
        {
          "indexed": true,
          "internalType": "uint256",
          "name": "userId",
          "type": "uint256"
        },
        {
          "indexed": true,
          "internalType": "address",
          "name": "token",
          "type": "address"
        },
        {
          "indexed": false,
          "internalType": "uint256",
          "name": "amount",
          "type": "uint256"
        }
      ],
      "name": "HelperRewrdsWithdraw",
      "type": "event"
    },
    {
      "anonymous": false,
      "inputs": [
        {
          "indexed": true,
          "internalType": "uint256",
          "name": "boxId",
          "type": "uint256"
        },
        {
          "indexed": true,
          "internalType": "uint256",
          "name": "userId",
          "type": "uint256"
        },
        {
          "indexed": true,
          "internalType": "address",
          "name": "token",
          "type": "address"
        },
        {
          "indexed": false,
          "internalType": "uint256",
          "name": "amount",
          "type": "uint256"
        }
      ],
      "name": "OrderAmountDeposited",
      "type": "event"
    },
    {
      "anonymous": false,
      "inputs": [
        {
          "indexed": false,
          "internalType": "uint256[]",
          "name": "list",
          "type": "uint256[]"
        },
        {
          "indexed": true,
          "internalType": "address",
          "name": "token",
          "type": "address"
        },
        {
          "indexed": true,
          "internalType": "uint256",
          "name": "userId",
          "type": "uint256"
        },
        {
          "indexed": false,
          "internalType": "uint256",
          "name": "amount",
          "type": "uint256"
        }
      ],
      "name": "OrderAmountWithdraw",
      "type": "event"
    },
    {
      "anonymous": false,
      "inputs": [
        {
          "indexed": false,
          "internalType": "bool",
          "name": "isPaused",
          "type": "bool"
        }
      ],
      "name": "PauseToggled",
      "type": "event"
    },
    {
      "anonymous": false,
      "inputs": [
        {
          "indexed": true,
          "internalType": "uint256",
          "name": "boxId",
          "type": "uint256"
        },
        {
          "indexed": true,
          "internalType": "address",
          "name": "token",
          "type": "address"
        },
        {
          "indexed": false,
          "internalType": "uint256",
          "name": "amount",
          "type": "uint256"
        },
        {
          "indexed": false,
          "internalType": "enum FundManager.RewardType",
          "name": "rewardType",
          "type": "uint8"
        }
      ],
      "name": "RewardsAdded",
      "type": "event"
    },
    {
      "anonymous": false,
      "inputs": [
        {
          "indexed": true,
          "internalType": "uint256",
          "name": "userId",
          "type": "uint256"
        },
        {
          "indexed": true,
          "internalType": "address",
          "name": "token",
          "type": "address"
        },
        {
          "indexed": false,
          "internalType": "uint256",
          "name": "amount",
          "type": "uint256"
        }
      ],
      "name": "RewardsWithdraw",
      "type": "event"
    },
    {
      "inputs": [],
      "name": "admin",
      "outputs": [
        {
          "internalType": "address",
          "name": "",
          "type": "address"
        }
      ],
      "stateMutability": "view",
      "type": "function"
    },
    {
      "inputs": [
        {
          "internalType": "uint256",
          "name": "boxId_",
          "type": "uint256"
        }
      ],
      "name": "allocationRewards",
      "outputs": [],
      "stateMutability": "nonpayable",
      "type": "function"
    },
    {
      "inputs": [
        {
          "internalType": "uint256",
          "name": "boxId_",
          "type": "uint256"
        },
        {
          "internalType": "address",
          "name": "sender_",
          "type": "address"
        },
        {
          "internalType": "uint256",
          "name": "amount_",
          "type": "uint256"
        }
      ],
      "name": "depositConfidentialityFee",
      "outputs": [],
      "stateMutability": "nonpayable",
      "type": "function"
    },
    {
      "inputs": [
        {
          "internalType": "uint256",
          "name": "boxId_",
          "type": "uint256"
        },
        {
          "internalType": "address",
          "name": "buyer_",
          "type": "address"
        },
        {
          "internalType": "uint256",
          "name": "amount_",
          "type": "uint256"
        }
      ],
      "name": "depositOrderAmount",
      "outputs": [],
      "stateMutability": "nonpayable",
      "type": "function"
    },
    {
      "inputs": [
        {
          "internalType": "address",
          "name": "token_",
          "type": "address"
        },
        {
          "internalType": "bytes",
          "name": "siweToken_",
          "type": "bytes"
        }
      ],
      "name": "helperRewardAmounts",
      "outputs": [
        {
          "internalType": "uint256",
          "name": "",
          "type": "uint256"
        }
      ],
      "stateMutability": "view",
      "type": "function"
    },
    {
      "inputs": [],
      "name": "helperRewardRate",
      "outputs": [
        {
          "internalType": "uint8",
          "name": "",
          "type": "uint8"
        }
      ],
      "stateMutability": "view",
      "type": "function"
    },
    {
      "inputs": [],
      "name": "implementation",
      "outputs": [
        {
          "internalType": "address",
          "name": "",
          "type": "address"
        }
      ],
      "stateMutability": "view",
      "type": "function"
    },
    {
      "inputs": [
        {
          "internalType": "address",
          "name": "token_",
          "type": "address"
        },
        {
          "internalType": "bytes",
          "name": "siweToken_",
          "type": "bytes"
        }
      ],
      "name": "minterRewardAmounts",
      "outputs": [
        {
          "internalType": "uint256",
          "name": "",
          "type": "uint256"
        }
      ],
      "stateMutability": "view",
      "type": "function"
    },
    {
      "inputs": [
        {
          "internalType": "uint256",
          "name": "boxId_",
          "type": "uint256"
        },
        {
          "internalType": "address",
          "name": "user_",
          "type": "address"
        }
      ],
      "name": "orderAmounts",
      "outputs": [
        {
          "internalType": "uint256",
          "name": "",
          "type": "uint256"
        }
      ],
      "stateMutability": "view",
      "type": "function"
    },
    {
      "inputs": [
        {
          "internalType": "uint256",
          "name": "boxId_",
          "type": "uint256"
        },
        {
          "internalType": "bytes",
          "name": "siweToken_",
          "type": "bytes"
        }
      ],
      "name": "orderAmounts",
      "outputs": [
        {
          "internalType": "uint256",
          "name": "",
          "type": "uint256"
        }
      ],
      "stateMutability": "view",
      "type": "function"
    },
    {
      "inputs": [],
      "name": "paused",
      "outputs": [
        {
          "internalType": "bool",
          "name": "",
          "type": "bool"
        }
      ],
      "stateMutability": "view",
      "type": "function"
    },
    {
      "inputs": [],
      "name": "serviceFeeRate",
      "outputs": [
        {
          "internalType": "uint8",
          "name": "",
          "type": "uint8"
        }
      ],
      "stateMutability": "view",
      "type": "function"
    },
    {
      "inputs": [],
      "name": "setAddress",
      "outputs": [],
      "stateMutability": "nonpayable",
      "type": "function"
    },
    {
      "inputs": [
        {
          "internalType": "address",
          "name": "addrManager_",
          "type": "address"
        }
      ],
      "name": "setAddressManager",
      "outputs": [],
      "stateMutability": "nonpayable",
      "type": "function"
    },
    {
      "inputs": [
        {
          "internalType": "address",
          "name": "newAdmin_",
          "type": "address"
        }
      ],
      "name": "setAdmin",
      "outputs": [],
      "stateMutability": "nonpayable",
      "type": "function"
    },
    {
      "inputs": [
        {
          "internalType": "uint8",
          "name": "Rate_",
          "type": "uint8"
        }
      ],
      "name": "setHelperRewardRate",
      "outputs": [],
      "stateMutability": "nonpayable",
      "type": "function"
    },
    {
      "inputs": [
        {
          "internalType": "uint8",
          "name": "Rate_",
          "type": "uint8"
        }
      ],
      "name": "setServiceFeeRate",
      "outputs": [],
      "stateMutability": "nonpayable",
      "type": "function"
    },
    {
      "inputs": [],
      "name": "togglePause",
      "outputs": [
        {
          "internalType": "bool",
          "name": "",
          "type": "bool"
        }
      ],
      "stateMutability": "nonpayable",
      "type": "function"
    },
    {
      "inputs": [
        {
          "internalType": "address",
          "name": "token_",
          "type": "address"
        }
      ],
      "name": "totalRewardAmounts",
      "outputs": [
        {
          "internalType": "uint256",
          "name": "",
          "type": "uint256"
        }
      ],
      "stateMutability": "view",
      "type": "function"
    },
    {
      "inputs": [
        {
          "internalType": "address",
          "name": "newImplementation_",
          "type": "address"
        }
      ],
      "name": "upgrade",
      "outputs": [],
      "stateMutability": "nonpayable",
      "type": "function"
    },
    {
      "inputs": [
        {
          "internalType": "address",
          "name": "token_",
          "type": "address"
        }
      ],
      "name": "withdrawHelperRewards",
      "outputs": [],
      "stateMutability": "nonpayable",
      "type": "function"
    },
    {
      "inputs": [
        {
          "internalType": "address",
          "name": "token_",
          "type": "address"
        }
      ],
      "name": "withdrawMinterRewards",
      "outputs": [],
      "stateMutability": "nonpayable",
      "type": "function"
    },
    {
      "inputs": [
        {
          "internalType": "address",
          "name": "token_",
          "type": "address"
        },
        {
          "internalType": "uint256[]",
          "name": "list_",
          "type": "uint256[]"
        }
      ],
      "name": "withdrawOrderAmounts",
      "outputs": [],
      "stateMutability": "nonpayable",
      "type": "function"
    },
    {
      "inputs": [
        {
          "internalType": "address",
          "name": "token_",
          "type": "address"
        },
        {
          "internalType": "uint256[]",
          "name": "list_",
          "type": "uint256[]"
        }
      ],
      "name": "withdrawRefundAmounts",
      "outputs": [],
      "stateMutability": "nonpayable",
      "type": "function"
    }
  ],
  "bytecode": "0x6080806040523461004b577fb53127684a568b3173ae13b9f8a6016e243e63b6e8ee1178d6a717850b5d610380546001600160a01b03191633179055600180556122e790816100518239f35b600080fdfe608080604052600436101561001357600080fd5b600090813560e01c9081630652b57a14611e67575080630900f01014611ddc57806324cfb47014611b825780633e3d411914611a54578063580d67a514611a015780635c60da1b146119b95780635c975abb146119935780635cc8fd431461186157806361d1bc941461183e578063681d24e8146117fa5780636878a7e114611792578063704b6c0214611729578063821c330c14610d525780638320ac6714610d2f5780638e68666414610cf65780639040f44814610b0b578063a7c50b9914610993578063bb0a217f146108f5578063befac89b1461082f578063c4ae316814610798578063cb45556814610434578063e6569275146101ab578063f0ec20c6146101615763f851a4401461012957600080fd5b3461015e578060031936011261015e57600080516020612292833981519152546040516001600160a01b039091168152602090f35b80fd5b503461015e5761018a604061017536611fab565b90936001600160a01b03939091849190612150565b16815260096020522091166000526020526020604060002054604051908152f35b503461015e578060031936011261015e5780546001600160a01b039081163381141580610419575b61040757604051636f9f44c560e01b815260208082600481865afa9182156103fc5785926103dd575b5060405163697b932d60e11b81528181600481875afa9081156103d25786916103b5575b50604051635897591960e01b8152908282600481885afa91821561038b5760049584918994610396575b506040516350ec99a760e01b815296879182905afa93841561038b57869586948996610356575b5050908380921680151580610348575b61032f575b501680151580610321575b610308575b5016801515806102fa575b6102e1575b50169081151590816102d2575b506102bc575080f35b6001600160601b0360a01b600354161760035580f35b905060035416811415386102b3565b6001600160601b0360a01b6002541617600255386102a6565b5082600254168114156102a1565b6001600160601b0360a01b600454161760045538610296565b508260045416811415610291565b6001600160601b0360a01b600554161760055538610286565b508260055416811415610281565b859392965083918161037c92903d10610384575b6103748183611f32565b810190612066565b959192610271565b503d61036a565b6040513d89823e3d90fd5b6103ae919450823d8411610384576103748183611f32565b923861024a565b6103cc9150823d8411610384576103748183611f32565b38610220565b6040513d88823e3d90fd5b816103f59293503d8411610384576103748183611f32565b90386101fc565b6040513d87823e3d90fd5b6040516348f5c3ed60e01b8152600490fd5b508160008051602061229283398151915254163314156101d3565b503461015e5761044336611fee565b9061044f93929361212d565b60ff60055460a01c166107865781156107745760045483929083906001600160a01b03165b82821061056d575093948594506001600160a01b0316926104968133866120db565b600254604051632b956ff760e01b81523360048201529560209187916024918391906001600160a01b03165af19485156103d2578695610534575b5060408051818152908101839052916001600160fb1b038111610530577f6a1fefe27af5bbbb897c34bdb9217ace70b0a90d881783808a7273eeb880889d93606092849260051b80928585013760208301528101030190a36001805580f35b8680fd5b9094506020813d602011610565575b8161055060209383611f32565b81010312610560575193386104d1565b600080fd5b3d9150610543565b90938460051b840135865260076020526040862033600052602052604060002054604051630da0ade560e41b81528660051b8601356004820152602081602481875afa9081156106bc578891610755575b508115610743576001600160a01b031633148015906106db575b61068b57823b156105305760405163a3b979c360e01b81528660051b8601356004820152876024820152878160448183885af180156106bc579088916106c7575b505060405163253d140b60e11b8152600587901b8601356004820152602081602481875afa9081156106bc57889161069d575b506001600160a01b0389811691160361068b5760019101948060051b850135875260076020526040872033600052602052866040600020550190610474565b60405163351dc55d60e21b8152600490fd5b6106b6915060203d602011610384576103748183611f32565b3861064c565b6040513d8a823e3d90fd5b6106d090611f08565b610530578638610619565b506040516359f290cf60e11b8152600587901b8601356004820152602081602481875afa9081156106bc578891610714575b50156105d8565b610736915060203d60201161073c575b61072e8183611f32565b81019061204e565b3861070d565b503d610724565b6040516310eb483f60e21b8152600490fd5b61076e915060203d602011610384576103748183611f32565b386105be565b6040516301857f4f60e61b8152600490fd5b60405163d93c066560e01b8152600490fd5b503461015e578060031936011261015e57600080516020612292833981519152546001600160a01b0316330361081d57602060055460ff8160a01c16159060ff60a01b8260a01b169060ff60a01b1916176005557f9077d36bc00859b5c3f320310707208543dd35092cb0a0fe117d0c6a558b148b82604051838152a1604051908152f35b604051637bfa4b9f60e01b8152600490fd5b503461015e57602036600319011261015e5760043560ff8116908181036108f1578254604051634162169f60e01b81529092906001600160a01b03906020816004818589165afa9081156103d25786916108d2575b501633036108c057601e106108ae5760ff60a81b1990911660a89190911b60ff60a81b1617815580f35b604051636a43f8d160e01b8152600490fd5b6040516327568d2f60e11b8152600490fd5b6108eb915060203d602011610384576103748183611f32565b38610884565b8280fd5b503461015e57602036600319011261015e5760043560ff8116908181036108f1578254604051634162169f60e01b81529092906001600160a01b03906020816004818589165afa9081156103d2578691610974575b501633036108c0576032106108ae5760ff60a01b1990911660a09190911b60ff60a01b1617815580f35b61098d915060203d602011610384576103748183611f32565b3861094a565b503461015e576109a236611fee565b9291906109ad61212d565b60ff60055460a01c166107865783156107745760045483929083906001600160a01b03165b8682106109f6575093948594506001600160a01b03909116926104968133866120db565b90938460051b840135865260076020526040862033600052602052604060002054604051630da0ade560e41b81528660051b8601356004820152602081602481875afa9081156106bc578891610aec575b508115610743576001600160a01b031633146104075760405163253d140b60e11b8152600587901b8601356004820152602081602481875afa9081156106bc578891610acd575b506001600160a01b0385811691160361068b5760019101948060051b8501358752600760205260408720336000526020528660406000205501906109d2565b610ae6915060203d602011610384576103748183611f32565b38610a8e565b610b05915060203d602011610384576103748183611f32565b38610a47565b503461015e57610b1a36611ede565b835460405163103864a360e11b81523360048201526001600160a01b0394926020929091908390829060249082908a165afa90811561038b578791610cd9575b501561040757602486948387600454166040519384809263253d140b60e11b82528960048301525afa80156103d2578760249186948991610cbc575b50604080516323b872dd60e01b878201526001600160a01b038616858201908152306020820152918201889052929091169991610bea91610be490829060600103601f198101835282611f32565b8a612215565b8688526007845280604089209316928360005284526040600020610c0f8682546120ce565b905560025416916040519788938492632b956ff760e01b845260048401525af19384156103d2578694610c6b575b50907f17328533798d37e4e31403c44019425dfab335266308f7f48524b67eb18f0a2d91604051908152a480f35b918091945082813d8311610cb5575b610c848183611f32565b81010312610560579051927f17328533798d37e4e31403c44019425dfab335266308f7f48524b67eb18f0a2d610c3d565b503d610c7a565b610cd39150853d8711610384576103748183611f32565b38610b96565b610cf09150833d851161073c5761072e8183611f32565b38610b5a565b503461015e57602036600319011261015e576020906040906001600160a01b03610d1e611ec8565b168152600683522054604051908152f35b503461015e578060031936011261015e5760ff6020915460a81c16604051908152f35b503461015e57602036600319011261015e57805460405163103864a360e11b815233600482015290602090829060249082906001600160a01b03165afa9081156116ff57829161170a575b50156104075760048054604051630da0ade560e41b81528235928101929092529091906001600160a01b0316602083602481845afa80156116ff5760249383916116e0575b50600554604051634f4a156760e11b815260048035908201529460209186919082906001600160a01b03165afa9182156116b35760249484936116be575b506020906040519586809263253d140b60e11b825260043560048301525afa9384156116b3578394611692575b5060043583526007602052604083209060018060a01b031690818452602052604083205490811561074357600435845260076020526040842090845260205282604081205560018060a01b03600454169360405194637520fce760e01b86526004356004870152602086602481845afa9586156103fc57859661166d575b5060206024916040519283809263e05c5a8360e01b825260043560048301525afa9081156103fc579560049160ff97879161164e575b50869081906001600160a01b038416611640575b6001600160a01b038116611632575b610f3e83610f39848c549d8e60a01c16612201565b612201565b60405163682bae5160e01b8152959093906020908790816001600160a01b038f165afa958615611627578a96611606575b506001600160a01b03878116908716146115d857604051638ea8303160e01b81529a60208c6004816001600160a01b0385165afa9b8c156114c9578b9c6115b3575b5060405163c6bbd5a760e01b815290602090829060049082906001600160a01b03165afa9081156114c9578b91611594575b50604051636eb1769f60e11b81523060048201526001600160a01b038d81166024830152602090829060449082908d165afa908115611424578c8a928c92829161155a575b5082116114d4575b60405163f7729d4360e01b81526001600160a01b0393841660048201528a84166024820152610bb860448201526064810192909252608482018190529092602092849260a4928492165af19081156114c9578b91611493575b506103e861109a60ff871683612085565b049b61012c4201421161147f57604051908161010081011067ffffffffffffffff6101008401111761146b57818d918f9998979695949361010001604052600160a01b600190038c1682526020820191600160a01b600190038c1683528d604082019b610bb88d526060830130815260808401904261012c01825260a0850192835260c085019384528760e08601526040519e8f97631b67c43360e31b8952600160a01b6001900387511660048a0152600160a01b6001900390511660248901525162ffffff166044880152600160a01b6001900390511660648701525160848601525160a48501525160c4840152600160a01b600190039060e001511660e4830152600160a01b6001900316815a9361010492602095f1968715611424578c97611433575b506005546001600160a01b031690813b1561142f578c9160448392604051948593849263f7d9757760e01b8452600435600485015260248401525af18015611424576113fd575b506112349060ff8061122960049b9c9d9e9f99965b82808a1691168b026120ae565b9616911687026120ae565b93846113a6575b508261134f575b506001600160a01b039889168a52600860209081526040808c209a891660008181529b8352818c208054948c03948501905581519384529183019a909a526000805160206122728339815191529990918735918b91a38854604051632f129fe360e11b81529560209187919082906001600160a01b03165afa928315611344576112df958a94611323575b500303916001600160a01b03166120db565b6001600160a01b038116845260066020526040842080546113019084906120ce565b90556040519182526003602083015260018060a01b031691604060043592a380f35b61133d91945060203d602011610384576103748183611f32565b92386112cd565b6040513d8b823e3d90fd5b6001600160a01b039081168b52600960209081526040808d2092881660008181529383529281902080548601905580518581526001928101929092528835916000805160206122728339815191529190a338611242565b6001600160a01b039081168c52600960209081526040808e2092891660008181529383529281902080548801905580518781526002928101929092528935916000805160206122728339815191529190a33861123b565b9060ff8061122960049b9c9d9e61141661123496611f08565b9e9d9c9b5050505090611207565b6040513d8e823e3d90fd5b8c80fd5b9096506020813d602011611463575b8161144f60209383611f32565b8101031261145f575195386111c0565b8b80fd5b3d9150611442565b634e487b7160e01b8d52604160045260248dfd5b634e487b7160e01b8c52601160045260248cfd5b90506020813d6020116114c1575b816114ae60209383611f32565b810103126114bd575138611089565b8a80fd5b3d91506114a1565b6040513d8d823e3d90fd5b91505060208d60446040518094819363095ea7b360e01b835260018060a01b0316600483015260001960248301528d60018060a01b03165af1908115611424578c9161153b575b50156115295787898c611030565b6040516340b27c2160e11b8152600490fd5b611554915060203d60201161073c5761072e8183611f32565b3861151b565b93505050506020813d60201161158c575b8161157860209383611f32565b8101031261145f57898c818b935190611028565b3d915061156b565b6115ad915060203d602011610384576103748183611f32565b38610fe3565b6004919c506115d0602091823d8411610384576103748183611f32565b9c9150610fb1565b906004969798999a506112346103e86115f760ff87969897168c612085565b049260ff80611229869961121c565b61162091965060203d602011610384576103748183611f32565b9438610f6f565b6040513d8c823e3d90fd5b885460a81c8a169150610f24565b885460a81c8a169250610f15565b611667915060203d602011610384576103748183611f32565b38610f01565b602491965061168a602091823d8411610384576103748183611f32565b969150610ecb565b6116ac91945060203d602011610384576103748183611f32565b9238610e4d565b6040513d85823e3d90fd5b60209193506116d990823d8411610384576103748183611f32565b9290610e20565b6116f9915060203d602011610384576103748183611f32565b38610de2565b6040513d84823e3d90fd5b611723915060203d60201161073c5761072e8183611f32565b38610d9d565b503461015e57602036600319011261015e57611743611ec8565b600080516020612292833981519152805490916001600160a01b0390818316330361081d5716908115611780576001600160a01b03191617905580f35b60405163d92e233d60e01b8152600490fd5b503461015e57604036600319011261015e5760243567ffffffffffffffff81116117f6576020916117d16117cc6040933690600401611f54565b612150565b6004358252600784528282206001600160a01b03909116825283522054604051908152f35b5080fd5b503461015e57604060209161182461181136611fab565b90916001600160a01b0391829190612150565b168352600885528383209116825283522054604051908152f35b503461015e578060031936011261015e5760ff6020915460a01c16604051908152f35b503461015e576020806003193601126117f65761187c611ec8565b9061188561212d565b60ff60055460a01c16610786573383526009815260408084206001600160a01b039384168086529083529084205490929091821561074357808592338452600982526040842086855282528360408120556118e18533886120db565b60025416602460405180958193632b956ff760e01b83523360048401525af19182156103fc578592611940575b507f992febf3b7928274a6433bffe6d1716048d58e8ffface649a3bb4db85d056bc29192604051908152a36001805580f35b91508082813d831161198c575b6119578183611f32565b81010312611988577f992febf3b7928274a6433bffe6d1716048d58e8ffface649a3bb4db85d056bc291519161190e565b8480fd5b503d61194d565b503461015e578060031936011261015e57602060ff60055460a01c166040519015158152f35b503461015e578060031936011261015e577f360894a13ba1a3210667c828492db98dca3e2076cc3735a920a3ca505d382bbc546040516001600160a01b039091168152602090f35b503461015e57604036600319011261015e576024356001600160a01b03818116918290036108f1576004541633036104075760209160409160043582526007845282822090825283522054604051908152f35b503461015e576020806003193601126117f657611a6f611ec8565b90611a7861212d565b60ff60055460a01c16610786573383526008815260408084206001600160a01b03938416808652908352908420549092909182156107435780859233845260088252604084208685528252836040812055611ad48533886120db565b60025416602460405180958193632b956ff760e01b83523360048401525af19182156103fc578592611b33575b507f044bfe12d4e313c85c2a881e6e1ba4620b49b215e6abd20a720c190c51c20ad69192604051908152a36001805580f35b91508082813d8311611b7b575b611b4a8183611f32565b81010312611988577f044bfe12d4e313c85c2a881e6e1ba4620b49b215e6abd20a720c190c51c20ad6915191611b01565b503d611b40565b503461015e57611b9136611ede565b835460405163103864a360e11b81523360048201529293926001600160a01b03918216916020918281602481875afa9081156106bc578891611dbf575b501561040757816004936040519485809263682bae5160e01b82525afa92831561038b578482611c3b9585938b91611da2575b506040516323b872dd60e01b81526001600160a01b03909a1660048b01523060248b015260448a0192909252169693849081906064820190565b03818a8a5af192831561038b57602493611d85575b5081816005541660405194858092634f4a156760e11b82528960048301525afa92831561038b578793611d66575b506103e8611c9360ff895460a01c1686612085565b049081850393858511611d525791838260049695938b958b875260068452604087208a815401905516855260088252604085208a865282526040852086815401905584541660405196878092632f129fe360e11b82525afa80156116b357604096611d0b8a938a938a998891611d35575b50856120db565b8651908152600384820152600080516020612272833981519152978891a38351928352820152a380f35b611d4c9150873d8911610384576103748183611f32565b38611d04565b634e487b7160e01b89526011600452602489fd5b611d7e919350823d8411610384576103748183611f32565b9138611c7e565b611d9b90833d851161073c5761072e8183611f32565b5038611c50565b611db99150843d8611610384576103748183611f32565b38611c01565b611dd69150833d851161073c5761072e8183611f32565b38611bce565b503461015e57602036600319011261015e57611df6611ec8565b600080516020612292833981519152546001600160a01b03908116330361081d57813b15611e55577f360894a13ba1a3210667c828492db98dca3e2076cc3735a920a3ca505d382bbc91166001600160601b0360a01b82541617905580f35b60405163340aafcd60e11b8152600490fd5b9050346117f65760203660031901126117f657611e82611ec8565b600080516020612292833981519152546001600160a01b03929083163303611eb9575082546001600160a01b031916911617815580f35b637bfa4b9f60e01b8152600490fd5b600435906001600160a01b038216820361056057565b606090600319011261056057600435906024356001600160a01b0381168103610560579060443590565b67ffffffffffffffff8111611f1c57604052565b634e487b7160e01b600052604160045260246000fd5b90601f8019910116810190811067ffffffffffffffff821117611f1c57604052565b81601f820112156105605780359067ffffffffffffffff8211611f1c5760405192611f89601f8401601f191660200185611f32565b8284526020838301011161056057816000926020809301838601378301015290565b906040600319830112610560576004356001600160a01b038116810361056057916024359067ffffffffffffffff821161056057611feb91600401611f54565b90565b6040600319820112610560576004356001600160a01b0381168103610560579160243567ffffffffffffffff9283821161056057806023830112156105605781600401359384116105605760248460051b83010111610560576024019190565b90816020910312610560575180151581036105605790565b9081602091031261056057516001600160a01b03811681036105605790565b8181029291811591840414171561209857565b634e487b7160e01b600052601160045260246000fd5b81156120b8570490565b634e487b7160e01b600052601260045260246000fd5b9190820180921161209857565b60405163a9059cbb60e01b60208201526001600160a01b039092166024830152604480830193909352918152608081019167ffffffffffffffff831182841017611f1c5761212b92604052612215565b565b60026001541461213e576002600155565b604051633ee5aeb560e01b8152600490fd5b3390331561215c575090565b905060018060a01b036003541690604051906319510d6760e01b825281602093849283600484015280519081602485015260005b8281106121e957505060448382600083839584010152601f801991011681010301915afa9182156121dd576000926121c757505090565b611feb9250803d10610384576103748183611f32565b6040513d6000823e3d90fd5b81810186015187820160440152879587955001612190565b9060ff8091169116019060ff821161209857565b906000602091828151910182855af1156121dd576000513d61226857506001600160a01b0381163b155b6122465750565b604051635274afe760e01b81526001600160a01b039091166004820152602490fd5b6001141561223f56fec0a930f0dcdcefbac45f2284fe5910ae05dff73753ccfb2478ebaaeaa548e55bb53127684a568b3173ae13b9f8a6016e243e63b6e8ee1178d6a717850b5d6103a264697066735822122095049ee58cb891a45dbf27e1b2faa784ceac1057b6ddf471cc8ec6cf760244ba64736f6c63430008180033",
  "linkReferences": {},
  "deployedLinkReferences": {}
}