{
  "_format": "hh-sol-artifact-1",
  "contractName": "MockERC20",
  "sourceName": "contracts/token/MockERC20.sol",
  "abi": [
    {
      "inputs": [
        {
          "internalType": "string",
          "name": "name_",
          "type": "string"
        },
        {
          "internalType": "string",
          "name": "symbol_",
          "type": "string"
        }
      ],
      "stateMutability": "nonpayable",
      "type": "constructor"
    },
    {
      "inputs": [
        {
          "internalType": "address",
          "name": "spender",
          "type": "address"
        },
        {
          "internalType": "uint256",
          "name": "allowance",
          "type": "uint256"
        },
        {
          "internalType": "uint256",
          "name": "needed",
          "type": "uint256"
        }
      ],
      "name": "ERC20InsufficientAllowance",
      "type": "error"
    },
    {
      "inputs": [
        {
          "internalType": "address",
          "name": "sender",
          "type": "address"
        },
        {
          "internalType": "uint256",
          "name": "balance",
          "type": "uint256"
        },
        {
          "internalType": "uint256",
          "name": "needed",
          "type": "uint256"
        }
      ],
      "name": "ERC20InsufficientBalance",
      "type": "error"
    },
    {
      "inputs": [
        {
          "internalType": "address",
          "name": "approver",
          "type": "address"
        }
      ],
      "name": "ERC20InvalidApprover",
      "type": "error"
    },
    {
      "inputs": [
        {
          "internalType": "address",
          "name": "receiver",
          "type": "address"
        }
      ],
      "name": "ERC20InvalidReceiver",
      "type": "error"
    },
    {
      "inputs": [
        {
          "internalType": "address",
          "name": "sender",
          "type": "address"
        }
      ],
      "name": "ERC20InvalidSender",
      "type": "error"
    },
    {
      "inputs": [
        {
          "internalType": "address",
          "name": "spender",
          "type": "address"
        }
      ],
      "name": "ERC20InvalidSpender",
      "type": "error"
    },
    {
      "inputs": [],
      "name": "MintPeriodNotOver",
      "type": "error"
    },
    {
      "inputs": [],
      "name": "NotAdmin",
      "type": "error"
    },
    {
      "anonymous": false,
      "inputs": [
        {
          "indexed": true,
          "internalType": "address",
          "name": "owner",
          "type": "address"
        },
        {
          "indexed": true,
          "internalType": "address",
          "name": "spender",
          "type": "address"
        },
        {
          "indexed": false,
          "internalType": "uint256",
          "name": "value",
          "type": "uint256"
        }
      ],
      "name": "Approval",
      "type": "event"
    },
    {
      "anonymous": false,
      "inputs": [
        {
          "indexed": true,
          "internalType": "address",
          "name": "from",
          "type": "address"
        },
        {
          "indexed": true,
          "internalType": "address",
          "name": "to",
          "type": "address"
        },
        {
          "indexed": false,
          "internalType": "uint256",
          "name": "value",
          "type": "uint256"
        }
      ],
      "name": "Transfer",
      "type": "event"
    },
    {
      "inputs": [
        {
          "internalType": "address",
          "name": "owner",
          "type": "address"
        },
        {
          "internalType": "address",
          "name": "spender",
          "type": "address"
        }
      ],
      "name": "allowance",
      "outputs": [
        {
          "internalType": "uint256",
          "name": "",
          "type": "uint256"
        }
      ],
      "stateMutability": "view",
      "type": "function"
    },
    {
      "inputs": [
        {
          "internalType": "address",
          "name": "spender",
          "type": "address"
        },
        {
          "internalType": "uint256",
          "name": "value",
          "type": "uint256"
        }
      ],
      "name": "approve",
      "outputs": [
        {
          "internalType": "bool",
          "name": "",
          "type": "bool"
        }
      ],
      "stateMutability": "nonpayable",
      "type": "function"
    },
    {
      "inputs": [
        {
          "internalType": "address",
          "name": "account",
          "type": "address"
        }
      ],
      "name": "balanceOf",
      "outputs": [
        {
          "internalType": "uint256",
          "name": "",
          "type": "uint256"
        }
      ],
      "stateMutability": "view",
      "type": "function"
    },
    {
      "inputs": [
        {
          "internalType": "uint256",
          "name": "amount_",
          "type": "uint256"
        }
      ],
      "name": "burn",
      "outputs": [],
      "stateMutability": "nonpayable",
      "type": "function"
    },
    {
      "inputs": [],
      "name": "decimals",
      "outputs": [
        {
          "internalType": "uint8",
          "name": "",
          "type": "uint8"
        }
      ],
      "stateMutability": "view",
      "type": "function"
    },
    {
      "inputs": [
        {
          "internalType": "address",
          "name": "to_",
          "type": "address"
        }
      ],
      "name": "mint",
      "outputs": [],
      "stateMutability": "nonpayable",
      "type": "function"
    },
    {
      "inputs": [],
      "name": "mintAdmin",
      "outputs": [],
      "stateMutability": "nonpayable",
      "type": "function"
    },
    {
      "inputs": [],
      "name": "mintAmount",
      "outputs": [
        {
          "internalType": "uint256",
          "name": "",
          "type": "uint256"
        }
      ],
      "stateMutability": "view",
      "type": "function"
    },
    {
      "inputs": [
        {
          "internalType": "address",
          "name": "",
          "type": "address"
        }
      ],
      "name": "mintDate",
      "outputs": [
        {
          "internalType": "uint256",
          "name": "date",
          "type": "uint256"
        }
      ],
      "stateMutability": "view",
      "type": "function"
    },
    {
      "inputs": [],
      "name": "mintPeriod",
      "outputs": [
        {
          "internalType": "uint256",
          "name": "",
          "type": "uint256"
        }
      ],
      "stateMutability": "view",
      "type": "function"
    },
    {
      "inputs": [],
      "name": "name",
      "outputs": [
        {
          "internalType": "string",
          "name": "",
          "type": "string"
        }
      ],
      "stateMutability": "view",
      "type": "function"
    },
    {
      "inputs": [
        {
          "internalType": "uint256",
          "name": "amount_",
          "type": "uint256"
        }
      ],
      "name": "setMintAmount",
      "outputs": [],
      "stateMutability": "nonpayable",
      "type": "function"
    },
    {
      "inputs": [
        {
          "internalType": "uint256",
          "name": "period_",
          "type": "uint256"
        }
      ],
      "name": "setMintPeriod",
      "outputs": [],
      "stateMutability": "nonpayable",
      "type": "function"
    },
    {
      "inputs": [],
      "name": "symbol",
      "outputs": [
        {
          "internalType": "string",
          "name": "",
          "type": "string"
        }
      ],
      "stateMutability": "view",
      "type": "function"
    },
    {
      "inputs": [],
      "name": "totalSupply",
      "outputs": [
        {
          "internalType": "uint256",
          "name": "",
          "type": "uint256"
        }
      ],
      "stateMutability": "view",
      "type": "function"
    },
    {
      "inputs": [
        {
          "internalType": "address",
          "name": "to",
          "type": "address"
        },
        {
          "internalType": "uint256",
          "name": "value",
          "type": "uint256"
        }
      ],
      "name": "transfer",
      "outputs": [
        {
          "internalType": "bool",
          "name": "",
          "type": "bool"
        }
      ],
      "stateMutability": "nonpayable",
      "type": "function"
    },
    {
      "inputs": [
        {
          "internalType": "address",
          "name": "from",
          "type": "address"
        },
        {
          "internalType": "address",
          "name": "to",
          "type": "address"
        },
        {
          "internalType": "uint256",
          "name": "value",
          "type": "uint256"
        }
      ],
      "name": "transferFrom",
      "outputs": [
        {
          "internalType": "bool",
          "name": "",
          "type": "bool"
        }
      ],
      "stateMutability": "nonpayable",
      "type": "function"
    }
  ],
  "bytecode": "0x6080604052346200033c5762000e00803803806200001d8162000341565b9283398101906040818303126200033c5780516001600160401b03908181116200033c57836200004f91840162000367565b91602093848201518381116200033c576200006b920162000367565b82518281116200023c576003918254916001958684811c9416801562000331575b888510146200031b578190601f94858111620002c5575b5088908583116001146200025e5760009262000252575b505060001982861b1c191690861b1783555b80519384116200023c5760049586548681811c9116801562000231575b828210146200021c57838111620001d1575b508092851160011462000163575093839491849260009562000157575b50501b92600019911b1c19161790555b600880546001600160a01b03191633179055620151806006556103e8600755604051610a269081620003da8239f35b01519350388062000118565b92919084601f1981168860005285600020956000905b89838310620001b657505050106200019b575b50505050811b01905562000128565b01519060f884600019921b161c19169055388080806200018c565b85870151895590970196948501948893509081019062000179565b87600052816000208480880160051c82019284891062000212575b0160051c019087905b82811062000205575050620000fb565b60008155018790620001f5565b92508192620001ec565b602288634e487b7160e01b6000525260246000fd5b90607f1690620000e9565b634e487b7160e01b600052604160045260246000fd5b015190503880620000ba565b90889350601f19831691876000528a6000209260005b8c828210620002ae575050841162000295575b505050811b018355620000cc565b015160001983881b60f8161c1916905538808062000287565b8385015186558c9790950194938401930162000274565b90915085600052886000208580850160051c8201928b861062000311575b918a91869594930160051c01915b82811062000301575050620000a3565b600081558594508a9101620002f1565b92508192620002e3565b634e487b7160e01b600052602260045260246000fd5b93607f16936200008c565b600080fd5b6040519190601f01601f191682016001600160401b038111838210176200023c57604052565b919080601f840112156200033c5782516001600160401b0381116200023c576020906200039d601f8201601f1916830162000341565b928184528282870101116200033c5760005b818110620003c557508260009394955001015290565b8581018301518482018401528201620003af56fe608060408181526004918236101561001657600080fd5b600092833560e01c91826306fdde03146107b057508163095ea7b31461070657816318160ddd146106e757816323b872dd146105f0578163313ce567146105d457816342966c68146105315781634c498203146105125781635a2bcc18146104f35781636a627842146103f757816370a08231146103c05781637e01afc31461032257816395d89b41146102015781639d8720e0146101c9578163a631fd491461019b578163a9059cbb1461016a578163c7cd997f1461012b575063dd62ed3e146100e057600080fd5b34610127578060031936011261012757806020926100fc6108d3565b6101046108ee565b6001600160a01b0391821683526001865283832091168252845220549051908152f35b5080fd5b91905034610166576020366003190112610166576008546001600160a01b0316330361015957503560075580f35b51637bfa4b9f60e01b8152fd5b8280fd5b50503461012757806003193601126101275760209061019461018a6108d3565b6024359033610904565b5160018152f35b91905034610166576020366003190112610166576008546001600160a01b0316330361015957503560065580f35b5050346101275760203660031901126101275760209181906001600160a01b036101f16108d3565b1681526005845220549051908152f35b83833461012757816003193601126101275780519082845460018160011c9060018316928315610318575b6020938484108114610305578388529081156102e95750600114610294575b505050829003601f01601f191682019267ffffffffffffffff841183851017610281575082918261027d92528261088a565b0390f35b634e487b7160e01b815260418552602490fd5b8787529192508591837f8a35acfbc15ff81a39ae7d344fd709f28e8600b4aa8c65c6b64bfe7fe36bd19b5b8385106102d5575050505083010185808061024b565b8054888601830152930192849082016102bf565b60ff1916878501525050151560051b840101905085808061024b565b634e487b7160e01b895260228a52602489fd5b91607f169161022c565b919050346101665782600319360112610166576008546001600160a01b031633036101595733156103ab576002546b204fce5e3e250261100000009283820180921161039857506002553383528260205280832082815401905551908152816000805160206109d183398151915260203393a380f35b634e487b7160e01b855260119052602484fd5b91602492519163ec442f0560e01b8352820152fd5b5050346101275760203660031901126101275760209181906001600160a01b036103e86108d3565b16815280845220549051908152f35b905034610166576020366003190112610166576001600160a01b0361041a6108d3565b169081845260056020528284205442034281116104e057600654116104d25760075490670de0b6b3a7640000918281029281840414901517156103985782156104bb57600254908282018092116104a857506000805160206109d18339815191526020849387936002558484528382528684208181540190558651908152a382526005602052429082205580f35b634e487b7160e01b865260119052602485fd5b835163ec442f0560e01b8152908101859052602490fd5b825163f7d901e760e01b8152fd5b634e487b7160e01b855260118252602485fd5b5050346101275781600319360112610127576020906007549051908152f35b5050346101275781600319360112610127576020906006549051908152f35b8383346101275760203660031901126101275782359033156105be5733835282602052808320549382851061059357508183943385528460205203818420558160025403600255519081526000805160206109d183398151915260203392a380f35b905163391434e360e21b81523391810191825260208201859052604082018390529081906060010390fd5b51634b637e8f60e11b8152808401839052602490fd5b5050346101275781600319360112610127576020905160128152f35b905082346106e45760603660031901126106e45761060c6108d3565b6106146108ee565b916044359360018060a01b038316808352600160205286832033845260205286832054916000198310610650575b602088610194898989610904565b8683106106b85781156106a157331561068a5750825260016020908152868320338452815291869020908590039055829061019487610642565b8751634a1406b160e11b8152908101849052602490fd5b875163e602df0560e01b8152908101849052602490fd5b8751637dc7a0d960e11b8152339181019182526020820193909352604081018790528291506060010390fd5b80fd5b5050346101275781600319360112610127576020906002549051908152f35b9050346101665781600319360112610166576107206108d3565b602435903315610799576001600160a01b031691821561078257508083602095338152600187528181208582528752205582519081527f8c5be1e5ebec7d5bd14f71427d1e84f3dd0314c0f7b2291e5b200ac8c7c3b925843392a35160018152f35b8351634a1406b160e11b8152908101859052602490fd5b835163e602df0560e01b8152808401869052602490fd5b849084346101665782600319360112610166578260035460018160011c9060018316928315610880575b6020938484108114610305578388529081156102e9575060011461082a57505050829003601f01601f191682019267ffffffffffffffff841183851017610281575082918261027d92528261088a565b600387529192508591837fc2575a0e9e593c00f959f8c92f12db2869c3395a3b0502d05e2516446f71f85b5b83851061086c575050505083010185808061024b565b805488860183015293019284908201610856565b91607f16916107da565b6020808252825181830181905290939260005b8281106108bf57505060409293506000838284010152601f8019910116010190565b81810186015184820160400152850161089d565b600435906001600160a01b03821682036108e957565b600080fd5b602435906001600160a01b03821682036108e957565b916001600160a01b038084169283156109b7571692831561099e576000908382528160205260408220549083821061096c575091604082826000805160206109d1833981519152958760209652828652038282205586815220818154019055604051908152a3565b60405163391434e360e21b81526001600160a01b03919091166004820152602481019190915260448101839052606490fd5b60405163ec442f0560e01b815260006004820152602490fd5b604051634b637e8f60e11b815260006004820152602490fdfeddf252ad1be2c89b69c2b068fc378daa952ba7f163c4a11628f55a4df523b3efa2646970667358221220ca910ac28409bdc9d36fdf3331ea52b5a6cea3b475a28fe9d47be51351ff365c64736f6c63430008180033",
  "linkReferences": {},
  "deployedLinkReferences": {}
}